{
  "_format": "hh-sol-artifact-1",
  "contractName": "DistributorRole",
  "sourceName": "contracts/access/DistributorRole.sol",
  "abi": [
    {
      "inputs": [],
      "stateMutability": "nonpayable",
      "type": "constructor"
    },
    {
      "anonymous": false,
      "inputs": [
        {
          "indexed": true,
          "internalType": "address",
          "name": "account",
          "type": "address"
        }
      ],
      "name": "DistributorAdded",
      "type": "event"
    },
    {
      "anonymous": false,
      "inputs": [
        {
          "indexed": true,
          "internalType": "address",
          "name": "account",
          "type": "address"
        }
      ],
      "name": "DistributorRemoved",
      "type": "event"
    },
    {
      "anonymous": false,
      "inputs": [
        {
          "indexed": true,
          "internalType": "address",
          "name": "harvester",
          "type": "address"
        },
        {
          "indexed": true,
          "internalType": "address",
          "name": "account",
          "type": "address"
        }
      ],
      "name": "RetailerAddedByDistributor",
      "type": "event"
    },
    {
      "inputs": [
        {
          "internalType": "address",
          "name": "account",
          "type": "address"
        }
      ],
      "name": "addDistributor",
      "outputs": [],
      "stateMutability": "nonpayable",
      "type": "function"
    },
    {
      "inputs": [
        {
          "internalType": "address",
          "name": "account",
          "type": "address"
        }
      ],
      "name": "isDistributor",
      "outputs": [
        {
          "internalType": "bool",
          "name": "",
          "type": "bool"
        }
      ],
      "stateMutability": "view",
      "type": "function"
    },
    {
      "inputs": [
        {
          "internalType": "address",
          "name": "account",
          "type": "address"
        }
      ],
      "name": "removeDistributor",
      "outputs": [],
      "stateMutability": "nonpayable",
      "type": "function"
    }
  ],
  "bytecode": "0x608060405234801561001057600080fd5b5061001a3361001f565b610185565b61003781600061006e60201b6101191790919060201c565b6040516001600160a01b038216907fddbf200aa634dc3fb81cfd68583dd1040d1c751d335e1d86b631bde3e977fea890600090a250565b6001600160a01b0381166100d45760405162461bcd60e51b815260206004820152602260248201527f526f6c65733a206163636f756e7420697320746865207a65726f206164647265604482015261737360f01b60648201526084015b60405180910390fd5b6100de8282610150565b1561012b5760405162461bcd60e51b815260206004820152601f60248201527f526f6c65733a206163636f756e7420616c72656164792068617320726f6c650060448201526064016100cb565b6001600160a01b0316600090815260209190915260409020805460ff19166001179055565b60006001600160a01b03821661016557600080fd5b506001600160a01b03166000908152602091909152604090205460ff1690565b6103d5806101946000396000f3fe608060405234801561001057600080fd5b50600436106100415760003560e01c806357c1f9e2146100465780637250e2241461005b5780638f0c86fa1461006e575b600080fd5b610059610054366004610371565b610095565b005b610059610069366004610371565b6100e9565b61008161007c366004610371565b610107565b604051901515815260200160405180910390f35b61009e33610107565b6100a757600080fd5b6100b26000826101fb565b6040516001600160a01b038216907f126174f6cf49c81cdb4a9214c6b8f037bef55b4ec31e4fc776cea2a1c8a88d5990600090a250565b6100f233610107565b6100fb57600080fd5b610104816102fa565b50565b6000610113818361033c565b92915050565b6001600160a01b03811661017f5760405162461bcd60e51b815260206004820152602260248201527f526f6c65733a206163636f756e7420697320746865207a65726f206164647265604482015261737360f01b60648201526084015b60405180910390fd5b610189828261033c565b156101d65760405162461bcd60e51b815260206004820152601f60248201527f526f6c65733a206163636f756e7420616c72656164792068617320726f6c65006044820152606401610176565b6001600160a01b0316600090815260209190915260409020805460ff19166001179055565b6001600160a01b03811661025c5760405162461bcd60e51b815260206004820152602260248201527f526f6c65733a206163636f756e7420697320746865207a65726f206164647265604482015261737360f01b6064820152608401610176565b610266828261033c565b6102d85760405162461bcd60e51b815260206004820152602160248201527f526f6c65733a206163636f756e7420646f6573206e6f74206861766520726f6c60448201527f65000000000000000000000000000000000000000000000000000000000000006064820152608401610176565b6001600160a01b0316600090815260209190915260409020805460ff19169055565b610305600082610119565b6040516001600160a01b038216907fddbf200aa634dc3fb81cfd68583dd1040d1c751d335e1d86b631bde3e977fea890600090a250565b60006001600160a01b03821661035157600080fd5b506001600160a01b03166000908152602091909152604090205460ff1690565b600060208284031215610382578081fd5b81356001600160a01b0381168114610398578182fd5b939250505056fea264697066735822122035e55d70f1377ad53ba017b4de6ff308ca3ab3cce8ed5b79c044f8e1216a0eb564736f6c63430008040033",
  "linkReferences": {},
  "deployedLinkReferences": {}
}