{
  "_format": "hh-sol-artifact-1",
  "contractName": "durianSupplyChain",
  "sourceName": "contracts/durianSupplyChain/durianSupplyChain.sol",
  "abi": [
    {
      "inputs": [],
      "stateMutability": "payable",
      "type": "constructor"
    },
    {
      "anonymous": false,
      "inputs": [
        {
          "indexed": true,
          "internalType": "address",
          "name": "account",
          "type": "address"
        }
      ],
      "name": "ConsumerAdded",
      "type": "event"
    },
    {
      "anonymous": false,
      "inputs": [
        {
          "indexed": true,
          "internalType": "address",
          "name": "harvester",
          "type": "address"
        },
        {
          "indexed": true,
          "internalType": "address",
          "name": "account",
          "type": "address"
        }
      ],
      "name": "ConsumerAddedByRetailer",
      "type": "event"
    },
    {
      "anonymous": false,
      "inputs": [
        {
          "indexed": true,
          "internalType": "address",
          "name": "account",
          "type": "address"
        }
      ],
      "name": "ConsumerRemoved",
      "type": "event"
    },
    {
      "anonymous": false,
      "inputs": [
        {
          "indexed": true,
          "internalType": "address",
          "name": "account",
          "type": "address"
        }
      ],
      "name": "DistributorAdded",
      "type": "event"
    },
    {
      "anonymous": false,
      "inputs": [
        {
          "indexed": true,
          "internalType": "address",
          "name": "harvester",
          "type": "address"
        },
        {
          "indexed": true,
          "internalType": "address",
          "name": "account",
          "type": "address"
        }
      ],
      "name": "DistributorAddedByHarvester",
      "type": "event"
    },
    {
      "anonymous": false,
      "inputs": [
        {
          "indexed": true,
          "internalType": "address",
          "name": "account",
          "type": "address"
        }
      ],
      "name": "DistributorRemoved",
      "type": "event"
    },
    {
      "anonymous": false,
      "inputs": [
        {
          "indexed": false,
          "internalType": "uint256",
          "name": "durianCode",
          "type": "uint256"
        }
      ],
      "name": "ForSaleByDistributor",
      "type": "event"
    },
    {
      "anonymous": false,
      "inputs": [
        {
          "indexed": false,
          "internalType": "uint256",
          "name": "durianCode",
          "type": "uint256"
        }
      ],
      "name": "ForSaleByHarvester",
      "type": "event"
    },
    {
      "anonymous": false,
      "inputs": [
        {
          "indexed": false,
          "internalType": "uint256",
          "name": "durianCode",
          "type": "uint256"
        }
      ],
      "name": "ForSaleByRetailer",
      "type": "event"
    },
    {
      "anonymous": false,
      "inputs": [
        {
          "indexed": true,
          "internalType": "address",
          "name": "account",
          "type": "address"
        }
      ],
      "name": "HarvesterAdded",
      "type": "event"
    },
    {
      "anonymous": false,
      "inputs": [
        {
          "indexed": true,
          "internalType": "address",
          "name": "account",
          "type": "address"
        }
      ],
      "name": "HarvesterRemoved",
      "type": "event"
    },
    {
      "anonymous": false,
      "inputs": [
        {
          "indexed": true,
          "internalType": "address",
          "name": "previousOwner",
          "type": "address"
        },
        {
          "indexed": true,
          "internalType": "address",
          "name": "newOwner",
          "type": "address"
        }
      ],
      "name": "OwnershipTransferred",
      "type": "event"
    },
    {
      "anonymous": false,
      "inputs": [
        {
          "indexed": false,
          "internalType": "uint256",
          "name": "durianCode",
          "type": "uint256"
        }
      ],
      "name": "ProcessedByDistributor",
      "type": "event"
    },
    {
      "anonymous": false,
      "inputs": [
        {
          "indexed": false,
          "internalType": "uint256",
          "name": "durianCode",
          "type": "uint256"
        }
      ],
      "name": "ProduceByHarvester",
      "type": "event"
    },
    {
      "anonymous": false,
      "inputs": [
        {
          "indexed": false,
          "internalType": "uint256",
          "name": "durianCode",
          "type": "uint256"
        }
      ],
      "name": "PurchasedByConsumer",
      "type": "event"
    },
    {
      "anonymous": false,
      "inputs": [
        {
          "indexed": false,
          "internalType": "uint256",
          "name": "durianCode",
          "type": "uint256"
        }
      ],
      "name": "PurchasedByDistributor",
      "type": "event"
    },
    {
      "anonymous": false,
      "inputs": [
        {
          "indexed": false,
          "internalType": "uint256",
          "name": "durianCode",
          "type": "uint256"
        }
      ],
      "name": "PurchasedByRetailer",
      "type": "event"
    },
    {
      "anonymous": false,
      "inputs": [
        {
          "indexed": false,
          "internalType": "uint256",
          "name": "durianCode",
          "type": "uint256"
        }
      ],
      "name": "RatingByConsumer",
      "type": "event"
    },
    {
      "anonymous": false,
      "inputs": [
        {
          "indexed": false,
          "internalType": "uint256",
          "name": "durianCode",
          "type": "uint256"
        }
      ],
      "name": "ReceivedByDistributor",
      "type": "event"
    },
    {
      "anonymous": false,
      "inputs": [
        {
          "indexed": false,
          "internalType": "uint256",
          "name": "durianCode",
          "type": "uint256"
        }
      ],
      "name": "ReceivedByRetailer",
      "type": "event"
    },
    {
      "anonymous": false,
      "inputs": [
        {
          "indexed": true,
          "internalType": "address",
          "name": "account",
          "type": "address"
        }
      ],
      "name": "RetailerAdded",
      "type": "event"
    },
    {
      "anonymous": false,
      "inputs": [
        {
          "indexed": true,
          "internalType": "address",
          "name": "harvester",
          "type": "address"
        },
        {
          "indexed": true,
          "internalType": "address",
          "name": "account",
          "type": "address"
        }
      ],
      "name": "RetailerAddedByDistributor",
      "type": "event"
    },
    {
      "anonymous": false,
      "inputs": [
        {
          "indexed": true,
          "internalType": "address",
          "name": "account",
          "type": "address"
        }
      ],
      "name": "RetailerRemoved",
      "type": "event"
    },
    {
      "anonymous": false,
      "inputs": [
        {
          "indexed": false,
          "internalType": "uint256",
          "name": "durianCode",
          "type": "uint256"
        }
      ],
      "name": "ShippedByDistributor",
      "type": "event"
    },
    {
      "anonymous": false,
      "inputs": [
        {
          "indexed": false,
          "internalType": "uint256",
          "name": "durianCode",
          "type": "uint256"
        }
      ],
      "name": "ShippedByHarvester",
      "type": "event"
    },
    {
      "inputs": [
        {
          "internalType": "address",
          "name": "account",
          "type": "address"
        }
      ],
      "name": "addConsumer",
      "outputs": [],
      "stateMutability": "nonpayable",
      "type": "function"
    },
    {
      "inputs": [
        {
          "internalType": "address",
          "name": "account",
          "type": "address"
        }
      ],
      "name": "addDistributor",
      "outputs": [],
      "stateMutability": "nonpayable",
      "type": "function"
    },
    {
      "inputs": [
        {
          "internalType": "string",
          "name": "_farmName",
          "type": "string"
        }
      ],
      "name": "addFarm",
      "outputs": [],
      "stateMutability": "nonpayable",
      "type": "function"
    },
    {
      "inputs": [
        {
          "internalType": "address",
          "name": "account",
          "type": "address"
        }
      ],
      "name": "addHarvester",
      "outputs": [],
      "stateMutability": "nonpayable",
      "type": "function"
    },
    {
      "inputs": [
        {
          "internalType": "address",
          "name": "account",
          "type": "address"
        }
      ],
      "name": "addRetailer",
      "outputs": [],
      "stateMutability": "nonpayable",
      "type": "function"
    },
    {
      "inputs": [
        {
          "internalType": "uint256",
          "name": "_farmId",
          "type": "uint256"
        },
        {
          "internalType": "uint256",
          "name": "_treeId",
          "type": "uint256"
        }
      ],
      "name": "addTree",
      "outputs": [],
      "stateMutability": "nonpayable",
      "type": "function"
    },
    {
      "inputs": [
        {
          "internalType": "uint256",
          "name": "",
          "type": "uint256"
        }
      ],
      "name": "durianCodeArray",
      "outputs": [
        {
          "internalType": "uint256",
          "name": "",
          "type": "uint256"
        }
      ],
      "stateMutability": "view",
      "type": "function"
    },
    {
      "inputs": [],
      "name": "farmCount",
      "outputs": [
        {
          "internalType": "uint256",
          "name": "",
          "type": "uint256"
        }
      ],
      "stateMutability": "view",
      "type": "function"
    },
    {
      "inputs": [
        {
          "internalType": "uint256",
          "name": "_durianCode",
          "type": "uint256"
        }
      ],
      "name": "fetchDurianBufferFour",
      "outputs": [
        {
          "internalType": "uint8",
          "name": "taste",
          "type": "uint8"
        },
        {
          "internalType": "uint8",
          "name": "condition",
          "type": "uint8"
        },
        {
          "internalType": "uint8",
          "name": "fragrance",
          "type": "uint8"
        },
        {
          "internalType": "uint8",
          "name": "creaminess",
          "type": "uint8"
        },
        {
          "internalType": "uint8",
          "name": "ripeness",
          "type": "uint8"
        }
      ],
      "stateMutability": "view",
      "type": "function"
    },
    {
      "inputs": [
        {
          "internalType": "uint256",
          "name": "_durianCode",
          "type": "uint256"
        }
      ],
      "name": "fetchDurianBufferOne",
      "outputs": [
        {
          "internalType": "uint256",
          "name": "durianToCode",
          "type": "uint256"
        },
        {
          "internalType": "address",
          "name": "ownerID",
          "type": "address"
        },
        {
          "internalType": "uint256",
          "name": "harvestedDurianPrice",
          "type": "uint256"
        },
        {
          "internalType": "string",
          "name": "durianType",
          "type": "string"
        },
        {
          "internalType": "enum durianSupplyChain.State",
          "name": "durianState",
          "type": "uint8"
        },
        {
          "internalType": "uint256",
          "name": "treeId",
          "type": "uint256"
        },
        {
          "internalType": "string",
          "name": "farmName",
          "type": "string"
        }
      ],
      "stateMutability": "view",
      "type": "function"
    },
    {
      "inputs": [
        {
          "internalType": "uint256",
          "name": "_durianCode",
          "type": "uint256"
        }
      ],
      "name": "fetchDurianBufferThree",
      "outputs": [
        {
          "internalType": "address",
          "name": "consumerID",
          "type": "address"
        },
        {
          "internalType": "uint256",
          "name": "consumerBoughtTime",
          "type": "uint256"
        },
        {
          "internalType": "bool",
          "name": "packaging",
          "type": "bool"
        },
        {
          "internalType": "uint256",
          "name": "piecesFlesh",
          "type": "uint256"
        }
      ],
      "stateMutability": "view",
      "type": "function"
    },
    {
      "inputs": [
        {
          "internalType": "uint256",
          "name": "_durianCode",
          "type": "uint256"
        }
      ],
      "name": "fetchDurianBufferTwo",
      "outputs": [
        {
          "internalType": "address",
          "name": "harvesterID",
          "type": "address"
        },
        {
          "internalType": "uint256",
          "name": "harvestedTime",
          "type": "uint256"
        },
        {
          "internalType": "address",
          "name": "distributorID",
          "type": "address"
        },
        {
          "internalType": "uint256",
          "name": "distributedDurianPrice",
          "type": "uint256"
        },
        {
          "internalType": "uint256",
          "name": "distributedTime",
          "type": "uint256"
        },
        {
          "internalType": "address",
          "name": "retailerID",
          "type": "address"
        },
        {
          "internalType": "uint256",
          "name": "retailedTime",
          "type": "uint256"
        }
      ],
      "stateMutability": "view",
      "type": "function"
    },
    {
      "inputs": [
        {
          "internalType": "uint256",
          "name": "_durianCode",
          "type": "uint256"
        }
      ],
      "name": "fetchDurianHistory",
      "outputs": [
        {
          "internalType": "uint256",
          "name": "blockHarvesterToDistributor",
          "type": "uint256"
        },
        {
          "internalType": "uint256",
          "name": "blockDistributorToRetailer",
          "type": "uint256"
        },
        {
          "internalType": "uint256",
          "name": "blockRetailerToConsumer",
          "type": "uint256"
        }
      ],
      "stateMutability": "view",
      "type": "function"
    },
    {
      "inputs": [],
      "name": "getAllDurianCodes",
      "outputs": [
        {
          "internalType": "uint256[]",
          "name": "",
          "type": "uint256[]"
        }
      ],
      "stateMutability": "view",
      "type": "function"
    },
    {
      "inputs": [
        {
          "internalType": "uint256",
          "name": "_farmId",
          "type": "uint256"
        }
      ],
      "name": "getAllFarmTrees",
      "outputs": [
        {
          "internalType": "string",
          "name": "",
          "type": "string"
        },
        {
          "internalType": "uint256[]",
          "name": "",
          "type": "uint256[]"
        }
      ],
      "stateMutability": "view",
      "type": "function"
    },
    {
      "inputs": [
        {
          "internalType": "uint256",
          "name": "_farmId",
          "type": "uint256"
        }
      ],
      "name": "getFarmTreeCount",
      "outputs": [
        {
          "internalType": "uint256",
          "name": "",
          "type": "uint256"
        }
      ],
      "stateMutability": "view",
      "type": "function"
    },
    {
      "inputs": [],
      "name": "getStockUnit",
      "outputs": [
        {
          "internalType": "uint256",
          "name": "",
          "type": "uint256"
        }
      ],
      "stateMutability": "view",
      "type": "function"
    },
    {
      "inputs": [
        {
          "internalType": "address",
          "name": "account",
          "type": "address"
        }
      ],
      "name": "isConsumer",
      "outputs": [
        {
          "internalType": "bool",
          "name": "",
          "type": "bool"
        }
      ],
      "stateMutability": "view",
      "type": "function"
    },
    {
      "inputs": [
        {
          "internalType": "address",
          "name": "account",
          "type": "address"
        }
      ],
      "name": "isDistributor",
      "outputs": [
        {
          "internalType": "bool",
          "name": "",
          "type": "bool"
        }
      ],
      "stateMutability": "view",
      "type": "function"
    },
    {
      "inputs": [
        {
          "internalType": "address",
          "name": "account",
          "type": "address"
        }
      ],
      "name": "isHarvester",
      "outputs": [
        {
          "internalType": "bool",
          "name": "",
          "type": "bool"
        }
      ],
      "stateMutability": "view",
      "type": "function"
    },
    {
      "inputs": [
        {
          "internalType": "address",
          "name": "_owner",
          "type": "address"
        }
      ],
      "name": "isOwner",
      "outputs": [
        {
          "internalType": "bool",
          "name": "",
          "type": "bool"
        }
      ],
      "stateMutability": "view",
      "type": "function"
    },
    {
      "inputs": [
        {
          "internalType": "address",
          "name": "account",
          "type": "address"
        }
      ],
      "name": "isRetailer",
      "outputs": [
        {
          "internalType": "bool",
          "name": "",
          "type": "bool"
        }
      ],
      "stateMutability": "view",
      "type": "function"
    },
    {
      "inputs": [],
      "name": "kill",
      "outputs": [],
      "stateMutability": "nonpayable",
      "type": "function"
    },
    {
      "inputs": [],
      "name": "owner",
      "outputs": [
        {
          "internalType": "address",
          "name": "",
          "type": "address"
        }
      ],
      "stateMutability": "view",
      "type": "function"
    },
    {
      "inputs": [
        {
          "internalType": "uint256",
          "name": "_durianCode",
          "type": "uint256"
        },
        {
          "internalType": "bool",
          "name": "_packaging",
          "type": "bool"
        },
        {
          "internalType": "uint256",
          "name": "_piecesFlesh",
          "type": "uint256"
        }
      ],
      "name": "processedDurianByDistributor",
      "outputs": [],
      "stateMutability": "nonpayable",
      "type": "function"
    },
    {
      "inputs": [
        {
          "internalType": "uint256",
          "name": "_durianCode",
          "type": "uint256"
        },
        {
          "internalType": "uint256",
          "name": "_harvestedDurianPrice",
          "type": "uint256"
        },
        {
          "internalType": "string",
          "name": "_durianType",
          "type": "string"
        },
        {
          "internalType": "string",
          "name": "_farmName",
          "type": "string"
        },
        {
          "internalType": "uint256",
          "name": "_treeId",
          "type": "uint256"
        }
      ],
      "name": "produceDurianByHarvester",
      "outputs": [],
      "stateMutability": "nonpayable",
      "type": "function"
    },
    {
      "inputs": [
        {
          "internalType": "uint256",
          "name": "_durianCode",
          "type": "uint256"
        }
      ],
      "name": "purchaseDurianByConsumer",
      "outputs": [],
      "stateMutability": "payable",
      "type": "function"
    },
    {
      "inputs": [
        {
          "internalType": "uint256",
          "name": "_durianCode",
          "type": "uint256"
        }
      ],
      "name": "purchaseDurianByDistributor",
      "outputs": [],
      "stateMutability": "payable",
      "type": "function"
    },
    {
      "inputs": [
        {
          "internalType": "uint256",
          "name": "_durianCode",
          "type": "uint256"
        }
      ],
      "name": "purchaseDurianByRetailer",
      "outputs": [],
      "stateMutability": "payable",
      "type": "function"
    },
    {
      "inputs": [
        {
          "internalType": "uint256",
          "name": "_durianCode",
          "type": "uint256"
        },
        {
          "internalType": "uint8",
          "name": "_taste",
          "type": "uint8"
        },
        {
          "internalType": "uint8",
          "name": "_condition",
          "type": "uint8"
        },
        {
          "internalType": "uint8",
          "name": "_fragrance",
          "type": "uint8"
        },
        {
          "internalType": "uint8",
          "name": "_creaminess",
          "type": "uint8"
        },
        {
          "internalType": "uint8",
          "name": "_ripeness",
          "type": "uint8"
        }
      ],
      "name": "rateDurianFromConsumer",
      "outputs": [],
      "stateMutability": "nonpayable",
      "type": "function"
    },
    {
      "inputs": [
        {
          "internalType": "uint256",
          "name": "_durianCode",
          "type": "uint256"
        }
      ],
      "name": "receivedDurianByDistributor",
      "outputs": [],
      "stateMutability": "nonpayable",
      "type": "function"
    },
    {
      "inputs": [
        {
          "internalType": "uint256",
          "name": "_durianCode",
          "type": "uint256"
        }
      ],
      "name": "receivedDurianByRetailer",
      "outputs": [],
      "stateMutability": "nonpayable",
      "type": "function"
    },
    {
      "inputs": [
        {
          "internalType": "address",
          "name": "account",
          "type": "address"
        }
      ],
      "name": "removeDistributor",
      "outputs": [],
      "stateMutability": "nonpayable",
      "type": "function"
    },
    {
      "inputs": [
        {
          "internalType": "address",
          "name": "account",
          "type": "address"
        }
      ],
      "name": "removeHarvester",
      "outputs": [],
      "stateMutability": "nonpayable",
      "type": "function"
    },
    {
      "inputs": [
        {
          "internalType": "address",
          "name": "account",
          "type": "address"
        }
      ],
      "name": "removeRetailer",
      "outputs": [],
      "stateMutability": "nonpayable",
      "type": "function"
    },
    {
      "inputs": [
        {
          "internalType": "address",
          "name": "account",
          "type": "address"
        }
      ],
      "name": "renounceConsumer",
      "outputs": [],
      "stateMutability": "nonpayable",
      "type": "function"
    },
    {
      "inputs": [
        {
          "internalType": "uint256",
          "name": "_durianCode",
          "type": "uint256"
        },
        {
          "internalType": "uint256",
          "name": "_price",
          "type": "uint256"
        }
      ],
      "name": "sellDurianByDistributor",
      "outputs": [],
      "stateMutability": "nonpayable",
      "type": "function"
    },
    {
      "inputs": [
        {
          "internalType": "uint256",
          "name": "_durianCode",
          "type": "uint256"
        }
      ],
      "name": "sellDurianByHarvester",
      "outputs": [],
      "stateMutability": "nonpayable",
      "type": "function"
    },
    {
      "inputs": [
        {
          "internalType": "uint256",
          "name": "_durianCode",
          "type": "uint256"
        },
        {
          "internalType": "uint256",
          "name": "_price",
          "type": "uint256"
        }
      ],
      "name": "sellDurianByRetailer",
      "outputs": [],
      "stateMutability": "nonpayable",
      "type": "function"
    },
    {
      "inputs": [
        {
          "internalType": "uint256",
          "name": "_durianCode",
          "type": "uint256"
        }
      ],
      "name": "shippedDurianByDistributor",
      "outputs": [],
      "stateMutability": "nonpayable",
      "type": "function"
    },
    {
      "inputs": [
        {
          "internalType": "uint256",
          "name": "_durianCode",
          "type": "uint256"
        }
      ],
      "name": "shippedDurianByHarvester",
      "outputs": [],
      "stateMutability": "nonpayable",
      "type": "function"
    },
    {
      "inputs": [],
      "name": "stockUnit",
      "outputs": [
        {
          "internalType": "uint256",
          "name": "",
          "type": "uint256"
        }
      ],
      "stateMutability": "view",
      "type": "function"
    },
    {
      "inputs": [
        {
          "internalType": "address",
          "name": "newOwner",
          "type": "address"
        }
      ],
      "name": "transferOwnership",
      "outputs": [],
      "stateMutability": "nonpayable",
      "type": "function"
    }
  ],
  "bytecode": "0x6080604052600060065562000014336200004d565b6200001f336200009f565b6200002a33620000f1565b620000353362000143565b600480546001600160a01b03191633179055620002b2565b620000688160006200019560201b620035431790919060201c565b6040516001600160a01b038216907f2a6b352b84affc85ec0ab54b71a09c17830148eb8a1c5aeabf5cd5e73ee7c24890600090a250565b620000ba8160016200019560201b620035431790919060201c565b6040516001600160a01b038216907fddbf200aa634dc3fb81cfd68583dd1040d1c751d335e1d86b631bde3e977fea890600090a250565b6200010c8160026200019560201b620035431790919060201c565b6040516001600160a01b038216907f71ae26cad02663e3d92efd6ec56031a80d74a20c0ab4183faa8bf262261c9baa90600090a250565b6200015e8160036200019560201b620035431790919060201c565b6040516001600160a01b038216907f28b26e7a3d20aedbc5f8f2ebf7da671c0491723a2b78f47a097b0e46dee0714290600090a250565b6001600160a01b038116620001fc5760405162461bcd60e51b815260206004820152602260248201527f526f6c65733a206163636f756e7420697320746865207a65726f206164647265604482015261737360f01b60648201526084015b60405180910390fd5b6200020882826200027c565b15620002575760405162461bcd60e51b815260206004820152601f60248201527f526f6c65733a206163636f756e7420616c72656164792068617320726f6c65006044820152606401620001f3565b6001600160a01b0316600090815260209190915260409020805460ff19166001179055565b60006001600160a01b0382166200029257600080fd5b506001600160a01b03166000908152602091909152604090205460ff1690565b613fc180620002c26000396000f3fe6080604052600436106102dc5760003560e01c8063828c118011610184578063aff66095116100d6578063f2fde38b1161008a578063fa013f9f11610064578063fa013f9f146108e6578063faaa588114610906578063fe8d6b941461095657600080fd5b8063f2fde38b14610886578063f487d48d146108a6578063f8fa7bb3146108c657600080fd5b8063c2b1cfe9116100bb578063c2b1cfe9146107e2578063d48a26b214610812578063e4a004431461086657600080fd5b8063aff66095146107a0578063b6dbac86146107c057600080fd5b80638fab591711610138578063a0d6e2bf11610112578063a0d6e2bf146106ef578063a71bbfd514610760578063aca498011461078057600080fd5b80638fab59171461069c57806390f0c753146106bc5780639c61fc6b146106cf57600080fd5b80638da5cb5b116101695780638da5cb5b146106245780638ec4f5051461065c5780638f0c86fa1461067c57600080fd5b8063828c1180146105e4578063834ff7391461060457600080fd5b80633fff55851161023d5780635df04d38116101f157806370099ec8116101cb57806370099ec81461058f57806370ad03f9146105af5780637250e224146105c457600080fd5b80635df04d381461052e578063629b73751461054e57806369907c5e1461056157600080fd5b806357c1f9e21161022257806357c1f9e2146104ce5780635c0c1376146104ee5780635da09b881461050e57600080fd5b80633fff55851461049957806341c0e1b5146104b957600080fd5b806311d19185116102945780632b843c5f116102795780632b843c5f146103d25780632cd1446a146103f25780632f54bf6e1461045a57600080fd5b806311d191851461039f5780631bc33c5f146103b257600080fd5b80630a8e214c116102c55780630a8e214c146103235780630b6717001461034c578063112940f91461037f57600080fd5b8063051450f9146102e157806309cb3c5b14610303575b600080fd5b3480156102ed57600080fd5b506103016102fc366004613c38565b61096c565b005b34801561030f57600080fd5b5061030161031e366004613b89565b610cf9565b34801561032f57600080fd5b50610339600b5481565b6040519081526020015b60405180910390f35b34801561035857600080fd5b5061036c610367366004613bc4565b610dfd565b6040516103439796959493929190613e81565b34801561038b57600080fd5b5061030161039a366004613b5b565b611100565b6103016103ad366004613bc4565b61110c565b3480156103be57600080fd5b506103016103cd366004613bc4565b611305565b3480156103de57600080fd5b506103016103ed366004613bc4565b61149e565b3480156103fe57600080fd5b5061041261040d366004613bc4565b611634565b604080516001600160a01b0398891681526020810197909752948716948601949094526060850192909252608084015290921660a082015260c081019190915260e001610343565b34801561046657600080fd5b50610489610475366004613b5b565b6004546001600160a01b0390811691161490565b6040519015158152602001610343565b3480156104a557600080fd5b506103016104b4366004613bdc565b61193e565b3480156104c557600080fd5b50610301611b22565b3480156104da57600080fd5b506103016104e9366004613b5b565b611b4f565b3480156104fa57600080fd5b50610301610509366004613c17565b611ba3565b34801561051a57600080fd5b50610489610529366004613b5b565b611ceb565b34801561053a57600080fd5b50610301610549366004613c17565b611cfe565b61030161055c366004613bc4565b611e8f565b34801561056d57600080fd5b5061058161057c366004613bc4565b611f7e565b604051610343929190613e53565b34801561059b57600080fd5b506103016105aa366004613b5b565b612103565b3480156105bb57600080fd5b50600654610339565b3480156105d057600080fd5b506103016105df366004613b5b565b612157565b3480156105f057600080fd5b506103016105ff366004613cb4565b612172565b34801561061057600080fd5b5061048961061f366004613b5b565b612411565b34801561063057600080fd5b50600454610644906001600160a01b031681565b6040516001600160a01b039091168152602001610343565b34801561066857600080fd5b50610301610677366004613b5b565b61241e565b34801561068857600080fd5b50610489610697366004613b5b565b612439565b3480156106a857600080fd5b506103016106b7366004613b5b565b612446565b6103016106ca366004613bc4565b612461565b3480156106db57600080fd5b506103016106ea366004613bc4565b61264d565b3480156106fb57600080fd5b5061074561070a366004613bc4565b600081815260086020908152604091829020825160608101845281548082526001830154938201849052600290920154930183905293909250565b60408051938452602084019290925290820152606001610343565b34801561076c57600080fd5b5061048961077b366004613b5b565b6127da565b34801561078c57600080fd5b5061030161079b366004613bc4565b6127e6565b3480156107ac57600080fd5b506103016107bb366004613b5b565b6129f7565b3480156107cc57600080fd5b506107d5612a4b565b6040516103439190613e40565b3480156107ee57600080fd5b506103396107fd366004613bc4565b6000908152600a602052604090206002015490565b34801561081e57600080fd5b5061083261082d366004613bc4565b612b22565b6040805160ff968716815294861660208601529285169284019290925283166060830152909116608082015260a001610343565b34801561087257600080fd5b50610339610881366004613bc4565b612e05565b34801561089257600080fd5b506103016108a1366004613b5b565b612e26565b3480156108b257600080fd5b506103016108c1366004613b5b565b612f34565b3480156108d257600080fd5b506103016108e1366004613c17565b612f3d565b3480156108f257600080fd5b50610301610901366004613bc4565b6130ce565b34801561091257600080fd5b50610926610921366004613bc4565b61325e565b604080516001600160a01b0390951685526020850193909352901515918301919091526060820152608001610343565b34801561096257600080fd5b5061033960065481565b610975336127da565b61097e57600080fd5b600080600061098b613937565b3380825260208083018b8152608084019290925260408084018a815260c0850189905260e085018a90524260a0860152606085018c9052600061010086018190526001600160a01b038981166101208801528881166101c08801528781166102208801528e825260078552929020855181546001600160a01b03191693169290921782559251600182015591518051849392610a2e926002850192910190613a25565b506060820151600382015560808201516004820180546001600160a01b0319166001600160a01b0390921691909117905560a0820151600582015560c0820151600682015560e08201518051610a8e916007840191602090910190613a25565b5061010082015160088201805460ff1916600183600c811115610ac157634e487b7160e01b600052602160045260246000fd5b02179055506101208201516008820180546001600160a01b039283166101009081027fffffffffffffffffffffff0000000000000000000000000000000000000000ff909216919091179091556101408401516009840155610160840151600a8401805491151560ff19909216919091179055610180840151600b8401556101a0840151600c8401556101c0840151600d840180549184166001600160a01b03199283161790556101e0850151600e850155610200850151600f850155610220850151601085018054919094169116179091556102408301516011830155610260830151601290920180546102808501516102a08601516102c08701516102e09097015160ff9081166401000000000264ff000000001998821663010000000263ff0000001993831662010000029390931663ffff00001994831690970261ffff1990951697909116969096179290921716929092179190911792909216179055604080516060810182526000808252602082018190529181018290528181526020808201838152604080840185815260008f81526008909452908320845181559151600180840191909155905160029092019190915560098054808301825592527f6e1540171b6c0c960b71a7020d9f60077f6af931a8bbf590da0223dacf75c7af9091018c9055600654610cb691613ef7565b6006556040518b81527fa20cf5c0cc38eede6efacb85f9f76c7f8763bb01a4b43287a21fe5df6fe8615b9060200160405180910390a15050505050505050505050565b610d02336127da565b610d0b57600080fd5b60015b600b548111610daf578180519060200120600a6000838152602001908152602001600020600101604051610d429190613da5565b60405180910390201415610d9d5760405162461bcd60e51b815260206004820152601360248201527f4661726d20616c7265616479206578697374730000000000000000000000000060448201526064015b60405180910390fd5b80610da781613f44565b915050610d0e565b5060006001600b6000828254610dc59190613ef7565b91829055506000818152600a6020908152604090912085519294509250610df3916001840191860190613a25565b50600b5490555050565b600081815260076020908152604080832081516103008101835281546001600160a01b0316815260018201549381019390935260028101805485948594606094869485948794869490939290840191610e5590613f0f565b80601f0160208091040260200160405190810160405280929190818152602001828054610e8190613f0f565b8015610ece5780601f10610ea357610100808354040283529160200191610ece565b820191906000526020600020905b815481529060010190602001808311610eb157829003601f168201915b50505091835250506003820154602082015260048201546001600160a01b03166040820152600582015460608201526006820154608082015260078201805460a090920191610f1c90613f0f565b80601f0160208091040260200160405190810160405280929190818152602001828054610f4890613f0f565b8015610f955780601f10610f6a57610100808354040283529160200191610f95565b820191906000526020600020905b815481529060010190602001808311610f7857829003601f168201915b5050509183525050600882015460209091019060ff16600c811115610fca57634e487b7160e01b600052602160045260246000fd5b600c811115610fe957634e487b7160e01b600052602160045260246000fd5b815260088201546001600160a01b036101009182900481166020808501919091526009850154604080860191909152600a86015460ff9081161515606080880191909152600b8801546080880152600c88015460a0880152600d880154851660c080890191909152600e89015460e0808a0191909152600f8a0154888a015260108a01549096166101208901526011890154610140890152601290980154808316610160890152868104831661018089015262010000810483166101a08901526301000000810483166101c089015264010000000090049091166101e090960195909552908601518651948701519187015193870151958701519690920151919f939e509c50909a50919850919650945092505050565b61110981613620565b50565b61111533611ceb565b61111e57600080fd5b80600660008281526007602052604090206008015460ff16600c81111561115557634e487b7160e01b600052602160045260246000fd5b146111c85760405162461bcd60e51b815260206004820152603060248201527f44757269616e206973206e6f7420696e2074686520466f7253616c654279446960448201527f737472696275746f722073746174652e000000000000000000000000000000006064820152608401610d94565b6000828152600760205260409020600901543481111561122a5760405162461bcd60e51b815260206004820152601760248201527f496e73756666696369656e742066756e64732073656e740000000000000000006044820152606401610d94565b600083815260076020526040808220600881015460099091015491516101009091046001600160a01b031692839280156108fc02929091818181858888f1935050505015801561127e573d6000803e3d6000fd5b5060008481526007602081815260408084208054336001600160a01b031991821681178355600d830180549092161790556008908101805460ff1916909417909355918152918190204360019190910155518581527faa7352d10146444c3afd9bd7fb0ae56b0a85e81139536bbec3f1f660fddd7be191015b60405180910390a150505050565b61130e33611ceb565b61131757600080fd5b80600860008281526007602052604090206008015460ff16600c81111561134e57634e487b7160e01b600052602160045260246000fd5b146113c15760405162461bcd60e51b815260206004820152603060248201527f44757269616e206973206e6f7420696e2074686520536869707065644279446960448201527f737472696275746f722073746174652e000000000000000000000000000000006064820152608401610d94565b6000828152600760205260409020546001600160a01b03163381146114425760405162461bcd60e51b815260206004820152603160248201527f4f6e6c79207468652076657269666965642063616c6c65722063616e207065726044820152703337b936903a3434b99030b1ba34b7b71760791b6064820152608401610d94565b60008381526007602090815260409182902042600f820155600801805460ff1916600917905590518481527f322f34e90f2269750b3e28178631d975cc678db36f21098fe548b7f755ce0bd091015b60405180910390a1505050565b6114a733612439565b6114b057600080fd5b80600760008281526007602052604090206008015460ff16600c8111156114e757634e487b7160e01b600052602160045260246000fd5b1461155a5760405162461bcd60e51b815260206004820152602f60248201527f44757269616e206973206e6f7420696e2074686520507572636861736564427960448201527f52657461696c65722073746174652e00000000000000000000000000000000006064820152608401610d94565b60008281526007602052604090206008015461010090046001600160a01b03163381146115e35760405162461bcd60e51b815260206004820152603160248201527f4f6e6c79207468652076657269666965642063616c6c65722063616e207065726044820152703337b936903a3434b99030b1ba34b7b71760791b6064820152608401610d94565b60008381526007602052604090206008908101805460ff191660018302179055506040518381527fc5c33776d405e5686e4386e1ef31a65cf6195e4f7ceb8808ab64d05b6ccbc2a690602001611491565b600081815260076020908152604080832081516103008101835281546001600160a01b0316815260018201549381019390935260028101805485948594859485948594859485949093929084019161168b90613f0f565b80601f01602080910402602001604051908101604052809291908181526020018280546116b790613f0f565b80156117045780601f106116d957610100808354040283529160200191611704565b820191906000526020600020905b8154815290600101906020018083116116e757829003601f168201915b50505091835250506003820154602082015260048201546001600160a01b03166040820152600582015460608201526006820154608082015260078201805460a09092019161175290613f0f565b80601f016020809104026020016040519081016040528092919081815260200182805461177e90613f0f565b80156117cb5780601f106117a0576101008083540402835291602001916117cb565b820191906000526020600020905b8154815290600101906020018083116117ae57829003601f168201915b5050509183525050600882015460209091019060ff16600c81111561180057634e487b7160e01b600052602160045260246000fd5b600c81111561181f57634e487b7160e01b600052602160045260246000fd5b815260088201546001600160a01b03610100918290048116602084015260098401546040840152600a84015460ff90811615156060850152600b850154608080860191909152600c86015460a080870191909152600d870154841660c0870152600e87015460e0870152600f87015485870152601087015490931661012080870191909152601187015461014080880191909152601290970154808416610160880152948504831661018087015262010000850483166101a0808801919091526301000000860484166101c0808901919091526401000000009096049093166101e090960195909552860151918601519386015194860151908601519286015161020090960151919f939e50939c50929a509850919650945092505050565b61194733612439565b61195057600080fd5b82600460008281526007602052604090206008015460ff16600c81111561198757634e487b7160e01b600052602160045260246000fd5b146119fa5760405162461bcd60e51b815260206004820152603160248201527f44757269616e206973206e6f7420696e2074686520526563656976656442794460448201527f69737472696275746f722073746174652e0000000000000000000000000000006064820152608401610d94565b6000848152600760205260409020546001600160a01b0316338114611a7b5760405162461bcd60e51b815260206004820152603160248201527f4f6e6c79207468652076657269666965642063616c6c65722063616e207065726044820152703337b936903a3434b99030b1ba34b7b71760791b6064820152608401610d94565b6000858152600760205260409020600a01805460ff1916851515908117909155611ab6576000858152600760205260408120600b0155611acb565b6000858152600760205260409020600b018390555b600085815260076020908152604091829020600801805460ff1916600517905590518681527f5725e53fd0efed5294b7db2af148f040264a63630b4deb0afbccf6e60830988a910160405180910390a15050505050565b6004546001600160a01b0316336001600160a01b03161415611b4d576004546001600160a01b031680ff5b565b611b5833612439565b611b6157600080fd5b611b6c600182613662565b6040516001600160a01b038216907f126174f6cf49c81cdb4a9214c6b8f037bef55b4ec31e4fc776cea2a1c8a88d5990600090a250565b611bac336127da565b611bb557600080fd5b6000828152600a6020526040902054611c105760405162461bcd60e51b815260206004820152601360248201527f4661726d20646f6573206e6f74206578697374000000000000000000000000006044820152606401610d94565b6000828152600a60205260408120905b6002820154811015611cbe5782826002018281548110611c5057634e487b7160e01b600052603260045260246000fd5b90600052602060002001600001541415611cac5760405162461bcd60e51b815260206004820152601f60248201527f5472656520616c72656164792065786973747320696e20746865206661726d006044820152606401610d94565b80611cb681613f44565b915050611c20565b50604080516020808201909252928352600290910180546001810182556000918252919020915191015550565b6000611cf8600283613761565b92915050565b611d0733611ceb565b611d1057600080fd5b81600960008281526007602052604090206008015460ff16600c811115611d4757634e487b7160e01b600052602160045260246000fd5b14611dba5760405162461bcd60e51b815260206004820152602e60248201527f44757269616e206973206e6f7420696e2074686520526563656976656442795260448201527f657461696c65722073746174652e0000000000000000000000000000000000006064820152608401610d94565b6000838152600760205260409020546001600160a01b0316338114611e3b5760405162461bcd60e51b815260206004820152603160248201527f4f6e6c79207468652076657269666965642063616c6c65722063616e207065726044820152703337b936903a3434b99030b1ba34b7b71760791b6064820152608401610d94565b60008481526007602090815260409182902060088101805460ff1916600a179055600e0185905590518581527f59e7ad085805e2b02ad4b0f8033bd75e7ee4c8cd43f996267463585e3589625291016112f7565b6000818152600760205260408120546001600160a01b03166040519091506001600160a01b038216903480156108fc02916000818181858888f19350505050158015611edf573d6000803e3d6000fd5b50600082815260076020908152604080832080546001600160a01b03191633908117825560089182018054600261010090930260ff19167fffffffffffffffffffffff0000000000000000000000000000000000000000009091161791909117905582529182902043905590518381527facd9402b9f9e8c15fa7c1819f8393ca56eb61316cc354fc6ac2150aed3ce7931910160405180910390a15050565b6000818152600a60205260408120600281015460609283929167ffffffffffffffff811115611fbd57634e487b7160e01b600052604160045260246000fd5b604051908082528060200260200182016040528015611fe6578160200160208202803683370190505b50905060005b60028301548110156120665782600201818154811061201b57634e487b7160e01b600052603260045260246000fd5b906000526020600020016000015482828151811061204957634e487b7160e01b600052603260045260246000fd5b60209081029190910101528061205e81613f44565b915050611fec565b50816001018181805461207890613f0f565b80601f01602080910402602001604051908101604052809291908181526020018280546120a490613f0f565b80156120f15780601f106120c6576101008083540402835291602001916120f1565b820191906000526020600020905b8154815290600101906020018083116120d457829003601f168201915b50505050509150935093505050915091565b61210c33611ceb565b61211557600080fd5b612120600282613662565b6040516001600160a01b038216907fdb7176e79cffef81cb01767dd0447a0b24bb72ca9778d4b245581086b2a7e6db90600090a250565b61216033612439565b61216957600080fd5b61110981613796565b85600b60008281526007602052604090206008015460ff16600c8111156121a957634e487b7160e01b600052602160045260246000fd5b1461221c5760405162461bcd60e51b815260206004820152602f60248201527f44757269616e206973206e6f7420696e2074686520507572636861736564427960448201527f436f6e73756d65722073746174652e00000000000000000000000000000000006064820152608401610d94565b6000878152600760205260409020546001600160a01b031633811461229d5760405162461bcd60e51b815260206004820152603160248201527f4f6e6c79207468652076657269666965642063616c6c65722063616e207065726044820152703337b936903a3434b99030b1ba34b7b71760791b6064820152608401610d94565b86600760008a815260200190815260200160002060120160006101000a81548160ff021916908360ff16021790555085600760008a815260200190815260200160002060120160016101000a81548160ff021916908360ff16021790555084600760008a815260200190815260200160002060120160026101000a81548160ff021916908360ff16021790555083600760008a815260200190815260200160002060120160036101000a81548160ff021916908360ff16021790555082600760008a815260200190815260200160002060120160046101000a81548160ff021916908360ff160217905550600c600760008a815260200190815260200160002060080160006101000a81548160ff0219169083600c8111156123cf57634e487b7160e01b600052602160045260246000fd5b02179055506040518881527fc7e94446a942a0541d0224ece380a730c85f03db7188fca783225da9255929f79060200160405180910390a15050505050505050565b6000611cf8600383613761565b61242733611ceb565b61243057600080fd5b611109816137d8565b6000611cf8600183613761565b61244f336127da565b61245857600080fd5b6111098161381a565b80600a60008281526007602052604090206008015460ff16600c81111561249857634e487b7160e01b600052602160045260246000fd5b1461250b5760405162461bcd60e51b815260206004820152602d60248201527f44757269616e206973206e6f7420696e2074686520466f7253616c654279526560448201527f7461696c65722073746174652e000000000000000000000000000000000000006064820152608401610d94565b6000828152600760205260409020600e01543481111561256d5760405162461bcd60e51b815260206004820152601760248201527f496e73756666696369656e742066756e64732073656e740000000000000000006044820152606401610d94565b6000838152600760205260408082206010810180546001600160a01b03191633179055600d810154600e9091015491516001600160a01b03919091169283926108fc811502929091818181858888f193505050501580156125d2573d6000803e3d6000fd5b5060008481526007602090815260408083208054336001600160a01b0319918216811783556010830180549092161790556008908101805460ff1916600b1790558252918290204360029091015590518581527fc7e94446a942a0541d0224ece380a730c85f03db7188fca783225da9255929f791016112f7565b612656336127da565b61265f57600080fd5b80600260008281526007602052604090206008015460ff16600c81111561269657634e487b7160e01b600052602160045260246000fd5b146127095760405162461bcd60e51b815260206004820152603260248201527f44757269616e206973206e6f7420696e2074686520507572636861736564427960448201527f4469737472696275746f722073746174652e00000000000000000000000000006064820152608401610d94565b6000828152600760205260409020600401546001600160a01b031633811461278d5760405162461bcd60e51b815260206004820152603160248201527f4f6e6c79207468652076657269666965642063616c6c65722063616e207065726044820152703337b936903a3434b99030b1ba34b7b71760791b6064820152608401610d94565b600083815260076020908152604091829020600801805460ff1916600317905590518481527f51c097b0018d62788fa545fa4a1d4da21348f51fa65254d6def7b3b6bd71820d9101611491565b6000611cf88183613761565b6127ef336127da565b6127f857600080fd5b806000808281526007602052604090206008015460ff16600c81111561282e57634e487b7160e01b600052602160045260246000fd5b146128a15760405162461bcd60e51b815260206004820152602e60248201527f44757269616e206973206e6f7420696e207468652050726f647563654279486160448201527f727665737465722073746174652e0000000000000000000000000000000000006064820152608401610d94565b600082815260076020526040902060010154829081146129295760405162461bcd60e51b815260206004820152602960248201527f44757269616e20776974682074686520676976656e20636f646520646f65732060448201527f6e6f7420657869737400000000000000000000000000000000000000000000006064820152608401610d94565b6000838152600760205260409020546001600160a01b03163381146129aa5760405162461bcd60e51b815260206004820152603160248201527f4f6e6c79207468652076657269666965642063616c6c65722063616e207065726044820152703337b936903a3434b99030b1ba34b7b71760791b6064820152608401610d94565b600084815260076020908152604091829020600801805460ff1916600117905590518581527fea4031d0e152254ad0cc1d39c2266dfd6ae91966a70ed269579da8b72cb447bc91016112f7565b612a00336127da565b612a0957600080fd5b612a14600082613662565b6040516001600160a01b038216907f78af5e2bc1f182518b5a494aa807f782e7a2026ab85683d13ce592896a52922f90600090a250565b60095460609060009067ffffffffffffffff811115612a7a57634e487b7160e01b600052604160045260246000fd5b604051908082528060200260200182016040528015612aa3578160200160208202803683370190505b50905060005b600954811015612b1c5760098181548110612ad457634e487b7160e01b600052603260045260246000fd5b9060005260206000200154828281518110612aff57634e487b7160e01b600052603260045260246000fd5b602090810291909101015280612b1481613f44565b915050612aa9565b50919050565b600081815260076020908152604080832081516103008101835281546001600160a01b03168152600182015493810193909352600281018054859485948594859485949192840191612b7390613f0f565b80601f0160208091040260200160405190810160405280929190818152602001828054612b9f90613f0f565b8015612bec5780601f10612bc157610100808354040283529160200191612bec565b820191906000526020600020905b815481529060010190602001808311612bcf57829003601f168201915b50505091835250506003820154602082015260048201546001600160a01b03166040820152600582015460608201526006820154608082015260078201805460a090920191612c3a90613f0f565b80601f0160208091040260200160405190810160405280929190818152602001828054612c6690613f0f565b8015612cb35780601f10612c8857610100808354040283529160200191612cb3565b820191906000526020600020905b815481529060010190602001808311612c9657829003601f168201915b5050509183525050600882015460209091019060ff16600c811115612ce857634e487b7160e01b600052602160045260246000fd5b600c811115612d0757634e487b7160e01b600052602160045260246000fd5b815260088201546001600160a01b03610100918290048116602084015260098401546040840152600a84015460ff90811615156060850152600b8501546080850152600c85015460a0850152600d850154821660c0850152600e85015460e0850152600f8501548385015260108501549091166101208401526011840154610140840152601290930154808416610160840152908104831661018083015262010000810483166101a08301526301000000810483166101c083015264010000000090049091166101e0909101526102608101516102808201516102a08301516102c08401516102e090940151929b919a509850919650945092505050565b60098181548110612e1557600080fd5b600091825260209091200154905081565b6004546001600160a01b0316336001600160a01b031614612eaf5760405162461bcd60e51b815260206004820152602760248201527f4f6e6c7920746865206f776e65722063616e20706572666f726d20746869732060448201527f616374696f6e2e000000000000000000000000000000000000000000000000006064820152608401610d94565b6001600160a01b038116612f2b5760405162461bcd60e51b815260206004820152602660248201527f4f776e61626c653a206e6577206f776e657220697320746865207a65726f206160448201527f64647265737300000000000000000000000000000000000000000000000000006064820152608401610d94565b6111098161385c565b611109816138f5565b612f4633612439565b612f4f57600080fd5b81600560008281526007602052604090206008015460ff16600c811115612f8657634e487b7160e01b600052602160045260246000fd5b14612ff95760405162461bcd60e51b815260206004820152603260248201527f44757269616e206973206e6f7420696e207468652050726f636573736564427960448201527f4469737472696275746f722073746174652e00000000000000000000000000006064820152608401610d94565b6000838152600760205260409020546001600160a01b031633811461307a5760405162461bcd60e51b815260206004820152603160248201527f4f6e6c79207468652076657269666965642063616c6c65722063616e207065726044820152703337b936903a3434b99030b1ba34b7b71760791b6064820152608401610d94565b60008481526007602090815260409182902060088101805460ff1916600617905560090185905590518581527f539b4a835a8a5d1bc5756a9f146e2bfeaa6bd6b1fa77a7631c0a5154c86cdd0391016112f7565b6130d733612439565b6130e057600080fd5b80600360008281526007602052604090206008015460ff16600c81111561311757634e487b7160e01b600052602160045260246000fd5b1461318a5760405162461bcd60e51b815260206004820152602e60248201527f44757269616e206973206e6f7420696e2074686520536869707065644279486160448201527f727665737465722073746174652e0000000000000000000000000000000000006064820152608401610d94565b6000828152600760205260409020546001600160a01b031633811461320b5760405162461bcd60e51b815260206004820152603160248201527f4f6e6c79207468652076657269666965642063616c6c65722063616e207065726044820152703337b936903a3434b99030b1ba34b7b71760791b6064820152608401610d94565b60008381526007602090815260409182902042600c820155600801805460ff1916600417905590518481527fc8ca2150e6e1849a10ef5aa4932060fa353bcacdffeb150c9e1890c6ab9403cc9101611491565b600081815260076020908152604080832081516103008101835281546001600160a01b0316815260018201549381019390935260028101805485948594859485949293909291840191906132b190613f0f565b80601f01602080910402602001604051908101604052809291908181526020018280546132dd90613f0f565b801561332a5780601f106132ff5761010080835404028352916020019161332a565b820191906000526020600020905b81548152906001019060200180831161330d57829003601f168201915b50505091835250506003820154602082015260048201546001600160a01b03166040820152600582015460608201526006820154608082015260078201805460a09092019161337890613f0f565b80601f01602080910402602001604051908101604052809291908181526020018280546133a490613f0f565b80156133f15780601f106133c6576101008083540402835291602001916133f1565b820191906000526020600020905b8154815290600101906020018083116133d457829003601f168201915b5050509183525050600882015460209091019060ff16600c81111561342657634e487b7160e01b600052602160045260246000fd5b600c81111561344557634e487b7160e01b600052602160045260246000fd5b815260088201546001600160a01b03610100918290048116602084015260098401546040840152600a84015460ff90811615156060850152600b8501546080850152600c85015460a0850152600d850154821660c0850152600e85015460e0850152600f85015483850152601085015490911661012084015260118401546101408401526012909301548084166101608085019190915291810484166101808085019190915262010000820485166101a08501526301000000820485166101c08501526401000000009091049093166101e0909201919091526102208301516102408401519184015193909201519199909850919650945092505050565b6001600160a01b0381166135a45760405162461bcd60e51b815260206004820152602260248201527f526f6c65733a206163636f756e7420697320746865207a65726f206164647265604482015261737360f01b6064820152608401610d94565b6135ae8282613761565b156135fb5760405162461bcd60e51b815260206004820152601f60248201527f526f6c65733a206163636f756e7420616c72656164792068617320726f6c65006044820152606401610d94565b6001600160a01b0316600090815260209190915260409020805460ff19166001179055565b61362b600382613543565b6040516001600160a01b038216907f28b26e7a3d20aedbc5f8f2ebf7da671c0491723a2b78f47a097b0e46dee0714290600090a250565b6001600160a01b0381166136c35760405162461bcd60e51b815260206004820152602260248201527f526f6c65733a206163636f756e7420697320746865207a65726f206164647265604482015261737360f01b6064820152608401610d94565b6136cd8282613761565b61373f5760405162461bcd60e51b815260206004820152602160248201527f526f6c65733a206163636f756e7420646f6573206e6f74206861766520726f6c60448201527f65000000000000000000000000000000000000000000000000000000000000006064820152608401610d94565b6001600160a01b0316600090815260209190915260409020805460ff19169055565b60006001600160a01b03821661377657600080fd5b506001600160a01b03166000908152602091909152604090205460ff1690565b6137a1600182613543565b6040516001600160a01b038216907fddbf200aa634dc3fb81cfd68583dd1040d1c751d335e1d86b631bde3e977fea890600090a250565b6137e3600282613543565b6040516001600160a01b038216907f71ae26cad02663e3d92efd6ec56031a80d74a20c0ab4183faa8bf262261c9baa90600090a250565b613825600082613543565b6040516001600160a01b038216907f2a6b352b84affc85ec0ab54b71a09c17830148eb8a1c5aeabf5cd5e73ee7c24890600090a250565b600480546001600160a01b038381166001600160a01b03198316179092551661388482612157565b61388d82612446565b6138968261241e565b61389f81611b4f565b6138a8816129f7565b6138b181612103565b816001600160a01b0316816001600160a01b03167f8be0079c531659141344cd1fd0a4f28419497f9722a3daafe3b4186f6b6457e060405160405180910390a35050565b613900600382613662565b6040516001600160a01b038216907fe3f5ed5f263f1f01764a96edfc7d025f511ec5f7d180e8816908b78bcf74f09890600090a250565b60405180610300016040528060006001600160a01b0316815260200160008152602001606081526020016000815260200160006001600160a01b031681526020016000815260200160008152602001606081526020016000600c8111156139ae57634e487b7160e01b600052602160045260246000fd5b815260006020820181905260408201819052606082018190526080820181905260a0820181905260c0820181905260e08201819052610100820181905261012082018190526101408201819052610160820181905261018082018190526101a082018190526101c082018190526101e09091015290565b828054613a3190613f0f565b90600052602060002090601f016020900481019282613a535760008555613a99565b82601f10613a6c57805160ff1916838001178555613a99565b82800160010185558215613a99579182015b82811115613a99578251825591602001919060010190613a7e565b50613aa5929150613aa9565b5090565b5b80821115613aa55760008155600101613aaa565b600082601f830112613ace578081fd5b813567ffffffffffffffff80821115613ae957613ae9613f75565b604051601f8301601f19908116603f01168101908282118183101715613b1157613b11613f75565b81604052838152866020858801011115613b29578485fd5b8360208701602083013792830160200193909352509392505050565b803560ff81168114613b5657600080fd5b919050565b600060208284031215613b6c578081fd5b81356001600160a01b0381168114613b82578182fd5b9392505050565b600060208284031215613b9a578081fd5b813567ffffffffffffffff811115613bb0578182fd5b613bbc84828501613abe565b949350505050565b600060208284031215613bd5578081fd5b5035919050565b600080600060608486031215613bf0578182fd5b8335925060208401358015158114613c06578283fd5b929592945050506040919091013590565b60008060408385031215613c29578182fd5b50508035926020909101359150565b600080600080600060a08688031215613c4f578081fd5b8535945060208601359350604086013567ffffffffffffffff80821115613c74578283fd5b613c8089838a01613abe565b94506060880135915080821115613c95578283fd5b50613ca288828901613abe565b95989497509295608001359392505050565b60008060008060008060c08789031215613ccc578081fd5b86359550613cdc60208801613b45565b9450613cea60408801613b45565b9350613cf860608801613b45565b9250613d0660808801613b45565b9150613d1460a08801613b45565b90509295509295509295565b6000815180845260208085019450808401835b83811015613d4f57815187529582019590820190600101613d33565b509495945050505050565b60008151808452815b81811015613d7f57602081850181015186830182015201613d63565b81811115613d905782602083870101525b50601f01601f19169290920160200192915050565b600080835482600182811c915080831680613dc157607f831692505b6020808410821415613de157634e487b7160e01b87526022600452602487fd5b818015613df55760018114613e0657613e32565b60ff19861689528489019650613e32565b60008a815260209020885b86811015613e2a5781548b820152908501908301613e11565b505084890196505b509498975050505050505050565b602081526000613b826020830184613d20565b604081526000613e666040830185613d5a565b8281036020840152613e788185613d20565b95945050505050565b8781526001600160a01b038716602082015285604082015260e060608201526000613eaf60e0830187613d5a565b600d8610613ecb57634e487b7160e01b82526021600452602482fd5b8560808401528460a084015282810360c0840152613ee98185613d5a565b9a9950505050505050505050565b60008219821115613f0a57613f0a613f5f565b500190565b600181811c90821680613f2357607f821691505b60208210811415612b1c57634e487b7160e01b600052602260045260246000fd5b6000600019821415613f5857613f58613f5f565b5060010190565b634e487b7160e01b600052601160045260246000fd5b634e487b7160e01b600052604160045260246000fdfea26469706673582212203f48e67352abcdc7ae6886bfe31c27ff921fd422308bf1b07a749b776c2cbdf364736f6c63430008040033",
  "linkReferences": {},
  "deployedLinkReferences": {}
}