{
  "_format": "hh-sol-artifact-1",
  "contractName": "durianSupplyChain",
  "sourceName": "contracts/durianSupplyChain/durianSupplyChain.sol",
  "abi": [
    {
      "inputs": [],
      "stateMutability": "payable",
      "type": "constructor"
    },
    {
      "anonymous": false,
      "inputs": [
        {
          "indexed": true,
          "internalType": "address",
          "name": "account",
          "type": "address"
        }
      ],
      "name": "ConsumerAdded",
      "type": "event"
    },
    {
      "anonymous": false,
      "inputs": [
        {
          "indexed": true,
          "internalType": "address",
          "name": "harvester",
          "type": "address"
        },
        {
          "indexed": true,
          "internalType": "address",
          "name": "account",
          "type": "address"
        }
      ],
      "name": "ConsumerAddedByRetailer",
      "type": "event"
    },
    {
      "anonymous": false,
      "inputs": [
        {
          "indexed": true,
          "internalType": "address",
          "name": "account",
          "type": "address"
        }
      ],
      "name": "ConsumerRemoved",
      "type": "event"
    },
    {
      "anonymous": false,
      "inputs": [
        {
          "indexed": true,
          "internalType": "address",
          "name": "account",
          "type": "address"
        }
      ],
      "name": "DistributorAdded",
      "type": "event"
    },
    {
      "anonymous": false,
      "inputs": [
        {
          "indexed": true,
          "internalType": "address",
          "name": "harvester",
          "type": "address"
        },
        {
          "indexed": true,
          "internalType": "address",
          "name": "account",
          "type": "address"
        }
      ],
      "name": "DistributorAddedByHarvester",
      "type": "event"
    },
    {
      "anonymous": false,
      "inputs": [
        {
          "indexed": true,
          "internalType": "address",
          "name": "account",
          "type": "address"
        }
      ],
      "name": "DistributorRemoved",
      "type": "event"
    },
    {
      "anonymous": false,
      "inputs": [
        {
          "indexed": false,
          "internalType": "uint256",
          "name": "durianCode",
          "type": "uint256"
        }
      ],
      "name": "ForSaleByDistributor",
      "type": "event"
    },
    {
      "anonymous": false,
      "inputs": [
        {
          "indexed": false,
          "internalType": "uint256",
          "name": "durianCode",
          "type": "uint256"
        }
      ],
      "name": "ForSaleByHarvester",
      "type": "event"
    },
    {
      "anonymous": false,
      "inputs": [
        {
          "indexed": false,
          "internalType": "uint256",
          "name": "durianCode",
          "type": "uint256"
        }
      ],
      "name": "ForSaleByRetailer",
      "type": "event"
    },
    {
      "anonymous": false,
      "inputs": [
        {
          "indexed": true,
          "internalType": "address",
          "name": "account",
          "type": "address"
        }
      ],
      "name": "HarvesterAdded",
      "type": "event"
    },
    {
      "anonymous": false,
      "inputs": [
        {
          "indexed": true,
          "internalType": "address",
          "name": "account",
          "type": "address"
        }
      ],
      "name": "HarvesterRemoved",
      "type": "event"
    },
    {
      "anonymous": false,
      "inputs": [
        {
          "indexed": true,
          "internalType": "address",
          "name": "previousOwner",
          "type": "address"
        },
        {
          "indexed": true,
          "internalType": "address",
          "name": "newOwner",
          "type": "address"
        }
      ],
      "name": "OwnershipTransferred",
      "type": "event"
    },
    {
      "anonymous": false,
      "inputs": [
        {
          "indexed": false,
          "internalType": "uint256",
          "name": "durianCode",
          "type": "uint256"
        }
      ],
      "name": "ProcessedByDistributor",
      "type": "event"
    },
    {
      "anonymous": false,
      "inputs": [
        {
          "indexed": false,
          "internalType": "uint256",
          "name": "durianCode",
          "type": "uint256"
        }
      ],
      "name": "ProduceByHarvester",
      "type": "event"
    },
    {
      "anonymous": false,
      "inputs": [
        {
          "indexed": false,
          "internalType": "uint256",
          "name": "durianCode",
          "type": "uint256"
        }
      ],
      "name": "PurchasedByConsumer",
      "type": "event"
    },
    {
      "anonymous": false,
      "inputs": [
        {
          "indexed": false,
          "internalType": "uint256",
          "name": "durianCode",
          "type": "uint256"
        }
      ],
      "name": "PurchasedByDistributor",
      "type": "event"
    },
    {
      "anonymous": false,
      "inputs": [
        {
          "indexed": false,
          "internalType": "uint256",
          "name": "durianCode",
          "type": "uint256"
        }
      ],
      "name": "PurchasedByRetailer",
      "type": "event"
    },
    {
      "anonymous": false,
      "inputs": [
        {
          "indexed": false,
          "internalType": "uint256",
          "name": "durianCode",
          "type": "uint256"
        }
      ],
      "name": "RatingByConsumer",
      "type": "event"
    },
    {
      "anonymous": false,
      "inputs": [
        {
          "indexed": false,
          "internalType": "uint256",
          "name": "durianCode",
          "type": "uint256"
        }
      ],
      "name": "ReceivedByDistributor",
      "type": "event"
    },
    {
      "anonymous": false,
      "inputs": [
        {
          "indexed": false,
          "internalType": "uint256",
          "name": "durianCode",
          "type": "uint256"
        }
      ],
      "name": "ReceivedByRetailer",
      "type": "event"
    },
    {
      "anonymous": false,
      "inputs": [
        {
          "indexed": true,
          "internalType": "address",
          "name": "account",
          "type": "address"
        }
      ],
      "name": "RetailerAdded",
      "type": "event"
    },
    {
      "anonymous": false,
      "inputs": [
        {
          "indexed": true,
          "internalType": "address",
          "name": "harvester",
          "type": "address"
        },
        {
          "indexed": true,
          "internalType": "address",
          "name": "account",
          "type": "address"
        }
      ],
      "name": "RetailerAddedByDistributor",
      "type": "event"
    },
    {
      "anonymous": false,
      "inputs": [
        {
          "indexed": true,
          "internalType": "address",
          "name": "account",
          "type": "address"
        }
      ],
      "name": "RetailerRemoved",
      "type": "event"
    },
    {
      "anonymous": false,
      "inputs": [
        {
          "indexed": false,
          "internalType": "uint256",
          "name": "durianCode",
          "type": "uint256"
        }
      ],
      "name": "ShippedByDistributor",
      "type": "event"
    },
    {
      "anonymous": false,
      "inputs": [
        {
          "indexed": false,
          "internalType": "uint256",
          "name": "durianCode",
          "type": "uint256"
        }
      ],
      "name": "ShippedByHarvester",
      "type": "event"
    },
    {
      "inputs": [
        {
          "internalType": "address",
          "name": "account",
          "type": "address"
        }
      ],
      "name": "addConsumer",
      "outputs": [],
      "stateMutability": "nonpayable",
      "type": "function"
    },
    {
      "inputs": [
        {
          "internalType": "address",
          "name": "account",
          "type": "address"
        }
      ],
      "name": "addDistributor",
      "outputs": [],
      "stateMutability": "nonpayable",
      "type": "function"
    },
    {
      "inputs": [
        {
          "internalType": "string",
          "name": "_farmName",
          "type": "string"
        }
      ],
      "name": "addFarm",
      "outputs": [],
      "stateMutability": "nonpayable",
      "type": "function"
    },
    {
      "inputs": [
        {
          "internalType": "address",
          "name": "account",
          "type": "address"
        }
      ],
      "name": "addHarvester",
      "outputs": [],
      "stateMutability": "nonpayable",
      "type": "function"
    },
    {
      "inputs": [
        {
          "internalType": "address",
          "name": "account",
          "type": "address"
        }
      ],
      "name": "addRetailer",
      "outputs": [],
      "stateMutability": "nonpayable",
      "type": "function"
    },
    {
      "inputs": [
        {
          "internalType": "uint256",
          "name": "_farmId",
          "type": "uint256"
        },
        {
          "internalType": "uint256",
          "name": "_treeId",
          "type": "uint256"
        }
      ],
      "name": "addTree",
      "outputs": [],
      "stateMutability": "nonpayable",
      "type": "function"
    },
    {
      "inputs": [
        {
          "internalType": "uint256",
          "name": "",
          "type": "uint256"
        }
      ],
      "name": "durianCodeArray",
      "outputs": [
        {
          "internalType": "uint256",
          "name": "",
          "type": "uint256"
        }
      ],
      "stateMutability": "view",
      "type": "function"
    },
    {
      "inputs": [],
      "name": "farmCount",
      "outputs": [
        {
          "internalType": "uint256",
          "name": "",
          "type": "uint256"
        }
      ],
      "stateMutability": "view",
      "type": "function"
    },
    {
      "inputs": [
        {
          "internalType": "uint256",
          "name": "_durianCode",
          "type": "uint256"
        }
      ],
      "name": "fetchDurianBufferFour",
      "outputs": [
        {
          "internalType": "uint8",
          "name": "taste",
          "type": "uint8"
        },
        {
          "internalType": "uint8",
          "name": "condition",
          "type": "uint8"
        },
        {
          "internalType": "uint8",
          "name": "fragrance",
          "type": "uint8"
        },
        {
          "internalType": "uint8",
          "name": "creaminess",
          "type": "uint8"
        },
        {
          "internalType": "uint8",
          "name": "ripeness",
          "type": "uint8"
        }
      ],
      "stateMutability": "view",
      "type": "function"
    },
    {
      "inputs": [
        {
          "internalType": "uint256",
          "name": "_durianCode",
          "type": "uint256"
        }
      ],
      "name": "fetchDurianBufferOne",
      "outputs": [
        {
          "internalType": "uint256",
          "name": "durianToCode",
          "type": "uint256"
        },
        {
          "internalType": "address",
          "name": "ownerID",
          "type": "address"
        },
        {
          "internalType": "uint256",
          "name": "durianWeight",
          "type": "uint256"
        },
        {
          "internalType": "string",
          "name": "durianType",
          "type": "string"
        },
        {
          "internalType": "enum durianSupplyChain.State",
          "name": "durianState",
          "type": "uint8"
        },
        {
          "internalType": "uint256",
          "name": "treeId",
          "type": "uint256"
        },
        {
          "internalType": "string",
          "name": "farmName",
          "type": "string"
        }
      ],
      "stateMutability": "view",
      "type": "function"
    },
    {
      "inputs": [
        {
          "internalType": "uint256",
          "name": "_durianCode",
          "type": "uint256"
        }
      ],
      "name": "fetchDurianBufferThree",
      "outputs": [
        {
          "internalType": "address",
          "name": "consumerID",
          "type": "address"
        },
        {
          "internalType": "uint256",
          "name": "consumerBoughtTime",
          "type": "uint256"
        },
        {
          "internalType": "bool",
          "name": "packaging",
          "type": "bool"
        },
        {
          "internalType": "uint256",
          "name": "piecesFlesh",
          "type": "uint256"
        }
      ],
      "stateMutability": "view",
      "type": "function"
    },
    {
      "inputs": [
        {
          "internalType": "uint256",
          "name": "_durianCode",
          "type": "uint256"
        }
      ],
      "name": "fetchDurianBufferTwo",
      "outputs": [
        {
          "internalType": "address",
          "name": "harvesterID",
          "type": "address"
        },
        {
          "internalType": "uint256",
          "name": "harvestedTime",
          "type": "uint256"
        },
        {
          "internalType": "address",
          "name": "distributorID",
          "type": "address"
        },
        {
          "internalType": "uint256",
          "name": "distributedDurianPrice",
          "type": "uint256"
        },
        {
          "internalType": "uint256",
          "name": "distributedTime",
          "type": "uint256"
        },
        {
          "internalType": "address",
          "name": "retailerID",
          "type": "address"
        },
        {
          "internalType": "uint256",
          "name": "retailedTime",
          "type": "uint256"
        }
      ],
      "stateMutability": "view",
      "type": "function"
    },
    {
      "inputs": [
        {
          "internalType": "uint256",
          "name": "_durianCode",
          "type": "uint256"
        }
      ],
      "name": "fetchDurianHistory",
      "outputs": [
        {
          "internalType": "uint256",
          "name": "blockHarvesterToDistributor",
          "type": "uint256"
        },
        {
          "internalType": "uint256",
          "name": "blockDistributorToRetailer",
          "type": "uint256"
        },
        {
          "internalType": "uint256",
          "name": "blockRetailerToConsumer",
          "type": "uint256"
        }
      ],
      "stateMutability": "view",
      "type": "function"
    },
    {
      "inputs": [],
      "name": "getAllDurianCodes",
      "outputs": [
        {
          "internalType": "uint256[]",
          "name": "",
          "type": "uint256[]"
        }
      ],
      "stateMutability": "view",
      "type": "function"
    },
    {
      "inputs": [
        {
          "internalType": "uint256",
          "name": "_farmId",
          "type": "uint256"
        }
      ],
      "name": "getAllFarmTrees",
      "outputs": [
        {
          "internalType": "string",
          "name": "",
          "type": "string"
        },
        {
          "internalType": "uint256[]",
          "name": "",
          "type": "uint256[]"
        }
      ],
      "stateMutability": "view",
      "type": "function"
    },
    {
      "inputs": [
        {
          "internalType": "uint256",
          "name": "_farmId",
          "type": "uint256"
        }
      ],
      "name": "getFarmTreeCount",
      "outputs": [
        {
          "internalType": "uint256",
          "name": "",
          "type": "uint256"
        }
      ],
      "stateMutability": "view",
      "type": "function"
    },
    {
      "inputs": [],
      "name": "getStockUnit",
      "outputs": [
        {
          "internalType": "uint256",
          "name": "",
          "type": "uint256"
        }
      ],
      "stateMutability": "view",
      "type": "function"
    },
    {
      "inputs": [
        {
          "internalType": "address",
          "name": "account",
          "type": "address"
        }
      ],
      "name": "isConsumer",
      "outputs": [
        {
          "internalType": "bool",
          "name": "",
          "type": "bool"
        }
      ],
      "stateMutability": "view",
      "type": "function"
    },
    {
      "inputs": [
        {
          "internalType": "address",
          "name": "account",
          "type": "address"
        }
      ],
      "name": "isDistributor",
      "outputs": [
        {
          "internalType": "bool",
          "name": "",
          "type": "bool"
        }
      ],
      "stateMutability": "view",
      "type": "function"
    },
    {
      "inputs": [
        {
          "internalType": "address",
          "name": "account",
          "type": "address"
        }
      ],
      "name": "isHarvester",
      "outputs": [
        {
          "internalType": "bool",
          "name": "",
          "type": "bool"
        }
      ],
      "stateMutability": "view",
      "type": "function"
    },
    {
      "inputs": [
        {
          "internalType": "address",
          "name": "_owner",
          "type": "address"
        }
      ],
      "name": "isOwner",
      "outputs": [
        {
          "internalType": "bool",
          "name": "",
          "type": "bool"
        }
      ],
      "stateMutability": "view",
      "type": "function"
    },
    {
      "inputs": [
        {
          "internalType": "address",
          "name": "account",
          "type": "address"
        }
      ],
      "name": "isRetailer",
      "outputs": [
        {
          "internalType": "bool",
          "name": "",
          "type": "bool"
        }
      ],
      "stateMutability": "view",
      "type": "function"
    },
    {
      "inputs": [],
      "name": "kill",
      "outputs": [],
      "stateMutability": "nonpayable",
      "type": "function"
    },
    {
      "inputs": [],
      "name": "owner",
      "outputs": [
        {
          "internalType": "address",
          "name": "",
          "type": "address"
        }
      ],
      "stateMutability": "view",
      "type": "function"
    },
    {
      "inputs": [
        {
          "internalType": "uint256",
          "name": "_durianCode",
          "type": "uint256"
        },
        {
          "internalType": "bool",
          "name": "_packaging",
          "type": "bool"
        },
        {
          "internalType": "uint256",
          "name": "_piecesFlesh",
          "type": "uint256"
        }
      ],
      "name": "processedDurianByDistributor",
      "outputs": [],
      "stateMutability": "nonpayable",
      "type": "function"
    },
    {
      "inputs": [
        {
          "internalType": "uint256",
          "name": "_durianCode",
          "type": "uint256"
        },
        {
          "internalType": "uint256",
          "name": "_durianWeight",
          "type": "uint256"
        },
        {
          "internalType": "string",
          "name": "_durianType",
          "type": "string"
        },
        {
          "internalType": "uint256",
          "name": "_farmId",
          "type": "uint256"
        },
        {
          "internalType": "uint256",
          "name": "_treeId",
          "type": "uint256"
        }
      ],
      "name": "produceDurianByHarvester",
      "outputs": [],
      "stateMutability": "nonpayable",
      "type": "function"
    },
    {
      "inputs": [
        {
          "internalType": "uint256",
          "name": "_durianCode",
          "type": "uint256"
        }
      ],
      "name": "purchaseDurianByConsumer",
      "outputs": [],
      "stateMutability": "payable",
      "type": "function"
    },
    {
      "inputs": [
        {
          "internalType": "uint256",
          "name": "_durianCode",
          "type": "uint256"
        }
      ],
      "name": "purchaseDurianByDistributor",
      "outputs": [],
      "stateMutability": "payable",
      "type": "function"
    },
    {
      "inputs": [
        {
          "internalType": "uint256",
          "name": "_durianCode",
          "type": "uint256"
        }
      ],
      "name": "purchaseDurianByRetailer",
      "outputs": [],
      "stateMutability": "payable",
      "type": "function"
    },
    {
      "inputs": [
        {
          "internalType": "uint256",
          "name": "_durianCode",
          "type": "uint256"
        },
        {
          "internalType": "uint8",
          "name": "_taste",
          "type": "uint8"
        },
        {
          "internalType": "uint8",
          "name": "_condition",
          "type": "uint8"
        },
        {
          "internalType": "uint8",
          "name": "_fragrance",
          "type": "uint8"
        },
        {
          "internalType": "uint8",
          "name": "_creaminess",
          "type": "uint8"
        },
        {
          "internalType": "uint8",
          "name": "_ripeness",
          "type": "uint8"
        }
      ],
      "name": "rateDurianFromConsumer",
      "outputs": [],
      "stateMutability": "nonpayable",
      "type": "function"
    },
    {
      "inputs": [
        {
          "internalType": "uint256",
          "name": "_durianCode",
          "type": "uint256"
        }
      ],
      "name": "receivedDurianByDistributor",
      "outputs": [],
      "stateMutability": "nonpayable",
      "type": "function"
    },
    {
      "inputs": [
        {
          "internalType": "uint256",
          "name": "_durianCode",
          "type": "uint256"
        }
      ],
      "name": "receivedDurianByRetailer",
      "outputs": [],
      "stateMutability": "nonpayable",
      "type": "function"
    },
    {
      "inputs": [
        {
          "internalType": "address",
          "name": "account",
          "type": "address"
        }
      ],
      "name": "removeDistributor",
      "outputs": [],
      "stateMutability": "nonpayable",
      "type": "function"
    },
    {
      "inputs": [
        {
          "internalType": "address",
          "name": "account",
          "type": "address"
        }
      ],
      "name": "removeHarvester",
      "outputs": [],
      "stateMutability": "nonpayable",
      "type": "function"
    },
    {
      "inputs": [
        {
          "internalType": "address",
          "name": "account",
          "type": "address"
        }
      ],
      "name": "removeRetailer",
      "outputs": [],
      "stateMutability": "nonpayable",
      "type": "function"
    },
    {
      "inputs": [
        {
          "internalType": "address",
          "name": "account",
          "type": "address"
        }
      ],
      "name": "renounceConsumer",
      "outputs": [],
      "stateMutability": "nonpayable",
      "type": "function"
    },
    {
      "inputs": [
        {
          "internalType": "uint256",
          "name": "_durianCode",
          "type": "uint256"
        },
        {
          "internalType": "uint256",
          "name": "_price",
          "type": "uint256"
        }
      ],
      "name": "sellDurianByDistributor",
      "outputs": [],
      "stateMutability": "nonpayable",
      "type": "function"
    },
    {
      "inputs": [
        {
          "internalType": "uint256",
          "name": "_durianCode",
          "type": "uint256"
        }
      ],
      "name": "sellDurianByHarvester",
      "outputs": [],
      "stateMutability": "nonpayable",
      "type": "function"
    },
    {
      "inputs": [
        {
          "internalType": "uint256",
          "name": "_durianCode",
          "type": "uint256"
        },
        {
          "internalType": "uint256",
          "name": "_price",
          "type": "uint256"
        }
      ],
      "name": "sellDurianByRetailer",
      "outputs": [],
      "stateMutability": "nonpayable",
      "type": "function"
    },
    {
      "inputs": [
        {
          "internalType": "uint256",
          "name": "_durianCode",
          "type": "uint256"
        }
      ],
      "name": "shippedDurianByDistributor",
      "outputs": [],
      "stateMutability": "nonpayable",
      "type": "function"
    },
    {
      "inputs": [
        {
          "internalType": "uint256",
          "name": "_durianCode",
          "type": "uint256"
        }
      ],
      "name": "shippedDurianByHarvester",
      "outputs": [],
      "stateMutability": "nonpayable",
      "type": "function"
    },
    {
      "inputs": [],
      "name": "stockUnit",
      "outputs": [
        {
          "internalType": "uint256",
          "name": "",
          "type": "uint256"
        }
      ],
      "stateMutability": "view",
      "type": "function"
    },
    {
      "inputs": [
        {
          "internalType": "address",
          "name": "newOwner",
          "type": "address"
        }
      ],
      "name": "transferOwnership",
      "outputs": [],
      "stateMutability": "nonpayable",
      "type": "function"
    }
  ],
  "bytecode": "0x6080604052600060065562000014336200004d565b6200001f336200009f565b6200002a33620000f1565b620000353362000143565b600480546001600160a01b03191633179055620002b2565b620000688160006200019560201b620037231790919060201c565b6040516001600160a01b038216907f2a6b352b84affc85ec0ab54b71a09c17830148eb8a1c5aeabf5cd5e73ee7c24890600090a250565b620000ba8160016200019560201b620037231790919060201c565b6040516001600160a01b038216907fddbf200aa634dc3fb81cfd68583dd1040d1c751d335e1d86b631bde3e977fea890600090a250565b6200010c8160026200019560201b620037231790919060201c565b6040516001600160a01b038216907f71ae26cad02663e3d92efd6ec56031a80d74a20c0ab4183faa8bf262261c9baa90600090a250565b6200015e8160036200019560201b620037231790919060201c565b6040516001600160a01b038216907f28b26e7a3d20aedbc5f8f2ebf7da671c0491723a2b78f47a097b0e46dee0714290600090a250565b6001600160a01b038116620001fc5760405162461bcd60e51b815260206004820152602260248201527f526f6c65733a206163636f756e7420697320746865207a65726f206164647265604482015261737360f01b60648201526084015b60405180910390fd5b6200020882826200027c565b15620002575760405162461bcd60e51b815260206004820152601f60248201527f526f6c65733a206163636f756e7420616c72656164792068617320726f6c65006044820152606401620001f3565b6001600160a01b0316600090815260209190915260409020805460ff19166001179055565b60006001600160a01b0382166200029257600080fd5b506001600160a01b03166000908152602091909152604090205460ff1690565b6141c280620002c26000396000f3fe6080604052600436106102dc5760003560e01c8063834ff73911610184578063aff66095116100d6578063f2fde38b1161008a578063fa013f9f11610064578063fa013f9f146108e6578063faaa588114610906578063fe8d6b941461095657600080fd5b8063f2fde38b14610886578063f487d48d146108a6578063f8fa7bb3146108c657600080fd5b8063c2b1cfe9116100bb578063c2b1cfe9146107e2578063d48a26b214610812578063e4a004431461086657600080fd5b8063aff66095146107a0578063b6dbac86146107c057600080fd5b806390f0c75311610138578063a0d6e2bf11610112578063a0d6e2bf146106ef578063a71bbfd514610760578063aca498011461078057600080fd5b806390f0c7531461069c5780639c61fc6b146106af5780639fe0dae0146106cf57600080fd5b80638ec4f505116101695780638ec4f5051461063c5780638f0c86fa1461065c5780638fab59171461067c57600080fd5b8063834ff739146105e45780638da5cb5b1461060457600080fd5b806341c0e1b51161023d578063629b7375116101f157806370ad03f9116101cb57806370ad03f91461058f5780637250e224146105a4578063828c1180146105c457600080fd5b8063629b73751461052e57806369907c5e1461054157806370099ec81461056f57600080fd5b80635c0c1376116102225780635c0c1376146104ce5780635da09b88146104ee5780635df04d381461050e57600080fd5b806341c0e1b51461049957806357c1f9e2146104ae57600080fd5b80631bc33c5f116102945780632cd1446a116102795780632cd1446a146103d25780632f54bf6e1461043a5780633fff55851461047957600080fd5b80631bc33c5f146103925780632b843c5f146103b257600080fd5b80630b671700116102c55780630b6717001461032c578063112940f91461035f57806311d191851461037f57600080fd5b806309cb3c5b146102e15780630a8e214c14610303575b600080fd5b3480156102ed57600080fd5b506103016102fc366004613d70565b61096c565b005b34801561030f57600080fd5b50610319600b5481565b6040519081526020015b60405180910390f35b34801561033857600080fd5b5061034c610347366004613dab565b610a70565b604051610323979695949392919061404c565b34801561036b57600080fd5b5061030161037a366004613d42565b610d9c565b61030161038d366004613dab565b610da8565b34801561039e57600080fd5b506103016103ad366004613dab565b61102f565b3480156103be57600080fd5b506103016103cd366004613dab565b6111cc565b3480156103de57600080fd5b506103f26103ed366004613dab565b61135e565b604080516001600160a01b0398891681526020810197909752948716948601949094526060850192909252608084015290921660a082015260c081019190915260e001610323565b34801561044657600080fd5b50610469610455366004613d42565b6004546001600160a01b0390811691161490565b6040519015158152602001610323565b34801561048557600080fd5b50610301610494366004613dc3565b61168a565b3480156104a557600080fd5b5061030161186e565b3480156104ba57600080fd5b506103016104c9366004613d42565b61189b565b3480156104da57600080fd5b506103016104e9366004613dfe565b6118ef565b3480156104fa57600080fd5b50610469610509366004613d42565b611a37565b34801561051a57600080fd5b50610301610529366004613dfe565b611a4a565b61030161053c366004613dab565b611be5565b34801561054d57600080fd5b5061056161055c366004613dab565b611e7b565b60405161032392919061401e565b34801561057b57600080fd5b5061030161058a366004613d42565b612000565b34801561059b57600080fd5b50600654610319565b3480156105b057600080fd5b506103016105bf366004613d42565b612054565b3480156105d057600080fd5b506103016105df366004613e7f565b61206f565b3480156105f057600080fd5b506104696105ff366004613d42565b61219a565b34801561061057600080fd5b50600454610624906001600160a01b031681565b6040516001600160a01b039091168152602001610323565b34801561064857600080fd5b50610301610657366004613d42565b6121a7565b34801561066857600080fd5b50610469610677366004613d42565b6121c2565b34801561068857600080fd5b50610301610697366004613d42565b6121cf565b6103016106aa366004613dab565b6121ea565b3480156106bb57600080fd5b506103016106ca366004613dab565b6123d5565b3480156106db57600080fd5b506103016106ea366004613e1f565b612562565b3480156106fb57600080fd5b5061074561070a366004613dab565b600081815260086020908152604091829020825160608101845281548082526001830154938201849052600290920154930183905293909250565b60408051938452602084019290925290820152606001610323565b34801561076c57600080fd5b5061046961077b366004613d42565b6129c0565b34801561078c57600080fd5b5061030161079b366004613dab565b6129cc565b3480156107ac57600080fd5b506103016107bb366004613d42565b612bce565b3480156107cc57600080fd5b506107d5612c22565b604051610323919061400b565b3480156107ee57600080fd5b506103196107fd366004613dab565b6000908152600a602052604090206002015490565b34801561081e57600080fd5b5061083261082d366004613dab565b612cf9565b6040805160ff968716815294861660208601529285169284019290925283166060830152909116608082015260a001610323565b34801561087257600080fd5b50610319610881366004613dab565b612fea565b34801561089257600080fd5b506103016108a1366004613d42565b61300b565b3480156108b257600080fd5b506103016108c1366004613d42565b613119565b3480156108d257600080fd5b506103016108e1366004613dfe565b613122565b3480156108f257600080fd5b50610301610901366004613dab565b6132b3565b34801561091257600080fd5b50610926610921366004613dab565b613434565b604080516001600160a01b0390951685526020850193909352901515918301919091526060820152608001610323565b34801561096257600080fd5b5061031960065481565b610975336129c0565b61097e57600080fd5b60015b600b548111610a22578180519060200120600a60008381526020019081526020016000206001016040516109b59190613f70565b60405180910390201415610a105760405162461bcd60e51b815260206004820152601360248201527f4661726d20616c7265616479206578697374730000000000000000000000000060448201526064015b60405180910390fd5b80610a1a81614145565b915050610981565b5060006001600b6000828254610a3891906140c2565b91829055506000818152600a6020908152604090912085519294509250610a66916001840191860190613b17565b50600b5490555050565b6000806000606060008060606000600760008a8152602001908152602001600020604051806103200160405290816000820160009054906101000a90046001600160a01b03166001600160a01b03166001600160a01b031681526020016001820154815260200160028201548152602001600382018054610af090614110565b80601f0160208091040260200160405190810160405280929190818152602001828054610b1c90614110565b8015610b695780601f10610b3e57610100808354040283529160200191610b69565b820191906000526020600020905b815481529060010190602001808311610b4c57829003601f168201915b50505091835250506004820154602082015260058201546001600160a01b03166040820152600682015460608201526007820154608082015260088201805460a090920191610bb790614110565b80601f0160208091040260200160405190810160405280929190818152602001828054610be390614110565b8015610c305780601f10610c0557610100808354040283529160200191610c30565b820191906000526020600020905b815481529060010190602001808311610c1357829003601f168201915b5050509183525050600982015460209091019060ff16600c811115610c6557634e487b7160e01b600052602160045260246000fd5b600c811115610c8457634e487b7160e01b600052602160045260246000fd5b815260098201546001600160a01b03610100918290048116602080850191909152600a850154604080860191909152600b86015460ff9081161515606080880191909152600c8801546080880152600d88015460a0880152600e880154851660c0880152600f88015460e0808901919091526010890154878901526011890154909516610120808901919091526012890154610140890152601390980154808316610160890152868104831661018089015262010000810483166101a08901526301000000810483166101c089015264010000000090049091166101e090960195909552908601518651918701519487015195870151928701519690930151929f909e50929c50929a50919850919650945092505050565b610da581613800565b50565b610db133611a37565b610dba57600080fd5b80600660008281526007602052604090206009015460ff16600c811115610df157634e487b7160e01b600052602160045260246000fd5b14610e645760405162461bcd60e51b815260206004820152603060248201527f44757269616e206973206e6f7420696e2074686520466f7253616c654279446960448201527f737472696275746f722073746174652e000000000000000000000000000000006064820152608401610a07565b6000828152600760205260409020600a015434811115610ec05760405162461bcd60e51b8152602060048201526017602482015276125b9cdd59999a58da595b9d08199d5b991cc81cd95b9d604a1b6044820152606401610a07565b823381341015610f0c5760405162461bcd60e51b8152602060048201526017602482015276125b9cdd59999a58da595b9d08199d5b991cc81cd95b9d604a1b6044820152606401610a07565b6000610f1883346140f9565b6040519091506001600160a01b0383169082156108fc029083906000818181858888f19350505050158015610f51573d6000803e3d6000fd5b506000868152600760205260408082206009810154600a9091015491516101009091046001600160a01b031692839280156108fc02929091818181858888f19350505050158015610fa6573d6000803e3d6000fd5b5060008781526007602081815260408084208054336001600160a01b031991821681178355600e83018054909216179055600901805460ff191690931790925560088152918190204360019190910155518881527faa7352d10146444c3afd9bd7fb0ae56b0a85e81139536bbec3f1f660fddd7be191015b60405180910390a150505050505050565b61103833611a37565b61104157600080fd5b80600860008281526007602052604090206009015460ff16600c81111561107857634e487b7160e01b600052602160045260246000fd5b146110eb5760405162461bcd60e51b815260206004820152603060248201527f44757269616e206973206e6f7420696e2074686520536869707065644279446960448201527f737472696275746f722073746174652e000000000000000000000000000000006064820152608401610a07565b6000828152600760205260409020546001600160a01b031633811461116c5760405162461bcd60e51b815260206004820152603160248201527f4f6e6c79207468652076657269666965642063616c6c65722063616e207065726044820152703337b936903a3434b99030b1ba34b7b71760791b6064820152608401610a07565b60008381526007602052604090204260108201556009908101805460ff191660018302179055506040518381527f322f34e90f2269750b3e28178631d975cc678db36f21098fe548b7f755ce0bd0906020015b60405180910390a1505050565b6111d5336121c2565b6111de57600080fd5b80600760008281526007602052604090206009015460ff16600c81111561121557634e487b7160e01b600052602160045260246000fd5b146112885760405162461bcd60e51b815260206004820152602f60248201527f44757269616e206973206e6f7420696e2074686520507572636861736564427960448201527f52657461696c65722073746174652e00000000000000000000000000000000006064820152608401610a07565b60008281526007602052604090206009015461010090046001600160a01b03163381146113115760405162461bcd60e51b815260206004820152603160248201527f4f6e6c79207468652076657269666965642063616c6c65722063616e207065726044820152703337b936903a3434b99030b1ba34b7b71760791b6064820152608401610a07565b600083815260076020908152604091829020600901805460ff1916600817905590518481527fc5c33776d405e5686e4386e1ef31a65cf6195e4f7ceb8808ab64d05b6ccbc2a691016111bf565b600080600080600080600080600760008a8152602001908152602001600020604051806103200160405290816000820160009054906101000a90046001600160a01b03166001600160a01b03166001600160a01b0316815260200160018201548152602001600282015481526020016003820180546113dc90614110565b80601f016020809104026020016040519081016040528092919081815260200182805461140890614110565b80156114555780601f1061142a57610100808354040283529160200191611455565b820191906000526020600020905b81548152906001019060200180831161143857829003601f168201915b50505091835250506004820154602082015260058201546001600160a01b03166040820152600682015460608201526007820154608082015260088201805460a0909201916114a390614110565b80601f01602080910402602001604051908101604052809291908181526020018280546114cf90614110565b801561151c5780601f106114f15761010080835404028352916020019161151c565b820191906000526020600020905b8154815290600101906020018083116114ff57829003601f168201915b5050509183525050600982015460209091019060ff16600c81111561155157634e487b7160e01b600052602160045260246000fd5b600c81111561157057634e487b7160e01b600052602160045260246000fd5b815260098201546001600160a01b036101009182900481166020840152600a8401546040840152600b84015460ff90811615156060850152600c8501546080850152600d85015460a080860191909152600e860154831660c080870191909152600f87015460e0870152601087015485870152601187015490931661012086015260128601546101408087019190915260139096015480831661016080880191909152948104831661018087015262010000810483166101a08701526301000000810483166101c0808801919091526401000000009091049092166101e095860152860151918601519486015192860151908601519386015161022090960151919f949e50919c50909a5090985091965090945092505050565b611693336121c2565b61169c57600080fd5b82600460008281526007602052604090206009015460ff16600c8111156116d357634e487b7160e01b600052602160045260246000fd5b146117465760405162461bcd60e51b815260206004820152603160248201527f44757269616e206973206e6f7420696e2074686520526563656976656442794460448201527f69737472696275746f722073746174652e0000000000000000000000000000006064820152608401610a07565b6000848152600760205260409020546001600160a01b03163381146117c75760405162461bcd60e51b815260206004820152603160248201527f4f6e6c79207468652076657269666965642063616c6c65722063616e207065726044820152703337b936903a3434b99030b1ba34b7b71760791b6064820152608401610a07565b6000858152600760205260409020600b01805460ff1916851515908117909155611802576000858152600760205260408120600c0155611817565b6000858152600760205260409020600c018390555b600085815260076020908152604091829020600901805460ff1916600517905590518681527f5725e53fd0efed5294b7db2af148f040264a63630b4deb0afbccf6e60830988a910160405180910390a15050505050565b6004546001600160a01b0316336001600160a01b03161415611899576004546001600160a01b031680ff5b565b6118a4336121c2565b6118ad57600080fd5b6118b8600182613842565b6040516001600160a01b038216907f126174f6cf49c81cdb4a9214c6b8f037bef55b4ec31e4fc776cea2a1c8a88d5990600090a250565b6118f8336129c0565b61190157600080fd5b6000828152600a602052604090205461195c5760405162461bcd60e51b815260206004820152601360248201527f4661726d20646f6573206e6f74206578697374000000000000000000000000006044820152606401610a07565b6000828152600a60205260408120905b6002820154811015611a0a578282600201828154811061199c57634e487b7160e01b600052603260045260246000fd5b906000526020600020016000015414156119f85760405162461bcd60e51b815260206004820152601f60248201527f5472656520616c72656164792065786973747320696e20746865206661726d006044820152606401610a07565b80611a0281614145565b91505061196c565b50604080516020808201909252928352600290910180546001810182556000918252919020915191015550565b6000611a44600283613941565b92915050565b611a5333611a37565b611a5c57600080fd5b81600960008281526007602052604090206009015460ff16600c811115611a9357634e487b7160e01b600052602160045260246000fd5b14611b065760405162461bcd60e51b815260206004820152602e60248201527f44757269616e206973206e6f7420696e2074686520526563656976656442795260448201527f657461696c65722073746174652e0000000000000000000000000000000000006064820152608401610a07565b6000838152600760205260409020546001600160a01b0316338114611b875760405162461bcd60e51b815260206004820152603160248201527f4f6e6c79207468652076657269666965642063616c6c65722063616e207065726044820152703337b936903a3434b99030b1ba34b7b71760791b6064820152608401610a07565b60008481526007602090815260409182902060098101805460ff1916600a179055600f0185905590518581527f59e7ad085805e2b02ad4b0f8033bd75e7ee4c8cd43f996267463585e3589625291015b60405180910390a150505050565b611bee336121c2565b611bf757600080fd5b80600160008281526007602052604090206009015460ff16600c811115611c2e57634e487b7160e01b600052602160045260246000fd5b14611c925760405162461bcd60e51b815260206004820152602e60248201527f44757269616e206973206e6f7420696e2074686520466f7253616c654279486160448201526d393b32b9ba32b91039ba30ba329760911b6064820152608401610a07565b60008281526007602052604090206004015434811115611cee5760405162461bcd60e51b8152602060048201526017602482015276125b9cdd59999a58da595b9d08199d5b991cc81cd95b9d604a1b6044820152606401610a07565b6000838152600760205260409020600401543381341015611d4b5760405162461bcd60e51b8152602060048201526017602482015276125b9cdd59999a58da595b9d08199d5b991cc81cd95b9d604a1b6044820152606401610a07565b6000611d5783346140f9565b6040519091506001600160a01b0383169082156108fc029083906000818181858888f19350505050158015611d90573d6000803e3d6000fd5b50600086815260076020526040808220600581015460049091015491516001600160a01b039091169283926108fc811502929091818181858888f19350505050158015611de1573d6000803e3d6000fd5b50600087815260076020908152604080832080546001600160a01b03191633908117825560099091018054600261010090930260ff19167fffffffffffffffffffffff00000000000000000000000000000000000000000090911617919091179055600882529182902043905590518881527facd9402b9f9e8c15fa7c1819f8393ca56eb61316cc354fc6ac2150aed3ce7931910161101e565b6000818152600a60205260408120600281015460609283929167ffffffffffffffff811115611eba57634e487b7160e01b600052604160045260246000fd5b604051908082528060200260200182016040528015611ee3578160200160208202803683370190505b50905060005b6002830154811015611f6357826002018181548110611f1857634e487b7160e01b600052603260045260246000fd5b9060005260206000200160000154828281518110611f4657634e487b7160e01b600052603260045260246000fd5b602090810291909101015280611f5b81614145565b915050611ee9565b508160010181818054611f7590614110565b80601f0160208091040260200160405190810160405280929190818152602001828054611fa190614110565b8015611fee5780601f10611fc357610100808354040283529160200191611fee565b820191906000526020600020905b815481529060010190602001808311611fd157829003601f168201915b50505050509150935093505050915091565b61200933611a37565b61201257600080fd5b61201d600282613842565b6040516001600160a01b038216907fdb7176e79cffef81cb01767dd0447a0b24bb72ca9778d4b245581086b2a7e6db90600090a250565b61205d336121c2565b61206657600080fd5b610da581613976565b6000868152600760205260409020546001600160a01b03163381146120f05760405162461bcd60e51b815260206004820152603160248201527f4f6e6c79207468652076657269666965642063616c6c65722063616e207065726044820152703337b936903a3434b99030b1ba34b7b71760791b6064820152608401610a07565b600087815260076020526040902060138101805460ff89811661ffff1990921691909117610100898316021763ffff00001916620100008883160263ff0000001916176301000000878316021764ff000000001916640100000000918616919091021790556009018054600c919060ff191660018302179055506040518781527fc7e94446a942a0541d0224ece380a730c85f03db7188fca783225da9255929f79060200161101e565b6000611a44600383613941565b6121b033611a37565b6121b957600080fd5b610da5816139b8565b6000611a44600183613941565b6121d8336129c0565b6121e157600080fd5b610da5816139fa565b6000818152600760205260409020600f0154348111156122465760405162461bcd60e51b8152602060048201526017602482015276125b9cdd59999a58da595b9d08199d5b991cc81cd95b9d604a1b6044820152606401610a07565b6000828152600760205260409020600f015433813410156122a35760405162461bcd60e51b8152602060048201526017602482015276125b9cdd59999a58da595b9d08199d5b991cc81cd95b9d604a1b6044820152606401610a07565b60006122af83346140f9565b6040519091506001600160a01b0383169082156108fc029083906000818181858888f193505050501580156122e8573d6000803e3d6000fd5b506000858152600760205260408082206011810180546001600160a01b03191633179055600e810154600f9091015491516001600160a01b03919091169283926108fc811502929091818181858888f1935050505015801561234e573d6000803e3d6000fd5b5060008681526007602090815260408083208054336001600160a01b031991821681178355601183018054909216179055600901805460ff1916600b179055600882529182902043600290910155815188815291517fc7e94446a942a0541d0224ece380a730c85f03db7188fca783225da9255929f79281900390910190a1505050505050565b6123de336129c0565b6123e757600080fd5b80600260008281526007602052604090206009015460ff16600c81111561241e57634e487b7160e01b600052602160045260246000fd5b146124915760405162461bcd60e51b815260206004820152603260248201527f44757269616e206973206e6f7420696e2074686520507572636861736564427960448201527f4469737472696275746f722073746174652e00000000000000000000000000006064820152608401610a07565b6000828152600760205260409020600501546001600160a01b03163381146125155760405162461bcd60e51b815260206004820152603160248201527f4f6e6c79207468652076657269666965642063616c6c65722063616e207065726044820152703337b936903a3434b99030b1ba34b7b71760791b6064820152608401610a07565b600083815260076020908152604091829020600901805460ff1916600317905590518481527f51c097b0018d62788fa545fa4a1d4da21348f51fa65254d6def7b3b6bd71820d91016111bf565b61256b336129c0565b61257457600080fd5b6000828152600a6020526040812090808061258d613b9b565b33808252602082018b905260a0820152604081018990526060810188905260e081018690526001850180546125c190614110565b80601f01602080910402602001604051908101604052809291908181526020018280546125ed90614110565b801561263a5780601f1061260f5761010080835404028352916020019161263a565b820191906000526020600020905b81548152906001019060200180831161261d57829003601f168201915b50505050506101008201524260c082015261265c896611c37937e080006140da565b6080820152600061012082018190526001600160a01b038581166101408401528481166101e08401528381166102408401528b825260076020908152604092839020845181546001600160a01b03191693169290921782558084015160018301559183015160028201556060830151805184936126e0926003850192910190613b17565b506080820151600482015560a08201516005820180546001600160a01b0319166001600160a01b0390921691909117905560c0820151600682015560e082015160078201556101008201518051612741916008840191602090910190613b17565b5061012082015160098201805460ff1916600183600c81111561277457634e487b7160e01b600052602160045260246000fd5b02179055506101408201516009820180546001600160a01b039283166101009081027fffffffffffffffffffffff0000000000000000000000000000000000000000ff90921691909117909155610160840151600a840155610180840151600b8401805491151560ff199092169190911790556101a0840151600c8401556101c0840151600d8401556101e0840151600e840180549184166001600160a01b0319928316179055610200850151600f8501556102208501516010850155610240850151601185018054919094169116179091556102608301516012830155610280830151601390920180546102a08501516102c08601516102e08701516103009097015160ff9081166401000000000264ff000000001998821663010000000263ff0000001993831662010000029390931663ffff00001994831690970261ffff19909516979091169690961792909217169290921791909117929092161790556040805160608101825260008082526020820181905291810182905281816000018181525050818160200181815250508181604001818152505080600860008e815260200190815260200160002060008201518160000155602082015181600101556040820151816002015590505060098c9080600181540180825580915050600190039060005260206000200160009091909190915055600654600161297c91906140c2565b6006556040518c81527fa20cf5c0cc38eede6efacb85f9f76c7f8763bb01a4b43287a21fe5df6fe8615b9060200160405180910390a1505050505050505050505050565b6000611a448183613941565b6129d5336129c0565b6129de57600080fd5b806000808281526007602052604090206009015460ff16600c811115612a1457634e487b7160e01b600052602160045260246000fd5b14612a785760405162461bcd60e51b815260206004820152602e60248201527f44757269616e206973206e6f7420696e207468652050726f647563654279486160448201526d393b32b9ba32b91039ba30ba329760911b6064820152608401610a07565b60008281526007602052604090206001015482908114612b005760405162461bcd60e51b815260206004820152602960248201527f44757269616e20776974682074686520676976656e20636f646520646f65732060448201527f6e6f7420657869737400000000000000000000000000000000000000000000006064820152608401610a07565b6000838152600760205260409020546001600160a01b0316338114612b815760405162461bcd60e51b815260206004820152603160248201527f4f6e6c79207468652076657269666965642063616c6c65722063616e207065726044820152703337b936903a3434b99030b1ba34b7b71760791b6064820152608401610a07565b600084815260076020908152604091829020600901805460ff1916600117905590518581527fea4031d0e152254ad0cc1d39c2266dfd6ae91966a70ed269579da8b72cb447bc9101611bd7565b612bd7336129c0565b612be057600080fd5b612beb600082613842565b6040516001600160a01b038216907f78af5e2bc1f182518b5a494aa807f782e7a2026ab85683d13ce592896a52922f90600090a250565b60095460609060009067ffffffffffffffff811115612c5157634e487b7160e01b600052604160045260246000fd5b604051908082528060200260200182016040528015612c7a578160200160208202803683370190505b50905060005b600954811015612cf35760098181548110612cab57634e487b7160e01b600052603260045260246000fd5b9060005260206000200154828281518110612cd657634e487b7160e01b600052603260045260246000fd5b602090810291909101015280612ceb81614145565b915050612c80565b50919050565b600081815260076020908152604080832081516103208101835281546001600160a01b031681526001820154938101939093526002810154918301919091526003810180548493849384938493849392916060840191612d5890614110565b80601f0160208091040260200160405190810160405280929190818152602001828054612d8490614110565b8015612dd15780601f10612da657610100808354040283529160200191612dd1565b820191906000526020600020905b815481529060010190602001808311612db457829003601f168201915b50505091835250506004820154602082015260058201546001600160a01b03166040820152600682015460608201526007820154608082015260088201805460a090920191612e1f90614110565b80601f0160208091040260200160405190810160405280929190818152602001828054612e4b90614110565b8015612e985780601f10612e6d57610100808354040283529160200191612e98565b820191906000526020600020905b815481529060010190602001808311612e7b57829003601f168201915b5050509183525050600982015460209091019060ff16600c811115612ecd57634e487b7160e01b600052602160045260246000fd5b600c811115612eec57634e487b7160e01b600052602160045260246000fd5b815260098201546001600160a01b036101009182900481166020840152600a8401546040840152600b84015460ff90811615156060850152600c8501546080850152600d85015460a0850152600e850154821660c0850152600f85015460e085015260108501548385015260118501549091166101208401526012840154610140840152601390930154808416610160840152908104831661018083015262010000810483166101a08301526301000000810483166101c083015264010000000090049091166101e0909101526102808101516102a08201516102c08301516102e084015161030090940151929b919a509850919650945092505050565b60098181548110612ffa57600080fd5b600091825260209091200154905081565b6004546001600160a01b0316336001600160a01b0316146130945760405162461bcd60e51b815260206004820152602760248201527f4f6e6c7920746865206f776e65722063616e20706572666f726d20746869732060448201527f616374696f6e2e000000000000000000000000000000000000000000000000006064820152608401610a07565b6001600160a01b0381166131105760405162461bcd60e51b815260206004820152602660248201527f4f776e61626c653a206e6577206f776e657220697320746865207a65726f206160448201527f64647265737300000000000000000000000000000000000000000000000000006064820152608401610a07565b610da581613a3c565b610da581613ad5565b61312b336121c2565b61313457600080fd5b81600560008281526007602052604090206009015460ff16600c81111561316b57634e487b7160e01b600052602160045260246000fd5b146131de5760405162461bcd60e51b815260206004820152603260248201527f44757269616e206973206e6f7420696e207468652050726f636573736564427960448201527f4469737472696275746f722073746174652e00000000000000000000000000006064820152608401610a07565b6000838152600760205260409020546001600160a01b031633811461325f5760405162461bcd60e51b815260206004820152603160248201527f4f6e6c79207468652076657269666965642063616c6c65722063616e207065726044820152703337b936903a3434b99030b1ba34b7b71760791b6064820152608401610a07565b60008481526007602090815260409182902060098101805460ff19166006179055600a0185905590518581527f539b4a835a8a5d1bc5756a9f146e2bfeaa6bd6b1fa77a7631c0a5154c86cdd039101611bd7565b6132bc336121c2565b6132c557600080fd5b80600360008281526007602052604090206009015460ff16600c8111156132fc57634e487b7160e01b600052602160045260246000fd5b146133605760405162461bcd60e51b815260206004820152602e60248201527f44757269616e206973206e6f7420696e2074686520536869707065644279486160448201526d393b32b9ba32b91039ba30ba329760911b6064820152608401610a07565b6000828152600760205260409020546001600160a01b03163381146133e15760405162461bcd60e51b815260206004820152603160248201527f4f6e6c79207468652076657269666965642063616c6c65722063616e207065726044820152703337b936903a3434b99030b1ba34b7b71760791b6064820152608401610a07565b60008381526007602090815260409182902042600d820155600901805460ff1916600417905590518481527fc8ca2150e6e1849a10ef5aa4932060fa353bcacdffeb150c9e1890c6ab9403cc91016111bf565b600081815260076020908152604080832081516103208101835281546001600160a01b03168152600182015493810193909352600281015491830191909152600381018054849384938493849360608401919061349090614110565b80601f01602080910402602001604051908101604052809291908181526020018280546134bc90614110565b80156135095780601f106134de57610100808354040283529160200191613509565b820191906000526020600020905b8154815290600101906020018083116134ec57829003601f168201915b50505091835250506004820154602082015260058201546001600160a01b03166040820152600682015460608201526007820154608082015260088201805460a09092019161355790614110565b80601f016020809104026020016040519081016040528092919081815260200182805461358390614110565b80156135d05780601f106135a5576101008083540402835291602001916135d0565b820191906000526020600020905b8154815290600101906020018083116135b357829003601f168201915b5050509183525050600982015460209091019060ff16600c81111561360557634e487b7160e01b600052602160045260246000fd5b600c81111561362457634e487b7160e01b600052602160045260246000fd5b815260098201546001600160a01b036101009182900481166020840152600a8401546040840152600b84015460ff90811615156060850152600c8501546080850152600d85015460a0850152600e850154821660c0850152600f85015460e08501526010850154838501526011850154909116610120840152601284015461014084015260139093015480841661016084015290810483166101808084019190915262010000820484166101a0808501919091526301000000830485166101c08501526401000000009092049093166101e090920191909152610240830151610260840151928401519390910151909991985091965090945092505050565b6001600160a01b0381166137845760405162461bcd60e51b815260206004820152602260248201527f526f6c65733a206163636f756e7420697320746865207a65726f206164647265604482015261737360f01b6064820152608401610a07565b61378e8282613941565b156137db5760405162461bcd60e51b815260206004820152601f60248201527f526f6c65733a206163636f756e7420616c72656164792068617320726f6c65006044820152606401610a07565b6001600160a01b0316600090815260209190915260409020805460ff19166001179055565b61380b600382613723565b6040516001600160a01b038216907f28b26e7a3d20aedbc5f8f2ebf7da671c0491723a2b78f47a097b0e46dee0714290600090a250565b6001600160a01b0381166138a35760405162461bcd60e51b815260206004820152602260248201527f526f6c65733a206163636f756e7420697320746865207a65726f206164647265604482015261737360f01b6064820152608401610a07565b6138ad8282613941565b61391f5760405162461bcd60e51b815260206004820152602160248201527f526f6c65733a206163636f756e7420646f6573206e6f74206861766520726f6c60448201527f65000000000000000000000000000000000000000000000000000000000000006064820152608401610a07565b6001600160a01b0316600090815260209190915260409020805460ff19169055565b60006001600160a01b03821661395657600080fd5b506001600160a01b03166000908152602091909152604090205460ff1690565b613981600182613723565b6040516001600160a01b038216907fddbf200aa634dc3fb81cfd68583dd1040d1c751d335e1d86b631bde3e977fea890600090a250565b6139c3600282613723565b6040516001600160a01b038216907f71ae26cad02663e3d92efd6ec56031a80d74a20c0ab4183faa8bf262261c9baa90600090a250565b613a05600082613723565b6040516001600160a01b038216907f2a6b352b84affc85ec0ab54b71a09c17830148eb8a1c5aeabf5cd5e73ee7c24890600090a250565b600480546001600160a01b038381166001600160a01b031983161790925516613a6482612054565b613a6d826121cf565b613a76826121a7565b613a7f8161189b565b613a8881612bce565b613a9181612000565b816001600160a01b0316816001600160a01b03167f8be0079c531659141344cd1fd0a4f28419497f9722a3daafe3b4186f6b6457e060405160405180910390a35050565b613ae0600382613842565b6040516001600160a01b038216907fe3f5ed5f263f1f01764a96edfc7d025f511ec5f7d180e8816908b78bcf74f09890600090a250565b828054613b2390614110565b90600052602060002090601f016020900481019282613b455760008555613b8b565b82601f10613b5e57805160ff1916838001178555613b8b565b82800160010185558215613b8b579182015b82811115613b8b578251825591602001919060010190613b70565b50613b97929150613c90565b5090565b60405180610320016040528060006001600160a01b031681526020016000815260200160008152602001606081526020016000815260200160006001600160a01b031681526020016000815260200160008152602001606081526020016000600c811115613c1957634e487b7160e01b600052602160045260246000fd5b815260006020820181905260408201819052606082018190526080820181905260a0820181905260c0820181905260e08201819052610100820181905261012082018190526101408201819052610160820181905261018082018190526101a082018190526101c082018190526101e09091015290565b5b80821115613b975760008155600101613c91565b600082601f830112613cb5578081fd5b813567ffffffffffffffff80821115613cd057613cd0614176565b604051601f8301601f19908116603f01168101908282118183101715613cf857613cf8614176565b81604052838152866020858801011115613d10578485fd5b8360208701602083013792830160200193909352509392505050565b803560ff81168114613d3d57600080fd5b919050565b600060208284031215613d53578081fd5b81356001600160a01b0381168114613d69578182fd5b9392505050565b600060208284031215613d81578081fd5b813567ffffffffffffffff811115613d97578182fd5b613da384828501613ca5565b949350505050565b600060208284031215613dbc578081fd5b5035919050565b600080600060608486031215613dd7578182fd5b8335925060208401358015158114613ded578283fd5b929592945050506040919091013590565b60008060408385031215613e10578182fd5b50508035926020909101359150565b600080600080600060a08688031215613e36578081fd5b8535945060208601359350604086013567ffffffffffffffff811115613e5a578182fd5b613e6688828901613ca5565b9598949750949560608101359550608001359392505050565b60008060008060008060c08789031215613e97578081fd5b86359550613ea760208801613d2c565b9450613eb560408801613d2c565b9350613ec360608801613d2c565b9250613ed160808801613d2c565b9150613edf60a08801613d2c565b90509295509295509295565b6000815180845260208085019450808401835b83811015613f1a57815187529582019590820190600101613efe565b509495945050505050565b60008151808452815b81811015613f4a57602081850181015186830182015201613f2e565b81811115613f5b5782602083870101525b50601f01601f19169290920160200192915050565b600080835482600182811c915080831680613f8c57607f831692505b6020808410821415613fac57634e487b7160e01b87526022600452602487fd5b818015613fc05760018114613fd157613ffd565b60ff19861689528489019650613ffd565b60008a815260209020885b86811015613ff55781548b820152908501908301613fdc565b505084890196505b509498975050505050505050565b602081526000613d696020830184613eeb565b6040815260006140316040830185613f25565b82810360208401526140438185613eeb565b95945050505050565b8781526001600160a01b038716602082015285604082015260e06060820152600061407a60e0830187613f25565b600d861061409657634e487b7160e01b82526021600452602482fd5b8560808401528460a084015282810360c08401526140b48185613f25565b9a9950505050505050505050565b600082198211156140d5576140d5614160565b500190565b60008160001904831182151516156140f4576140f4614160565b500290565b60008282101561410b5761410b614160565b500390565b600181811c9082168061412457607f821691505b60208210811415612cf357634e487b7160e01b600052602260045260246000fd5b600060001982141561415957614159614160565b5060010190565b634e487b7160e01b600052601160045260246000fd5b634e487b7160e01b600052604160045260246000fdfea26469706673582212209516d47896d71b2a51df869e752ca40fbe3a11bd99dabed92ae7ba5ed53395e064736f6c63430008040033",
  "linkReferences": {},
  "deployedLinkReferences": {}
}