{
  "_format": "hh-sol-artifact-1",
  "contractName": "durianSupplyChain",
  "sourceName": "contracts/durianSupplyChain/duriansupplyChain.sol",
  "abi": [
    {
      "inputs": [],
      "stateMutability": "payable",
      "type": "constructor"
    },
    {
      "anonymous": false,
      "inputs": [
        {
          "indexed": true,
          "internalType": "address",
          "name": "account",
          "type": "address"
        }
      ],
      "name": "ConsumerAdded",
      "type": "event"
    },
    {
      "anonymous": false,
      "inputs": [
        {
          "indexed": true,
          "internalType": "address",
          "name": "harvester",
          "type": "address"
        },
        {
          "indexed": true,
          "internalType": "address",
          "name": "account",
          "type": "address"
        }
      ],
      "name": "ConsumerAddedByRetailer",
      "type": "event"
    },
    {
      "anonymous": false,
      "inputs": [
        {
          "indexed": true,
          "internalType": "address",
          "name": "account",
          "type": "address"
        }
      ],
      "name": "ConsumerRemoved",
      "type": "event"
    },
    {
      "anonymous": false,
      "inputs": [
        {
          "indexed": true,
          "internalType": "address",
          "name": "account",
          "type": "address"
        }
      ],
      "name": "DistributorAdded",
      "type": "event"
    },
    {
      "anonymous": false,
      "inputs": [
        {
          "indexed": true,
          "internalType": "address",
          "name": "harvester",
          "type": "address"
        },
        {
          "indexed": true,
          "internalType": "address",
          "name": "account",
          "type": "address"
        }
      ],
      "name": "DistributorAddedByHarvester",
      "type": "event"
    },
    {
      "anonymous": false,
      "inputs": [
        {
          "indexed": true,
          "internalType": "address",
          "name": "account",
          "type": "address"
        }
      ],
      "name": "DistributorRemoved",
      "type": "event"
    },
    {
      "anonymous": false,
      "inputs": [
        {
          "indexed": false,
          "internalType": "uint256",
          "name": "durianCode",
          "type": "uint256"
        }
      ],
      "name": "ForSaleByDistributor",
      "type": "event"
    },
    {
      "anonymous": false,
      "inputs": [
        {
          "indexed": false,
          "internalType": "uint256",
          "name": "durianCode",
          "type": "uint256"
        }
      ],
      "name": "ForSaleByHarvester",
      "type": "event"
    },
    {
      "anonymous": false,
      "inputs": [
        {
          "indexed": false,
          "internalType": "uint256",
          "name": "durianCode",
          "type": "uint256"
        }
      ],
      "name": "ForSaleByRetailer",
      "type": "event"
    },
    {
      "anonymous": false,
      "inputs": [
        {
          "indexed": true,
          "internalType": "address",
          "name": "account",
          "type": "address"
        }
      ],
      "name": "HarvesterAdded",
      "type": "event"
    },
    {
      "anonymous": false,
      "inputs": [
        {
          "indexed": true,
          "internalType": "address",
          "name": "account",
          "type": "address"
        }
      ],
      "name": "HarvesterRemoved",
      "type": "event"
    },
    {
      "anonymous": false,
      "inputs": [
        {
          "indexed": true,
          "internalType": "address",
          "name": "previousOwner",
          "type": "address"
        },
        {
          "indexed": true,
          "internalType": "address",
          "name": "newOwner",
          "type": "address"
        }
      ],
      "name": "OwnershipTransferred",
      "type": "event"
    },
    {
      "anonymous": false,
      "inputs": [
        {
          "indexed": false,
          "internalType": "uint256",
          "name": "durianCode",
          "type": "uint256"
        }
      ],
      "name": "ProcessedByDistributor",
      "type": "event"
    },
    {
      "anonymous": false,
      "inputs": [
        {
          "indexed": false,
          "internalType": "uint256",
          "name": "durianCode",
          "type": "uint256"
        }
      ],
      "name": "ProduceByHarvester",
      "type": "event"
    },
    {
      "anonymous": false,
      "inputs": [
        {
          "indexed": false,
          "internalType": "uint256",
          "name": "durianCode",
          "type": "uint256"
        }
      ],
      "name": "PurchasedByConsumer",
      "type": "event"
    },
    {
      "anonymous": false,
      "inputs": [
        {
          "indexed": false,
          "internalType": "uint256",
          "name": "durianCode",
          "type": "uint256"
        }
      ],
      "name": "PurchasedByDistributor",
      "type": "event"
    },
    {
      "anonymous": false,
      "inputs": [
        {
          "indexed": false,
          "internalType": "uint256",
          "name": "durianCode",
          "type": "uint256"
        }
      ],
      "name": "PurchasedByRetailer",
      "type": "event"
    },
    {
      "anonymous": false,
      "inputs": [
        {
          "indexed": false,
          "internalType": "uint256",
          "name": "durianCode",
          "type": "uint256"
        }
      ],
      "name": "RatingByConsumer",
      "type": "event"
    },
    {
      "anonymous": false,
      "inputs": [
        {
          "indexed": false,
          "internalType": "uint256",
          "name": "durianCode",
          "type": "uint256"
        }
      ],
      "name": "ReceivedByDistributor",
      "type": "event"
    },
    {
      "anonymous": false,
      "inputs": [
        {
          "indexed": false,
          "internalType": "uint256",
          "name": "durianCode",
          "type": "uint256"
        }
      ],
      "name": "ReceivedByRetailer",
      "type": "event"
    },
    {
      "anonymous": false,
      "inputs": [
        {
          "indexed": true,
          "internalType": "address",
          "name": "account",
          "type": "address"
        }
      ],
      "name": "RetailerAdded",
      "type": "event"
    },
    {
      "anonymous": false,
      "inputs": [
        {
          "indexed": true,
          "internalType": "address",
          "name": "harvester",
          "type": "address"
        },
        {
          "indexed": true,
          "internalType": "address",
          "name": "account",
          "type": "address"
        }
      ],
      "name": "RetailerAddedByDistributor",
      "type": "event"
    },
    {
      "anonymous": false,
      "inputs": [
        {
          "indexed": true,
          "internalType": "address",
          "name": "account",
          "type": "address"
        }
      ],
      "name": "RetailerRemoved",
      "type": "event"
    },
    {
      "anonymous": false,
      "inputs": [
        {
          "indexed": false,
          "internalType": "uint256",
          "name": "durianCode",
          "type": "uint256"
        }
      ],
      "name": "ShippedByDistributor",
      "type": "event"
    },
    {
      "anonymous": false,
      "inputs": [
        {
          "indexed": false,
          "internalType": "uint256",
          "name": "durianCode",
          "type": "uint256"
        }
      ],
      "name": "ShippedByHarvester",
      "type": "event"
    },
    {
      "inputs": [
        {
          "internalType": "address",
          "name": "account",
          "type": "address"
        }
      ],
      "name": "addConsumer",
      "outputs": [],
      "stateMutability": "nonpayable",
      "type": "function"
    },
    {
      "inputs": [
        {
          "internalType": "address",
          "name": "account",
          "type": "address"
        }
      ],
      "name": "addDistributor",
      "outputs": [],
      "stateMutability": "nonpayable",
      "type": "function"
    },
    {
      "inputs": [
        {
          "internalType": "address",
          "name": "account",
          "type": "address"
        }
      ],
      "name": "addHarvester",
      "outputs": [],
      "stateMutability": "nonpayable",
      "type": "function"
    },
    {
      "inputs": [
        {
          "internalType": "address",
          "name": "account",
          "type": "address"
        }
      ],
      "name": "addRetailer",
      "outputs": [],
      "stateMutability": "nonpayable",
      "type": "function"
    },
    {
      "inputs": [
        {
          "internalType": "uint256",
          "name": "_durianCode",
          "type": "uint256"
        }
      ],
      "name": "displayCurrentPrice",
      "outputs": [
        {
          "internalType": "uint256",
          "name": "durianPrice",
          "type": "uint256"
        }
      ],
      "stateMutability": "view",
      "type": "function"
    },
    {
      "inputs": [
        {
          "internalType": "uint256",
          "name": "_durianCode",
          "type": "uint256"
        }
      ],
      "name": "fetchDurianBufferOne",
      "outputs": [
        {
          "internalType": "uint256",
          "name": "durianToCode",
          "type": "uint256"
        },
        {
          "internalType": "address",
          "name": "ownerID",
          "type": "address"
        },
        {
          "internalType": "string",
          "name": "HarvestLocationAddress",
          "type": "string"
        },
        {
          "internalType": "uint256",
          "name": "harvestedTime",
          "type": "uint256"
        },
        {
          "internalType": "enum durianSupplyChain.State",
          "name": "durianState",
          "type": "uint8"
        },
        {
          "internalType": "uint256",
          "name": "durianCurrentPriceState",
          "type": "uint256"
        },
        {
          "internalType": "string",
          "name": "durianType",
          "type": "string"
        }
      ],
      "stateMutability": "view",
      "type": "function"
    },
    {
      "inputs": [
        {
          "internalType": "uint256",
          "name": "_durianCode",
          "type": "uint256"
        }
      ],
      "name": "fetchDurianBufferTwo",
      "outputs": [
        {
          "internalType": "uint256",
          "name": "durianToCode",
          "type": "uint256"
        },
        {
          "internalType": "address",
          "name": "ownerID",
          "type": "address"
        },
        {
          "internalType": "uint8",
          "name": "taste",
          "type": "uint8"
        },
        {
          "internalType": "uint8",
          "name": "condition",
          "type": "uint8"
        },
        {
          "internalType": "uint8",
          "name": "fragrance",
          "type": "uint8"
        },
        {
          "internalType": "uint8",
          "name": "creaminess",
          "type": "uint8"
        },
        {
          "internalType": "uint8",
          "name": "ripeness",
          "type": "uint8"
        }
      ],
      "stateMutability": "view",
      "type": "function"
    },
    {
      "inputs": [
        {
          "internalType": "uint256",
          "name": "_durianCode",
          "type": "uint256"
        }
      ],
      "name": "fetchDurianHistory",
      "outputs": [
        {
          "internalType": "uint256",
          "name": "blockHarvesterToDistributor",
          "type": "uint256"
        },
        {
          "internalType": "uint256",
          "name": "blockDistributorToRetailer",
          "type": "uint256"
        },
        {
          "internalType": "uint256",
          "name": "blockRetailerToConsumer",
          "type": "uint256"
        }
      ],
      "stateMutability": "view",
      "type": "function"
    },
    {
      "inputs": [
        {
          "internalType": "address",
          "name": "account",
          "type": "address"
        }
      ],
      "name": "isConsumer",
      "outputs": [
        {
          "internalType": "bool",
          "name": "",
          "type": "bool"
        }
      ],
      "stateMutability": "view",
      "type": "function"
    },
    {
      "inputs": [
        {
          "internalType": "address",
          "name": "account",
          "type": "address"
        }
      ],
      "name": "isDistributor",
      "outputs": [
        {
          "internalType": "bool",
          "name": "",
          "type": "bool"
        }
      ],
      "stateMutability": "view",
      "type": "function"
    },
    {
      "inputs": [
        {
          "internalType": "address",
          "name": "account",
          "type": "address"
        }
      ],
      "name": "isHarvester",
      "outputs": [
        {
          "internalType": "bool",
          "name": "",
          "type": "bool"
        }
      ],
      "stateMutability": "view",
      "type": "function"
    },
    {
      "inputs": [
        {
          "internalType": "address",
          "name": "_owner",
          "type": "address"
        }
      ],
      "name": "isOwner",
      "outputs": [
        {
          "internalType": "bool",
          "name": "",
          "type": "bool"
        }
      ],
      "stateMutability": "view",
      "type": "function"
    },
    {
      "inputs": [
        {
          "internalType": "address",
          "name": "account",
          "type": "address"
        }
      ],
      "name": "isRetailer",
      "outputs": [
        {
          "internalType": "bool",
          "name": "",
          "type": "bool"
        }
      ],
      "stateMutability": "view",
      "type": "function"
    },
    {
      "inputs": [],
      "name": "kill",
      "outputs": [],
      "stateMutability": "nonpayable",
      "type": "function"
    },
    {
      "inputs": [],
      "name": "owner",
      "outputs": [
        {
          "internalType": "address",
          "name": "",
          "type": "address"
        }
      ],
      "stateMutability": "view",
      "type": "function"
    },
    {
      "inputs": [
        {
          "internalType": "uint256",
          "name": "_durianCode",
          "type": "uint256"
        },
        {
          "internalType": "bool",
          "name": "_packaging",
          "type": "bool"
        },
        {
          "internalType": "uint256",
          "name": "_piecesFlesh",
          "type": "uint256"
        }
      ],
      "name": "processedDurianByDistributor",
      "outputs": [],
      "stateMutability": "nonpayable",
      "type": "function"
    },
    {
      "inputs": [
        {
          "internalType": "uint256",
          "name": "_durianCode",
          "type": "uint256"
        },
        {
          "internalType": "uint256",
          "name": "_durianWeight",
          "type": "uint256"
        },
        {
          "internalType": "string",
          "name": "_durianType",
          "type": "string"
        },
        {
          "internalType": "string",
          "name": "_harvestLocationAddress",
          "type": "string"
        }
      ],
      "name": "produceDurianByHarvester",
      "outputs": [],
      "stateMutability": "nonpayable",
      "type": "function"
    },
    {
      "inputs": [
        {
          "internalType": "uint256",
          "name": "_durianCode",
          "type": "uint256"
        }
      ],
      "name": "purchaseDurianByConsumer",
      "outputs": [],
      "stateMutability": "payable",
      "type": "function"
    },
    {
      "inputs": [
        {
          "internalType": "uint256",
          "name": "_durianCode",
          "type": "uint256"
        }
      ],
      "name": "purchaseDurianByDistributor",
      "outputs": [],
      "stateMutability": "payable",
      "type": "function"
    },
    {
      "inputs": [
        {
          "internalType": "uint256",
          "name": "_durianCode",
          "type": "uint256"
        }
      ],
      "name": "purchaseDurianByRetailer",
      "outputs": [],
      "stateMutability": "payable",
      "type": "function"
    },
    {
      "inputs": [
        {
          "internalType": "uint256",
          "name": "_durianCode",
          "type": "uint256"
        },
        {
          "internalType": "uint8",
          "name": "_taste",
          "type": "uint8"
        },
        {
          "internalType": "uint8",
          "name": "_condition",
          "type": "uint8"
        },
        {
          "internalType": "uint8",
          "name": "_fragrance",
          "type": "uint8"
        },
        {
          "internalType": "uint8",
          "name": "_creaminess",
          "type": "uint8"
        },
        {
          "internalType": "uint8",
          "name": "_ripeness",
          "type": "uint8"
        }
      ],
      "name": "rateDurianFromConsumer",
      "outputs": [],
      "stateMutability": "payable",
      "type": "function"
    },
    {
      "inputs": [
        {
          "internalType": "uint256",
          "name": "_durianCode",
          "type": "uint256"
        }
      ],
      "name": "receivedDurianByDistributor",
      "outputs": [],
      "stateMutability": "nonpayable",
      "type": "function"
    },
    {
      "inputs": [
        {
          "internalType": "uint256",
          "name": "_durianCode",
          "type": "uint256"
        }
      ],
      "name": "receivedDurianByRetailer",
      "outputs": [],
      "stateMutability": "nonpayable",
      "type": "function"
    },
    {
      "inputs": [
        {
          "internalType": "address",
          "name": "account",
          "type": "address"
        }
      ],
      "name": "removeDistributor",
      "outputs": [],
      "stateMutability": "nonpayable",
      "type": "function"
    },
    {
      "inputs": [
        {
          "internalType": "address",
          "name": "account",
          "type": "address"
        }
      ],
      "name": "removeHarvester",
      "outputs": [],
      "stateMutability": "nonpayable",
      "type": "function"
    },
    {
      "inputs": [
        {
          "internalType": "address",
          "name": "account",
          "type": "address"
        }
      ],
      "name": "removeRetailer",
      "outputs": [],
      "stateMutability": "nonpayable",
      "type": "function"
    },
    {
      "inputs": [
        {
          "internalType": "address",
          "name": "account",
          "type": "address"
        }
      ],
      "name": "renounceConsumer",
      "outputs": [],
      "stateMutability": "nonpayable",
      "type": "function"
    },
    {
      "inputs": [
        {
          "internalType": "uint256",
          "name": "_durianCode",
          "type": "uint256"
        },
        {
          "internalType": "uint256",
          "name": "_price",
          "type": "uint256"
        }
      ],
      "name": "sellDurianByDistributor",
      "outputs": [],
      "stateMutability": "nonpayable",
      "type": "function"
    },
    {
      "inputs": [
        {
          "internalType": "uint256",
          "name": "_durianCode",
          "type": "uint256"
        }
      ],
      "name": "sellDurianByHarvester",
      "outputs": [],
      "stateMutability": "nonpayable",
      "type": "function"
    },
    {
      "inputs": [
        {
          "internalType": "uint256",
          "name": "_durianCode",
          "type": "uint256"
        },
        {
          "internalType": "uint256",
          "name": "_price",
          "type": "uint256"
        }
      ],
      "name": "sellDurianByRetailer",
      "outputs": [],
      "stateMutability": "nonpayable",
      "type": "function"
    },
    {
      "inputs": [
        {
          "internalType": "uint256",
          "name": "_durianCode",
          "type": "uint256"
        }
      ],
      "name": "shippedDurianByDistributor",
      "outputs": [],
      "stateMutability": "nonpayable",
      "type": "function"
    },
    {
      "inputs": [
        {
          "internalType": "uint256",
          "name": "_durianCode",
          "type": "uint256"
        }
      ],
      "name": "shippedDurianByHarvester",
      "outputs": [],
      "stateMutability": "nonpayable",
      "type": "function"
    },
    {
      "inputs": [],
      "name": "stockUnit",
      "outputs": [
        {
          "internalType": "uint256",
          "name": "",
          "type": "uint256"
        }
      ],
      "stateMutability": "view",
      "type": "function"
    },
    {
      "inputs": [
        {
          "internalType": "address",
          "name": "newOwner",
          "type": "address"
        }
      ],
      "name": "transferOwnership",
      "outputs": [],
      "stateMutability": "nonpayable",
      "type": "function"
    }
  ],
  "bytecode": "0x60806040526000600755620000296200001d620000df60201b60201c565b620000e760201b60201c565b620000496200003d620000df60201b60201c565b6200014860201b60201c565b620000696200005d620000df60201b60201c565b620001a960201b60201c565b620000896200007d620000df60201b60201c565b6200020a60201b60201c565b62000099620000df60201b60201c565b600460006101000a81548173ffffffffffffffffffffffffffffffffffffffff021916908373ffffffffffffffffffffffffffffffffffffffff1602179055506200053f565b600033905090565b620001028160006200026b60201b620044821790919060201c565b8073ffffffffffffffffffffffffffffffffffffffff167f2a6b352b84affc85ec0ab54b71a09c17830148eb8a1c5aeabf5cd5e73ee7c24860405160405180910390a250565b620001638160016200026b60201b620044821790919060201c565b8073ffffffffffffffffffffffffffffffffffffffff167fddbf200aa634dc3fb81cfd68583dd1040d1c751d335e1d86b631bde3e977fea860405160405180910390a250565b620001c48160026200026b60201b620044821790919060201c565b8073ffffffffffffffffffffffffffffffffffffffff167f71ae26cad02663e3d92efd6ec56031a80d74a20c0ab4183faa8bf262261c9baa60405160405180910390a250565b620002258160036200026b60201b620044821790919060201c565b8073ffffffffffffffffffffffffffffffffffffffff167f28b26e7a3d20aedbc5f8f2ebf7da671c0491723a2b78f47a097b0e46dee0714260405160405180910390a250565b600073ffffffffffffffffffffffffffffffffffffffff168173ffffffffffffffffffffffffffffffffffffffff161415620002de576040517f08c379a0000000000000000000000000000000000000000000000000000000008152600401620002d59062000494565b60405180910390fd5b620002f082826200039160201b60201c565b1562000333576040517f08c379a00000000000000000000000000000000000000000000000000000000081526004016200032a9062000472565b60405180910390fd5b60018260000160008373ffffffffffffffffffffffffffffffffffffffff1673ffffffffffffffffffffffffffffffffffffffff16815260200190815260200160002060006101000a81548160ff0219169083151502179055505050565b60008073ffffffffffffffffffffffffffffffffffffffff168273ffffffffffffffffffffffffffffffffffffffff161415620003cd57600080fd5b8260000160008373ffffffffffffffffffffffffffffffffffffffff1673ffffffffffffffffffffffffffffffffffffffff16815260200190815260200160002060009054906101000a900460ff16905092915050565b600062000433601f83620004b6565b91506200044082620004c7565b602082019050919050565b60006200045a602283620004b6565b91506200046782620004f0565b604082019050919050565b600060208201905081810360008301526200048d8162000424565b9050919050565b60006020820190508181036000830152620004af816200044b565b9050919050565b600082825260208201905092915050565b7f526f6c65733a206163636f756e7420616c72656164792068617320726f6c6500600082015250565b7f526f6c65733a206163636f756e7420697320746865207a65726f20616464726560008201527f7373000000000000000000000000000000000000000000000000000000000000602082015250565b615ff4806200054f6000396000f3fe6080604052600436106101f95760003560e01c80638da5cb5b1161010d578063aca49801116100a0578063f2fde38b1161006f578063f2fde38b14610721578063f487d48d1461074a578063f8fa7bb314610773578063fa013f9f1461079c578063fe8d6b94146107c5576101f9565b8063aca4980114610669578063afe4bc3a14610692578063aff66095146106cf578063bebf21d1146106f8576101f9565b806390f0c753116100dc57806390f0c753146105a85780639c61fc6b146105c4578063a0d6e2bf146105ed578063a71bbfd51461062c576101f9565b80638da5cb5b146104ee5780638ec4f505146105195780638f0c86fa146105425780638fab59171461057f576101f9565b806341c0e1b511610190578063629b73751161015f578063629b73751461042757806370099ec8146104435780637250e2241461046c578063828c118014610495578063834ff739146104b1576101f9565b806341c0e1b51461038157806357c1f9e2146103985780635da09b88146103c15780635df04d38146103fe576101f9565b80632b843c5f116101cc5780632b843c5f146102af5780632cd1446a146102d85780632f54bf6e1461031b5780633fff558514610358576101f9565b80630b671700146101fe578063112940f91461024157806311d191851461026a5780631bc33c5f14610286575b600080fd5b34801561020a57600080fd5b5061022560048036038101906102209190614d28565b6107f0565b6040516102389796959493929190615509565b60405180910390f35b34801561024d57600080fd5b5061026860048036038101906102639190614cff565b610cd0565b005b610284600480360381019061027f9190614d28565b610cdc565b005b34801561029257600080fd5b506102ad60048036038101906102a89190614d28565b6110e1565b005b3480156102bb57600080fd5b506102d660048036038101906102d19190614d28565b611339565b005b3480156102e457600080fd5b506102ff60048036038101906102fa9190614d28565b611576565b6040516103129796959493929190615586565b60405180910390f35b34801561032757600080fd5b50610342600480360381019061033d9190614cff565b611a4e565b60405161034f9190615253565b60405180910390f35b34801561036457600080fd5b5061037f600480360381019061037a9190614d51565b611aa8565b005b34801561038d57600080fd5b50610396611d5e565b005b3480156103a457600080fd5b506103bf60048036038101906103ba9190614cff565b611e05565b005b3480156103cd57600080fd5b506103e860048036038101906103e39190614cff565b611e78565b6040516103f59190615253565b60405180910390f35b34801561040a57600080fd5b5061042560048036038101906104209190614da0565b611e95565b005b610441600480360381019061043c9190614d28565b6120ee565b005b34801561044f57600080fd5b5061046a60048036038101906104659190614cff565b612509565b005b34801561047857600080fd5b50610493600480360381019061048e9190614cff565b61257c565b005b6104af60048036038101906104aa9190614e6f565b6125a1565b005b3480156104bd57600080fd5b506104d860048036038101906104d39190614cff565b6128ce565b6040516104e59190615253565b60405180910390f35b3480156104fa57600080fd5b506105036128eb565b6040516105109190615238565b60405180910390f35b34801561052557600080fd5b50610540600480360381019061053b9190614cff565b612911565b005b34801561054e57600080fd5b5061056960048036038101906105649190614cff565b612936565b6040516105769190615253565b60405180910390f35b34801561058b57600080fd5b506105a660048036038101906105a19190614cff565b612953565b005b6105c260048036038101906105bd9190614d28565b612978565b005b3480156105d057600080fd5b506105eb60048036038101906105e69190614d28565b612def565b005b3480156105f957600080fd5b50610614600480360381019061060f9190614d28565b61302c565b604051610623939291906155f5565b60405180910390f35b34801561063857600080fd5b50610653600480360381019061064e9190614cff565b61308d565b6040516106609190615253565b60405180910390f35b34801561067557600080fd5b50610690600480360381019061068b9190614d28565b6130aa565b005b34801561069e57600080fd5b506106b960048036038101906106b49190614d28565b613341565b6040516106c691906154ee565b60405180910390f35b3480156106db57600080fd5b506106f660048036038101906106f19190614cff565b613828565b005b34801561070457600080fd5b5061071f600480360381019061071a9190614ddc565b61389b565b005b34801561072d57600080fd5b5061074860048036038101906107439190614cff565b613eac565b005b34801561075657600080fd5b50610771600480360381019061076c9190614cff565b613fbf565b005b34801561077f57600080fd5b5061079a60048036038101906107959190614da0565b613fcb565b005b3480156107a857600080fd5b506107c360048036038101906107be9190614d28565b614224565b005b3480156107d157600080fd5b506107da61447c565b6040516107e791906154ee565b60405180910390f35b6000806060600080600060606000600560008a8152602001908152602001600020604051806103000160405290816000820160009054906101000a900473ffffffffffffffffffffffffffffffffffffffff1673ffffffffffffffffffffffffffffffffffffffff1673ffffffffffffffffffffffffffffffffffffffff16815260200160018201548152602001600282015481526020016003820180546108979061583e565b80601f01602080910402602001604051908101604052809291908181526020018280546108c39061583e565b80156109105780601f106108e557610100808354040283529160200191610910565b820191906000526020600020905b8154815290600101906020018083116108f357829003601f168201915b50505050508152602001600482015481526020016005820160009054906101000a900473ffffffffffffffffffffffffffffffffffffffff1673ffffffffffffffffffffffffffffffffffffffff1673ffffffffffffffffffffffffffffffffffffffff168152602001600682015481526020016007820180546109939061583e565b80601f01602080910402602001604051908101604052809291908181526020018280546109bf9061583e565b8015610a0c5780601f106109e157610100808354040283529160200191610a0c565b820191906000526020600020905b8154815290600101906020018083116109ef57829003601f168201915b505050505081526020016008820160009054906101000a900460ff16600c811115610a60577f4e487b7100000000000000000000000000000000000000000000000000000000600052602160045260246000fd5b600c811115610a98577f4e487b7100000000000000000000000000000000000000000000000000000000600052602160045260246000fd5b81526020016008820160019054906101000a900473ffffffffffffffffffffffffffffffffffffffff1673ffffffffffffffffffffffffffffffffffffffff1673ffffffffffffffffffffffffffffffffffffffff16815260200160098201548152602001600a820160009054906101000a900460ff16151515158152602001600b8201548152602001600c8201548152602001600d820160009054906101000a900473ffffffffffffffffffffffffffffffffffffffff1673ffffffffffffffffffffffffffffffffffffffff1673ffffffffffffffffffffffffffffffffffffffff168152602001600e8201548152602001600f82015481526020016010820160009054906101000a900473ffffffffffffffffffffffffffffffffffffffff1673ffffffffffffffffffffffffffffffffffffffff1673ffffffffffffffffffffffffffffffffffffffff168152602001601182015481526020016012820160009054906101000a900460ff1660ff1660ff1681526020016012820160019054906101000a900460ff1660ff1660ff1681526020016012820160029054906101000a900460ff1660ff1660ff1681526020016012820160039054906101000a900460ff1660ff1660ff1681526020016012820160049054906101000a900460ff1660ff1660ff168152505090506000610c938a613341565b9050816020015182600001518360e001518460c0015185610100015185876060015198509850985098509850985098505050919395979092949650565b610cd98161459a565b50565b610cec610ce76145f4565b611e78565b610cf557600080fd5b806006600c811115610d30577f4e487b7100000000000000000000000000000000000000000000000000000000600052602160045260246000fd5b6005600083815260200190815260200160002060080160009054906101000a900460ff16600c811115610d8c577f4e487b7100000000000000000000000000000000000000000000000000000000600052602160045260246000fd5b14610dcc576040517f08c379a0000000000000000000000000000000000000000000000000000000008152600401610dc39061548e565b60405180910390fd5b600560008381526020019081526020016000206009015480341015610e26576040517f08c379a0000000000000000000000000000000000000000000000000000000008152600401610e1d906154ce565b60405180910390fd5b82610e2f6145f4565b81341015610e72576040517f08c379a0000000000000000000000000000000000000000000000000000000008152600401610e69906154ce565b60405180910390fd5b60008234610e80919061574e565b90508173ffffffffffffffffffffffffffffffffffffffff166108fc829081150290604051600060405180830381858888f19350505050158015610ec8573d6000803e3d6000fd5b506000610f0a6005600089815260200190815260200160002060080160019054906101000a900473ffffffffffffffffffffffffffffffffffffffff166145fc565b90508073ffffffffffffffffffffffffffffffffffffffff166108fc600560008a8152602001908152602001600020600901549081150290604051600060405180830381858888f19350505050158015610f68573d6000803e3d6000fd5b50610f716145f4565b6005600089815260200190815260200160002060000160006101000a81548173ffffffffffffffffffffffffffffffffffffffff021916908373ffffffffffffffffffffffffffffffffffffffff160217905550610fcd6145f4565b60056000898152602001908152602001600020600d0160006101000a81548173ffffffffffffffffffffffffffffffffffffffff021916908373ffffffffffffffffffffffffffffffffffffffff16021790555060076005600089815260200190815260200160002060080160006101000a81548160ff0219169083600c811115611081577f4e487b7100000000000000000000000000000000000000000000000000000000600052602160045260246000fd5b02179055504360066000898152602001908152602001600020600101819055507faa7352d10146444c3afd9bd7fb0ae56b0a85e81139536bbec3f1f660fddd7be1876040516110d091906154ee565b60405180910390a150505050505050565b6110f16110ec6145f4565b611e78565b6110fa57600080fd5b806008600c811115611135577f4e487b7100000000000000000000000000000000000000000000000000000000600052602160045260246000fd5b6005600083815260200190815260200160002060080160009054906101000a900460ff16600c811115611191577f4e487b7100000000000000000000000000000000000000000000000000000000600052602160045260246000fd5b146111d1576040517f08c379a00000000000000000000000000000000000000000000000000000000081526004016111c8906152ee565b60405180910390fd5b6005600083815260200190815260200160002060000160009054906101000a900473ffffffffffffffffffffffffffffffffffffffff168073ffffffffffffffffffffffffffffffffffffffff166112276145f4565b73ffffffffffffffffffffffffffffffffffffffff161461127d576040517f08c379a00000000000000000000000000000000000000000000000000000000081526004016112749061540e565b60405180910390fd5b4260056000858152602001908152602001600020600f018190555060096005600085815260200190815260200160002060080160006101000a81548160ff0219169083600c8111156112f8577f4e487b7100000000000000000000000000000000000000000000000000000000600052602160045260246000fd5b02179055507f322f34e90f2269750b3e28178631d975cc678db36f21098fe548b7f755ce0bd08360405161132c91906154ee565b60405180910390a1505050565b6113496113446145f4565b612936565b61135257600080fd5b806007600c81111561138d577f4e487b7100000000000000000000000000000000000000000000000000000000600052602160045260246000fd5b6005600083815260200190815260200160002060080160009054906101000a900460ff16600c8111156113e9577f4e487b7100000000000000000000000000000000000000000000000000000000600052602160045260246000fd5b14611429576040517f08c379a0000000000000000000000000000000000000000000000000000000008152600401611420906153ce565b60405180910390fd5b6005600083815260200190815260200160002060080160019054906101000a900473ffffffffffffffffffffffffffffffffffffffff168073ffffffffffffffffffffffffffffffffffffffff1661147f6145f4565b73ffffffffffffffffffffffffffffffffffffffff16146114d5576040517f08c379a00000000000000000000000000000000000000000000000000000000081526004016114cc9061540e565b60405180910390fd5b60086005600085815260200190815260200160002060080160006101000a81548160ff0219169083600c811115611535577f4e487b7100000000000000000000000000000000000000000000000000000000600052602160045260246000fd5b02179055507fc5c33776d405e5686e4386e1ef31a65cf6195e4f7ceb8808ab64d05b6ccbc2a68360405161156991906154ee565b60405180910390a1505050565b600080600080600080600080600560008a8152602001908152602001600020604051806103000160405290816000820160009054906101000a900473ffffffffffffffffffffffffffffffffffffffff1673ffffffffffffffffffffffffffffffffffffffff1673ffffffffffffffffffffffffffffffffffffffff168152602001600182015481526020016002820154815260200160038201805461161b9061583e565b80601f01602080910402602001604051908101604052809291908181526020018280546116479061583e565b80156116945780601f1061166957610100808354040283529160200191611694565b820191906000526020600020905b81548152906001019060200180831161167757829003601f168201915b50505050508152602001600482015481526020016005820160009054906101000a900473ffffffffffffffffffffffffffffffffffffffff1673ffffffffffffffffffffffffffffffffffffffff1673ffffffffffffffffffffffffffffffffffffffff168152602001600682015481526020016007820180546117179061583e565b80601f01602080910402602001604051908101604052809291908181526020018280546117439061583e565b80156117905780601f1061176557610100808354040283529160200191611790565b820191906000526020600020905b81548152906001019060200180831161177357829003601f168201915b505050505081526020016008820160009054906101000a900460ff16600c8111156117e4577f4e487b7100000000000000000000000000000000000000000000000000000000600052602160045260246000fd5b600c81111561181c577f4e487b7100000000000000000000000000000000000000000000000000000000600052602160045260246000fd5b81526020016008820160019054906101000a900473ffffffffffffffffffffffffffffffffffffffff1673ffffffffffffffffffffffffffffffffffffffff1673ffffffffffffffffffffffffffffffffffffffff16815260200160098201548152602001600a820160009054906101000a900460ff16151515158152602001600b8201548152602001600c8201548152602001600d820160009054906101000a900473ffffffffffffffffffffffffffffffffffffffff1673ffffffffffffffffffffffffffffffffffffffff1673ffffffffffffffffffffffffffffffffffffffff168152602001600e8201548152602001600f82015481526020016010820160009054906101000a900473ffffffffffffffffffffffffffffffffffffffff1673ffffffffffffffffffffffffffffffffffffffff1673ffffffffffffffffffffffffffffffffffffffff168152602001601182015481526020016012820160009054906101000a900460ff1660ff1660ff1681526020016012820160019054906101000a900460ff1660ff1660ff1681526020016012820160029054906101000a900460ff1660ff1660ff1681526020016012820160039054906101000a900460ff1660ff1660ff1681526020016012820160049054906101000a900460ff1660ff1660ff1681525050905080602001518160000151826102600151836102800151846102a00151856102c00151866102e00151975097509750975097509750975050919395979092949650565b60008173ffffffffffffffffffffffffffffffffffffffff16600460009054906101000a900473ffffffffffffffffffffffffffffffffffffffff1673ffffffffffffffffffffffffffffffffffffffff16149050919050565b611ab8611ab36145f4565b612936565b611ac157600080fd5b826004600c811115611afc577f4e487b7100000000000000000000000000000000000000000000000000000000600052602160045260246000fd5b6005600083815260200190815260200160002060080160009054906101000a900460ff16600c811115611b58577f4e487b7100000000000000000000000000000000000000000000000000000000600052602160045260246000fd5b14611b98576040517f08c379a0000000000000000000000000000000000000000000000000000000008152600401611b8f9061544e565b60405180910390fd5b6005600085815260200190815260200160002060000160009054906101000a900473ffffffffffffffffffffffffffffffffffffffff168073ffffffffffffffffffffffffffffffffffffffff16611bee6145f4565b73ffffffffffffffffffffffffffffffffffffffff1614611c44576040517f08c379a0000000000000000000000000000000000000000000000000000000008152600401611c3b9061540e565b60405180910390fd5b8360056000878152602001908152602001600020600a0160006101000a81548160ff021916908315150217905550600015158415151415611ca057600060056000878152602001908152602001600020600b0181905550611cbc565b8260056000878152602001908152602001600020600b01819055505b600580600087815260200190815260200160002060080160006101000a81548160ff0219169083600c811115611d1b577f4e487b7100000000000000000000000000000000000000000000000000000000600052602160045260246000fd5b02179055507f5725e53fd0efed5294b7db2af148f040264a63630b4deb0afbccf6e60830988a85604051611d4f91906154ee565b60405180910390a15050505050565b600460009054906101000a900473ffffffffffffffffffffffffffffffffffffffff1673ffffffffffffffffffffffffffffffffffffffff16611d9f6145f4565b73ffffffffffffffffffffffffffffffffffffffff161415611e03576000611de8600460009054906101000a900473ffffffffffffffffffffffffffffffffffffffff166145fc565b90508073ffffffffffffffffffffffffffffffffffffffff16ff5b565b611e15611e106145f4565b612936565b611e1e57600080fd5b611e3281600161460690919063ffffffff16565b8073ffffffffffffffffffffffffffffffffffffffff167f126174f6cf49c81cdb4a9214c6b8f037bef55b4ec31e4fc776cea2a1c8a88d5960405160405180910390a250565b6000611e8e82600261471d90919063ffffffff16565b9050919050565b611ea5611ea06145f4565b611e78565b611eae57600080fd5b816009600c811115611ee9577f4e487b7100000000000000000000000000000000000000000000000000000000600052602160045260246000fd5b6005600083815260200190815260200160002060080160009054906101000a900460ff16600c811115611f45577f4e487b7100000000000000000000000000000000000000000000000000000000600052602160045260246000fd5b14611f85576040517f08c379a0000000000000000000000000000000000000000000000000000000008152600401611f7c9061534e565b60405180910390fd5b6005600084815260200190815260200160002060000160009054906101000a900473ffffffffffffffffffffffffffffffffffffffff168073ffffffffffffffffffffffffffffffffffffffff16611fdb6145f4565b73ffffffffffffffffffffffffffffffffffffffff1614612031576040517f08c379a00000000000000000000000000000000000000000000000000000000081526004016120289061540e565b60405180910390fd5b600a6005600086815260200190815260200160002060080160006101000a81548160ff0219169083600c811115612091577f4e487b7100000000000000000000000000000000000000000000000000000000600052602160045260246000fd5b02179055508260056000868152602001908152602001600020600e01819055507f59e7ad085805e2b02ad4b0f8033bd75e7ee4c8cd43f996267463585e35896252846040516120e091906154ee565b60405180910390a150505050565b6120fe6120f96145f4565b612936565b61210757600080fd5b806001600c811115612142577f4e487b7100000000000000000000000000000000000000000000000000000000600052602160045260246000fd5b6005600083815260200190815260200160002060080160009054906101000a900460ff16600c81111561219e577f4e487b7100000000000000000000000000000000000000000000000000000000600052602160045260246000fd5b146121de576040517f08c379a00000000000000000000000000000000000000000000000000000000081526004016121d5906152ce565b60405180910390fd5b600560008381526020019081526020016000206004015480341015612238576040517f08c379a000000000000000000000000000000000000000000000000000000000815260040161222f906154ce565b60405180910390fd5b60056000848152602001908152602001600020600401546122576145f4565b8134101561229a576040517f08c379a0000000000000000000000000000000000000000000000000000000008152600401612291906154ce565b60405180910390fd5b600082346122a8919061574e565b90508173ffffffffffffffffffffffffffffffffffffffff166108fc829081150290604051600060405180830381858888f193505050501580156122f0573d6000803e3d6000fd5b5060006123326005600089815260200190815260200160002060050160009054906101000a900473ffffffffffffffffffffffffffffffffffffffff166145fc565b90508073ffffffffffffffffffffffffffffffffffffffff166108fc600560008a8152602001908152602001600020600401549081150290604051600060405180830381858888f19350505050158015612390573d6000803e3d6000fd5b506123996145f4565b6005600089815260200190815260200160002060000160006101000a81548173ffffffffffffffffffffffffffffffffffffffff021916908373ffffffffffffffffffffffffffffffffffffffff1602179055506123f56145f4565b6005600089815260200190815260200160002060080160016101000a81548173ffffffffffffffffffffffffffffffffffffffff021916908373ffffffffffffffffffffffffffffffffffffffff16021790555060026005600089815260200190815260200160002060080160006101000a81548160ff0219169083600c8111156124a9577f4e487b7100000000000000000000000000000000000000000000000000000000600052602160045260246000fd5b02179055504360066000898152602001908152602001600020600001819055507facd9402b9f9e8c15fa7c1819f8393ca56eb61316cc354fc6ac2150aed3ce7931876040516124f891906154ee565b60405180910390a150505050505050565b6125196125146145f4565b611e78565b61252257600080fd5b61253681600261460690919063ffffffff16565b8073ffffffffffffffffffffffffffffffffffffffff167fdb7176e79cffef81cb01767dd0447a0b24bb72ca9778d4b245581086b2a7e6db60405160405180910390a250565b61258c6125876145f4565b612936565b61259557600080fd5b61259e816147af565b50565b6125b16125ac6145f4565b6128ce565b6125ba57600080fd5b85600b600c8111156125f5577f4e487b7100000000000000000000000000000000000000000000000000000000600052602160045260246000fd5b6005600083815260200190815260200160002060080160009054906101000a900460ff16600c811115612651577f4e487b7100000000000000000000000000000000000000000000000000000000600052602160045260246000fd5b14612691576040517f08c379a0000000000000000000000000000000000000000000000000000000008152600401612688906154ae565b60405180910390fd5b6005600088815260200190815260200160002060000160009054906101000a900473ffffffffffffffffffffffffffffffffffffffff168073ffffffffffffffffffffffffffffffffffffffff166126e76145f4565b73ffffffffffffffffffffffffffffffffffffffff161461273d576040517f08c379a00000000000000000000000000000000000000000000000000000000081526004016127349061540e565b60405180910390fd5b86600560008a815260200190815260200160002060120160006101000a81548160ff021916908360ff16021790555085600560008a815260200190815260200160002060120160016101000a81548160ff021916908360ff16021790555084600560008a815260200190815260200160002060120160026101000a81548160ff021916908360ff16021790555083600560008a815260200190815260200160002060120160036101000a81548160ff021916908360ff16021790555082600560008a815260200190815260200160002060120160046101000a81548160ff021916908360ff160217905550600c600560008a815260200190815260200160002060080160006101000a81548160ff0219169083600c811115612888577f4e487b7100000000000000000000000000000000000000000000000000000000600052602160045260246000fd5b02179055507fc7e94446a942a0541d0224ece380a730c85f03db7188fca783225da9255929f7886040516128bc91906154ee565b60405180910390a15050505050505050565b60006128e482600361471d90919063ffffffff16565b9050919050565b600460009054906101000a900473ffffffffffffffffffffffffffffffffffffffff1681565b61292161291c6145f4565b611e78565b61292a57600080fd5b61293381614809565b50565b600061294c82600161471d90919063ffffffff16565b9050919050565b61296361295e6145f4565b61308d565b61296c57600080fd5b61297581614863565b50565b6129886129836145f4565b6128ce565b61299157600080fd5b80600a600c8111156129cc577f4e487b7100000000000000000000000000000000000000000000000000000000600052602160045260246000fd5b6005600083815260200190815260200160002060080160009054906101000a900460ff16600c811115612a28577f4e487b7100000000000000000000000000000000000000000000000000000000600052602160045260246000fd5b14612a68576040517f08c379a0000000000000000000000000000000000000000000000000000000008152600401612a5f9061530e565b60405180910390fd5b60056000838152602001908152602001600020600e015480341015612ac2576040517f08c379a0000000000000000000000000000000000000000000000000000000008152600401612ab9906154ce565b60405180910390fd5b60056000848152602001908152602001600020600e0154612ae16145f4565b81341015612b24576040517f08c379a0000000000000000000000000000000000000000000000000000000008152600401612b1b906154ce565b60405180910390fd5b60008234612b32919061574e565b90508173ffffffffffffffffffffffffffffffffffffffff166108fc829081150290604051600060405180830381858888f19350505050158015612b7a573d6000803e3d6000fd5b50612b836145f4565b6005600088815260200190815260200160002060100160006101000a81548173ffffffffffffffffffffffffffffffffffffffff021916908373ffffffffffffffffffffffffffffffffffffffff1602179055506000612c1860056000898152602001908152602001600020600d0160009054906101000a900473ffffffffffffffffffffffffffffffffffffffff166145fc565b90508073ffffffffffffffffffffffffffffffffffffffff166108fc600560008a8152602001908152602001600020600e01549081150290604051600060405180830381858888f19350505050158015612c76573d6000803e3d6000fd5b50612c7f6145f4565b6005600089815260200190815260200160002060000160006101000a81548173ffffffffffffffffffffffffffffffffffffffff021916908373ffffffffffffffffffffffffffffffffffffffff160217905550612cdb6145f4565b6005600089815260200190815260200160002060100160006101000a81548173ffffffffffffffffffffffffffffffffffffffff021916908373ffffffffffffffffffffffffffffffffffffffff160217905550600b6005600089815260200190815260200160002060080160006101000a81548160ff0219169083600c811115612d8f577f4e487b7100000000000000000000000000000000000000000000000000000000600052602160045260246000fd5b02179055504360066000898152602001908152602001600020600201819055507fc7e94446a942a0541d0224ece380a730c85f03db7188fca783225da9255929f787604051612dde91906154ee565b60405180910390a150505050505050565b612dff612dfa6145f4565b61308d565b612e0857600080fd5b806002600c811115612e43577f4e487b7100000000000000000000000000000000000000000000000000000000600052602160045260246000fd5b6005600083815260200190815260200160002060080160009054906101000a900460ff16600c811115612e9f577f4e487b7100000000000000000000000000000000000000000000000000000000600052602160045260246000fd5b14612edf576040517f08c379a0000000000000000000000000000000000000000000000000000000008152600401612ed69061542e565b60405180910390fd5b6005600083815260200190815260200160002060050160009054906101000a900473ffffffffffffffffffffffffffffffffffffffff168073ffffffffffffffffffffffffffffffffffffffff16612f356145f4565b73ffffffffffffffffffffffffffffffffffffffff1614612f8b576040517f08c379a0000000000000000000000000000000000000000000000000000000008152600401612f829061540e565b60405180910390fd5b60036005600085815260200190815260200160002060080160006101000a81548160ff0219169083600c811115612feb577f4e487b7100000000000000000000000000000000000000000000000000000000600052602160045260246000fd5b02179055507f51c097b0018d62788fa545fa4a1d4da21348f51fa65254d6def7b3b6bd71820d8360405161301f91906154ee565b60405180910390a1505050565b6000806000806006600086815260200190815260200160002060405180606001604052908160008201548152602001600182015481526020016002820154815250509050806000015181602001518260400151935093509350509193909250565b60006130a382600061471d90919063ffffffff16565b9050919050565b6130ba6130b56145f4565b61308d565b6130c357600080fd5b806000600c8111156130fe577f4e487b7100000000000000000000000000000000000000000000000000000000600052602160045260246000fd5b6005600083815260200190815260200160002060080160009054906101000a900460ff16600c81111561315a577f4e487b7100000000000000000000000000000000000000000000000000000000600052602160045260246000fd5b1461319a576040517f08c379a00000000000000000000000000000000000000000000000000000000081526004016131919061526e565b60405180910390fd5b81806005600083815260200190815260200160002060010154146131f3576040517f08c379a00000000000000000000000000000000000000000000000000000000081526004016131ea9061538e565b60405180910390fd5b6005600084815260200190815260200160002060000160009054906101000a900473ffffffffffffffffffffffffffffffffffffffff168073ffffffffffffffffffffffffffffffffffffffff166132496145f4565b73ffffffffffffffffffffffffffffffffffffffff161461329f576040517f08c379a00000000000000000000000000000000000000000000000000000000081526004016132969061540e565b60405180910390fd5b60016005600086815260200190815260200160002060080160006101000a81548160ff0219169083600c8111156132ff577f4e487b7100000000000000000000000000000000000000000000000000000000600052602160045260246000fd5b02179055507fea4031d0e152254ad0cc1d39c2266dfd6ae91966a70ed269579da8b72cb447bc8460405161333391906154ee565b60405180910390a150505050565b60008060056000848152602001908152602001600020604051806103000160405290816000820160009054906101000a900473ffffffffffffffffffffffffffffffffffffffff1673ffffffffffffffffffffffffffffffffffffffff1673ffffffffffffffffffffffffffffffffffffffff16815260200160018201548152602001600282015481526020016003820180546133dd9061583e565b80601f01602080910402602001604051908101604052809291908181526020018280546134099061583e565b80156134565780601f1061342b57610100808354040283529160200191613456565b820191906000526020600020905b81548152906001019060200180831161343957829003601f168201915b50505050508152602001600482015481526020016005820160009054906101000a900473ffffffffffffffffffffffffffffffffffffffff1673ffffffffffffffffffffffffffffffffffffffff1673ffffffffffffffffffffffffffffffffffffffff168152602001600682015481526020016007820180546134d99061583e565b80601f01602080910402602001604051908101604052809291908181526020018280546135059061583e565b80156135525780601f1061352757610100808354040283529160200191613552565b820191906000526020600020905b81548152906001019060200180831161353557829003601f168201915b505050505081526020016008820160009054906101000a900460ff16600c8111156135a6577f4e487b7100000000000000000000000000000000000000000000000000000000600052602160045260246000fd5b600c8111156135de577f4e487b7100000000000000000000000000000000000000000000000000000000600052602160045260246000fd5b81526020016008820160019054906101000a900473ffffffffffffffffffffffffffffffffffffffff1673ffffffffffffffffffffffffffffffffffffffff1673ffffffffffffffffffffffffffffffffffffffff16815260200160098201548152602001600a820160009054906101000a900460ff16151515158152602001600b8201548152602001600c8201548152602001600d820160009054906101000a900473ffffffffffffffffffffffffffffffffffffffff1673ffffffffffffffffffffffffffffffffffffffff1673ffffffffffffffffffffffffffffffffffffffff168152602001600e8201548152602001600f82015481526020016010820160009054906101000a900473ffffffffffffffffffffffffffffffffffffffff1673ffffffffffffffffffffffffffffffffffffffff1673ffffffffffffffffffffffffffffffffffffffff168152602001601182015481526020016012820160009054906101000a900460ff1660ff1660ff1681526020016012820160019054906101000a900460ff1660ff1660ff1681526020016012820160029054906101000a900460ff1660ff1660ff1681526020016012820160039054906101000a900460ff1660ff1660ff1681526020016012820160049054906101000a900460ff1660ff1660ff168152505090506000816101e00151146137e957806101e00151915050613823565b60008161014001511461380457806101400151915050613823565b600081608001511461381d578060800151915050613823565b60009150505b919050565b6138386138336145f4565b61308d565b61384157600080fd5b61385581600061460690919063ffffffff16565b8073ffffffffffffffffffffffffffffffffffffffff167f78af5e2bc1f182518b5a494aa807f782e7a2026ab85683d13ce592896a52922f60405160405180910390a250565b6138ab6138a66145f4565b61308d565b6138b457600080fd5b60008060006138c1614a13565b6138c96145f4565b816000019073ffffffffffffffffffffffffffffffffffffffff16908173ffffffffffffffffffffffffffffffffffffffff1681525050878160200181815250506139126145f4565b8160a0019073ffffffffffffffffffffffffffffffffffffffff16908173ffffffffffffffffffffffffffffffffffffffff168152505086816040018181525050858160600181905250848160e00181905250428160c00181815250506611c37937e080008761398291906156f4565b8160800181815250506000816101000190600c8111156139cb577f4e487b7100000000000000000000000000000000000000000000000000000000600052602160045260246000fd5b9081600c811115613a05577f4e487b7100000000000000000000000000000000000000000000000000000000600052602160045260246000fd5b815250508381610120019073ffffffffffffffffffffffffffffffffffffffff16908173ffffffffffffffffffffffffffffffffffffffff168152505082816101c0019073ffffffffffffffffffffffffffffffffffffffff16908173ffffffffffffffffffffffffffffffffffffffff16815250508181610220019073ffffffffffffffffffffffffffffffffffffffff16908173ffffffffffffffffffffffffffffffffffffffff168152505080600560008a815260200190815260200160002060008201518160000160006101000a81548173ffffffffffffffffffffffffffffffffffffffff021916908373ffffffffffffffffffffffffffffffffffffffff16021790555060208201518160010155604082015181600201556060820151816003019080519060200190613b3f929190614b7f565b506080820151816004015560a08201518160050160006101000a81548173ffffffffffffffffffffffffffffffffffffffff021916908373ffffffffffffffffffffffffffffffffffffffff16021790555060c0820151816006015560e0820151816007019080519060200190613bb7929190614b7f565b506101008201518160080160006101000a81548160ff0219169083600c811115613c0a577f4e487b7100000000000000000000000000000000000000000000000000000000600052602160045260246000fd5b02179055506101208201518160080160016101000a81548173ffffffffffffffffffffffffffffffffffffffff021916908373ffffffffffffffffffffffffffffffffffffffff160217905550610140820151816009015561016082015181600a0160006101000a81548160ff02191690831515021790555061018082015181600b01556101a082015181600c01556101c082015181600d0160006101000a81548173ffffffffffffffffffffffffffffffffffffffff021916908373ffffffffffffffffffffffffffffffffffffffff1602179055506101e082015181600e015561020082015181600f01556102208201518160100160006101000a81548173ffffffffffffffffffffffffffffffffffffffff021916908373ffffffffffffffffffffffffffffffffffffffff16021790555061024082015181601101556102608201518160120160006101000a81548160ff021916908360ff1602179055506102808201518160120160016101000a81548160ff021916908360ff1602179055506102a08201518160120160026101000a81548160ff021916908360ff1602179055506102c08201518160120160036101000a81548160ff021916908360ff1602179055506102e08201518160120160046101000a81548160ff021916908360ff1602179055509050506000613e01614c05565b81816000018181525050818160200181815250508181604001818152505080600660008c81526020019081526020016000206000820151816000015560208201518160010155604082015181600201559050506001600754613e63919061569e565b6007819055507fa20cf5c0cc38eede6efacb85f9f76c7f8763bb01a4b43287a21fe5df6fe8615b8a604051613e9891906154ee565b60405180910390a150505050505050505050565b600460009054906101000a900473ffffffffffffffffffffffffffffffffffffffff1673ffffffffffffffffffffffffffffffffffffffff16613eed6145f4565b73ffffffffffffffffffffffffffffffffffffffff1614613f43576040517f08c379a0000000000000000000000000000000000000000000000000000000008152600401613f3a906153ee565b60405180910390fd5b600073ffffffffffffffffffffffffffffffffffffffff168173ffffffffffffffffffffffffffffffffffffffff161415613fb3576040517f08c379a0000000000000000000000000000000000000000000000000000000008152600401613faa906152ae565b60405180910390fd5b613fbc816148bd565b50565b613fc8816149b9565b50565b613fdb613fd66145f4565b612936565b613fe457600080fd5b816005600c81111561401f577f4e487b7100000000000000000000000000000000000000000000000000000000600052602160045260246000fd5b6005600083815260200190815260200160002060080160009054906101000a900460ff16600c81111561407b577f4e487b7100000000000000000000000000000000000000000000000000000000600052602160045260246000fd5b146140bb576040517f08c379a00000000000000000000000000000000000000000000000000000000081526004016140b29061532e565b60405180910390fd5b6005600084815260200190815260200160002060000160009054906101000a900473ffffffffffffffffffffffffffffffffffffffff168073ffffffffffffffffffffffffffffffffffffffff166141116145f4565b73ffffffffffffffffffffffffffffffffffffffff1614614167576040517f08c379a000000000000000000000000000000000000000000000000000000000815260040161415e9061540e565b60405180910390fd5b60066005600086815260200190815260200160002060080160006101000a81548160ff0219169083600c8111156141c7577f4e487b7100000000000000000000000000000000000000000000000000000000600052602160045260246000fd5b02179055508260056000868152602001908152602001600020600901819055507f539b4a835a8a5d1bc5756a9f146e2bfeaa6bd6b1fa77a7631c0a5154c86cdd038460405161421691906154ee565b60405180910390a150505050565b61423461422f6145f4565b612936565b61423d57600080fd5b806003600c811115614278577f4e487b7100000000000000000000000000000000000000000000000000000000600052602160045260246000fd5b6005600083815260200190815260200160002060080160009054906101000a900460ff16600c8111156142d4577f4e487b7100000000000000000000000000000000000000000000000000000000600052602160045260246000fd5b14614314576040517f08c379a000000000000000000000000000000000000000000000000000000000815260040161430b9061546e565b60405180910390fd5b6005600083815260200190815260200160002060000160009054906101000a900473ffffffffffffffffffffffffffffffffffffffff168073ffffffffffffffffffffffffffffffffffffffff1661436a6145f4565b73ffffffffffffffffffffffffffffffffffffffff16146143c0576040517f08c379a00000000000000000000000000000000000000000000000000000000081526004016143b79061540e565b60405180910390fd5b4260056000858152602001908152602001600020600c018190555060046005600085815260200190815260200160002060080160006101000a81548160ff0219169083600c81111561443b577f4e487b7100000000000000000000000000000000000000000000000000000000600052602160045260246000fd5b02179055507fc8ca2150e6e1849a10ef5aa4932060fa353bcacdffeb150c9e1890c6ab9403cc8360405161446f91906154ee565b60405180910390a1505050565b60075481565b600073ffffffffffffffffffffffffffffffffffffffff168173ffffffffffffffffffffffffffffffffffffffff1614156144f2576040517f08c379a00000000000000000000000000000000000000000000000000000000081526004016144e9906153ae565b60405180910390fd5b6144fc828261471d565b1561453c576040517f08c379a00000000000000000000000000000000000000000000000000000000081526004016145339061528e565b60405180910390fd5b60018260000160008373ffffffffffffffffffffffffffffffffffffffff1673ffffffffffffffffffffffffffffffffffffffff16815260200190815260200160002060006101000a81548160ff0219169083151502179055505050565b6145ae81600361448290919063ffffffff16565b8073ffffffffffffffffffffffffffffffffffffffff167f28b26e7a3d20aedbc5f8f2ebf7da671c0491723a2b78f47a097b0e46dee0714260405160405180910390a250565b600033905090565b6000819050919050565b600073ffffffffffffffffffffffffffffffffffffffff168173ffffffffffffffffffffffffffffffffffffffff161415614676576040517f08c379a000000000000000000000000000000000000000000000000000000000815260040161466d906153ae565b60405180910390fd5b614680828261471d565b6146bf576040517f08c379a00000000000000000000000000000000000000000000000000000000081526004016146b69061536e565b60405180910390fd5b60008260000160008373ffffffffffffffffffffffffffffffffffffffff1673ffffffffffffffffffffffffffffffffffffffff16815260200190815260200160002060006101000a81548160ff0219169083151502179055505050565b60008073ffffffffffffffffffffffffffffffffffffffff168273ffffffffffffffffffffffffffffffffffffffff16141561475857600080fd5b8260000160008373ffffffffffffffffffffffffffffffffffffffff1673ffffffffffffffffffffffffffffffffffffffff16815260200190815260200160002060009054906101000a900460ff16905092915050565b6147c381600161448290919063ffffffff16565b8073ffffffffffffffffffffffffffffffffffffffff167fddbf200aa634dc3fb81cfd68583dd1040d1c751d335e1d86b631bde3e977fea860405160405180910390a250565b61481d81600261448290919063ffffffff16565b8073ffffffffffffffffffffffffffffffffffffffff167f71ae26cad02663e3d92efd6ec56031a80d74a20c0ab4183faa8bf262261c9baa60405160405180910390a250565b61487781600061448290919063ffffffff16565b8073ffffffffffffffffffffffffffffffffffffffff167f2a6b352b84affc85ec0ab54b71a09c17830148eb8a1c5aeabf5cd5e73ee7c24860405160405180910390a250565b6000600460009054906101000a900473ffffffffffffffffffffffffffffffffffffffff16905081600460006101000a81548173ffffffffffffffffffffffffffffffffffffffff021916908373ffffffffffffffffffffffffffffffffffffffff16021790555061492e8261257c565b61493782612953565b61494082612911565b61494981611e05565b61495281613828565b61495b81612509565b8173ffffffffffffffffffffffffffffffffffffffff168173ffffffffffffffffffffffffffffffffffffffff167f8be0079c531659141344cd1fd0a4f28419497f9722a3daafe3b4186f6b6457e060405160405180910390a35050565b6149cd81600361460690919063ffffffff16565b8073ffffffffffffffffffffffffffffffffffffffff167fe3f5ed5f263f1f01764a96edfc7d025f511ec5f7d180e8816908b78bcf74f09860405160405180910390a250565b604051806103000160405280600073ffffffffffffffffffffffffffffffffffffffff16815260200160008152602001600081526020016060815260200160008152602001600073ffffffffffffffffffffffffffffffffffffffff16815260200160008152602001606081526020016000600c811115614abd577f4e487b7100000000000000000000000000000000000000000000000000000000600052602160045260246000fd5b8152602001600073ffffffffffffffffffffffffffffffffffffffff168152602001600081526020016000151581526020016000815260200160008152602001600073ffffffffffffffffffffffffffffffffffffffff1681526020016000815260200160008152602001600073ffffffffffffffffffffffffffffffffffffffff16815260200160008152602001600060ff168152602001600060ff168152602001600060ff168152602001600060ff168152602001600060ff1681525090565b828054614b8b9061583e565b90600052602060002090601f016020900481019282614bad5760008555614bf4565b82601f10614bc657805160ff1916838001178555614bf4565b82800160010185558215614bf4579182015b82811115614bf3578251825591602001919060010190614bd8565b5b509050614c019190614c26565b5090565b60405180606001604052806000815260200160008152602001600081525090565b5b80821115614c3f576000816000905550600101614c27565b5090565b6000614c56614c5184615651565b61562c565b905082815260208101848484011115614c6e57600080fd5b614c798482856157fc565b509392505050565b600081359050614c9081615f62565b92915050565b600081359050614ca581615f79565b92915050565b600082601f830112614cbc57600080fd5b8135614ccc848260208601614c43565b91505092915050565b600081359050614ce481615f90565b92915050565b600081359050614cf981615fa7565b92915050565b600060208284031215614d1157600080fd5b6000614d1f84828501614c81565b91505092915050565b600060208284031215614d3a57600080fd5b6000614d4884828501614cd5565b91505092915050565b600080600060608486031215614d6657600080fd5b6000614d7486828701614cd5565b9350506020614d8586828701614c96565b9250506040614d9686828701614cd5565b9150509250925092565b60008060408385031215614db357600080fd5b6000614dc185828601614cd5565b9250506020614dd285828601614cd5565b9150509250929050565b60008060008060808587031215614df257600080fd5b6000614e0087828801614cd5565b9450506020614e1187828801614cd5565b935050604085013567ffffffffffffffff811115614e2e57600080fd5b614e3a87828801614cab565b925050606085013567ffffffffffffffff811115614e5757600080fd5b614e6387828801614cab565b91505092959194509250565b60008060008060008060c08789031215614e8857600080fd5b6000614e9689828a01614cd5565b9650506020614ea789828a01614cea565b9550506040614eb889828a01614cea565b9450506060614ec989828a01614cea565b9350506080614eda89828a01614cea565b92505060a0614eeb89828a01614cea565b9150509295509295509295565b614f0181615782565b82525050565b614f1081615794565b82525050565b614f1f816157ea565b82525050565b6000614f3082615682565b614f3a818561568d565b9350614f4a81856020860161580b565b614f538161595d565b840191505092915050565b6000614f6b602e8361568d565b9150614f768261596e565b604082019050919050565b6000614f8e601f8361568d565b9150614f99826159bd565b602082019050919050565b6000614fb160268361568d565b9150614fbc826159e6565b604082019050919050565b6000614fd4602e8361568d565b9150614fdf82615a35565b604082019050919050565b6000614ff760308361568d565b915061500282615a84565b604082019050919050565b600061501a602d8361568d565b915061502582615ad3565b604082019050919050565b600061503d60328361568d565b915061504882615b22565b604082019050919050565b6000615060602e8361568d565b915061506b82615b71565b604082019050919050565b600061508360218361568d565b915061508e82615bc0565b604082019050919050565b60006150a660298361568d565b91506150b182615c0f565b604082019050919050565b60006150c960228361568d565b91506150d482615c5e565b604082019050919050565b60006150ec602f8361568d565b91506150f782615cad565b604082019050919050565b600061510f60278361568d565b915061511a82615cfc565b604082019050919050565b600061513260318361568d565b915061513d82615d4b565b604082019050919050565b600061515560328361568d565b915061516082615d9a565b604082019050919050565b600061517860318361568d565b915061518382615de9565b604082019050919050565b600061519b602e8361568d565b91506151a682615e38565b604082019050919050565b60006151be60308361568d565b91506151c982615e87565b604082019050919050565b60006151e1602f8361568d565b91506151ec82615ed6565b604082019050919050565b600061520460178361568d565b915061520f82615f25565b602082019050919050565b615223816157d3565b82525050565b615232816157dd565b82525050565b600060208201905061524d6000830184614ef8565b92915050565b60006020820190506152686000830184614f07565b92915050565b6000602082019050818103600083015261528781614f5e565b9050919050565b600060208201905081810360008301526152a781614f81565b9050919050565b600060208201905081810360008301526152c781614fa4565b9050919050565b600060208201905081810360008301526152e781614fc7565b9050919050565b6000602082019050818103600083015261530781614fea565b9050919050565b600060208201905081810360008301526153278161500d565b9050919050565b6000602082019050818103600083015261534781615030565b9050919050565b6000602082019050818103600083015261536781615053565b9050919050565b6000602082019050818103600083015261538781615076565b9050919050565b600060208201905081810360008301526153a781615099565b9050919050565b600060208201905081810360008301526153c7816150bc565b9050919050565b600060208201905081810360008301526153e7816150df565b9050919050565b6000602082019050818103600083015261540781615102565b9050919050565b6000602082019050818103600083015261542781615125565b9050919050565b6000602082019050818103600083015261544781615148565b9050919050565b600060208201905081810360008301526154678161516b565b9050919050565b600060208201905081810360008301526154878161518e565b9050919050565b600060208201905081810360008301526154a7816151b1565b9050919050565b600060208201905081810360008301526154c7816151d4565b9050919050565b600060208201905081810360008301526154e7816151f7565b9050919050565b6000602082019050615503600083018461521a565b92915050565b600060e08201905061551e600083018a61521a565b61552b6020830189614ef8565b818103604083015261553d8188614f25565b905061554c606083018761521a565b6155596080830186614f16565b61556660a083018561521a565b81810360c08301526155788184614f25565b905098975050505050505050565b600060e08201905061559b600083018a61521a565b6155a86020830189614ef8565b6155b56040830188615229565b6155c26060830187615229565b6155cf6080830186615229565b6155dc60a0830185615229565b6155e960c0830184615229565b98975050505050505050565b600060608201905061560a600083018661521a565b615617602083018561521a565b615624604083018461521a565b949350505050565b6000615636615647565b90506156428282615870565b919050565b6000604051905090565b600067ffffffffffffffff82111561566c5761566b61592e565b5b6156758261595d565b9050602081019050919050565b600081519050919050565b600082825260208201905092915050565b60006156a9826157d3565b91506156b4836157d3565b9250827fffffffffffffffffffffffffffffffffffffffffffffffffffffffffffffffff038211156156e9576156e86158a1565b5b828201905092915050565b60006156ff826157d3565b915061570a836157d3565b9250817fffffffffffffffffffffffffffffffffffffffffffffffffffffffffffffffff0483118215151615615743576157426158a1565b5b828202905092915050565b6000615759826157d3565b9150615764836157d3565b925082821015615777576157766158a1565b5b828203905092915050565b600061578d826157b3565b9050919050565b60008115159050919050565b60008190506157ae82615f4e565b919050565b600073ffffffffffffffffffffffffffffffffffffffff82169050919050565b6000819050919050565b600060ff82169050919050565b60006157f5826157a0565b9050919050565b82818337600083830152505050565b60005b8381101561582957808201518184015260208101905061580e565b83811115615838576000848401525b50505050565b6000600282049050600182168061585657607f821691505b6020821081141561586a576158696158ff565b5b50919050565b6158798261595d565b810181811067ffffffffffffffff821117156158985761589761592e565b5b80604052505050565b7f4e487b7100000000000000000000000000000000000000000000000000000000600052601160045260246000fd5b7f4e487b7100000000000000000000000000000000000000000000000000000000600052602160045260246000fd5b7f4e487b7100000000000000000000000000000000000000000000000000000000600052602260045260246000fd5b7f4e487b7100000000000000000000000000000000000000000000000000000000600052604160045260246000fd5b6000601f19601f8301169050919050565b7f44757269616e206973206e6f7420696e207468652050726f647563654279486160008201527f727665737465722073746174652e000000000000000000000000000000000000602082015250565b7f526f6c65733a206163636f756e7420616c72656164792068617320726f6c6500600082015250565b7f4f776e61626c653a206e6577206f776e657220697320746865207a65726f206160008201527f6464726573730000000000000000000000000000000000000000000000000000602082015250565b7f44757269616e206973206e6f7420696e2074686520466f7253616c654279486160008201527f727665737465722073746174652e000000000000000000000000000000000000602082015250565b7f44757269616e206973206e6f7420696e2074686520536869707065644279446960008201527f737472696275746f722073746174652e00000000000000000000000000000000602082015250565b7f44757269616e206973206e6f7420696e2074686520466f7253616c654279526560008201527f7461696c65722073746174652e00000000000000000000000000000000000000602082015250565b7f44757269616e206973206e6f7420696e207468652050726f636573736564427960008201527f4469737472696275746f722073746174652e0000000000000000000000000000602082015250565b7f44757269616e206973206e6f7420696e2074686520526563656976656442795260008201527f657461696c65722073746174652e000000000000000000000000000000000000602082015250565b7f526f6c65733a206163636f756e7420646f6573206e6f74206861766520726f6c60008201527f6500000000000000000000000000000000000000000000000000000000000000602082015250565b7f44757269616e20776974682074686520676976656e20636f646520646f65732060008201527f6e6f742065786973740000000000000000000000000000000000000000000000602082015250565b7f526f6c65733a206163636f756e7420697320746865207a65726f20616464726560008201527f7373000000000000000000000000000000000000000000000000000000000000602082015250565b7f44757269616e206973206e6f7420696e2074686520507572636861736564427960008201527f52657461696c65722073746174652e0000000000000000000000000000000000602082015250565b7f4f6e6c7920746865206f776e65722063616e20706572666f726d20746869732060008201527f616374696f6e2e00000000000000000000000000000000000000000000000000602082015250565b7f4f6e6c79207468652076657269666965642063616c6c65722063616e2070657260008201527f666f726d207468697320616374696f6e2e000000000000000000000000000000602082015250565b7f44757269616e206973206e6f7420696e2074686520507572636861736564427960008201527f4469737472696275746f722073746174652e0000000000000000000000000000602082015250565b7f44757269616e206973206e6f7420696e2074686520526563656976656442794460008201527f69737472696275746f722073746174652e000000000000000000000000000000602082015250565b7f44757269616e206973206e6f7420696e2074686520536869707065644279486160008201527f727665737465722073746174652e000000000000000000000000000000000000602082015250565b7f44757269616e206973206e6f7420696e2074686520466f7253616c654279446960008201527f737472696275746f722073746174652e00000000000000000000000000000000602082015250565b7f44757269616e206973206e6f7420696e2074686520507572636861736564427960008201527f436f6e73756d65722073746174652e0000000000000000000000000000000000602082015250565b7f496e73756666696369656e742066756e64732073656e74000000000000000000600082015250565b600d8110615f5f57615f5e6158d0565b5b50565b615f6b81615782565b8114615f7657600080fd5b50565b615f8281615794565b8114615f8d57600080fd5b50565b615f99816157d3565b8114615fa457600080fd5b50565b615fb0816157dd565b8114615fbb57600080fd5b5056fea26469706673582212203e30d473996c57fb979b431bc46cb95bc08fee6bbf0e763a4ae794a930057bb064736f6c63430008040033",
  "linkReferences": {},
  "deployedLinkReferences": {}
}