{
  "_format": "hh-sol-artifact-1",
  "contractName": "durianSupplyChain",
  "sourceName": "contracts/durianSupplyChain/duriansupplyChain.sol",
  "abi": [
    {
      "inputs": [],
      "stateMutability": "payable",
      "type": "constructor"
    },
    {
      "anonymous": false,
      "inputs": [
        {
          "indexed": true,
          "internalType": "address",
          "name": "account",
          "type": "address"
        }
      ],
      "name": "ConsumerAdded",
      "type": "event"
    },
    {
      "anonymous": false,
      "inputs": [
        {
          "indexed": true,
          "internalType": "address",
          "name": "harvester",
          "type": "address"
        },
        {
          "indexed": true,
          "internalType": "address",
          "name": "account",
          "type": "address"
        }
      ],
      "name": "ConsumerAddedByRetailer",
      "type": "event"
    },
    {
      "anonymous": false,
      "inputs": [
        {
          "indexed": true,
          "internalType": "address",
          "name": "account",
          "type": "address"
        }
      ],
      "name": "ConsumerRemoved",
      "type": "event"
    },
    {
      "anonymous": false,
      "inputs": [
        {
          "indexed": true,
          "internalType": "address",
          "name": "account",
          "type": "address"
        }
      ],
      "name": "DistributorAdded",
      "type": "event"
    },
    {
      "anonymous": false,
      "inputs": [
        {
          "indexed": true,
          "internalType": "address",
          "name": "harvester",
          "type": "address"
        },
        {
          "indexed": true,
          "internalType": "address",
          "name": "account",
          "type": "address"
        }
      ],
      "name": "DistributorAddedByHarvester",
      "type": "event"
    },
    {
      "anonymous": false,
      "inputs": [
        {
          "indexed": true,
          "internalType": "address",
          "name": "account",
          "type": "address"
        }
      ],
      "name": "DistributorRemoved",
      "type": "event"
    },
    {
      "anonymous": false,
      "inputs": [
        {
          "indexed": false,
          "internalType": "uint256",
          "name": "durianCode",
          "type": "uint256"
        }
      ],
      "name": "ForSaleByDistributor",
      "type": "event"
    },
    {
      "anonymous": false,
      "inputs": [
        {
          "indexed": false,
          "internalType": "uint256",
          "name": "durianCode",
          "type": "uint256"
        }
      ],
      "name": "ForSaleByHarvester",
      "type": "event"
    },
    {
      "anonymous": false,
      "inputs": [
        {
          "indexed": false,
          "internalType": "uint256",
          "name": "durianCode",
          "type": "uint256"
        }
      ],
      "name": "ForSaleByRetailer",
      "type": "event"
    },
    {
      "anonymous": false,
      "inputs": [
        {
          "indexed": true,
          "internalType": "address",
          "name": "account",
          "type": "address"
        }
      ],
      "name": "HarvesterAdded",
      "type": "event"
    },
    {
      "anonymous": false,
      "inputs": [
        {
          "indexed": true,
          "internalType": "address",
          "name": "account",
          "type": "address"
        }
      ],
      "name": "HarvesterRemoved",
      "type": "event"
    },
    {
      "anonymous": false,
      "inputs": [
        {
          "indexed": true,
          "internalType": "address",
          "name": "previousOwner",
          "type": "address"
        },
        {
          "indexed": true,
          "internalType": "address",
          "name": "newOwner",
          "type": "address"
        }
      ],
      "name": "OwnershipTransferred",
      "type": "event"
    },
    {
      "anonymous": false,
      "inputs": [
        {
          "indexed": false,
          "internalType": "uint256",
          "name": "durianCode",
          "type": "uint256"
        }
      ],
      "name": "ProcessedByDistributor",
      "type": "event"
    },
    {
      "anonymous": false,
      "inputs": [
        {
          "indexed": false,
          "internalType": "uint256",
          "name": "durianCode",
          "type": "uint256"
        }
      ],
      "name": "ProduceByHarvester",
      "type": "event"
    },
    {
      "anonymous": false,
      "inputs": [
        {
          "indexed": false,
          "internalType": "uint256",
          "name": "durianCode",
          "type": "uint256"
        }
      ],
      "name": "PurchasedByConsumer",
      "type": "event"
    },
    {
      "anonymous": false,
      "inputs": [
        {
          "indexed": false,
          "internalType": "uint256",
          "name": "durianCode",
          "type": "uint256"
        }
      ],
      "name": "PurchasedByDistributor",
      "type": "event"
    },
    {
      "anonymous": false,
      "inputs": [
        {
          "indexed": false,
          "internalType": "uint256",
          "name": "durianCode",
          "type": "uint256"
        }
      ],
      "name": "PurchasedByRetailer",
      "type": "event"
    },
    {
      "anonymous": false,
      "inputs": [
        {
          "indexed": false,
          "internalType": "uint256",
          "name": "durianCode",
          "type": "uint256"
        }
      ],
      "name": "RatingByConsumer",
      "type": "event"
    },
    {
      "anonymous": false,
      "inputs": [
        {
          "indexed": false,
          "internalType": "uint256",
          "name": "durianCode",
          "type": "uint256"
        }
      ],
      "name": "ReceivedByDistributor",
      "type": "event"
    },
    {
      "anonymous": false,
      "inputs": [
        {
          "indexed": false,
          "internalType": "uint256",
          "name": "durianCode",
          "type": "uint256"
        }
      ],
      "name": "ReceivedByRetailer",
      "type": "event"
    },
    {
      "anonymous": false,
      "inputs": [
        {
          "indexed": true,
          "internalType": "address",
          "name": "account",
          "type": "address"
        }
      ],
      "name": "RetailerAdded",
      "type": "event"
    },
    {
      "anonymous": false,
      "inputs": [
        {
          "indexed": true,
          "internalType": "address",
          "name": "harvester",
          "type": "address"
        },
        {
          "indexed": true,
          "internalType": "address",
          "name": "account",
          "type": "address"
        }
      ],
      "name": "RetailerAddedByDistributor",
      "type": "event"
    },
    {
      "anonymous": false,
      "inputs": [
        {
          "indexed": true,
          "internalType": "address",
          "name": "account",
          "type": "address"
        }
      ],
      "name": "RetailerRemoved",
      "type": "event"
    },
    {
      "anonymous": false,
      "inputs": [
        {
          "indexed": false,
          "internalType": "uint256",
          "name": "durianCode",
          "type": "uint256"
        }
      ],
      "name": "ShippedByDistributor",
      "type": "event"
    },
    {
      "anonymous": false,
      "inputs": [
        {
          "indexed": false,
          "internalType": "uint256",
          "name": "durianCode",
          "type": "uint256"
        }
      ],
      "name": "ShippedByHarvester",
      "type": "event"
    },
    {
      "inputs": [
        {
          "internalType": "address",
          "name": "account",
          "type": "address"
        }
      ],
      "name": "addConsumer",
      "outputs": [],
      "stateMutability": "nonpayable",
      "type": "function"
    },
    {
      "inputs": [
        {
          "internalType": "address",
          "name": "account",
          "type": "address"
        }
      ],
      "name": "addDistributor",
      "outputs": [],
      "stateMutability": "nonpayable",
      "type": "function"
    },
    {
      "inputs": [
        {
          "internalType": "address",
          "name": "account",
          "type": "address"
        }
      ],
      "name": "addHarvester",
      "outputs": [],
      "stateMutability": "nonpayable",
      "type": "function"
    },
    {
      "inputs": [
        {
          "internalType": "address",
          "name": "account",
          "type": "address"
        }
      ],
      "name": "addRetailer",
      "outputs": [],
      "stateMutability": "nonpayable",
      "type": "function"
    },
    {
      "inputs": [
        {
          "internalType": "uint256",
          "name": "_durianCode",
          "type": "uint256"
        }
      ],
      "name": "displayCurrentPrice",
      "outputs": [
        {
          "internalType": "uint256",
          "name": "durianPrice",
          "type": "uint256"
        }
      ],
      "stateMutability": "view",
      "type": "function"
    },
    {
      "inputs": [
        {
          "internalType": "uint256",
          "name": "_durianCode",
          "type": "uint256"
        }
      ],
      "name": "fetchDurianBufferOne",
      "outputs": [
        {
          "internalType": "uint256",
          "name": "durianToCode",
          "type": "uint256"
        },
        {
          "internalType": "address",
          "name": "ownerID",
          "type": "address"
        },
        {
          "internalType": "string",
          "name": "HarvestLocationAddress",
          "type": "string"
        },
        {
          "internalType": "uint256",
          "name": "harvestedTime",
          "type": "uint256"
        },
        {
          "internalType": "enum durianSupplyChain.State",
          "name": "durianState",
          "type": "uint8"
        },
        {
          "internalType": "uint256",
          "name": "durianCurrentPriceState",
          "type": "uint256"
        },
        {
          "internalType": "string",
          "name": "durianType",
          "type": "string"
        }
      ],
      "stateMutability": "view",
      "type": "function"
    },
    {
      "inputs": [
        {
          "internalType": "uint256",
          "name": "_durianCode",
          "type": "uint256"
        }
      ],
      "name": "fetchDurianBufferTwo",
      "outputs": [
        {
          "internalType": "uint256",
          "name": "durianToCode",
          "type": "uint256"
        },
        {
          "internalType": "address",
          "name": "ownerID",
          "type": "address"
        },
        {
          "internalType": "uint8",
          "name": "taste",
          "type": "uint8"
        },
        {
          "internalType": "uint8",
          "name": "condition",
          "type": "uint8"
        },
        {
          "internalType": "uint8",
          "name": "fragrance",
          "type": "uint8"
        },
        {
          "internalType": "uint8",
          "name": "creaminess",
          "type": "uint8"
        },
        {
          "internalType": "uint8",
          "name": "ripeness",
          "type": "uint8"
        }
      ],
      "stateMutability": "view",
      "type": "function"
    },
    {
      "inputs": [
        {
          "internalType": "uint256",
          "name": "_durianCode",
          "type": "uint256"
        }
      ],
      "name": "fetchDurianHistory",
      "outputs": [
        {
          "internalType": "uint256",
          "name": "blockHarvesterToDistributor",
          "type": "uint256"
        },
        {
          "internalType": "uint256",
          "name": "blockDistributorToRetailer",
          "type": "uint256"
        },
        {
          "internalType": "uint256",
          "name": "blockRetailerToConsumer",
          "type": "uint256"
        }
      ],
      "stateMutability": "view",
      "type": "function"
    },
    {
      "inputs": [
        {
          "internalType": "address",
          "name": "account",
          "type": "address"
        }
      ],
      "name": "isConsumer",
      "outputs": [
        {
          "internalType": "bool",
          "name": "",
          "type": "bool"
        }
      ],
      "stateMutability": "view",
      "type": "function"
    },
    {
      "inputs": [
        {
          "internalType": "address",
          "name": "account",
          "type": "address"
        }
      ],
      "name": "isDistributor",
      "outputs": [
        {
          "internalType": "bool",
          "name": "",
          "type": "bool"
        }
      ],
      "stateMutability": "view",
      "type": "function"
    },
    {
      "inputs": [
        {
          "internalType": "address",
          "name": "account",
          "type": "address"
        }
      ],
      "name": "isHarvester",
      "outputs": [
        {
          "internalType": "bool",
          "name": "",
          "type": "bool"
        }
      ],
      "stateMutability": "view",
      "type": "function"
    },
    {
      "inputs": [
        {
          "internalType": "address",
          "name": "_owner",
          "type": "address"
        }
      ],
      "name": "isOwner",
      "outputs": [
        {
          "internalType": "bool",
          "name": "",
          "type": "bool"
        }
      ],
      "stateMutability": "view",
      "type": "function"
    },
    {
      "inputs": [
        {
          "internalType": "address",
          "name": "account",
          "type": "address"
        }
      ],
      "name": "isRetailer",
      "outputs": [
        {
          "internalType": "bool",
          "name": "",
          "type": "bool"
        }
      ],
      "stateMutability": "view",
      "type": "function"
    },
    {
      "inputs": [],
      "name": "kill",
      "outputs": [],
      "stateMutability": "nonpayable",
      "type": "function"
    },
    {
      "inputs": [],
      "name": "owner",
      "outputs": [
        {
          "internalType": "address",
          "name": "",
          "type": "address"
        }
      ],
      "stateMutability": "view",
      "type": "function"
    },
    {
      "inputs": [
        {
          "internalType": "uint256",
          "name": "_durianCode",
          "type": "uint256"
        },
        {
          "internalType": "bool",
          "name": "_packaging",
          "type": "bool"
        },
        {
          "internalType": "uint256",
          "name": "_piecesFlesh",
          "type": "uint256"
        }
      ],
      "name": "processedDurianByDistributor",
      "outputs": [],
      "stateMutability": "nonpayable",
      "type": "function"
    },
    {
      "inputs": [
        {
          "internalType": "uint256",
          "name": "_durianCode",
          "type": "uint256"
        },
        {
          "internalType": "uint256",
          "name": "_durianWeight",
          "type": "uint256"
        },
        {
          "internalType": "string",
          "name": "_durianType",
          "type": "string"
        },
        {
          "internalType": "string",
          "name": "_harvestLocationAddress",
          "type": "string"
        }
      ],
      "name": "produceDurianByHarvester",
      "outputs": [],
      "stateMutability": "nonpayable",
      "type": "function"
    },
    {
      "inputs": [
        {
          "internalType": "uint256",
          "name": "_durianCode",
          "type": "uint256"
        }
      ],
      "name": "purchaseDurianByConsumer",
      "outputs": [],
      "stateMutability": "payable",
      "type": "function"
    },
    {
      "inputs": [
        {
          "internalType": "uint256",
          "name": "_durianCode",
          "type": "uint256"
        }
      ],
      "name": "purchaseDurianByDistributor",
      "outputs": [],
      "stateMutability": "payable",
      "type": "function"
    },
    {
      "inputs": [
        {
          "internalType": "uint256",
          "name": "_durianCode",
          "type": "uint256"
        }
      ],
      "name": "purchaseDurianByRetailer",
      "outputs": [],
      "stateMutability": "payable",
      "type": "function"
    },
    {
      "inputs": [
        {
          "internalType": "uint256",
          "name": "_durianCode",
          "type": "uint256"
        },
        {
          "internalType": "uint8",
          "name": "_taste",
          "type": "uint8"
        },
        {
          "internalType": "uint8",
          "name": "_condition",
          "type": "uint8"
        },
        {
          "internalType": "uint8",
          "name": "_fragrance",
          "type": "uint8"
        },
        {
          "internalType": "uint8",
          "name": "_creaminess",
          "type": "uint8"
        },
        {
          "internalType": "uint8",
          "name": "_ripeness",
          "type": "uint8"
        }
      ],
      "name": "rateDurianFromConsumer",
      "outputs": [],
      "stateMutability": "payable",
      "type": "function"
    },
    {
      "inputs": [
        {
          "internalType": "uint256",
          "name": "_durianCode",
          "type": "uint256"
        }
      ],
      "name": "receivedDurianByDistributor",
      "outputs": [],
      "stateMutability": "nonpayable",
      "type": "function"
    },
    {
      "inputs": [
        {
          "internalType": "uint256",
          "name": "_durianCode",
          "type": "uint256"
        }
      ],
      "name": "receivedDurianByRetailer",
      "outputs": [],
      "stateMutability": "nonpayable",
      "type": "function"
    },
    {
      "inputs": [
        {
          "internalType": "address",
          "name": "account",
          "type": "address"
        }
      ],
      "name": "removeDistributor",
      "outputs": [],
      "stateMutability": "nonpayable",
      "type": "function"
    },
    {
      "inputs": [
        {
          "internalType": "address",
          "name": "account",
          "type": "address"
        }
      ],
      "name": "removeHarvester",
      "outputs": [],
      "stateMutability": "nonpayable",
      "type": "function"
    },
    {
      "inputs": [
        {
          "internalType": "address",
          "name": "account",
          "type": "address"
        }
      ],
      "name": "removeRetailer",
      "outputs": [],
      "stateMutability": "nonpayable",
      "type": "function"
    },
    {
      "inputs": [
        {
          "internalType": "address",
          "name": "account",
          "type": "address"
        }
      ],
      "name": "renounceConsumer",
      "outputs": [],
      "stateMutability": "nonpayable",
      "type": "function"
    },
    {
      "inputs": [
        {
          "internalType": "uint256",
          "name": "_durianCode",
          "type": "uint256"
        },
        {
          "internalType": "uint256",
          "name": "_price",
          "type": "uint256"
        }
      ],
      "name": "sellDurianByDistributor",
      "outputs": [],
      "stateMutability": "nonpayable",
      "type": "function"
    },
    {
      "inputs": [
        {
          "internalType": "uint256",
          "name": "_durianCode",
          "type": "uint256"
        }
      ],
      "name": "sellDurianByHarvester",
      "outputs": [],
      "stateMutability": "nonpayable",
      "type": "function"
    },
    {
      "inputs": [
        {
          "internalType": "uint256",
          "name": "_durianCode",
          "type": "uint256"
        },
        {
          "internalType": "uint256",
          "name": "_price",
          "type": "uint256"
        }
      ],
      "name": "sellDurianByRetailer",
      "outputs": [],
      "stateMutability": "nonpayable",
      "type": "function"
    },
    {
      "inputs": [
        {
          "internalType": "uint256",
          "name": "_durianCode",
          "type": "uint256"
        }
      ],
      "name": "shippedDurianByDistributor",
      "outputs": [],
      "stateMutability": "nonpayable",
      "type": "function"
    },
    {
      "inputs": [
        {
          "internalType": "uint256",
          "name": "_durianCode",
          "type": "uint256"
        }
      ],
      "name": "shippedDurianByHarvester",
      "outputs": [],
      "stateMutability": "nonpayable",
      "type": "function"
    },
    {
      "inputs": [
        {
          "internalType": "address",
          "name": "newOwner",
          "type": "address"
        }
      ],
      "name": "transferOwnership",
      "outputs": [],
      "stateMutability": "nonpayable",
      "type": "function"
    }
  ],
  "bytecode": "0x60806040526200002462000018620000da60201b60201c565b620000e260201b60201c565b6200004462000038620000da60201b60201c565b6200014360201b60201c565b6200006462000058620000da60201b60201c565b620001a460201b60201c565b6200008462000078620000da60201b60201c565b6200020560201b60201c565b62000094620000da60201b60201c565b600460006101000a81548173ffffffffffffffffffffffffffffffffffffffff021916908373ffffffffffffffffffffffffffffffffffffffff1602179055506200053a565b600033905090565b620000fd8160006200026660201b620044311790919060201c565b8073ffffffffffffffffffffffffffffffffffffffff167f2a6b352b84affc85ec0ab54b71a09c17830148eb8a1c5aeabf5cd5e73ee7c24860405160405180910390a250565b6200015e8160016200026660201b620044311790919060201c565b8073ffffffffffffffffffffffffffffffffffffffff167fddbf200aa634dc3fb81cfd68583dd1040d1c751d335e1d86b631bde3e977fea860405160405180910390a250565b620001bf8160026200026660201b620044311790919060201c565b8073ffffffffffffffffffffffffffffffffffffffff167f71ae26cad02663e3d92efd6ec56031a80d74a20c0ab4183faa8bf262261c9baa60405160405180910390a250565b620002208160036200026660201b620044311790919060201c565b8073ffffffffffffffffffffffffffffffffffffffff167f28b26e7a3d20aedbc5f8f2ebf7da671c0491723a2b78f47a097b0e46dee0714260405160405180910390a250565b600073ffffffffffffffffffffffffffffffffffffffff168173ffffffffffffffffffffffffffffffffffffffff161415620002d9576040517f08c379a0000000000000000000000000000000000000000000000000000000008152600401620002d0906200048f565b60405180910390fd5b620002eb82826200038c60201b60201c565b156200032e576040517f08c379a000000000000000000000000000000000000000000000000000000000815260040162000325906200046d565b60405180910390fd5b60018260000160008373ffffffffffffffffffffffffffffffffffffffff1673ffffffffffffffffffffffffffffffffffffffff16815260200190815260200160002060006101000a81548160ff0219169083151502179055505050565b60008073ffffffffffffffffffffffffffffffffffffffff168273ffffffffffffffffffffffffffffffffffffffff161415620003c857600080fd5b8260000160008373ffffffffffffffffffffffffffffffffffffffff1673ffffffffffffffffffffffffffffffffffffffff16815260200190815260200160002060009054906101000a900460ff16905092915050565b60006200042e601f83620004b1565b91506200043b82620004c2565b602082019050919050565b600062000455602283620004b1565b91506200046282620004eb565b604082019050919050565b6000602082019050818103600083015262000488816200041f565b9050919050565b60006020820190508181036000830152620004aa8162000446565b9050919050565b600082825260208201905092915050565b7f526f6c65733a206163636f756e7420616c72656164792068617320726f6c6500600082015250565b7f526f6c65733a206163636f756e7420697320746865207a65726f20616464726560008201527f7373000000000000000000000000000000000000000000000000000000000000602082015250565b615f4d806200054a6000396000f3fe6080604052600436106101ee5760003560e01c8063834ff7391161010d578063a71bbfd5116100a0578063bebf21d11161006f578063bebf21d1146106ed578063f2fde38b14610716578063f487d48d1461073f578063f8fa7bb314610768578063fa013f9f14610791576101ee565b8063a71bbfd514610621578063aca498011461065e578063afe4bc3a14610687578063aff66095146106c4576101ee565b80638fab5917116100dc5780638fab59171461057457806390f0c7531461059d5780639c61fc6b146105b9578063a0d6e2bf146105e2576101ee565b8063834ff739146104a65780638da5cb5b146104e35780638ec4f5051461050e5780638f0c86fa14610537576101ee565b806341c0e1b511610185578063629b737511610154578063629b73751461041c57806370099ec8146104385780637250e22414610461578063828c11801461048a576101ee565b806341c0e1b51461037657806357c1f9e21461038d5780635da09b88146103b65780635df04d38146103f3576101ee565b80632b843c5f116101c15780632b843c5f146102a45780632cd1446a146102cd5780632f54bf6e146103105780633fff55851461034d576101ee565b80630b671700146101f3578063112940f91461023657806311d191851461025f5780631bc33c5f1461027b575b600080fd5b3480156101ff57600080fd5b5061021a60048036038101906102159190614cd7565b6107ba565b60405161022d97969594939291906154b8565b60405180910390f35b34801561024257600080fd5b5061025d60048036038101906102589190614cae565b610c9a565b005b61027960048036038101906102749190614cd7565b610ca6565b005b34801561028757600080fd5b506102a2600480360381019061029d9190614cd7565b6110ab565b005b3480156102b057600080fd5b506102cb60048036038101906102c69190614cd7565b611303565b005b3480156102d957600080fd5b506102f460048036038101906102ef9190614cd7565b611540565b6040516103079796959493929190615535565b60405180910390f35b34801561031c57600080fd5b5061033760048036038101906103329190614cae565b611a18565b6040516103449190615202565b60405180910390f35b34801561035957600080fd5b50610374600480360381019061036f9190614d00565b611a72565b005b34801561038257600080fd5b5061038b611d28565b005b34801561039957600080fd5b506103b460048036038101906103af9190614cae565b611dcf565b005b3480156103c257600080fd5b506103dd60048036038101906103d89190614cae565b611e42565b6040516103ea9190615202565b60405180910390f35b3480156103ff57600080fd5b5061041a60048036038101906104159190614d4f565b611e5f565b005b61043660048036038101906104319190614cd7565b6120b8565b005b34801561044457600080fd5b5061045f600480360381019061045a9190614cae565b6124d3565b005b34801561046d57600080fd5b5061048860048036038101906104839190614cae565b612546565b005b6104a4600480360381019061049f9190614e1e565b61256b565b005b3480156104b257600080fd5b506104cd60048036038101906104c89190614cae565b612898565b6040516104da9190615202565b60405180910390f35b3480156104ef57600080fd5b506104f86128b5565b60405161050591906151e7565b60405180910390f35b34801561051a57600080fd5b5061053560048036038101906105309190614cae565b6128db565b005b34801561054357600080fd5b5061055e60048036038101906105599190614cae565b612900565b60405161056b9190615202565b60405180910390f35b34801561058057600080fd5b5061059b60048036038101906105969190614cae565b61291d565b005b6105b760048036038101906105b29190614cd7565b612942565b005b3480156105c557600080fd5b506105e060048036038101906105db9190614cd7565b612db9565b005b3480156105ee57600080fd5b5061060960048036038101906106049190614cd7565b612ff6565b604051610618939291906155a4565b60405180910390f35b34801561062d57600080fd5b5061064860048036038101906106439190614cae565b613057565b6040516106559190615202565b60405180910390f35b34801561066a57600080fd5b5061068560048036038101906106809190614cd7565b613074565b005b34801561069357600080fd5b506106ae60048036038101906106a99190614cd7565b61330b565b6040516106bb919061549d565b60405180910390f35b3480156106d057600080fd5b506106eb60048036038101906106e69190614cae565b6137f2565b005b3480156106f957600080fd5b50610714600480360381019061070f9190614d8b565b613865565b005b34801561072257600080fd5b5061073d60048036038101906107389190614cae565b613e61565b005b34801561074b57600080fd5b5061076660048036038101906107619190614cae565b613f74565b005b34801561077457600080fd5b5061078f600480360381019061078a9190614d4f565b613f80565b005b34801561079d57600080fd5b506107b860048036038101906107b39190614cd7565b6141d9565b005b6000806060600080600060606000600560008a8152602001908152602001600020604051806103000160405290816000820160009054906101000a900473ffffffffffffffffffffffffffffffffffffffff1673ffffffffffffffffffffffffffffffffffffffff1673ffffffffffffffffffffffffffffffffffffffff168152602001600182015481526020016002820154815260200160038201805461086190615797565b80601f016020809104026020016040519081016040528092919081815260200182805461088d90615797565b80156108da5780601f106108af576101008083540402835291602001916108da565b820191906000526020600020905b8154815290600101906020018083116108bd57829003601f168201915b50505050508152602001600482015481526020016005820160009054906101000a900473ffffffffffffffffffffffffffffffffffffffff1673ffffffffffffffffffffffffffffffffffffffff1673ffffffffffffffffffffffffffffffffffffffff1681526020016006820154815260200160078201805461095d90615797565b80601f016020809104026020016040519081016040528092919081815260200182805461098990615797565b80156109d65780601f106109ab576101008083540402835291602001916109d6565b820191906000526020600020905b8154815290600101906020018083116109b957829003601f168201915b505050505081526020016008820160009054906101000a900460ff16600c811115610a2a577f4e487b7100000000000000000000000000000000000000000000000000000000600052602160045260246000fd5b600c811115610a62577f4e487b7100000000000000000000000000000000000000000000000000000000600052602160045260246000fd5b81526020016008820160019054906101000a900473ffffffffffffffffffffffffffffffffffffffff1673ffffffffffffffffffffffffffffffffffffffff1673ffffffffffffffffffffffffffffffffffffffff16815260200160098201548152602001600a820160009054906101000a900460ff16151515158152602001600b8201548152602001600c8201548152602001600d820160009054906101000a900473ffffffffffffffffffffffffffffffffffffffff1673ffffffffffffffffffffffffffffffffffffffff1673ffffffffffffffffffffffffffffffffffffffff168152602001600e8201548152602001600f82015481526020016010820160009054906101000a900473ffffffffffffffffffffffffffffffffffffffff1673ffffffffffffffffffffffffffffffffffffffff1673ffffffffffffffffffffffffffffffffffffffff168152602001601182015481526020016012820160009054906101000a900460ff1660ff1660ff1681526020016012820160019054906101000a900460ff1660ff1660ff1681526020016012820160029054906101000a900460ff1660ff1660ff1681526020016012820160039054906101000a900460ff1660ff1660ff1681526020016012820160049054906101000a900460ff1660ff1660ff168152505090506000610c5d8a61330b565b9050816020015182600001518360e001518460c0015185610100015185876060015198509850985098509850985098505050919395979092949650565b610ca381614549565b50565b610cb6610cb16145a3565b611e42565b610cbf57600080fd5b806006600c811115610cfa577f4e487b7100000000000000000000000000000000000000000000000000000000600052602160045260246000fd5b6005600083815260200190815260200160002060080160009054906101000a900460ff16600c811115610d56577f4e487b7100000000000000000000000000000000000000000000000000000000600052602160045260246000fd5b14610d96576040517f08c379a0000000000000000000000000000000000000000000000000000000008152600401610d8d9061543d565b60405180910390fd5b600560008381526020019081526020016000206009015480341015610df0576040517f08c379a0000000000000000000000000000000000000000000000000000000008152600401610de79061547d565b60405180910390fd5b82610df96145a3565b81341015610e3c576040517f08c379a0000000000000000000000000000000000000000000000000000000008152600401610e339061547d565b60405180910390fd5b60008234610e4a91906156a7565b90508173ffffffffffffffffffffffffffffffffffffffff166108fc829081150290604051600060405180830381858888f19350505050158015610e92573d6000803e3d6000fd5b506000610ed46005600089815260200190815260200160002060080160019054906101000a900473ffffffffffffffffffffffffffffffffffffffff166145ab565b90508073ffffffffffffffffffffffffffffffffffffffff166108fc600560008a8152602001908152602001600020600901549081150290604051600060405180830381858888f19350505050158015610f32573d6000803e3d6000fd5b50610f3b6145a3565b6005600089815260200190815260200160002060000160006101000a81548173ffffffffffffffffffffffffffffffffffffffff021916908373ffffffffffffffffffffffffffffffffffffffff160217905550610f976145a3565b60056000898152602001908152602001600020600d0160006101000a81548173ffffffffffffffffffffffffffffffffffffffff021916908373ffffffffffffffffffffffffffffffffffffffff16021790555060076005600089815260200190815260200160002060080160006101000a81548160ff0219169083600c81111561104b577f4e487b7100000000000000000000000000000000000000000000000000000000600052602160045260246000fd5b02179055504360066000898152602001908152602001600020600101819055507faa7352d10146444c3afd9bd7fb0ae56b0a85e81139536bbec3f1f660fddd7be18760405161109a919061549d565b60405180910390a150505050505050565b6110bb6110b66145a3565b611e42565b6110c457600080fd5b806008600c8111156110ff577f4e487b7100000000000000000000000000000000000000000000000000000000600052602160045260246000fd5b6005600083815260200190815260200160002060080160009054906101000a900460ff16600c81111561115b577f4e487b7100000000000000000000000000000000000000000000000000000000600052602160045260246000fd5b1461119b576040517f08c379a00000000000000000000000000000000000000000000000000000000081526004016111929061529d565b60405180910390fd5b6005600083815260200190815260200160002060000160009054906101000a900473ffffffffffffffffffffffffffffffffffffffff168073ffffffffffffffffffffffffffffffffffffffff166111f16145a3565b73ffffffffffffffffffffffffffffffffffffffff1614611247576040517f08c379a000000000000000000000000000000000000000000000000000000000815260040161123e906153bd565b60405180910390fd5b4260056000858152602001908152602001600020600f018190555060096005600085815260200190815260200160002060080160006101000a81548160ff0219169083600c8111156112c2577f4e487b7100000000000000000000000000000000000000000000000000000000600052602160045260246000fd5b02179055507f322f34e90f2269750b3e28178631d975cc678db36f21098fe548b7f755ce0bd0836040516112f6919061549d565b60405180910390a1505050565b61131361130e6145a3565b612900565b61131c57600080fd5b806007600c811115611357577f4e487b7100000000000000000000000000000000000000000000000000000000600052602160045260246000fd5b6005600083815260200190815260200160002060080160009054906101000a900460ff16600c8111156113b3577f4e487b7100000000000000000000000000000000000000000000000000000000600052602160045260246000fd5b146113f3576040517f08c379a00000000000000000000000000000000000000000000000000000000081526004016113ea9061537d565b60405180910390fd5b6005600083815260200190815260200160002060080160019054906101000a900473ffffffffffffffffffffffffffffffffffffffff168073ffffffffffffffffffffffffffffffffffffffff166114496145a3565b73ffffffffffffffffffffffffffffffffffffffff161461149f576040517f08c379a0000000000000000000000000000000000000000000000000000000008152600401611496906153bd565b60405180910390fd5b60086005600085815260200190815260200160002060080160006101000a81548160ff0219169083600c8111156114ff577f4e487b7100000000000000000000000000000000000000000000000000000000600052602160045260246000fd5b02179055507fc5c33776d405e5686e4386e1ef31a65cf6195e4f7ceb8808ab64d05b6ccbc2a683604051611533919061549d565b60405180910390a1505050565b600080600080600080600080600560008a8152602001908152602001600020604051806103000160405290816000820160009054906101000a900473ffffffffffffffffffffffffffffffffffffffff1673ffffffffffffffffffffffffffffffffffffffff1673ffffffffffffffffffffffffffffffffffffffff16815260200160018201548152602001600282015481526020016003820180546115e590615797565b80601f016020809104026020016040519081016040528092919081815260200182805461161190615797565b801561165e5780601f106116335761010080835404028352916020019161165e565b820191906000526020600020905b81548152906001019060200180831161164157829003601f168201915b50505050508152602001600482015481526020016005820160009054906101000a900473ffffffffffffffffffffffffffffffffffffffff1673ffffffffffffffffffffffffffffffffffffffff1673ffffffffffffffffffffffffffffffffffffffff168152602001600682015481526020016007820180546116e190615797565b80601f016020809104026020016040519081016040528092919081815260200182805461170d90615797565b801561175a5780601f1061172f5761010080835404028352916020019161175a565b820191906000526020600020905b81548152906001019060200180831161173d57829003601f168201915b505050505081526020016008820160009054906101000a900460ff16600c8111156117ae577f4e487b7100000000000000000000000000000000000000000000000000000000600052602160045260246000fd5b600c8111156117e6577f4e487b7100000000000000000000000000000000000000000000000000000000600052602160045260246000fd5b81526020016008820160019054906101000a900473ffffffffffffffffffffffffffffffffffffffff1673ffffffffffffffffffffffffffffffffffffffff1673ffffffffffffffffffffffffffffffffffffffff16815260200160098201548152602001600a820160009054906101000a900460ff16151515158152602001600b8201548152602001600c8201548152602001600d820160009054906101000a900473ffffffffffffffffffffffffffffffffffffffff1673ffffffffffffffffffffffffffffffffffffffff1673ffffffffffffffffffffffffffffffffffffffff168152602001600e8201548152602001600f82015481526020016010820160009054906101000a900473ffffffffffffffffffffffffffffffffffffffff1673ffffffffffffffffffffffffffffffffffffffff1673ffffffffffffffffffffffffffffffffffffffff168152602001601182015481526020016012820160009054906101000a900460ff1660ff1660ff1681526020016012820160019054906101000a900460ff1660ff1660ff1681526020016012820160029054906101000a900460ff1660ff1660ff1681526020016012820160039054906101000a900460ff1660ff1660ff1681526020016012820160049054906101000a900460ff1660ff1660ff1681525050905080602001518160000151826102600151836102800151846102a00151856102c00151866102e00151975097509750975097509750975050919395979092949650565b60008173ffffffffffffffffffffffffffffffffffffffff16600460009054906101000a900473ffffffffffffffffffffffffffffffffffffffff1673ffffffffffffffffffffffffffffffffffffffff16149050919050565b611a82611a7d6145a3565b612900565b611a8b57600080fd5b826004600c811115611ac6577f4e487b7100000000000000000000000000000000000000000000000000000000600052602160045260246000fd5b6005600083815260200190815260200160002060080160009054906101000a900460ff16600c811115611b22577f4e487b7100000000000000000000000000000000000000000000000000000000600052602160045260246000fd5b14611b62576040517f08c379a0000000000000000000000000000000000000000000000000000000008152600401611b59906153fd565b60405180910390fd5b6005600085815260200190815260200160002060000160009054906101000a900473ffffffffffffffffffffffffffffffffffffffff168073ffffffffffffffffffffffffffffffffffffffff16611bb86145a3565b73ffffffffffffffffffffffffffffffffffffffff1614611c0e576040517f08c379a0000000000000000000000000000000000000000000000000000000008152600401611c05906153bd565b60405180910390fd5b8360056000878152602001908152602001600020600a0160006101000a81548160ff021916908315150217905550600015158415151415611c6a57600060056000878152602001908152602001600020600b0181905550611c86565b8260056000878152602001908152602001600020600b01819055505b600580600087815260200190815260200160002060080160006101000a81548160ff0219169083600c811115611ce5577f4e487b7100000000000000000000000000000000000000000000000000000000600052602160045260246000fd5b02179055507f5725e53fd0efed5294b7db2af148f040264a63630b4deb0afbccf6e60830988a85604051611d19919061549d565b60405180910390a15050505050565b600460009054906101000a900473ffffffffffffffffffffffffffffffffffffffff1673ffffffffffffffffffffffffffffffffffffffff16611d696145a3565b73ffffffffffffffffffffffffffffffffffffffff161415611dcd576000611db2600460009054906101000a900473ffffffffffffffffffffffffffffffffffffffff166145ab565b90508073ffffffffffffffffffffffffffffffffffffffff16ff5b565b611ddf611dda6145a3565b612900565b611de857600080fd5b611dfc8160016145b590919063ffffffff16565b8073ffffffffffffffffffffffffffffffffffffffff167f126174f6cf49c81cdb4a9214c6b8f037bef55b4ec31e4fc776cea2a1c8a88d5960405160405180910390a250565b6000611e588260026146cc90919063ffffffff16565b9050919050565b611e6f611e6a6145a3565b611e42565b611e7857600080fd5b816009600c811115611eb3577f4e487b7100000000000000000000000000000000000000000000000000000000600052602160045260246000fd5b6005600083815260200190815260200160002060080160009054906101000a900460ff16600c811115611f0f577f4e487b7100000000000000000000000000000000000000000000000000000000600052602160045260246000fd5b14611f4f576040517f08c379a0000000000000000000000000000000000000000000000000000000008152600401611f46906152fd565b60405180910390fd5b6005600084815260200190815260200160002060000160009054906101000a900473ffffffffffffffffffffffffffffffffffffffff168073ffffffffffffffffffffffffffffffffffffffff16611fa56145a3565b73ffffffffffffffffffffffffffffffffffffffff1614611ffb576040517f08c379a0000000000000000000000000000000000000000000000000000000008152600401611ff2906153bd565b60405180910390fd5b600a6005600086815260200190815260200160002060080160006101000a81548160ff0219169083600c81111561205b577f4e487b7100000000000000000000000000000000000000000000000000000000600052602160045260246000fd5b02179055508260056000868152602001908152602001600020600e01819055507f59e7ad085805e2b02ad4b0f8033bd75e7ee4c8cd43f996267463585e35896252846040516120aa919061549d565b60405180910390a150505050565b6120c86120c36145a3565b612900565b6120d157600080fd5b806001600c81111561210c577f4e487b7100000000000000000000000000000000000000000000000000000000600052602160045260246000fd5b6005600083815260200190815260200160002060080160009054906101000a900460ff16600c811115612168577f4e487b7100000000000000000000000000000000000000000000000000000000600052602160045260246000fd5b146121a8576040517f08c379a000000000000000000000000000000000000000000000000000000000815260040161219f9061527d565b60405180910390fd5b600560008381526020019081526020016000206004015480341015612202576040517f08c379a00000000000000000000000000000000000000000000000000000000081526004016121f99061547d565b60405180910390fd5b60056000848152602001908152602001600020600401546122216145a3565b81341015612264576040517f08c379a000000000000000000000000000000000000000000000000000000000815260040161225b9061547d565b60405180910390fd5b6000823461227291906156a7565b90508173ffffffffffffffffffffffffffffffffffffffff166108fc829081150290604051600060405180830381858888f193505050501580156122ba573d6000803e3d6000fd5b5060006122fc6005600089815260200190815260200160002060050160009054906101000a900473ffffffffffffffffffffffffffffffffffffffff166145ab565b90508073ffffffffffffffffffffffffffffffffffffffff166108fc600560008a8152602001908152602001600020600401549081150290604051600060405180830381858888f1935050505015801561235a573d6000803e3d6000fd5b506123636145a3565b6005600089815260200190815260200160002060000160006101000a81548173ffffffffffffffffffffffffffffffffffffffff021916908373ffffffffffffffffffffffffffffffffffffffff1602179055506123bf6145a3565b6005600089815260200190815260200160002060080160016101000a81548173ffffffffffffffffffffffffffffffffffffffff021916908373ffffffffffffffffffffffffffffffffffffffff16021790555060026005600089815260200190815260200160002060080160006101000a81548160ff0219169083600c811115612473577f4e487b7100000000000000000000000000000000000000000000000000000000600052602160045260246000fd5b02179055504360066000898152602001908152602001600020600001819055507facd9402b9f9e8c15fa7c1819f8393ca56eb61316cc354fc6ac2150aed3ce7931876040516124c2919061549d565b60405180910390a150505050505050565b6124e36124de6145a3565b611e42565b6124ec57600080fd5b6125008160026145b590919063ffffffff16565b8073ffffffffffffffffffffffffffffffffffffffff167fdb7176e79cffef81cb01767dd0447a0b24bb72ca9778d4b245581086b2a7e6db60405160405180910390a250565b6125566125516145a3565b612900565b61255f57600080fd5b6125688161475e565b50565b61257b6125766145a3565b612898565b61258457600080fd5b85600b600c8111156125bf577f4e487b7100000000000000000000000000000000000000000000000000000000600052602160045260246000fd5b6005600083815260200190815260200160002060080160009054906101000a900460ff16600c81111561261b577f4e487b7100000000000000000000000000000000000000000000000000000000600052602160045260246000fd5b1461265b576040517f08c379a00000000000000000000000000000000000000000000000000000000081526004016126529061545d565b60405180910390fd5b6005600088815260200190815260200160002060000160009054906101000a900473ffffffffffffffffffffffffffffffffffffffff168073ffffffffffffffffffffffffffffffffffffffff166126b16145a3565b73ffffffffffffffffffffffffffffffffffffffff1614612707576040517f08c379a00000000000000000000000000000000000000000000000000000000081526004016126fe906153bd565b60405180910390fd5b86600560008a815260200190815260200160002060120160006101000a81548160ff021916908360ff16021790555085600560008a815260200190815260200160002060120160016101000a81548160ff021916908360ff16021790555084600560008a815260200190815260200160002060120160026101000a81548160ff021916908360ff16021790555083600560008a815260200190815260200160002060120160036101000a81548160ff021916908360ff16021790555082600560008a815260200190815260200160002060120160046101000a81548160ff021916908360ff160217905550600c600560008a815260200190815260200160002060080160006101000a81548160ff0219169083600c811115612852577f4e487b7100000000000000000000000000000000000000000000000000000000600052602160045260246000fd5b02179055507fc7e94446a942a0541d0224ece380a730c85f03db7188fca783225da9255929f788604051612886919061549d565b60405180910390a15050505050505050565b60006128ae8260036146cc90919063ffffffff16565b9050919050565b600460009054906101000a900473ffffffffffffffffffffffffffffffffffffffff1681565b6128eb6128e66145a3565b611e42565b6128f457600080fd5b6128fd816147b8565b50565b60006129168260016146cc90919063ffffffff16565b9050919050565b61292d6129286145a3565b613057565b61293657600080fd5b61293f81614812565b50565b61295261294d6145a3565b612898565b61295b57600080fd5b80600a600c811115612996577f4e487b7100000000000000000000000000000000000000000000000000000000600052602160045260246000fd5b6005600083815260200190815260200160002060080160009054906101000a900460ff16600c8111156129f2577f4e487b7100000000000000000000000000000000000000000000000000000000600052602160045260246000fd5b14612a32576040517f08c379a0000000000000000000000000000000000000000000000000000000008152600401612a29906152bd565b60405180910390fd5b60056000838152602001908152602001600020600e015480341015612a8c576040517f08c379a0000000000000000000000000000000000000000000000000000000008152600401612a839061547d565b60405180910390fd5b60056000848152602001908152602001600020600e0154612aab6145a3565b81341015612aee576040517f08c379a0000000000000000000000000000000000000000000000000000000008152600401612ae59061547d565b60405180910390fd5b60008234612afc91906156a7565b90508173ffffffffffffffffffffffffffffffffffffffff166108fc829081150290604051600060405180830381858888f19350505050158015612b44573d6000803e3d6000fd5b50612b4d6145a3565b6005600088815260200190815260200160002060100160006101000a81548173ffffffffffffffffffffffffffffffffffffffff021916908373ffffffffffffffffffffffffffffffffffffffff1602179055506000612be260056000898152602001908152602001600020600d0160009054906101000a900473ffffffffffffffffffffffffffffffffffffffff166145ab565b90508073ffffffffffffffffffffffffffffffffffffffff166108fc600560008a8152602001908152602001600020600e01549081150290604051600060405180830381858888f19350505050158015612c40573d6000803e3d6000fd5b50612c496145a3565b6005600089815260200190815260200160002060000160006101000a81548173ffffffffffffffffffffffffffffffffffffffff021916908373ffffffffffffffffffffffffffffffffffffffff160217905550612ca56145a3565b6005600089815260200190815260200160002060100160006101000a81548173ffffffffffffffffffffffffffffffffffffffff021916908373ffffffffffffffffffffffffffffffffffffffff160217905550600b6005600089815260200190815260200160002060080160006101000a81548160ff0219169083600c811115612d59577f4e487b7100000000000000000000000000000000000000000000000000000000600052602160045260246000fd5b02179055504360066000898152602001908152602001600020600201819055507fc7e94446a942a0541d0224ece380a730c85f03db7188fca783225da9255929f787604051612da8919061549d565b60405180910390a150505050505050565b612dc9612dc46145a3565b613057565b612dd257600080fd5b806002600c811115612e0d577f4e487b7100000000000000000000000000000000000000000000000000000000600052602160045260246000fd5b6005600083815260200190815260200160002060080160009054906101000a900460ff16600c811115612e69577f4e487b7100000000000000000000000000000000000000000000000000000000600052602160045260246000fd5b14612ea9576040517f08c379a0000000000000000000000000000000000000000000000000000000008152600401612ea0906153dd565b60405180910390fd5b6005600083815260200190815260200160002060050160009054906101000a900473ffffffffffffffffffffffffffffffffffffffff168073ffffffffffffffffffffffffffffffffffffffff16612eff6145a3565b73ffffffffffffffffffffffffffffffffffffffff1614612f55576040517f08c379a0000000000000000000000000000000000000000000000000000000008152600401612f4c906153bd565b60405180910390fd5b60036005600085815260200190815260200160002060080160006101000a81548160ff0219169083600c811115612fb5577f4e487b7100000000000000000000000000000000000000000000000000000000600052602160045260246000fd5b02179055507f51c097b0018d62788fa545fa4a1d4da21348f51fa65254d6def7b3b6bd71820d83604051612fe9919061549d565b60405180910390a1505050565b6000806000806006600086815260200190815260200160002060405180606001604052908160008201548152602001600182015481526020016002820154815250509050806000015181602001518260400151935093509350509193909250565b600061306d8260006146cc90919063ffffffff16565b9050919050565b61308461307f6145a3565b613057565b61308d57600080fd5b806000600c8111156130c8577f4e487b7100000000000000000000000000000000000000000000000000000000600052602160045260246000fd5b6005600083815260200190815260200160002060080160009054906101000a900460ff16600c811115613124577f4e487b7100000000000000000000000000000000000000000000000000000000600052602160045260246000fd5b14613164576040517f08c379a000000000000000000000000000000000000000000000000000000000815260040161315b9061521d565b60405180910390fd5b81806005600083815260200190815260200160002060010154146131bd576040517f08c379a00000000000000000000000000000000000000000000000000000000081526004016131b49061533d565b60405180910390fd5b6005600084815260200190815260200160002060000160009054906101000a900473ffffffffffffffffffffffffffffffffffffffff168073ffffffffffffffffffffffffffffffffffffffff166132136145a3565b73ffffffffffffffffffffffffffffffffffffffff1614613269576040517f08c379a0000000000000000000000000000000000000000000000000000000008152600401613260906153bd565b60405180910390fd5b60016005600086815260200190815260200160002060080160006101000a81548160ff0219169083600c8111156132c9577f4e487b7100000000000000000000000000000000000000000000000000000000600052602160045260246000fd5b02179055507fea4031d0e152254ad0cc1d39c2266dfd6ae91966a70ed269579da8b72cb447bc846040516132fd919061549d565b60405180910390a150505050565b60008060056000848152602001908152602001600020604051806103000160405290816000820160009054906101000a900473ffffffffffffffffffffffffffffffffffffffff1673ffffffffffffffffffffffffffffffffffffffff1673ffffffffffffffffffffffffffffffffffffffff16815260200160018201548152602001600282015481526020016003820180546133a790615797565b80601f01602080910402602001604051908101604052809291908181526020018280546133d390615797565b80156134205780601f106133f557610100808354040283529160200191613420565b820191906000526020600020905b81548152906001019060200180831161340357829003601f168201915b50505050508152602001600482015481526020016005820160009054906101000a900473ffffffffffffffffffffffffffffffffffffffff1673ffffffffffffffffffffffffffffffffffffffff1673ffffffffffffffffffffffffffffffffffffffff168152602001600682015481526020016007820180546134a390615797565b80601f01602080910402602001604051908101604052809291908181526020018280546134cf90615797565b801561351c5780601f106134f15761010080835404028352916020019161351c565b820191906000526020600020905b8154815290600101906020018083116134ff57829003601f168201915b505050505081526020016008820160009054906101000a900460ff16600c811115613570577f4e487b7100000000000000000000000000000000000000000000000000000000600052602160045260246000fd5b600c8111156135a8577f4e487b7100000000000000000000000000000000000000000000000000000000600052602160045260246000fd5b81526020016008820160019054906101000a900473ffffffffffffffffffffffffffffffffffffffff1673ffffffffffffffffffffffffffffffffffffffff1673ffffffffffffffffffffffffffffffffffffffff16815260200160098201548152602001600a820160009054906101000a900460ff16151515158152602001600b8201548152602001600c8201548152602001600d820160009054906101000a900473ffffffffffffffffffffffffffffffffffffffff1673ffffffffffffffffffffffffffffffffffffffff1673ffffffffffffffffffffffffffffffffffffffff168152602001600e8201548152602001600f82015481526020016010820160009054906101000a900473ffffffffffffffffffffffffffffffffffffffff1673ffffffffffffffffffffffffffffffffffffffff1673ffffffffffffffffffffffffffffffffffffffff168152602001601182015481526020016012820160009054906101000a900460ff1660ff1660ff1681526020016012820160019054906101000a900460ff1660ff1660ff1681526020016012820160029054906101000a900460ff1660ff1660ff1681526020016012820160039054906101000a900460ff1660ff1660ff1681526020016012820160049054906101000a900460ff1660ff1660ff168152505090506000816101e00151146137b357806101e001519150506137ed565b6000816101400151146137ce578061014001519150506137ed565b60008160800151146137e75780608001519150506137ed565b60009150505b919050565b6138026137fd6145a3565b613057565b61380b57600080fd5b61381f8160006145b590919063ffffffff16565b8073ffffffffffffffffffffffffffffffffffffffff167f78af5e2bc1f182518b5a494aa807f782e7a2026ab85683d13ce592896a52922f60405160405180910390a250565b6138756138706145a3565b613057565b61387e57600080fd5b600080600061388b6149c2565b6138936145a3565b816000019073ffffffffffffffffffffffffffffffffffffffff16908173ffffffffffffffffffffffffffffffffffffffff1681525050878160200181815250506138dc6145a3565b8160a0019073ffffffffffffffffffffffffffffffffffffffff16908173ffffffffffffffffffffffffffffffffffffffff168152505086816040018181525050858160600181905250848160e00181905250428160c00181815250506611c37937e080008761394c919061564d565b8160800181815250506000816101000190600c811115613995577f4e487b7100000000000000000000000000000000000000000000000000000000600052602160045260246000fd5b9081600c8111156139cf577f4e487b7100000000000000000000000000000000000000000000000000000000600052602160045260246000fd5b815250508381610120019073ffffffffffffffffffffffffffffffffffffffff16908173ffffffffffffffffffffffffffffffffffffffff168152505082816101c0019073ffffffffffffffffffffffffffffffffffffffff16908173ffffffffffffffffffffffffffffffffffffffff16815250508181610220019073ffffffffffffffffffffffffffffffffffffffff16908173ffffffffffffffffffffffffffffffffffffffff168152505080600560008a815260200190815260200160002060008201518160000160006101000a81548173ffffffffffffffffffffffffffffffffffffffff021916908373ffffffffffffffffffffffffffffffffffffffff16021790555060208201518160010155604082015181600201556060820151816003019080519060200190613b09929190614b2e565b506080820151816004015560a08201518160050160006101000a81548173ffffffffffffffffffffffffffffffffffffffff021916908373ffffffffffffffffffffffffffffffffffffffff16021790555060c0820151816006015560e0820151816007019080519060200190613b81929190614b2e565b506101008201518160080160006101000a81548160ff0219169083600c811115613bd4577f4e487b7100000000000000000000000000000000000000000000000000000000600052602160045260246000fd5b02179055506101208201518160080160016101000a81548173ffffffffffffffffffffffffffffffffffffffff021916908373ffffffffffffffffffffffffffffffffffffffff160217905550610140820151816009015561016082015181600a0160006101000a81548160ff02191690831515021790555061018082015181600b01556101a082015181600c01556101c082015181600d0160006101000a81548173ffffffffffffffffffffffffffffffffffffffff021916908373ffffffffffffffffffffffffffffffffffffffff1602179055506101e082015181600e015561020082015181600f01556102208201518160100160006101000a81548173ffffffffffffffffffffffffffffffffffffffff021916908373ffffffffffffffffffffffffffffffffffffffff16021790555061024082015181601101556102608201518160120160006101000a81548160ff021916908360ff1602179055506102808201518160120160016101000a81548160ff021916908360ff1602179055506102a08201518160120160026101000a81548160ff021916908360ff1602179055506102c08201518160120160036101000a81548160ff021916908360ff1602179055506102e08201518160120160046101000a81548160ff021916908360ff1602179055509050506000613dcb614bb4565b81816000018181525050818160200181815250508181604001818152505080600660008c81526020019081526020016000206000820151816000015560208201518160010155604082015181600201559050507fa20cf5c0cc38eede6efacb85f9f76c7f8763bb01a4b43287a21fe5df6fe8615b8a604051613e4d919061549d565b60405180910390a150505050505050505050565b600460009054906101000a900473ffffffffffffffffffffffffffffffffffffffff1673ffffffffffffffffffffffffffffffffffffffff16613ea26145a3565b73ffffffffffffffffffffffffffffffffffffffff1614613ef8576040517f08c379a0000000000000000000000000000000000000000000000000000000008152600401613eef9061539d565b60405180910390fd5b600073ffffffffffffffffffffffffffffffffffffffff168173ffffffffffffffffffffffffffffffffffffffff161415613f68576040517f08c379a0000000000000000000000000000000000000000000000000000000008152600401613f5f9061525d565b60405180910390fd5b613f718161486c565b50565b613f7d81614968565b50565b613f90613f8b6145a3565b612900565b613f9957600080fd5b816005600c811115613fd4577f4e487b7100000000000000000000000000000000000000000000000000000000600052602160045260246000fd5b6005600083815260200190815260200160002060080160009054906101000a900460ff16600c811115614030577f4e487b7100000000000000000000000000000000000000000000000000000000600052602160045260246000fd5b14614070576040517f08c379a0000000000000000000000000000000000000000000000000000000008152600401614067906152dd565b60405180910390fd5b6005600084815260200190815260200160002060000160009054906101000a900473ffffffffffffffffffffffffffffffffffffffff168073ffffffffffffffffffffffffffffffffffffffff166140c66145a3565b73ffffffffffffffffffffffffffffffffffffffff161461411c576040517f08c379a0000000000000000000000000000000000000000000000000000000008152600401614113906153bd565b60405180910390fd5b60066005600086815260200190815260200160002060080160006101000a81548160ff0219169083600c81111561417c577f4e487b7100000000000000000000000000000000000000000000000000000000600052602160045260246000fd5b02179055508260056000868152602001908152602001600020600901819055507f539b4a835a8a5d1bc5756a9f146e2bfeaa6bd6b1fa77a7631c0a5154c86cdd03846040516141cb919061549d565b60405180910390a150505050565b6141e96141e46145a3565b612900565b6141f257600080fd5b806003600c81111561422d577f4e487b7100000000000000000000000000000000000000000000000000000000600052602160045260246000fd5b6005600083815260200190815260200160002060080160009054906101000a900460ff16600c811115614289577f4e487b7100000000000000000000000000000000000000000000000000000000600052602160045260246000fd5b146142c9576040517f08c379a00000000000000000000000000000000000000000000000000000000081526004016142c09061541d565b60405180910390fd5b6005600083815260200190815260200160002060000160009054906101000a900473ffffffffffffffffffffffffffffffffffffffff168073ffffffffffffffffffffffffffffffffffffffff1661431f6145a3565b73ffffffffffffffffffffffffffffffffffffffff1614614375576040517f08c379a000000000000000000000000000000000000000000000000000000000815260040161436c906153bd565b60405180910390fd5b4260056000858152602001908152602001600020600c018190555060046005600085815260200190815260200160002060080160006101000a81548160ff0219169083600c8111156143f0577f4e487b7100000000000000000000000000000000000000000000000000000000600052602160045260246000fd5b02179055507fc8ca2150e6e1849a10ef5aa4932060fa353bcacdffeb150c9e1890c6ab9403cc83604051614424919061549d565b60405180910390a1505050565b600073ffffffffffffffffffffffffffffffffffffffff168173ffffffffffffffffffffffffffffffffffffffff1614156144a1576040517f08c379a00000000000000000000000000000000000000000000000000000000081526004016144989061535d565b60405180910390fd5b6144ab82826146cc565b156144eb576040517f08c379a00000000000000000000000000000000000000000000000000000000081526004016144e29061523d565b60405180910390fd5b60018260000160008373ffffffffffffffffffffffffffffffffffffffff1673ffffffffffffffffffffffffffffffffffffffff16815260200190815260200160002060006101000a81548160ff0219169083151502179055505050565b61455d81600361443190919063ffffffff16565b8073ffffffffffffffffffffffffffffffffffffffff167f28b26e7a3d20aedbc5f8f2ebf7da671c0491723a2b78f47a097b0e46dee0714260405160405180910390a250565b600033905090565b6000819050919050565b600073ffffffffffffffffffffffffffffffffffffffff168173ffffffffffffffffffffffffffffffffffffffff161415614625576040517f08c379a000000000000000000000000000000000000000000000000000000000815260040161461c9061535d565b60405180910390fd5b61462f82826146cc565b61466e576040517f08c379a00000000000000000000000000000000000000000000000000000000081526004016146659061531d565b60405180910390fd5b60008260000160008373ffffffffffffffffffffffffffffffffffffffff1673ffffffffffffffffffffffffffffffffffffffff16815260200190815260200160002060006101000a81548160ff0219169083151502179055505050565b60008073ffffffffffffffffffffffffffffffffffffffff168273ffffffffffffffffffffffffffffffffffffffff16141561470757600080fd5b8260000160008373ffffffffffffffffffffffffffffffffffffffff1673ffffffffffffffffffffffffffffffffffffffff16815260200190815260200160002060009054906101000a900460ff16905092915050565b61477281600161443190919063ffffffff16565b8073ffffffffffffffffffffffffffffffffffffffff167fddbf200aa634dc3fb81cfd68583dd1040d1c751d335e1d86b631bde3e977fea860405160405180910390a250565b6147cc81600261443190919063ffffffff16565b8073ffffffffffffffffffffffffffffffffffffffff167f71ae26cad02663e3d92efd6ec56031a80d74a20c0ab4183faa8bf262261c9baa60405160405180910390a250565b61482681600061443190919063ffffffff16565b8073ffffffffffffffffffffffffffffffffffffffff167f2a6b352b84affc85ec0ab54b71a09c17830148eb8a1c5aeabf5cd5e73ee7c24860405160405180910390a250565b6000600460009054906101000a900473ffffffffffffffffffffffffffffffffffffffff16905081600460006101000a81548173ffffffffffffffffffffffffffffffffffffffff021916908373ffffffffffffffffffffffffffffffffffffffff1602179055506148dd82612546565b6148e68261291d565b6148ef826128db565b6148f881611dcf565b614901816137f2565b61490a816124d3565b8173ffffffffffffffffffffffffffffffffffffffff168173ffffffffffffffffffffffffffffffffffffffff167f8be0079c531659141344cd1fd0a4f28419497f9722a3daafe3b4186f6b6457e060405160405180910390a35050565b61497c8160036145b590919063ffffffff16565b8073ffffffffffffffffffffffffffffffffffffffff167fe3f5ed5f263f1f01764a96edfc7d025f511ec5f7d180e8816908b78bcf74f09860405160405180910390a250565b604051806103000160405280600073ffffffffffffffffffffffffffffffffffffffff16815260200160008152602001600081526020016060815260200160008152602001600073ffffffffffffffffffffffffffffffffffffffff16815260200160008152602001606081526020016000600c811115614a6c577f4e487b7100000000000000000000000000000000000000000000000000000000600052602160045260246000fd5b8152602001600073ffffffffffffffffffffffffffffffffffffffff168152602001600081526020016000151581526020016000815260200160008152602001600073ffffffffffffffffffffffffffffffffffffffff1681526020016000815260200160008152602001600073ffffffffffffffffffffffffffffffffffffffff16815260200160008152602001600060ff168152602001600060ff168152602001600060ff168152602001600060ff168152602001600060ff1681525090565b828054614b3a90615797565b90600052602060002090601f016020900481019282614b5c5760008555614ba3565b82601f10614b7557805160ff1916838001178555614ba3565b82800160010185558215614ba3579182015b82811115614ba2578251825591602001919060010190614b87565b5b509050614bb09190614bd5565b5090565b60405180606001604052806000815260200160008152602001600081525090565b5b80821115614bee576000816000905550600101614bd6565b5090565b6000614c05614c0084615600565b6155db565b905082815260208101848484011115614c1d57600080fd5b614c28848285615755565b509392505050565b600081359050614c3f81615ebb565b92915050565b600081359050614c5481615ed2565b92915050565b600082601f830112614c6b57600080fd5b8135614c7b848260208601614bf2565b91505092915050565b600081359050614c9381615ee9565b92915050565b600081359050614ca881615f00565b92915050565b600060208284031215614cc057600080fd5b6000614cce84828501614c30565b91505092915050565b600060208284031215614ce957600080fd5b6000614cf784828501614c84565b91505092915050565b600080600060608486031215614d1557600080fd5b6000614d2386828701614c84565b9350506020614d3486828701614c45565b9250506040614d4586828701614c84565b9150509250925092565b60008060408385031215614d6257600080fd5b6000614d7085828601614c84565b9250506020614d8185828601614c84565b9150509250929050565b60008060008060808587031215614da157600080fd5b6000614daf87828801614c84565b9450506020614dc087828801614c84565b935050604085013567ffffffffffffffff811115614ddd57600080fd5b614de987828801614c5a565b925050606085013567ffffffffffffffff811115614e0657600080fd5b614e1287828801614c5a565b91505092959194509250565b60008060008060008060c08789031215614e3757600080fd5b6000614e4589828a01614c84565b9650506020614e5689828a01614c99565b9550506040614e6789828a01614c99565b9450506060614e7889828a01614c99565b9350506080614e8989828a01614c99565b92505060a0614e9a89828a01614c99565b9150509295509295509295565b614eb0816156db565b82525050565b614ebf816156ed565b82525050565b614ece81615743565b82525050565b6000614edf82615631565b614ee9818561563c565b9350614ef9818560208601615764565b614f02816158b6565b840191505092915050565b6000614f1a602e8361563c565b9150614f25826158c7565b604082019050919050565b6000614f3d601f8361563c565b9150614f4882615916565b602082019050919050565b6000614f6060268361563c565b9150614f6b8261593f565b604082019050919050565b6000614f83602e8361563c565b9150614f8e8261598e565b604082019050919050565b6000614fa660308361563c565b9150614fb1826159dd565b604082019050919050565b6000614fc9602d8361563c565b9150614fd482615a2c565b604082019050919050565b6000614fec60328361563c565b9150614ff782615a7b565b604082019050919050565b600061500f602e8361563c565b915061501a82615aca565b604082019050919050565b600061503260218361563c565b915061503d82615b19565b604082019050919050565b600061505560298361563c565b915061506082615b68565b604082019050919050565b600061507860228361563c565b915061508382615bb7565b604082019050919050565b600061509b602f8361563c565b91506150a682615c06565b604082019050919050565b60006150be60278361563c565b91506150c982615c55565b604082019050919050565b60006150e160318361563c565b91506150ec82615ca4565b604082019050919050565b600061510460328361563c565b915061510f82615cf3565b604082019050919050565b600061512760318361563c565b915061513282615d42565b604082019050919050565b600061514a602e8361563c565b915061515582615d91565b604082019050919050565b600061516d60308361563c565b915061517882615de0565b604082019050919050565b6000615190602f8361563c565b915061519b82615e2f565b604082019050919050565b60006151b360178361563c565b91506151be82615e7e565b602082019050919050565b6151d28161572c565b82525050565b6151e181615736565b82525050565b60006020820190506151fc6000830184614ea7565b92915050565b60006020820190506152176000830184614eb6565b92915050565b6000602082019050818103600083015261523681614f0d565b9050919050565b6000602082019050818103600083015261525681614f30565b9050919050565b6000602082019050818103600083015261527681614f53565b9050919050565b6000602082019050818103600083015261529681614f76565b9050919050565b600060208201905081810360008301526152b681614f99565b9050919050565b600060208201905081810360008301526152d681614fbc565b9050919050565b600060208201905081810360008301526152f681614fdf565b9050919050565b6000602082019050818103600083015261531681615002565b9050919050565b6000602082019050818103600083015261533681615025565b9050919050565b6000602082019050818103600083015261535681615048565b9050919050565b600060208201905081810360008301526153768161506b565b9050919050565b600060208201905081810360008301526153968161508e565b9050919050565b600060208201905081810360008301526153b6816150b1565b9050919050565b600060208201905081810360008301526153d6816150d4565b9050919050565b600060208201905081810360008301526153f6816150f7565b9050919050565b600060208201905081810360008301526154168161511a565b9050919050565b600060208201905081810360008301526154368161513d565b9050919050565b6000602082019050818103600083015261545681615160565b9050919050565b6000602082019050818103600083015261547681615183565b9050919050565b60006020820190508181036000830152615496816151a6565b9050919050565b60006020820190506154b260008301846151c9565b92915050565b600060e0820190506154cd600083018a6151c9565b6154da6020830189614ea7565b81810360408301526154ec8188614ed4565b90506154fb60608301876151c9565b6155086080830186614ec5565b61551560a08301856151c9565b81810360c08301526155278184614ed4565b905098975050505050505050565b600060e08201905061554a600083018a6151c9565b6155576020830189614ea7565b61556460408301886151d8565b61557160608301876151d8565b61557e60808301866151d8565b61558b60a08301856151d8565b61559860c08301846151d8565b98975050505050505050565b60006060820190506155b960008301866151c9565b6155c660208301856151c9565b6155d360408301846151c9565b949350505050565b60006155e56155f6565b90506155f182826157c9565b919050565b6000604051905090565b600067ffffffffffffffff82111561561b5761561a615887565b5b615624826158b6565b9050602081019050919050565b600081519050919050565b600082825260208201905092915050565b60006156588261572c565b91506156638361572c565b9250817fffffffffffffffffffffffffffffffffffffffffffffffffffffffffffffffff048311821515161561569c5761569b6157fa565b5b828202905092915050565b60006156b28261572c565b91506156bd8361572c565b9250828210156156d0576156cf6157fa565b5b828203905092915050565b60006156e68261570c565b9050919050565b60008115159050919050565b600081905061570782615ea7565b919050565b600073ffffffffffffffffffffffffffffffffffffffff82169050919050565b6000819050919050565b600060ff82169050919050565b600061574e826156f9565b9050919050565b82818337600083830152505050565b60005b83811015615782578082015181840152602081019050615767565b83811115615791576000848401525b50505050565b600060028204905060018216806157af57607f821691505b602082108114156157c3576157c2615858565b5b50919050565b6157d2826158b6565b810181811067ffffffffffffffff821117156157f1576157f0615887565b5b80604052505050565b7f4e487b7100000000000000000000000000000000000000000000000000000000600052601160045260246000fd5b7f4e487b7100000000000000000000000000000000000000000000000000000000600052602160045260246000fd5b7f4e487b7100000000000000000000000000000000000000000000000000000000600052602260045260246000fd5b7f4e487b7100000000000000000000000000000000000000000000000000000000600052604160045260246000fd5b6000601f19601f8301169050919050565b7f44757269616e206973206e6f7420696e207468652050726f647563654279486160008201527f727665737465722073746174652e000000000000000000000000000000000000602082015250565b7f526f6c65733a206163636f756e7420616c72656164792068617320726f6c6500600082015250565b7f4f776e61626c653a206e6577206f776e657220697320746865207a65726f206160008201527f6464726573730000000000000000000000000000000000000000000000000000602082015250565b7f44757269616e206973206e6f7420696e2074686520466f7253616c654279486160008201527f727665737465722073746174652e000000000000000000000000000000000000602082015250565b7f44757269616e206973206e6f7420696e2074686520536869707065644279446960008201527f737472696275746f722073746174652e00000000000000000000000000000000602082015250565b7f44757269616e206973206e6f7420696e2074686520466f7253616c654279526560008201527f7461696c65722073746174652e00000000000000000000000000000000000000602082015250565b7f44757269616e206973206e6f7420696e207468652050726f636573736564427960008201527f4469737472696275746f722073746174652e0000000000000000000000000000602082015250565b7f44757269616e206973206e6f7420696e2074686520526563656976656442795260008201527f657461696c65722073746174652e000000000000000000000000000000000000602082015250565b7f526f6c65733a206163636f756e7420646f6573206e6f74206861766520726f6c60008201527f6500000000000000000000000000000000000000000000000000000000000000602082015250565b7f44757269616e20776974682074686520676976656e20636f646520646f65732060008201527f6e6f742065786973740000000000000000000000000000000000000000000000602082015250565b7f526f6c65733a206163636f756e7420697320746865207a65726f20616464726560008201527f7373000000000000000000000000000000000000000000000000000000000000602082015250565b7f44757269616e206973206e6f7420696e2074686520507572636861736564427960008201527f52657461696c65722073746174652e0000000000000000000000000000000000602082015250565b7f4f6e6c7920746865206f776e65722063616e20706572666f726d20746869732060008201527f616374696f6e2e00000000000000000000000000000000000000000000000000602082015250565b7f4f6e6c79207468652076657269666965642063616c6c65722063616e2070657260008201527f666f726d207468697320616374696f6e2e000000000000000000000000000000602082015250565b7f44757269616e206973206e6f7420696e2074686520507572636861736564427960008201527f4469737472696275746f722073746174652e0000000000000000000000000000602082015250565b7f44757269616e206973206e6f7420696e2074686520526563656976656442794460008201527f69737472696275746f722073746174652e000000000000000000000000000000602082015250565b7f44757269616e206973206e6f7420696e2074686520536869707065644279486160008201527f727665737465722073746174652e000000000000000000000000000000000000602082015250565b7f44757269616e206973206e6f7420696e2074686520466f7253616c654279446960008201527f737472696275746f722073746174652e00000000000000000000000000000000602082015250565b7f44757269616e206973206e6f7420696e2074686520507572636861736564427960008201527f436f6e73756d65722073746174652e0000000000000000000000000000000000602082015250565b7f496e73756666696369656e742066756e64732073656e74000000000000000000600082015250565b600d8110615eb857615eb7615829565b5b50565b615ec4816156db565b8114615ecf57600080fd5b50565b615edb816156ed565b8114615ee657600080fd5b50565b615ef28161572c565b8114615efd57600080fd5b50565b615f0981615736565b8114615f1457600080fd5b5056fea2646970667358221220f065a5da39e65170f225aebd7f6126e733acd90f7779f6c34805d498b3a7d97c64736f6c63430008040033",
  "linkReferences": {},
  "deployedLinkReferences": {}
}