{
  "_format": "hh-sol-artifact-1",
  "contractName": "durianSupplyChain",
  "sourceName": "contracts/durianSupplyChain/durianSupplyChain.sol",
  "abi": [
    {
      "inputs": [],
      "stateMutability": "payable",
      "type": "constructor"
    },
    {
      "anonymous": false,
      "inputs": [
        {
          "indexed": true,
          "internalType": "address",
          "name": "account",
          "type": "address"
        }
      ],
      "name": "ConsumerAdded",
      "type": "event"
    },
    {
      "anonymous": false,
      "inputs": [
        {
          "indexed": true,
          "internalType": "address",
          "name": "harvester",
          "type": "address"
        },
        {
          "indexed": true,
          "internalType": "address",
          "name": "account",
          "type": "address"
        }
      ],
      "name": "ConsumerAddedByRetailer",
      "type": "event"
    },
    {
      "anonymous": false,
      "inputs": [
        {
          "indexed": true,
          "internalType": "address",
          "name": "account",
          "type": "address"
        }
      ],
      "name": "ConsumerRemoved",
      "type": "event"
    },
    {
      "anonymous": false,
      "inputs": [
        {
          "indexed": true,
          "internalType": "address",
          "name": "account",
          "type": "address"
        }
      ],
      "name": "DistributorAdded",
      "type": "event"
    },
    {
      "anonymous": false,
      "inputs": [
        {
          "indexed": true,
          "internalType": "address",
          "name": "harvester",
          "type": "address"
        },
        {
          "indexed": true,
          "internalType": "address",
          "name": "account",
          "type": "address"
        }
      ],
      "name": "DistributorAddedByHarvester",
      "type": "event"
    },
    {
      "anonymous": false,
      "inputs": [
        {
          "indexed": true,
          "internalType": "address",
          "name": "account",
          "type": "address"
        }
      ],
      "name": "DistributorRemoved",
      "type": "event"
    },
    {
      "anonymous": false,
      "inputs": [
        {
          "indexed": false,
          "internalType": "uint256",
          "name": "durianCode",
          "type": "uint256"
        }
      ],
      "name": "ForSaleByDistributor",
      "type": "event"
    },
    {
      "anonymous": false,
      "inputs": [
        {
          "indexed": false,
          "internalType": "uint256",
          "name": "durianCode",
          "type": "uint256"
        }
      ],
      "name": "ForSaleByHarvester",
      "type": "event"
    },
    {
      "anonymous": false,
      "inputs": [
        {
          "indexed": false,
          "internalType": "uint256",
          "name": "durianCode",
          "type": "uint256"
        }
      ],
      "name": "ForSaleByRetailer",
      "type": "event"
    },
    {
      "anonymous": false,
      "inputs": [
        {
          "indexed": true,
          "internalType": "address",
          "name": "account",
          "type": "address"
        }
      ],
      "name": "HarvesterAdded",
      "type": "event"
    },
    {
      "anonymous": false,
      "inputs": [
        {
          "indexed": true,
          "internalType": "address",
          "name": "account",
          "type": "address"
        }
      ],
      "name": "HarvesterRemoved",
      "type": "event"
    },
    {
      "anonymous": false,
      "inputs": [
        {
          "indexed": true,
          "internalType": "address",
          "name": "previousOwner",
          "type": "address"
        },
        {
          "indexed": true,
          "internalType": "address",
          "name": "newOwner",
          "type": "address"
        }
      ],
      "name": "OwnershipTransferred",
      "type": "event"
    },
    {
      "anonymous": false,
      "inputs": [
        {
          "indexed": false,
          "internalType": "uint256",
          "name": "durianCode",
          "type": "uint256"
        }
      ],
      "name": "ProcessedByDistributor",
      "type": "event"
    },
    {
      "anonymous": false,
      "inputs": [
        {
          "indexed": false,
          "internalType": "uint256",
          "name": "durianCode",
          "type": "uint256"
        }
      ],
      "name": "ProduceByHarvester",
      "type": "event"
    },
    {
      "anonymous": false,
      "inputs": [
        {
          "indexed": false,
          "internalType": "uint256",
          "name": "durianCode",
          "type": "uint256"
        }
      ],
      "name": "PurchasedByConsumer",
      "type": "event"
    },
    {
      "anonymous": false,
      "inputs": [
        {
          "indexed": false,
          "internalType": "uint256",
          "name": "durianCode",
          "type": "uint256"
        }
      ],
      "name": "PurchasedByDistributor",
      "type": "event"
    },
    {
      "anonymous": false,
      "inputs": [
        {
          "indexed": false,
          "internalType": "uint256",
          "name": "durianCode",
          "type": "uint256"
        }
      ],
      "name": "PurchasedByRetailer",
      "type": "event"
    },
    {
      "anonymous": false,
      "inputs": [
        {
          "indexed": false,
          "internalType": "uint256",
          "name": "durianCode",
          "type": "uint256"
        }
      ],
      "name": "RatingByConsumer",
      "type": "event"
    },
    {
      "anonymous": false,
      "inputs": [
        {
          "indexed": false,
          "internalType": "uint256",
          "name": "durianCode",
          "type": "uint256"
        }
      ],
      "name": "ReceivedByDistributor",
      "type": "event"
    },
    {
      "anonymous": false,
      "inputs": [
        {
          "indexed": false,
          "internalType": "uint256",
          "name": "durianCode",
          "type": "uint256"
        }
      ],
      "name": "ReceivedByRetailer",
      "type": "event"
    },
    {
      "anonymous": false,
      "inputs": [
        {
          "indexed": true,
          "internalType": "address",
          "name": "account",
          "type": "address"
        }
      ],
      "name": "RetailerAdded",
      "type": "event"
    },
    {
      "anonymous": false,
      "inputs": [
        {
          "indexed": true,
          "internalType": "address",
          "name": "harvester",
          "type": "address"
        },
        {
          "indexed": true,
          "internalType": "address",
          "name": "account",
          "type": "address"
        }
      ],
      "name": "RetailerAddedByDistributor",
      "type": "event"
    },
    {
      "anonymous": false,
      "inputs": [
        {
          "indexed": true,
          "internalType": "address",
          "name": "account",
          "type": "address"
        }
      ],
      "name": "RetailerRemoved",
      "type": "event"
    },
    {
      "anonymous": false,
      "inputs": [
        {
          "indexed": false,
          "internalType": "uint256",
          "name": "durianCode",
          "type": "uint256"
        }
      ],
      "name": "ShippedByDistributor",
      "type": "event"
    },
    {
      "anonymous": false,
      "inputs": [
        {
          "indexed": false,
          "internalType": "uint256",
          "name": "durianCode",
          "type": "uint256"
        }
      ],
      "name": "ShippedByHarvester",
      "type": "event"
    },
    {
      "inputs": [
        {
          "internalType": "address",
          "name": "account",
          "type": "address"
        }
      ],
      "name": "addConsumer",
      "outputs": [],
      "stateMutability": "nonpayable",
      "type": "function"
    },
    {
      "inputs": [
        {
          "internalType": "address",
          "name": "account",
          "type": "address"
        }
      ],
      "name": "addDistributor",
      "outputs": [],
      "stateMutability": "nonpayable",
      "type": "function"
    },
    {
      "inputs": [
        {
          "internalType": "string",
          "name": "_farmName",
          "type": "string"
        }
      ],
      "name": "addFarm",
      "outputs": [],
      "stateMutability": "nonpayable",
      "type": "function"
    },
    {
      "inputs": [
        {
          "internalType": "address",
          "name": "account",
          "type": "address"
        }
      ],
      "name": "addHarvester",
      "outputs": [],
      "stateMutability": "nonpayable",
      "type": "function"
    },
    {
      "inputs": [
        {
          "internalType": "address",
          "name": "account",
          "type": "address"
        }
      ],
      "name": "addRetailer",
      "outputs": [],
      "stateMutability": "nonpayable",
      "type": "function"
    },
    {
      "inputs": [
        {
          "internalType": "uint256",
          "name": "_farmId",
          "type": "uint256"
        },
        {
          "internalType": "uint256",
          "name": "_treeId",
          "type": "uint256"
        }
      ],
      "name": "addTree",
      "outputs": [],
      "stateMutability": "nonpayable",
      "type": "function"
    },
    {
      "inputs": [
        {
          "internalType": "uint256",
          "name": "_durianCode",
          "type": "uint256"
        }
      ],
      "name": "displayCurrentPrice",
      "outputs": [
        {
          "internalType": "uint256",
          "name": "durianPrice",
          "type": "uint256"
        }
      ],
      "stateMutability": "view",
      "type": "function"
    },
    {
      "inputs": [
        {
          "internalType": "uint256",
          "name": "",
          "type": "uint256"
        }
      ],
      "name": "durianCodeArray",
      "outputs": [
        {
          "internalType": "uint256",
          "name": "",
          "type": "uint256"
        }
      ],
      "stateMutability": "view",
      "type": "function"
    },
    {
      "inputs": [],
      "name": "farmCount",
      "outputs": [
        {
          "internalType": "uint256",
          "name": "",
          "type": "uint256"
        }
      ],
      "stateMutability": "view",
      "type": "function"
    },
    {
      "inputs": [
        {
          "internalType": "uint256",
          "name": "_durianCode",
          "type": "uint256"
        }
      ],
      "name": "fetchDurianBufferFour",
      "outputs": [
        {
          "internalType": "uint8",
          "name": "taste",
          "type": "uint8"
        },
        {
          "internalType": "uint8",
          "name": "condition",
          "type": "uint8"
        },
        {
          "internalType": "uint8",
          "name": "fragrance",
          "type": "uint8"
        },
        {
          "internalType": "uint8",
          "name": "creaminess",
          "type": "uint8"
        },
        {
          "internalType": "uint8",
          "name": "ripeness",
          "type": "uint8"
        }
      ],
      "stateMutability": "view",
      "type": "function"
    },
    {
      "inputs": [
        {
          "internalType": "uint256",
          "name": "_durianCode",
          "type": "uint256"
        }
      ],
      "name": "fetchDurianBufferOne",
      "outputs": [
        {
          "internalType": "uint256",
          "name": "durianToCode",
          "type": "uint256"
        },
        {
          "internalType": "address",
          "name": "ownerID",
          "type": "address"
        },
        {
          "internalType": "uint256",
          "name": "durianWeight",
          "type": "uint256"
        },
        {
          "internalType": "string",
          "name": "durianType",
          "type": "string"
        },
        {
          "internalType": "enum durianSupplyChain.State",
          "name": "durianState",
          "type": "uint8"
        },
        {
          "internalType": "uint256",
          "name": "treeId",
          "type": "uint256"
        },
        {
          "internalType": "string",
          "name": "farmName",
          "type": "string"
        }
      ],
      "stateMutability": "view",
      "type": "function"
    },
    {
      "inputs": [
        {
          "internalType": "uint256",
          "name": "_durianCode",
          "type": "uint256"
        }
      ],
      "name": "fetchDurianBufferThree",
      "outputs": [
        {
          "internalType": "address",
          "name": "consumerID",
          "type": "address"
        },
        {
          "internalType": "uint256",
          "name": "consumerBoughtTime",
          "type": "uint256"
        },
        {
          "internalType": "bool",
          "name": "packaging",
          "type": "bool"
        },
        {
          "internalType": "uint256",
          "name": "piecesFlesh",
          "type": "uint256"
        }
      ],
      "stateMutability": "view",
      "type": "function"
    },
    {
      "inputs": [
        {
          "internalType": "uint256",
          "name": "_durianCode",
          "type": "uint256"
        }
      ],
      "name": "fetchDurianBufferTwo",
      "outputs": [
        {
          "internalType": "address",
          "name": "harvesterID",
          "type": "address"
        },
        {
          "internalType": "uint256",
          "name": "harvestedTime",
          "type": "uint256"
        },
        {
          "internalType": "address",
          "name": "distributorID",
          "type": "address"
        },
        {
          "internalType": "uint256",
          "name": "distributedDurianPrice",
          "type": "uint256"
        },
        {
          "internalType": "uint256",
          "name": "distributedTime",
          "type": "uint256"
        },
        {
          "internalType": "address",
          "name": "retailerID",
          "type": "address"
        },
        {
          "internalType": "uint256",
          "name": "retailedTime",
          "type": "uint256"
        }
      ],
      "stateMutability": "view",
      "type": "function"
    },
    {
      "inputs": [
        {
          "internalType": "uint256",
          "name": "_durianCode",
          "type": "uint256"
        }
      ],
      "name": "fetchDurianHistory",
      "outputs": [
        {
          "internalType": "uint256",
          "name": "blockHarvesterToDistributor",
          "type": "uint256"
        },
        {
          "internalType": "uint256",
          "name": "blockDistributorToRetailer",
          "type": "uint256"
        },
        {
          "internalType": "uint256",
          "name": "blockRetailerToConsumer",
          "type": "uint256"
        }
      ],
      "stateMutability": "view",
      "type": "function"
    },
    {
      "inputs": [],
      "name": "getAllDurianCodes",
      "outputs": [
        {
          "internalType": "uint256[]",
          "name": "",
          "type": "uint256[]"
        }
      ],
      "stateMutability": "view",
      "type": "function"
    },
    {
      "inputs": [
        {
          "internalType": "uint256",
          "name": "_farmId",
          "type": "uint256"
        }
      ],
      "name": "getAllFarmTrees",
      "outputs": [
        {
          "internalType": "string",
          "name": "",
          "type": "string"
        },
        {
          "internalType": "uint256[]",
          "name": "",
          "type": "uint256[]"
        }
      ],
      "stateMutability": "view",
      "type": "function"
    },
    {
      "inputs": [
        {
          "internalType": "uint256",
          "name": "_farmId",
          "type": "uint256"
        }
      ],
      "name": "getFarmTreeCount",
      "outputs": [
        {
          "internalType": "uint256",
          "name": "",
          "type": "uint256"
        }
      ],
      "stateMutability": "view",
      "type": "function"
    },
    {
      "inputs": [],
      "name": "getStockUnit",
      "outputs": [
        {
          "internalType": "uint256",
          "name": "",
          "type": "uint256"
        }
      ],
      "stateMutability": "view",
      "type": "function"
    },
    {
      "inputs": [
        {
          "internalType": "address",
          "name": "account",
          "type": "address"
        }
      ],
      "name": "isConsumer",
      "outputs": [
        {
          "internalType": "bool",
          "name": "",
          "type": "bool"
        }
      ],
      "stateMutability": "view",
      "type": "function"
    },
    {
      "inputs": [
        {
          "internalType": "address",
          "name": "account",
          "type": "address"
        }
      ],
      "name": "isDistributor",
      "outputs": [
        {
          "internalType": "bool",
          "name": "",
          "type": "bool"
        }
      ],
      "stateMutability": "view",
      "type": "function"
    },
    {
      "inputs": [
        {
          "internalType": "address",
          "name": "account",
          "type": "address"
        }
      ],
      "name": "isHarvester",
      "outputs": [
        {
          "internalType": "bool",
          "name": "",
          "type": "bool"
        }
      ],
      "stateMutability": "view",
      "type": "function"
    },
    {
      "inputs": [
        {
          "internalType": "address",
          "name": "_owner",
          "type": "address"
        }
      ],
      "name": "isOwner",
      "outputs": [
        {
          "internalType": "bool",
          "name": "",
          "type": "bool"
        }
      ],
      "stateMutability": "view",
      "type": "function"
    },
    {
      "inputs": [
        {
          "internalType": "address",
          "name": "account",
          "type": "address"
        }
      ],
      "name": "isRetailer",
      "outputs": [
        {
          "internalType": "bool",
          "name": "",
          "type": "bool"
        }
      ],
      "stateMutability": "view",
      "type": "function"
    },
    {
      "inputs": [],
      "name": "kill",
      "outputs": [],
      "stateMutability": "nonpayable",
      "type": "function"
    },
    {
      "inputs": [],
      "name": "owner",
      "outputs": [
        {
          "internalType": "address",
          "name": "",
          "type": "address"
        }
      ],
      "stateMutability": "view",
      "type": "function"
    },
    {
      "inputs": [
        {
          "internalType": "uint256",
          "name": "_durianCode",
          "type": "uint256"
        },
        {
          "internalType": "bool",
          "name": "_packaging",
          "type": "bool"
        },
        {
          "internalType": "uint256",
          "name": "_piecesFlesh",
          "type": "uint256"
        }
      ],
      "name": "processedDurianByDistributor",
      "outputs": [],
      "stateMutability": "nonpayable",
      "type": "function"
    },
    {
      "inputs": [
        {
          "internalType": "uint256",
          "name": "_durianCode",
          "type": "uint256"
        },
        {
          "internalType": "uint256",
          "name": "_durianWeight",
          "type": "uint256"
        },
        {
          "internalType": "string",
          "name": "_durianType",
          "type": "string"
        },
        {
          "internalType": "uint256",
          "name": "_farmId",
          "type": "uint256"
        },
        {
          "internalType": "uint256",
          "name": "_treeId",
          "type": "uint256"
        }
      ],
      "name": "produceDurianByHarvester",
      "outputs": [],
      "stateMutability": "nonpayable",
      "type": "function"
    },
    {
      "inputs": [
        {
          "internalType": "uint256",
          "name": "_durianCode",
          "type": "uint256"
        }
      ],
      "name": "purchaseDurianByConsumer",
      "outputs": [],
      "stateMutability": "payable",
      "type": "function"
    },
    {
      "inputs": [
        {
          "internalType": "uint256",
          "name": "_durianCode",
          "type": "uint256"
        }
      ],
      "name": "purchaseDurianByDistributor",
      "outputs": [],
      "stateMutability": "payable",
      "type": "function"
    },
    {
      "inputs": [
        {
          "internalType": "uint256",
          "name": "_durianCode",
          "type": "uint256"
        }
      ],
      "name": "purchaseDurianByRetailer",
      "outputs": [],
      "stateMutability": "payable",
      "type": "function"
    },
    {
      "inputs": [
        {
          "internalType": "uint256",
          "name": "_durianCode",
          "type": "uint256"
        },
        {
          "internalType": "uint8",
          "name": "_taste",
          "type": "uint8"
        },
        {
          "internalType": "uint8",
          "name": "_condition",
          "type": "uint8"
        },
        {
          "internalType": "uint8",
          "name": "_fragrance",
          "type": "uint8"
        },
        {
          "internalType": "uint8",
          "name": "_creaminess",
          "type": "uint8"
        },
        {
          "internalType": "uint8",
          "name": "_ripeness",
          "type": "uint8"
        }
      ],
      "name": "rateDurianFromConsumer",
      "outputs": [],
      "stateMutability": "nonpayable",
      "type": "function"
    },
    {
      "inputs": [
        {
          "internalType": "uint256",
          "name": "_durianCode",
          "type": "uint256"
        }
      ],
      "name": "receivedDurianByDistributor",
      "outputs": [],
      "stateMutability": "nonpayable",
      "type": "function"
    },
    {
      "inputs": [
        {
          "internalType": "uint256",
          "name": "_durianCode",
          "type": "uint256"
        }
      ],
      "name": "receivedDurianByRetailer",
      "outputs": [],
      "stateMutability": "nonpayable",
      "type": "function"
    },
    {
      "inputs": [
        {
          "internalType": "address",
          "name": "account",
          "type": "address"
        }
      ],
      "name": "removeDistributor",
      "outputs": [],
      "stateMutability": "nonpayable",
      "type": "function"
    },
    {
      "inputs": [
        {
          "internalType": "address",
          "name": "account",
          "type": "address"
        }
      ],
      "name": "removeHarvester",
      "outputs": [],
      "stateMutability": "nonpayable",
      "type": "function"
    },
    {
      "inputs": [
        {
          "internalType": "address",
          "name": "account",
          "type": "address"
        }
      ],
      "name": "removeRetailer",
      "outputs": [],
      "stateMutability": "nonpayable",
      "type": "function"
    },
    {
      "inputs": [
        {
          "internalType": "address",
          "name": "account",
          "type": "address"
        }
      ],
      "name": "renounceConsumer",
      "outputs": [],
      "stateMutability": "nonpayable",
      "type": "function"
    },
    {
      "inputs": [
        {
          "internalType": "uint256",
          "name": "_durianCode",
          "type": "uint256"
        },
        {
          "internalType": "uint256",
          "name": "_price",
          "type": "uint256"
        }
      ],
      "name": "sellDurianByDistributor",
      "outputs": [],
      "stateMutability": "nonpayable",
      "type": "function"
    },
    {
      "inputs": [
        {
          "internalType": "uint256",
          "name": "_durianCode",
          "type": "uint256"
        }
      ],
      "name": "sellDurianByHarvester",
      "outputs": [],
      "stateMutability": "nonpayable",
      "type": "function"
    },
    {
      "inputs": [
        {
          "internalType": "uint256",
          "name": "_durianCode",
          "type": "uint256"
        },
        {
          "internalType": "uint256",
          "name": "_price",
          "type": "uint256"
        }
      ],
      "name": "sellDurianByRetailer",
      "outputs": [],
      "stateMutability": "nonpayable",
      "type": "function"
    },
    {
      "inputs": [
        {
          "internalType": "uint256",
          "name": "_durianCode",
          "type": "uint256"
        }
      ],
      "name": "shippedDurianByDistributor",
      "outputs": [],
      "stateMutability": "nonpayable",
      "type": "function"
    },
    {
      "inputs": [
        {
          "internalType": "uint256",
          "name": "_durianCode",
          "type": "uint256"
        }
      ],
      "name": "shippedDurianByHarvester",
      "outputs": [],
      "stateMutability": "nonpayable",
      "type": "function"
    },
    {
      "inputs": [],
      "name": "stockUnit",
      "outputs": [
        {
          "internalType": "uint256",
          "name": "",
          "type": "uint256"
        }
      ],
      "stateMutability": "view",
      "type": "function"
    },
    {
      "inputs": [
        {
          "internalType": "address",
          "name": "newOwner",
          "type": "address"
        }
      ],
      "name": "transferOwnership",
      "outputs": [],
      "stateMutability": "nonpayable",
      "type": "function"
    }
  ],
  "bytecode": "0x6080604052600060065562000014336200004d565b6200001f336200009f565b6200002a33620000f1565b620000353362000143565b600480546001600160a01b03191633179055620002b2565b620000688160006200019560201b62003c741790919060201c565b6040516001600160a01b038216907f2a6b352b84affc85ec0ab54b71a09c17830148eb8a1c5aeabf5cd5e73ee7c24890600090a250565b620000ba8160016200019560201b62003c741790919060201c565b6040516001600160a01b038216907fddbf200aa634dc3fb81cfd68583dd1040d1c751d335e1d86b631bde3e977fea890600090a250565b6200010c8160026200019560201b62003c741790919060201c565b6040516001600160a01b038216907f71ae26cad02663e3d92efd6ec56031a80d74a20c0ab4183faa8bf262261c9baa90600090a250565b6200015e8160036200019560201b62003c741790919060201c565b6040516001600160a01b038216907f28b26e7a3d20aedbc5f8f2ebf7da671c0491723a2b78f47a097b0e46dee0714290600090a250565b6001600160a01b038116620001fc5760405162461bcd60e51b815260206004820152602260248201527f526f6c65733a206163636f756e7420697320746865207a65726f206164647265604482015261737360f01b60648201526084015b60405180910390fd5b6200020882826200027c565b15620002575760405162461bcd60e51b815260206004820152601f60248201527f526f6c65733a206163636f756e7420616c72656164792068617320726f6c65006044820152606401620001f3565b6001600160a01b0316600090815260209190915260409020805460ff19166001179055565b60006001600160a01b0382166200029257600080fd5b506001600160a01b03166000908152602091909152604090205460ff1690565b61471380620002c26000396000f3fe6080604052600436106102e75760003560e01c80638da5cb5b11610184578063aff66095116100d6578063f2fde38b1161008a578063fa013f9f11610064578063fa013f9f14610911578063faaa588114610931578063fe8d6b941461098157600080fd5b8063f2fde38b146108b1578063f487d48d146108d1578063f8fa7bb3146108f157600080fd5b8063c2b1cfe9116100bb578063c2b1cfe91461080d578063d48a26b21461083d578063e4a004431461089157600080fd5b8063aff66095146107cb578063b6dbac86146107eb57600080fd5b80639c61fc6b11610138578063a71bbfd511610112578063a71bbfd51461076b578063aca498011461078b578063afe4bc3a146107ab57600080fd5b80639c61fc6b146106ba5780639fe0dae0146106da578063a0d6e2bf146106fa57600080fd5b80638f0c86fa116101695780638f0c86fa146106675780638fab59171461068757806390f0c753146106a757600080fd5b80638da5cb5b1461060f5780638ec4f5051461064757600080fd5b806357c1f9e21161023d57806369907c5e116101f15780637250e224116101cb5780637250e224146105af578063828c1180146105cf578063834ff739146105ef57600080fd5b806369907c5e1461054c57806370099ec81461057a57806370ad03f91461059a57600080fd5b80635da09b88116102225780635da09b88146104f95780635df04d3814610519578063629b73751461053957600080fd5b806357c1f9e2146104b95780635c0c1376146104d957600080fd5b80631bc33c5f1161029f5780632f54bf6e116102795780632f54bf6e146104455780633fff55851461048457806341c0e1b5146104a457600080fd5b80631bc33c5f1461039d5780632b843c5f146103bd5780632cd1446a146103dd57600080fd5b80630b671700116102d05780630b67170014610337578063112940f91461036a57806311d191851461038a57600080fd5b806309cb3c5b146102ec5780630a8e214c1461030e575b600080fd5b3480156102f857600080fd5b5061030c6103073660046142c1565b610997565b005b34801561031a57600080fd5b50610324600b5481565b6040519081526020015b60405180910390f35b34801561034357600080fd5b506103576103523660046142fc565b610a9b565b60405161032e979695949392919061459d565b34801561037657600080fd5b5061030c610385366004614293565b610dc7565b61030c6103983660046142fc565b610dd3565b3480156103a957600080fd5b5061030c6103b83660046142fc565b61105a565b3480156103c957600080fd5b5061030c6103d83660046142fc565b6111f7565b3480156103e957600080fd5b506103fd6103f83660046142fc565b611389565b604080516001600160a01b0398891681526020810197909752948716948601949094526060850192909252608084015290921660a082015260c081019190915260e00161032e565b34801561045157600080fd5b50610474610460366004614293565b6004546001600160a01b0390811691161490565b604051901515815260200161032e565b34801561049057600080fd5b5061030c61049f366004614314565b6116b5565b3480156104b057600080fd5b5061030c611899565b3480156104c557600080fd5b5061030c6104d4366004614293565b6118c6565b3480156104e557600080fd5b5061030c6104f436600461434f565b61191a565b34801561050557600080fd5b50610474610514366004614293565b611a62565b34801561052557600080fd5b5061030c61053436600461434f565b611a75565b61030c6105473660046142fc565b611c10565b34801561055857600080fd5b5061056c6105673660046142fc565b611ea6565b60405161032e92919061456f565b34801561058657600080fd5b5061030c610595366004614293565b61202b565b3480156105a657600080fd5b50600654610324565b3480156105bb57600080fd5b5061030c6105ca366004614293565b61207f565b3480156105db57600080fd5b5061030c6105ea3660046143d0565b61209a565b3480156105fb57600080fd5b5061047461060a366004614293565b612339565b34801561061b57600080fd5b5060045461062f906001600160a01b031681565b6040516001600160a01b03909116815260200161032e565b34801561065357600080fd5b5061030c610662366004614293565b612346565b34801561067357600080fd5b50610474610682366004614293565b612361565b34801561069357600080fd5b5061030c6106a2366004614293565b61236e565b61030c6106b53660046142fc565b612389565b3480156106c657600080fd5b5061030c6106d53660046142fc565b612612565b3480156106e657600080fd5b5061030c6106f5366004614370565b61279f565b34801561070657600080fd5b506107506107153660046142fc565b600081815260086020908152604091829020825160608101845281548082526001830154938201849052600290920154930183905293909250565b6040805193845260208401929092529082015260600161032e565b34801561077757600080fd5b50610474610786366004614293565b612c0d565b34801561079757600080fd5b5061030c6107a63660046142fc565b612c19565b3480156107b757600080fd5b506103246107c63660046142fc565b612e1b565b3480156107d757600080fd5b5061030c6107e6366004614293565b613125565b3480156107f757600080fd5b50610800613179565b60405161032e919061455c565b34801561081957600080fd5b506103246108283660046142fc565b6000908152600a602052604090206002015490565b34801561084957600080fd5b5061085d6108583660046142fc565b61324a565b6040805160ff968716815294861660208601529285169284019290925283166060830152909116608082015260a00161032e565b34801561089d57600080fd5b506103246108ac3660046142fc565b61353b565b3480156108bd57600080fd5b5061030c6108cc366004614293565b61355c565b3480156108dd57600080fd5b5061030c6108ec366004614293565b61366a565b3480156108fd57600080fd5b5061030c61090c36600461434f565b613673565b34801561091d57600080fd5b5061030c61092c3660046142fc565b613804565b34801561093d57600080fd5b5061095161094c3660046142fc565b613985565b604080516001600160a01b039095168552602085019390935290151591830191909152606082015260800161032e565b34801561098d57600080fd5b5061032460065481565b6109a033612c0d565b6109a957600080fd5b60015b600b548111610a4d578180519060200120600a60008381526020019081526020016000206001016040516109e091906144c1565b60405180910390201415610a3b5760405162461bcd60e51b815260206004820152601360248201527f4661726d20616c7265616479206578697374730000000000000000000000000060448201526064015b60405180910390fd5b80610a4581614696565b9150506109ac565b5060006001600b6000828254610a639190614613565b91829055506000818152600a6020908152604090912085519294509250610a91916001840191860190614068565b50600b5490555050565b6000806000606060008060606000600760008a8152602001908152602001600020604051806103200160405290816000820160009054906101000a90046001600160a01b03166001600160a01b03166001600160a01b031681526020016001820154815260200160028201548152602001600382018054610b1b90614661565b80601f0160208091040260200160405190810160405280929190818152602001828054610b4790614661565b8015610b945780601f10610b6957610100808354040283529160200191610b94565b820191906000526020600020905b815481529060010190602001808311610b7757829003601f168201915b50505091835250506004820154602082015260058201546001600160a01b03166040820152600682015460608201526007820154608082015260088201805460a090920191610be290614661565b80601f0160208091040260200160405190810160405280929190818152602001828054610c0e90614661565b8015610c5b5780601f10610c3057610100808354040283529160200191610c5b565b820191906000526020600020905b815481529060010190602001808311610c3e57829003601f168201915b5050509183525050600982015460209091019060ff16600c811115610c9057634e487b7160e01b600052602160045260246000fd5b600c811115610caf57634e487b7160e01b600052602160045260246000fd5b815260098201546001600160a01b03610100918290048116602080850191909152600a850154604080860191909152600b86015460ff9081161515606080880191909152600c8801546080880152600d88015460a0880152600e880154851660c0880152600f88015460e0808901919091526010890154878901526011890154909516610120808901919091526012890154610140890152601390980154808316610160890152868104831661018089015262010000810483166101a08901526301000000810483166101c089015264010000000090049091166101e090960195909552908601518651918701519487015195870151928701519690930151929f909e50929c50929a50919850919650945092505050565b610dd081613d51565b50565b610ddc33611a62565b610de557600080fd5b80600660008281526007602052604090206009015460ff16600c811115610e1c57634e487b7160e01b600052602160045260246000fd5b14610e8f5760405162461bcd60e51b815260206004820152603060248201527f44757269616e206973206e6f7420696e2074686520466f7253616c654279446960448201527f737472696275746f722073746174652e000000000000000000000000000000006064820152608401610a32565b6000828152600760205260409020600a015434811115610eeb5760405162461bcd60e51b8152602060048201526017602482015276125b9cdd59999a58da595b9d08199d5b991cc81cd95b9d604a1b6044820152606401610a32565b823381341015610f375760405162461bcd60e51b8152602060048201526017602482015276125b9cdd59999a58da595b9d08199d5b991cc81cd95b9d604a1b6044820152606401610a32565b6000610f43833461464a565b6040519091506001600160a01b0383169082156108fc029083906000818181858888f19350505050158015610f7c573d6000803e3d6000fd5b506000868152600760205260408082206009810154600a9091015491516101009091046001600160a01b031692839280156108fc02929091818181858888f19350505050158015610fd1573d6000803e3d6000fd5b5060008781526007602081815260408084208054336001600160a01b031991821681178355600e83018054909216179055600901805460ff191690931790925560088152918190204360019190910155518881527faa7352d10146444c3afd9bd7fb0ae56b0a85e81139536bbec3f1f660fddd7be191015b60405180910390a150505050505050565b61106333611a62565b61106c57600080fd5b80600860008281526007602052604090206009015460ff16600c8111156110a357634e487b7160e01b600052602160045260246000fd5b146111165760405162461bcd60e51b815260206004820152603060248201527f44757269616e206973206e6f7420696e2074686520536869707065644279446960448201527f737472696275746f722073746174652e000000000000000000000000000000006064820152608401610a32565b6000828152600760205260409020546001600160a01b03163381146111975760405162461bcd60e51b815260206004820152603160248201527f4f6e6c79207468652076657269666965642063616c6c65722063616e207065726044820152703337b936903a3434b99030b1ba34b7b71760791b6064820152608401610a32565b60008381526007602052604090204260108201556009908101805460ff191660018302179055506040518381527f322f34e90f2269750b3e28178631d975cc678db36f21098fe548b7f755ce0bd0906020015b60405180910390a1505050565b61120033612361565b61120957600080fd5b80600760008281526007602052604090206009015460ff16600c81111561124057634e487b7160e01b600052602160045260246000fd5b146112b35760405162461bcd60e51b815260206004820152602f60248201527f44757269616e206973206e6f7420696e2074686520507572636861736564427960448201527f52657461696c65722073746174652e00000000000000000000000000000000006064820152608401610a32565b60008281526007602052604090206009015461010090046001600160a01b031633811461133c5760405162461bcd60e51b815260206004820152603160248201527f4f6e6c79207468652076657269666965642063616c6c65722063616e207065726044820152703337b936903a3434b99030b1ba34b7b71760791b6064820152608401610a32565b600083815260076020908152604091829020600901805460ff1916600817905590518481527fc5c33776d405e5686e4386e1ef31a65cf6195e4f7ceb8808ab64d05b6ccbc2a691016111ea565b600080600080600080600080600760008a8152602001908152602001600020604051806103200160405290816000820160009054906101000a90046001600160a01b03166001600160a01b03166001600160a01b03168152602001600182015481526020016002820154815260200160038201805461140790614661565b80601f016020809104026020016040519081016040528092919081815260200182805461143390614661565b80156114805780601f1061145557610100808354040283529160200191611480565b820191906000526020600020905b81548152906001019060200180831161146357829003601f168201915b50505091835250506004820154602082015260058201546001600160a01b03166040820152600682015460608201526007820154608082015260088201805460a0909201916114ce90614661565b80601f01602080910402602001604051908101604052809291908181526020018280546114fa90614661565b80156115475780601f1061151c57610100808354040283529160200191611547565b820191906000526020600020905b81548152906001019060200180831161152a57829003601f168201915b5050509183525050600982015460209091019060ff16600c81111561157c57634e487b7160e01b600052602160045260246000fd5b600c81111561159b57634e487b7160e01b600052602160045260246000fd5b815260098201546001600160a01b036101009182900481166020840152600a8401546040840152600b84015460ff90811615156060850152600c8501546080850152600d85015460a080860191909152600e860154831660c080870191909152600f87015460e0870152601087015485870152601187015490931661012086015260128601546101408087019190915260139096015480831661016080880191909152948104831661018087015262010000810483166101a08701526301000000810483166101c0808801919091526401000000009091049092166101e095860152860151918601519486015192860151908601519386015161022090960151919f949e50919c50909a5090985091965090945092505050565b6116be33612361565b6116c757600080fd5b82600460008281526007602052604090206009015460ff16600c8111156116fe57634e487b7160e01b600052602160045260246000fd5b146117715760405162461bcd60e51b815260206004820152603160248201527f44757269616e206973206e6f7420696e2074686520526563656976656442794460448201527f69737472696275746f722073746174652e0000000000000000000000000000006064820152608401610a32565b6000848152600760205260409020546001600160a01b03163381146117f25760405162461bcd60e51b815260206004820152603160248201527f4f6e6c79207468652076657269666965642063616c6c65722063616e207065726044820152703337b936903a3434b99030b1ba34b7b71760791b6064820152608401610a32565b6000858152600760205260409020600b01805460ff191685151590811790915561182d576000858152600760205260408120600c0155611842565b6000858152600760205260409020600c018390555b600085815260076020908152604091829020600901805460ff1916600517905590518681527f5725e53fd0efed5294b7db2af148f040264a63630b4deb0afbccf6e60830988a910160405180910390a15050505050565b6004546001600160a01b0316336001600160a01b031614156118c4576004546001600160a01b031680ff5b565b6118cf33612361565b6118d857600080fd5b6118e3600182613d93565b6040516001600160a01b038216907f126174f6cf49c81cdb4a9214c6b8f037bef55b4ec31e4fc776cea2a1c8a88d5990600090a250565b61192333612c0d565b61192c57600080fd5b6000828152600a60205260409020546119875760405162461bcd60e51b815260206004820152601360248201527f4661726d20646f6573206e6f74206578697374000000000000000000000000006044820152606401610a32565b6000828152600a60205260408120905b6002820154811015611a3557828260020182815481106119c757634e487b7160e01b600052603260045260246000fd5b90600052602060002001600001541415611a235760405162461bcd60e51b815260206004820152601f60248201527f5472656520616c72656164792065786973747320696e20746865206661726d006044820152606401610a32565b80611a2d81614696565b915050611997565b50604080516020808201909252928352600290910180546001810182556000918252919020915191015550565b6000611a6f600283613e92565b92915050565b611a7e33611a62565b611a8757600080fd5b81600960008281526007602052604090206009015460ff16600c811115611abe57634e487b7160e01b600052602160045260246000fd5b14611b315760405162461bcd60e51b815260206004820152602e60248201527f44757269616e206973206e6f7420696e2074686520526563656976656442795260448201527f657461696c65722073746174652e0000000000000000000000000000000000006064820152608401610a32565b6000838152600760205260409020546001600160a01b0316338114611bb25760405162461bcd60e51b815260206004820152603160248201527f4f6e6c79207468652076657269666965642063616c6c65722063616e207065726044820152703337b936903a3434b99030b1ba34b7b71760791b6064820152608401610a32565b60008481526007602090815260409182902060098101805460ff1916600a179055600f0185905590518581527f59e7ad085805e2b02ad4b0f8033bd75e7ee4c8cd43f996267463585e3589625291015b60405180910390a150505050565b611c1933612361565b611c2257600080fd5b80600160008281526007602052604090206009015460ff16600c811115611c5957634e487b7160e01b600052602160045260246000fd5b14611cbd5760405162461bcd60e51b815260206004820152602e60248201527f44757269616e206973206e6f7420696e2074686520466f7253616c654279486160448201526d393b32b9ba32b91039ba30ba329760911b6064820152608401610a32565b60008281526007602052604090206004015434811115611d195760405162461bcd60e51b8152602060048201526017602482015276125b9cdd59999a58da595b9d08199d5b991cc81cd95b9d604a1b6044820152606401610a32565b6000838152600760205260409020600401543381341015611d765760405162461bcd60e51b8152602060048201526017602482015276125b9cdd59999a58da595b9d08199d5b991cc81cd95b9d604a1b6044820152606401610a32565b6000611d82833461464a565b6040519091506001600160a01b0383169082156108fc029083906000818181858888f19350505050158015611dbb573d6000803e3d6000fd5b50600086815260076020526040808220600581015460049091015491516001600160a01b039091169283926108fc811502929091818181858888f19350505050158015611e0c573d6000803e3d6000fd5b50600087815260076020908152604080832080546001600160a01b03191633908117825560099091018054600261010090930260ff19167fffffffffffffffffffffff00000000000000000000000000000000000000000090911617919091179055600882529182902043905590518881527facd9402b9f9e8c15fa7c1819f8393ca56eb61316cc354fc6ac2150aed3ce79319101611049565b6000818152600a60205260408120600281015460609283929167ffffffffffffffff811115611ee557634e487b7160e01b600052604160045260246000fd5b604051908082528060200260200182016040528015611f0e578160200160208202803683370190505b50905060005b6002830154811015611f8e57826002018181548110611f4357634e487b7160e01b600052603260045260246000fd5b9060005260206000200160000154828281518110611f7157634e487b7160e01b600052603260045260246000fd5b602090810291909101015280611f8681614696565b915050611f14565b508160010181818054611fa090614661565b80601f0160208091040260200160405190810160405280929190818152602001828054611fcc90614661565b80156120195780601f10611fee57610100808354040283529160200191612019565b820191906000526020600020905b815481529060010190602001808311611ffc57829003601f168201915b50505050509150935093505050915091565b61203433611a62565b61203d57600080fd5b612048600282613d93565b6040516001600160a01b038216907fdb7176e79cffef81cb01767dd0447a0b24bb72ca9778d4b245581086b2a7e6db90600090a250565b61208833612361565b61209157600080fd5b610dd081613ec7565b85600b60008281526007602052604090206009015460ff16600c8111156120d157634e487b7160e01b600052602160045260246000fd5b146121445760405162461bcd60e51b815260206004820152602f60248201527f44757269616e206973206e6f7420696e2074686520507572636861736564427960448201527f436f6e73756d65722073746174652e00000000000000000000000000000000006064820152608401610a32565b6000878152600760205260409020546001600160a01b03163381146121c55760405162461bcd60e51b815260206004820152603160248201527f4f6e6c79207468652076657269666965642063616c6c65722063616e207065726044820152703337b936903a3434b99030b1ba34b7b71760791b6064820152608401610a32565b86600760008a815260200190815260200160002060130160006101000a81548160ff021916908360ff16021790555085600760008a815260200190815260200160002060130160016101000a81548160ff021916908360ff16021790555084600760008a815260200190815260200160002060130160026101000a81548160ff021916908360ff16021790555083600760008a815260200190815260200160002060130160036101000a81548160ff021916908360ff16021790555082600760008a815260200190815260200160002060130160046101000a81548160ff021916908360ff160217905550600c600760008a815260200190815260200160002060090160006101000a81548160ff0219169083600c8111156122f757634e487b7160e01b600052602160045260246000fd5b02179055506040518881527fc7e94446a942a0541d0224ece380a730c85f03db7188fca783225da9255929f79060200160405180910390a15050505050505050565b6000611a6f600383613e92565b61234f33611a62565b61235857600080fd5b610dd081613f09565b6000611a6f600183613e92565b61237733612c0d565b61238057600080fd5b610dd081613f4b565b80600a60008281526007602052604090206009015460ff16600c8111156123c057634e487b7160e01b600052602160045260246000fd5b146124335760405162461bcd60e51b815260206004820152602d60248201527f44757269616e206973206e6f7420696e2074686520466f7253616c654279526560448201527f7461696c65722073746174652e000000000000000000000000000000000000006064820152608401610a32565b6000828152600760205260409020600f01543481111561248f5760405162461bcd60e51b8152602060048201526017602482015276125b9cdd59999a58da595b9d08199d5b991cc81cd95b9d604a1b6044820152606401610a32565b6000838152600760205260409020600f015433813410156124ec5760405162461bcd60e51b8152602060048201526017602482015276125b9cdd59999a58da595b9d08199d5b991cc81cd95b9d604a1b6044820152606401610a32565b60006124f8833461464a565b6040519091506001600160a01b0383169082156108fc029083906000818181858888f19350505050158015612531573d6000803e3d6000fd5b506000868152600760205260408082206011810180546001600160a01b03191633179055600e810154600f9091015491516001600160a01b03919091169283926108fc811502929091818181858888f19350505050158015612597573d6000803e3d6000fd5b5060008781526007602090815260408083208054336001600160a01b031991821681178355601183018054909216179055600901805460ff1916600b17905560088252918290204360029091015590518881527fc7e94446a942a0541d0224ece380a730c85f03db7188fca783225da9255929f79101611049565b61261b33612c0d565b61262457600080fd5b80600260008281526007602052604090206009015460ff16600c81111561265b57634e487b7160e01b600052602160045260246000fd5b146126ce5760405162461bcd60e51b815260206004820152603260248201527f44757269616e206973206e6f7420696e2074686520507572636861736564427960448201527f4469737472696275746f722073746174652e00000000000000000000000000006064820152608401610a32565b6000828152600760205260409020600501546001600160a01b03163381146127525760405162461bcd60e51b815260206004820152603160248201527f4f6e6c79207468652076657269666965642063616c6c65722063616e207065726044820152703337b936903a3434b99030b1ba34b7b71760791b6064820152608401610a32565b600083815260076020908152604091829020600901805460ff1916600317905590518481527f51c097b0018d62788fa545fa4a1d4da21348f51fa65254d6def7b3b6bd71820d91016111ea565b6127a833612c0d565b6127b157600080fd5b6000828152600a60205260408120905b600282015481101561285f57828260020182815481106127f157634e487b7160e01b600052603260045260246000fd5b9060005260206000200160000154141561284d5760405162461bcd60e51b815260206004820152601f60248201527f5472656520616c72656164792065786973747320696e20746865206661726d006044820152606401610a32565b8061285781614696565b9150506127c1565b50600080600061286d6140ec565b33808252602082018b905260a0820152604081018990526060810188905260e081018690524260c08201526128a9896611c37937e0800061462b565b6080820152600061012082018190526001600160a01b038581166101408401528481166101e08401528381166102408401528b825260076020908152604092839020845181546001600160a01b031916931692909217825580840151600183015591830151600282015560608301518051849361292d926003850192910190614068565b506080820151600482015560a08201516005820180546001600160a01b0319166001600160a01b0390921691909117905560c0820151600682015560e08201516007820155610100820151805161298e916008840191602090910190614068565b5061012082015160098201805460ff1916600183600c8111156129c157634e487b7160e01b600052602160045260246000fd5b02179055506101408201516009820180546001600160a01b039283166101009081027fffffffffffffffffffffff0000000000000000000000000000000000000000ff90921691909117909155610160840151600a840155610180840151600b8401805491151560ff199092169190911790556101a0840151600c8401556101c0840151600d8401556101e0840151600e840180549184166001600160a01b0319928316179055610200850151600f8501556102208501516010850155610240850151601185018054919094169116179091556102608301516012830155610280830151601390920180546102a08501516102c08601516102e08701516103009097015160ff9081166401000000000264ff000000001998821663010000000263ff0000001993831662010000029390931663ffff00001994831690970261ffff19909516979091169690961792909217169290921791909117929092161790556040805160608101825260008082526020820181905291810182905281816000018181525050818160200181815250508181604001818152505080600860008e815260200190815260200160002060008201518160000155602082015181600101556040820151816002015590505060098c90806001815401808255809150506001900390600052602060002001600090919091909150556006546001612bc99190614613565b6006556040518c81527fa20cf5c0cc38eede6efacb85f9f76c7f8763bb01a4b43287a21fe5df6fe8615b9060200160405180910390a1505050505050505050505050565b6000611a6f8183613e92565b612c2233612c0d565b612c2b57600080fd5b806000808281526007602052604090206009015460ff16600c811115612c6157634e487b7160e01b600052602160045260246000fd5b14612cc55760405162461bcd60e51b815260206004820152602e60248201527f44757269616e206973206e6f7420696e207468652050726f647563654279486160448201526d393b32b9ba32b91039ba30ba329760911b6064820152608401610a32565b60008281526007602052604090206001015482908114612d4d5760405162461bcd60e51b815260206004820152602960248201527f44757269616e20776974682074686520676976656e20636f646520646f65732060448201527f6e6f7420657869737400000000000000000000000000000000000000000000006064820152608401610a32565b6000838152600760205260409020546001600160a01b0316338114612dce5760405162461bcd60e51b815260206004820152603160248201527f4f6e6c79207468652076657269666965642063616c6c65722063616e207065726044820152703337b936903a3434b99030b1ba34b7b71760791b6064820152608401610a32565b600084815260076020908152604091829020600901805460ff1916600117905590518581527fea4031d0e152254ad0cc1d39c2266dfd6ae91966a70ed269579da8b72cb447bc9101611c02565b600081815260076020908152604080832081516103208101835281546001600160a01b03168152600182015493810193909352600281015491830191909152600381018054849392916060840191612e7290614661565b80601f0160208091040260200160405190810160405280929190818152602001828054612e9e90614661565b8015612eeb5780601f10612ec057610100808354040283529160200191612eeb565b820191906000526020600020905b815481529060010190602001808311612ece57829003601f168201915b50505091835250506004820154602082015260058201546001600160a01b03166040820152600682015460608201526007820154608082015260088201805460a090920191612f3990614661565b80601f0160208091040260200160405190810160405280929190818152602001828054612f6590614661565b8015612fb25780601f10612f8757610100808354040283529160200191612fb2565b820191906000526020600020905b815481529060010190602001808311612f9557829003601f168201915b5050509183525050600982015460209091019060ff16600c811115612fe757634e487b7160e01b600052602160045260246000fd5b600c81111561300657634e487b7160e01b600052602160045260246000fd5b815260098201546001600160a01b036101009182900481166020840152600a8401546040840152600b84015460ff90811615156060850152600c8501546080850152600d85015460a0850152600e850154821660c0850152600f85015460e085015260108501548385015260118501549091166101208401526012840154610140840152601390930154808416610160840152908104831661018083015262010000810483166101a08301526301000000810483166101c083015264010000000090049091166101e090910152610200810151909150156130ec57610200015192915050565b6101608101511561310257610160015192915050565b608081015115613116576080015192915050565b50600092915050565b50919050565b61312e33612c0d565b61313757600080fd5b613142600082613d93565b6040516001600160a01b038216907f78af5e2bc1f182518b5a494aa807f782e7a2026ab85683d13ce592896a52922f90600090a250565b60095460609060009067ffffffffffffffff8111156131a857634e487b7160e01b600052604160045260246000fd5b6040519080825280602002602001820160405280156131d1578160200160208202803683370190505b50905060005b60095481101561311f576009818154811061320257634e487b7160e01b600052603260045260246000fd5b906000526020600020015482828151811061322d57634e487b7160e01b600052603260045260246000fd5b60209081029190910101528061324281614696565b9150506131d7565b600081815260076020908152604080832081516103208101835281546001600160a01b0316815260018201549381019390935260028101549183019190915260038101805484938493849384938493929160608401916132a990614661565b80601f01602080910402602001604051908101604052809291908181526020018280546132d590614661565b80156133225780601f106132f757610100808354040283529160200191613322565b820191906000526020600020905b81548152906001019060200180831161330557829003601f168201915b50505091835250506004820154602082015260058201546001600160a01b03166040820152600682015460608201526007820154608082015260088201805460a09092019161337090614661565b80601f016020809104026020016040519081016040528092919081815260200182805461339c90614661565b80156133e95780601f106133be576101008083540402835291602001916133e9565b820191906000526020600020905b8154815290600101906020018083116133cc57829003601f168201915b5050509183525050600982015460209091019060ff16600c81111561341e57634e487b7160e01b600052602160045260246000fd5b600c81111561343d57634e487b7160e01b600052602160045260246000fd5b815260098201546001600160a01b036101009182900481166020840152600a8401546040840152600b84015460ff90811615156060850152600c8501546080850152600d85015460a0850152600e850154821660c0850152600f85015460e085015260108501548385015260118501549091166101208401526012840154610140840152601390930154808416610160840152908104831661018083015262010000810483166101a08301526301000000810483166101c083015264010000000090049091166101e0909101526102808101516102a08201516102c08301516102e084015161030090940151929b919a509850919650945092505050565b6009818154811061354b57600080fd5b600091825260209091200154905081565b6004546001600160a01b0316336001600160a01b0316146135e55760405162461bcd60e51b815260206004820152602760248201527f4f6e6c7920746865206f776e65722063616e20706572666f726d20746869732060448201527f616374696f6e2e000000000000000000000000000000000000000000000000006064820152608401610a32565b6001600160a01b0381166136615760405162461bcd60e51b815260206004820152602660248201527f4f776e61626c653a206e6577206f776e657220697320746865207a65726f206160448201527f64647265737300000000000000000000000000000000000000000000000000006064820152608401610a32565b610dd081613f8d565b610dd081614026565b61367c33612361565b61368557600080fd5b81600560008281526007602052604090206009015460ff16600c8111156136bc57634e487b7160e01b600052602160045260246000fd5b1461372f5760405162461bcd60e51b815260206004820152603260248201527f44757269616e206973206e6f7420696e207468652050726f636573736564427960448201527f4469737472696275746f722073746174652e00000000000000000000000000006064820152608401610a32565b6000838152600760205260409020546001600160a01b03163381146137b05760405162461bcd60e51b815260206004820152603160248201527f4f6e6c79207468652076657269666965642063616c6c65722063616e207065726044820152703337b936903a3434b99030b1ba34b7b71760791b6064820152608401610a32565b60008481526007602090815260409182902060098101805460ff19166006179055600a0185905590518581527f539b4a835a8a5d1bc5756a9f146e2bfeaa6bd6b1fa77a7631c0a5154c86cdd039101611c02565b61380d33612361565b61381657600080fd5b80600360008281526007602052604090206009015460ff16600c81111561384d57634e487b7160e01b600052602160045260246000fd5b146138b15760405162461bcd60e51b815260206004820152602e60248201527f44757269616e206973206e6f7420696e2074686520536869707065644279486160448201526d393b32b9ba32b91039ba30ba329760911b6064820152608401610a32565b6000828152600760205260409020546001600160a01b03163381146139325760405162461bcd60e51b815260206004820152603160248201527f4f6e6c79207468652076657269666965642063616c6c65722063616e207065726044820152703337b936903a3434b99030b1ba34b7b71760791b6064820152608401610a32565b60008381526007602090815260409182902042600d820155600901805460ff1916600417905590518481527fc8ca2150e6e1849a10ef5aa4932060fa353bcacdffeb150c9e1890c6ab9403cc91016111ea565b600081815260076020908152604080832081516103208101835281546001600160a01b0316815260018201549381019390935260028101549183019190915260038101805484938493849384936060840191906139e190614661565b80601f0160208091040260200160405190810160405280929190818152602001828054613a0d90614661565b8015613a5a5780601f10613a2f57610100808354040283529160200191613a5a565b820191906000526020600020905b815481529060010190602001808311613a3d57829003601f168201915b50505091835250506004820154602082015260058201546001600160a01b03166040820152600682015460608201526007820154608082015260088201805460a090920191613aa890614661565b80601f0160208091040260200160405190810160405280929190818152602001828054613ad490614661565b8015613b215780601f10613af657610100808354040283529160200191613b21565b820191906000526020600020905b815481529060010190602001808311613b0457829003601f168201915b5050509183525050600982015460209091019060ff16600c811115613b5657634e487b7160e01b600052602160045260246000fd5b600c811115613b7557634e487b7160e01b600052602160045260246000fd5b815260098201546001600160a01b036101009182900481166020840152600a8401546040840152600b84015460ff90811615156060850152600c8501546080850152600d85015460a0850152600e850154821660c0850152600f85015460e08501526010850154838501526011850154909116610120840152601284015461014084015260139093015480841661016084015290810483166101808084019190915262010000820484166101a0808501919091526301000000830485166101c08501526401000000009092049093166101e090920191909152610240830151610260840151928401519390910151909991985091965090945092505050565b6001600160a01b038116613cd55760405162461bcd60e51b815260206004820152602260248201527f526f6c65733a206163636f756e7420697320746865207a65726f206164647265604482015261737360f01b6064820152608401610a32565b613cdf8282613e92565b15613d2c5760405162461bcd60e51b815260206004820152601f60248201527f526f6c65733a206163636f756e7420616c72656164792068617320726f6c65006044820152606401610a32565b6001600160a01b0316600090815260209190915260409020805460ff19166001179055565b613d5c600382613c74565b6040516001600160a01b038216907f28b26e7a3d20aedbc5f8f2ebf7da671c0491723a2b78f47a097b0e46dee0714290600090a250565b6001600160a01b038116613df45760405162461bcd60e51b815260206004820152602260248201527f526f6c65733a206163636f756e7420697320746865207a65726f206164647265604482015261737360f01b6064820152608401610a32565b613dfe8282613e92565b613e705760405162461bcd60e51b815260206004820152602160248201527f526f6c65733a206163636f756e7420646f6573206e6f74206861766520726f6c60448201527f65000000000000000000000000000000000000000000000000000000000000006064820152608401610a32565b6001600160a01b0316600090815260209190915260409020805460ff19169055565b60006001600160a01b038216613ea757600080fd5b506001600160a01b03166000908152602091909152604090205460ff1690565b613ed2600182613c74565b6040516001600160a01b038216907fddbf200aa634dc3fb81cfd68583dd1040d1c751d335e1d86b631bde3e977fea890600090a250565b613f14600282613c74565b6040516001600160a01b038216907f71ae26cad02663e3d92efd6ec56031a80d74a20c0ab4183faa8bf262261c9baa90600090a250565b613f56600082613c74565b6040516001600160a01b038216907f2a6b352b84affc85ec0ab54b71a09c17830148eb8a1c5aeabf5cd5e73ee7c24890600090a250565b600480546001600160a01b038381166001600160a01b031983161790925516613fb58261207f565b613fbe8261236e565b613fc782612346565b613fd0816118c6565b613fd981613125565b613fe28161202b565b816001600160a01b0316816001600160a01b03167f8be0079c531659141344cd1fd0a4f28419497f9722a3daafe3b4186f6b6457e060405160405180910390a35050565b614031600382613d93565b6040516001600160a01b038216907fe3f5ed5f263f1f01764a96edfc7d025f511ec5f7d180e8816908b78bcf74f09890600090a250565b82805461407490614661565b90600052602060002090601f01602090048101928261409657600085556140dc565b82601f106140af57805160ff19168380011785556140dc565b828001600101855582156140dc579182015b828111156140dc5782518255916020019190600101906140c1565b506140e89291506141e1565b5090565b60405180610320016040528060006001600160a01b031681526020016000815260200160008152602001606081526020016000815260200160006001600160a01b031681526020016000815260200160008152602001606081526020016000600c81111561416a57634e487b7160e01b600052602160045260246000fd5b815260006020820181905260408201819052606082018190526080820181905260a0820181905260c0820181905260e08201819052610100820181905261012082018190526101408201819052610160820181905261018082018190526101a082018190526101c082018190526101e09091015290565b5b808211156140e857600081556001016141e2565b600082601f830112614206578081fd5b813567ffffffffffffffff80821115614221576142216146c7565b604051601f8301601f19908116603f01168101908282118183101715614249576142496146c7565b81604052838152866020858801011115614261578485fd5b8360208701602083013792830160200193909352509392505050565b803560ff8116811461428e57600080fd5b919050565b6000602082840312156142a4578081fd5b81356001600160a01b03811681146142ba578182fd5b9392505050565b6000602082840312156142d2578081fd5b813567ffffffffffffffff8111156142e8578182fd5b6142f4848285016141f6565b949350505050565b60006020828403121561430d578081fd5b5035919050565b600080600060608486031215614328578182fd5b833592506020840135801515811461433e578283fd5b929592945050506040919091013590565b60008060408385031215614361578182fd5b50508035926020909101359150565b600080600080600060a08688031215614387578081fd5b8535945060208601359350604086013567ffffffffffffffff8111156143ab578182fd5b6143b7888289016141f6565b9598949750949560608101359550608001359392505050565b60008060008060008060c087890312156143e8578081fd5b863595506143f86020880161427d565b94506144066040880161427d565b93506144146060880161427d565b92506144226080880161427d565b915061443060a0880161427d565b90509295509295509295565b6000815180845260208085019450808401835b8381101561446b5781518752958201959082019060010161444f565b509495945050505050565b60008151808452815b8181101561449b5760208185018101518683018201520161447f565b818111156144ac5782602083870101525b50601f01601f19169290920160200192915050565b600080835482600182811c9150808316806144dd57607f831692505b60208084108214156144fd57634e487b7160e01b87526022600452602487fd5b81801561451157600181146145225761454e565b60ff1986168952848901965061454e565b60008a815260209020885b868110156145465781548b82015290850190830161452d565b505084890196505b509498975050505050505050565b6020815260006142ba602083018461443c565b6040815260006145826040830185614476565b8281036020840152614594818561443c565b95945050505050565b8781526001600160a01b038716602082015285604082015260e0606082015260006145cb60e0830187614476565b600d86106145e757634e487b7160e01b82526021600452602482fd5b8560808401528460a084015282810360c08401526146058185614476565b9a9950505050505050505050565b60008219821115614626576146266146b1565b500190565b6000816000190483118215151615614645576146456146b1565b500290565b60008282101561465c5761465c6146b1565b500390565b600181811c9082168061467557607f821691505b6020821081141561311f57634e487b7160e01b600052602260045260246000fd5b60006000198214156146aa576146aa6146b1565b5060010190565b634e487b7160e01b600052601160045260246000fd5b634e487b7160e01b600052604160045260246000fdfea2646970667358221220d662314b45d60c6dc3bef7d17cbd0882e25d129a8edcdc51f60b6db21a7c03d164736f6c63430008040033",
  "linkReferences": {},
  "deployedLinkReferences": {}
}