{
  "_format": "hh-sol-artifact-1",
  "contractName": "duriansupplyChain",
  "sourceName": "contracts/durianSupplyChain/duriansupplyChain.sol",
  "abi": [
    {
      "inputs": [],
      "stateMutability": "payable",
      "type": "constructor"
    },
    {
      "anonymous": false,
      "inputs": [
        {
          "indexed": true,
          "internalType": "address",
          "name": "account",
          "type": "address"
        }
      ],
      "name": "ConsumerAdded",
      "type": "event"
    },
    {
      "anonymous": false,
      "inputs": [
        {
          "indexed": true,
          "internalType": "address",
          "name": "harvester",
          "type": "address"
        },
        {
          "indexed": true,
          "internalType": "address",
          "name": "account",
          "type": "address"
        }
      ],
      "name": "ConsumerAddedByRetailer",
      "type": "event"
    },
    {
      "anonymous": false,
      "inputs": [
        {
          "indexed": true,
          "internalType": "address",
          "name": "account",
          "type": "address"
        }
      ],
      "name": "ConsumerRemoved",
      "type": "event"
    },
    {
      "anonymous": false,
      "inputs": [
        {
          "indexed": true,
          "internalType": "address",
          "name": "account",
          "type": "address"
        }
      ],
      "name": "DistributorAdded",
      "type": "event"
    },
    {
      "anonymous": false,
      "inputs": [
        {
          "indexed": true,
          "internalType": "address",
          "name": "harvester",
          "type": "address"
        },
        {
          "indexed": true,
          "internalType": "address",
          "name": "account",
          "type": "address"
        }
      ],
      "name": "DistributorAddedByHarvester",
      "type": "event"
    },
    {
      "anonymous": false,
      "inputs": [
        {
          "indexed": true,
          "internalType": "address",
          "name": "account",
          "type": "address"
        }
      ],
      "name": "DistributorRemoved",
      "type": "event"
    },
    {
      "anonymous": false,
      "inputs": [
        {
          "indexed": false,
          "internalType": "uint256",
          "name": "durianCode",
          "type": "uint256"
        }
      ],
      "name": "ForSaleByDistributor",
      "type": "event"
    },
    {
      "anonymous": false,
      "inputs": [
        {
          "indexed": false,
          "internalType": "uint256",
          "name": "durianCode",
          "type": "uint256"
        }
      ],
      "name": "ForSaleByHarvester",
      "type": "event"
    },
    {
      "anonymous": false,
      "inputs": [
        {
          "indexed": false,
          "internalType": "uint256",
          "name": "durianCode",
          "type": "uint256"
        }
      ],
      "name": "ForSaleByRetailer",
      "type": "event"
    },
    {
      "anonymous": false,
      "inputs": [
        {
          "indexed": true,
          "internalType": "address",
          "name": "account",
          "type": "address"
        }
      ],
      "name": "HarvesterAdded",
      "type": "event"
    },
    {
      "anonymous": false,
      "inputs": [
        {
          "indexed": true,
          "internalType": "address",
          "name": "account",
          "type": "address"
        }
      ],
      "name": "HarvesterRemoved",
      "type": "event"
    },
    {
      "anonymous": false,
      "inputs": [
        {
          "indexed": true,
          "internalType": "address",
          "name": "previousOwner",
          "type": "address"
        },
        {
          "indexed": true,
          "internalType": "address",
          "name": "newOwner",
          "type": "address"
        }
      ],
      "name": "OwnershipTransferred",
      "type": "event"
    },
    {
      "anonymous": false,
      "inputs": [
        {
          "indexed": false,
          "internalType": "uint256",
          "name": "durianCode",
          "type": "uint256"
        }
      ],
      "name": "ProcessedByDistributor",
      "type": "event"
    },
    {
      "anonymous": false,
      "inputs": [
        {
          "indexed": false,
          "internalType": "uint256",
          "name": "durianCode",
          "type": "uint256"
        }
      ],
      "name": "ProduceByHarvester",
      "type": "event"
    },
    {
      "anonymous": false,
      "inputs": [
        {
          "indexed": false,
          "internalType": "uint256",
          "name": "durianCode",
          "type": "uint256"
        }
      ],
      "name": "PurchasedByConsumer",
      "type": "event"
    },
    {
      "anonymous": false,
      "inputs": [
        {
          "indexed": false,
          "internalType": "uint256",
          "name": "durianCode",
          "type": "uint256"
        }
      ],
      "name": "PurchasedByDistributor",
      "type": "event"
    },
    {
      "anonymous": false,
      "inputs": [
        {
          "indexed": false,
          "internalType": "uint256",
          "name": "durianCode",
          "type": "uint256"
        }
      ],
      "name": "PurchasedByRetailer",
      "type": "event"
    },
    {
      "anonymous": false,
      "inputs": [
        {
          "indexed": false,
          "internalType": "uint256",
          "name": "durianCode",
          "type": "uint256"
        }
      ],
      "name": "RatingByConsumer",
      "type": "event"
    },
    {
      "anonymous": false,
      "inputs": [
        {
          "indexed": false,
          "internalType": "uint256",
          "name": "durianCode",
          "type": "uint256"
        }
      ],
      "name": "ReceivedByDistributor",
      "type": "event"
    },
    {
      "anonymous": false,
      "inputs": [
        {
          "indexed": false,
          "internalType": "uint256",
          "name": "durianCode",
          "type": "uint256"
        }
      ],
      "name": "ReceivedByRetailer",
      "type": "event"
    },
    {
      "anonymous": false,
      "inputs": [
        {
          "indexed": true,
          "internalType": "address",
          "name": "account",
          "type": "address"
        }
      ],
      "name": "RetailerAdded",
      "type": "event"
    },
    {
      "anonymous": false,
      "inputs": [
        {
          "indexed": true,
          "internalType": "address",
          "name": "harvester",
          "type": "address"
        },
        {
          "indexed": true,
          "internalType": "address",
          "name": "account",
          "type": "address"
        }
      ],
      "name": "RetailerAddedByDistributor",
      "type": "event"
    },
    {
      "anonymous": false,
      "inputs": [
        {
          "indexed": true,
          "internalType": "address",
          "name": "account",
          "type": "address"
        }
      ],
      "name": "RetailerRemoved",
      "type": "event"
    },
    {
      "anonymous": false,
      "inputs": [
        {
          "indexed": false,
          "internalType": "uint256",
          "name": "durianCode",
          "type": "uint256"
        }
      ],
      "name": "ShippedByDistributor",
      "type": "event"
    },
    {
      "anonymous": false,
      "inputs": [
        {
          "indexed": false,
          "internalType": "uint256",
          "name": "durianCode",
          "type": "uint256"
        }
      ],
      "name": "ShippedByHarvester",
      "type": "event"
    },
    {
      "inputs": [
        {
          "internalType": "address",
          "name": "account",
          "type": "address"
        }
      ],
      "name": "addConsumer",
      "outputs": [],
      "stateMutability": "nonpayable",
      "type": "function"
    },
    {
      "inputs": [
        {
          "internalType": "address",
          "name": "account",
          "type": "address"
        }
      ],
      "name": "addDistributor",
      "outputs": [],
      "stateMutability": "nonpayable",
      "type": "function"
    },
    {
      "inputs": [
        {
          "internalType": "address",
          "name": "account",
          "type": "address"
        }
      ],
      "name": "addHarvester",
      "outputs": [],
      "stateMutability": "nonpayable",
      "type": "function"
    },
    {
      "inputs": [
        {
          "internalType": "address",
          "name": "account",
          "type": "address"
        }
      ],
      "name": "addRetailer",
      "outputs": [],
      "stateMutability": "nonpayable",
      "type": "function"
    },
    {
      "inputs": [
        {
          "internalType": "uint256",
          "name": "_durianCode",
          "type": "uint256"
        }
      ],
      "name": "displayCurrentPrice",
      "outputs": [
        {
          "internalType": "uint256",
          "name": "durianPrice",
          "type": "uint256"
        }
      ],
      "stateMutability": "view",
      "type": "function"
    },
    {
      "inputs": [
        {
          "internalType": "uint256",
          "name": "_durianCode",
          "type": "uint256"
        }
      ],
      "name": "fetchDurianBufferOne",
      "outputs": [
        {
          "internalType": "uint256",
          "name": "durianToCode",
          "type": "uint256"
        },
        {
          "internalType": "address",
          "name": "ownerID",
          "type": "address"
        },
        {
          "internalType": "string",
          "name": "HarvestLocationAddress",
          "type": "string"
        },
        {
          "internalType": "uint256",
          "name": "harvestedTime",
          "type": "uint256"
        },
        {
          "internalType": "enum duriansupplyChain.State",
          "name": "durianState",
          "type": "uint8"
        },
        {
          "internalType": "uint256",
          "name": "durianCurrentPriceState",
          "type": "uint256"
        },
        {
          "internalType": "string",
          "name": "durianType",
          "type": "string"
        }
      ],
      "stateMutability": "view",
      "type": "function"
    },
    {
      "inputs": [
        {
          "internalType": "uint256",
          "name": "_durianCode",
          "type": "uint256"
        }
      ],
      "name": "fetchDurianBufferTwo",
      "outputs": [
        {
          "internalType": "uint256",
          "name": "durianToCode",
          "type": "uint256"
        },
        {
          "internalType": "address",
          "name": "ownerID",
          "type": "address"
        },
        {
          "internalType": "uint8",
          "name": "taste",
          "type": "uint8"
        },
        {
          "internalType": "uint8",
          "name": "condition",
          "type": "uint8"
        },
        {
          "internalType": "uint8",
          "name": "fragrance",
          "type": "uint8"
        },
        {
          "internalType": "uint8",
          "name": "creaminess",
          "type": "uint8"
        },
        {
          "internalType": "uint8",
          "name": "ripeness",
          "type": "uint8"
        }
      ],
      "stateMutability": "view",
      "type": "function"
    },
    {
      "inputs": [
        {
          "internalType": "uint256",
          "name": "_durianCode",
          "type": "uint256"
        }
      ],
      "name": "fetchDurianHistory",
      "outputs": [
        {
          "internalType": "uint256",
          "name": "blockHarvesterToDistributor",
          "type": "uint256"
        },
        {
          "internalType": "uint256",
          "name": "blockDistributorToRetailer",
          "type": "uint256"
        },
        {
          "internalType": "uint256",
          "name": "blockRetailerToConsumer",
          "type": "uint256"
        }
      ],
      "stateMutability": "view",
      "type": "function"
    },
    {
      "inputs": [
        {
          "internalType": "address",
          "name": "account",
          "type": "address"
        }
      ],
      "name": "isConsumer",
      "outputs": [
        {
          "internalType": "bool",
          "name": "",
          "type": "bool"
        }
      ],
      "stateMutability": "view",
      "type": "function"
    },
    {
      "inputs": [
        {
          "internalType": "address",
          "name": "account",
          "type": "address"
        }
      ],
      "name": "isDistributor",
      "outputs": [
        {
          "internalType": "bool",
          "name": "",
          "type": "bool"
        }
      ],
      "stateMutability": "view",
      "type": "function"
    },
    {
      "inputs": [
        {
          "internalType": "address",
          "name": "account",
          "type": "address"
        }
      ],
      "name": "isHarvester",
      "outputs": [
        {
          "internalType": "bool",
          "name": "",
          "type": "bool"
        }
      ],
      "stateMutability": "view",
      "type": "function"
    },
    {
      "inputs": [
        {
          "internalType": "address",
          "name": "account",
          "type": "address"
        }
      ],
      "name": "isRetailer",
      "outputs": [
        {
          "internalType": "bool",
          "name": "",
          "type": "bool"
        }
      ],
      "stateMutability": "view",
      "type": "function"
    },
    {
      "inputs": [],
      "name": "kill",
      "outputs": [],
      "stateMutability": "nonpayable",
      "type": "function"
    },
    {
      "inputs": [],
      "name": "owner",
      "outputs": [
        {
          "internalType": "address",
          "name": "",
          "type": "address"
        }
      ],
      "stateMutability": "view",
      "type": "function"
    },
    {
      "inputs": [
        {
          "internalType": "uint256",
          "name": "_durianCode",
          "type": "uint256"
        },
        {
          "internalType": "bool",
          "name": "_packaging",
          "type": "bool"
        },
        {
          "internalType": "uint256",
          "name": "_piecesFlesh",
          "type": "uint256"
        }
      ],
      "name": "processedDurianByDistributor",
      "outputs": [],
      "stateMutability": "nonpayable",
      "type": "function"
    },
    {
      "inputs": [
        {
          "internalType": "uint256",
          "name": "_durianCode",
          "type": "uint256"
        },
        {
          "internalType": "uint256",
          "name": "_durianWeight",
          "type": "uint256"
        },
        {
          "internalType": "string",
          "name": "_durianType",
          "type": "string"
        },
        {
          "internalType": "string",
          "name": "_harvestLocationAddress",
          "type": "string"
        }
      ],
      "name": "produceDurianByHarvester",
      "outputs": [],
      "stateMutability": "nonpayable",
      "type": "function"
    },
    {
      "inputs": [
        {
          "internalType": "uint256",
          "name": "_durianCode",
          "type": "uint256"
        }
      ],
      "name": "purchaseDurianByConsumer",
      "outputs": [],
      "stateMutability": "payable",
      "type": "function"
    },
    {
      "inputs": [
        {
          "internalType": "uint256",
          "name": "_durianCode",
          "type": "uint256"
        }
      ],
      "name": "purchaseDurianByDistributor",
      "outputs": [],
      "stateMutability": "payable",
      "type": "function"
    },
    {
      "inputs": [
        {
          "internalType": "uint256",
          "name": "_durianCode",
          "type": "uint256"
        }
      ],
      "name": "purchaseDurianByRetailer",
      "outputs": [],
      "stateMutability": "payable",
      "type": "function"
    },
    {
      "inputs": [
        {
          "internalType": "uint256",
          "name": "_durianCode",
          "type": "uint256"
        },
        {
          "internalType": "uint8",
          "name": "_taste",
          "type": "uint8"
        },
        {
          "internalType": "uint8",
          "name": "_condition",
          "type": "uint8"
        },
        {
          "internalType": "uint8",
          "name": "_fragrance",
          "type": "uint8"
        },
        {
          "internalType": "uint8",
          "name": "_creaminess",
          "type": "uint8"
        },
        {
          "internalType": "uint8",
          "name": "_ripeness",
          "type": "uint8"
        }
      ],
      "name": "rateDurianFromConsumer",
      "outputs": [],
      "stateMutability": "payable",
      "type": "function"
    },
    {
      "inputs": [
        {
          "internalType": "uint256",
          "name": "_durianCode",
          "type": "uint256"
        }
      ],
      "name": "receivedDurianByDistributor",
      "outputs": [],
      "stateMutability": "nonpayable",
      "type": "function"
    },
    {
      "inputs": [
        {
          "internalType": "uint256",
          "name": "_durianCode",
          "type": "uint256"
        }
      ],
      "name": "receivedDurianByRetailer",
      "outputs": [],
      "stateMutability": "nonpayable",
      "type": "function"
    },
    {
      "inputs": [
        {
          "internalType": "address",
          "name": "account",
          "type": "address"
        }
      ],
      "name": "renounceConsumer",
      "outputs": [],
      "stateMutability": "nonpayable",
      "type": "function"
    },
    {
      "inputs": [],
      "name": "renounceDistributor",
      "outputs": [],
      "stateMutability": "nonpayable",
      "type": "function"
    },
    {
      "inputs": [],
      "name": "renounceHarvester",
      "outputs": [],
      "stateMutability": "nonpayable",
      "type": "function"
    },
    {
      "inputs": [],
      "name": "renounceRetailer",
      "outputs": [],
      "stateMutability": "nonpayable",
      "type": "function"
    },
    {
      "inputs": [
        {
          "internalType": "uint256",
          "name": "_durianCode",
          "type": "uint256"
        },
        {
          "internalType": "uint256",
          "name": "_price",
          "type": "uint256"
        }
      ],
      "name": "sellDurianByDistributor",
      "outputs": [],
      "stateMutability": "nonpayable",
      "type": "function"
    },
    {
      "inputs": [
        {
          "internalType": "uint256",
          "name": "_durianCode",
          "type": "uint256"
        }
      ],
      "name": "sellDurianByHarvester",
      "outputs": [],
      "stateMutability": "nonpayable",
      "type": "function"
    },
    {
      "inputs": [
        {
          "internalType": "uint256",
          "name": "_durianCode",
          "type": "uint256"
        },
        {
          "internalType": "uint256",
          "name": "_price",
          "type": "uint256"
        }
      ],
      "name": "sellDurianByRetailer",
      "outputs": [],
      "stateMutability": "nonpayable",
      "type": "function"
    },
    {
      "inputs": [
        {
          "internalType": "uint256",
          "name": "_durianCode",
          "type": "uint256"
        }
      ],
      "name": "shippedDurianByDistributor",
      "outputs": [],
      "stateMutability": "nonpayable",
      "type": "function"
    },
    {
      "inputs": [
        {
          "internalType": "uint256",
          "name": "_durianCode",
          "type": "uint256"
        }
      ],
      "name": "shippedDurianByHarvester",
      "outputs": [],
      "stateMutability": "nonpayable",
      "type": "function"
    },
    {
      "inputs": [
        {
          "internalType": "address",
          "name": "newOwner",
          "type": "address"
        }
      ],
      "name": "transferOwnership",
      "outputs": [],
      "stateMutability": "nonpayable",
      "type": "function"
    }
  ],
  "bytecode": "0x60806040526200002462000018620000da60201b60201c565b620000e260201b60201c565b6200004462000038620000da60201b60201c565b6200014360201b60201c565b6200006462000058620000da60201b60201c565b620001a460201b60201c565b6200008462000078620000da60201b60201c565b6200020560201b60201c565b62000094620000da60201b60201c565b600460006101000a81548173ffffffffffffffffffffffffffffffffffffffff021916908373ffffffffffffffffffffffffffffffffffffffff160217905550620003af565b600033905090565b620000fd8160006200026660201b620042361790919060201c565b8073ffffffffffffffffffffffffffffffffffffffff167f2a6b352b84affc85ec0ab54b71a09c17830148eb8a1c5aeabf5cd5e73ee7c24860405160405180910390a250565b6200015e8160016200026660201b620042361790919060201c565b8073ffffffffffffffffffffffffffffffffffffffff167fddbf200aa634dc3fb81cfd68583dd1040d1c751d335e1d86b631bde3e977fea860405160405180910390a250565b620001bf8160026200026660201b620042361790919060201c565b8073ffffffffffffffffffffffffffffffffffffffff167f71ae26cad02663e3d92efd6ec56031a80d74a20c0ab4183faa8bf262261c9baa60405160405180910390a250565b620002208160036200026660201b620042361790919060201c565b8073ffffffffffffffffffffffffffffffffffffffff167f28b26e7a3d20aedbc5f8f2ebf7da671c0491723a2b78f47a097b0e46dee0714260405160405180910390a250565b600073ffffffffffffffffffffffffffffffffffffffff168173ffffffffffffffffffffffffffffffffffffffff161415620002a157600080fd5b620002b382826200031c60201b60201c565b15620002be57600080fd5b60018260000160008373ffffffffffffffffffffffffffffffffffffffff1673ffffffffffffffffffffffffffffffffffffffff16815260200190815260200160002060006101000a81548160ff0219169083151502179055505050565b60008073ffffffffffffffffffffffffffffffffffffffff168273ffffffffffffffffffffffffffffffffffffffff1614156200035857600080fd5b8260000160008373ffffffffffffffffffffffffffffffffffffffff1673ffffffffffffffffffffffffffffffffffffffff16815260200190815260200160002060009054906101000a900460ff16905092915050565b615bc280620003bf6000396000f3fe6080604052600436106101e35760003560e01c80638ec4f50511610102578063afe4bc3a11610095578063f2fde38b11610064578063f2fde38b14610698578063f487d48d146106c1578063f8fa7bb3146106ea578063fa013f9f14610713576101e3565b8063afe4bc3a14610604578063b79ff79714610641578063bebf21d114610658578063db0e6a2f14610681576101e3565b80639c61fc6b116100d15780639c61fc6b14610536578063a0d6e2bf1461055f578063a71bbfd51461059e578063aca49801146105db576101e3565b80638ec4f5051461048b5780638f0c86fa146104b45780638fab5917146104f157806390f0c7531461051a576101e3565b80635da09b881161017a5780637250e224116101495780637250e224146103de578063828c118014610407578063834ff739146104235780638da5cb5b14610460576101e3565b80635da09b88146103455780635df04d3814610382578063629b7375146103ab578063644241db146103c7576101e3565b80632b843c5f116101b65780632b843c5f146102995780632cd1446a146102c25780633fff55851461030557806341c0e1b51461032e576101e3565b80630b671700146101e8578063112940f91461022b57806311d19185146102545780631bc33c5f14610270575b600080fd5b3480156101f457600080fd5b5061020f600480360381019061020a9190614adc565b61073c565b60405161022297969594939291906151f4565b60405180910390f35b34801561023757600080fd5b50610252600480360381019061024d9190614ab3565b610c1c565b005b61026e60048036038101906102699190614adc565b610c28565b005b34801561027c57600080fd5b5061029760048036038101906102929190614adc565b61102d565b005b3480156102a557600080fd5b506102c060048036038101906102bb9190614adc565b611285565b005b3480156102ce57600080fd5b506102e960048036038101906102e49190614adc565b6114c2565b6040516102fc9796959493929190615271565b60405180910390f35b34801561031157600080fd5b5061032c60048036038101906103279190614b05565b61199a565b005b34801561033a57600080fd5b50610343611c50565b005b34801561035157600080fd5b5061036c60048036038101906103679190614ab3565b611cf7565b6040516103799190614f9e565b60405180910390f35b34801561038e57600080fd5b506103a960048036038101906103a49190614b54565b611d14565b005b6103c560048036038101906103c09190614adc565b611f6d565b005b3480156103d357600080fd5b506103dc612388565b005b3480156103ea57600080fd5b5061040560048036038101906104009190614ab3565b61239a565b005b610421600480360381019061041c9190614c23565b6123bf565b005b34801561042f57600080fd5b5061044a60048036038101906104459190614ab3565b6126ec565b6040516104579190614f9e565b60405180910390f35b34801561046c57600080fd5b50610475612709565b6040516104829190614f83565b60405180910390f35b34801561049757600080fd5b506104b260048036038101906104ad9190614ab3565b61272f565b005b3480156104c057600080fd5b506104db60048036038101906104d69190614ab3565b612754565b6040516104e89190614f9e565b60405180910390f35b3480156104fd57600080fd5b5061051860048036038101906105139190614ab3565b612771565b005b610534600480360381019061052f9190614adc565b612796565b005b34801561054257600080fd5b5061055d60048036038101906105589190614adc565b612c0d565b005b34801561056b57600080fd5b5061058660048036038101906105819190614adc565b612e4a565b604051610595939291906152e0565b60405180910390f35b3480156105aa57600080fd5b506105c560048036038101906105c09190614ab3565b612eab565b6040516105d29190614f9e565b60405180910390f35b3480156105e757600080fd5b5061060260048036038101906105fd9190614adc565b612ec8565b005b34801561061057600080fd5b5061062b60048036038101906106269190614adc565b61315f565b60405161063891906151d9565b60405180910390f35b34801561064d57600080fd5b50610656613646565b005b34801561066457600080fd5b5061067f600480360381019061067a9190614b90565b613658565b005b34801561068d57600080fd5b50610696613c54565b005b3480156106a457600080fd5b506106bf60048036038101906106ba9190614ab3565b613c66565b005b3480156106cd57600080fd5b506106e860048036038101906106e39190614ab3565b613d79565b005b3480156106f657600080fd5b50610711600480360381019061070c9190614b54565b613d85565b005b34801561071f57600080fd5b5061073a60048036038101906107359190614adc565b613fde565b005b6000806060600080600060606000600560008a8152602001908152602001600020604051806103000160405290816000820160009054906101000a900473ffffffffffffffffffffffffffffffffffffffff1673ffffffffffffffffffffffffffffffffffffffff1673ffffffffffffffffffffffffffffffffffffffff16815260200160018201548152602001600282015481526020016003820180546107e3906154d3565b80601f016020809104026020016040519081016040528092919081815260200182805461080f906154d3565b801561085c5780601f106108315761010080835404028352916020019161085c565b820191906000526020600020905b81548152906001019060200180831161083f57829003601f168201915b50505050508152602001600482015481526020016005820160009054906101000a900473ffffffffffffffffffffffffffffffffffffffff1673ffffffffffffffffffffffffffffffffffffffff1673ffffffffffffffffffffffffffffffffffffffff168152602001600682015481526020016007820180546108df906154d3565b80601f016020809104026020016040519081016040528092919081815260200182805461090b906154d3565b80156109585780601f1061092d57610100808354040283529160200191610958565b820191906000526020600020905b81548152906001019060200180831161093b57829003601f168201915b505050505081526020016008820160009054906101000a900460ff16600c8111156109ac577f4e487b7100000000000000000000000000000000000000000000000000000000600052602160045260246000fd5b600c8111156109e4577f4e487b7100000000000000000000000000000000000000000000000000000000600052602160045260246000fd5b81526020016008820160019054906101000a900473ffffffffffffffffffffffffffffffffffffffff1673ffffffffffffffffffffffffffffffffffffffff1673ffffffffffffffffffffffffffffffffffffffff16815260200160098201548152602001600a820160009054906101000a900460ff16151515158152602001600b8201548152602001600c8201548152602001600d820160009054906101000a900473ffffffffffffffffffffffffffffffffffffffff1673ffffffffffffffffffffffffffffffffffffffff1673ffffffffffffffffffffffffffffffffffffffff168152602001600e8201548152602001600f82015481526020016010820160009054906101000a900473ffffffffffffffffffffffffffffffffffffffff1673ffffffffffffffffffffffffffffffffffffffff1673ffffffffffffffffffffffffffffffffffffffff168152602001601182015481526020016012820160009054906101000a900460ff1660ff1660ff1681526020016012820160019054906101000a900460ff1660ff1660ff1681526020016012820160029054906101000a900460ff1660ff1660ff1681526020016012820160039054906101000a900460ff1660ff1660ff1681526020016012820160049054906101000a900460ff1660ff1660ff168152505090506000610bdf8a61315f565b9050816020015182600001518360e001518460c0015185610100015185876060015198509850985098509850985098505050919395979092949650565b610c25816142e2565b50565b610c38610c3361433c565b611cf7565b610c4157600080fd5b806006600c811115610c7c577f4e487b7100000000000000000000000000000000000000000000000000000000600052602160045260246000fd5b6005600083815260200190815260200160002060080160009054906101000a900460ff16600c811115610cd8577f4e487b7100000000000000000000000000000000000000000000000000000000600052602160045260246000fd5b14610d18576040517f08c379a0000000000000000000000000000000000000000000000000000000008152600401610d0f90615179565b60405180910390fd5b600560008381526020019081526020016000206009015480341015610d72576040517f08c379a0000000000000000000000000000000000000000000000000000000008152600401610d69906151b9565b60405180910390fd5b82610d7b61433c565b81341015610dbe576040517f08c379a0000000000000000000000000000000000000000000000000000000008152600401610db5906151b9565b60405180910390fd5b60008234610dcc91906153e3565b90508173ffffffffffffffffffffffffffffffffffffffff166108fc829081150290604051600060405180830381858888f19350505050158015610e14573d6000803e3d6000fd5b506000610e566005600089815260200190815260200160002060080160019054906101000a900473ffffffffffffffffffffffffffffffffffffffff16614344565b90508073ffffffffffffffffffffffffffffffffffffffff166108fc600560008a8152602001908152602001600020600901549081150290604051600060405180830381858888f19350505050158015610eb4573d6000803e3d6000fd5b50610ebd61433c565b6005600089815260200190815260200160002060000160006101000a81548173ffffffffffffffffffffffffffffffffffffffff021916908373ffffffffffffffffffffffffffffffffffffffff160217905550610f1961433c565b60056000898152602001908152602001600020600d0160006101000a81548173ffffffffffffffffffffffffffffffffffffffff021916908373ffffffffffffffffffffffffffffffffffffffff16021790555060076005600089815260200190815260200160002060080160006101000a81548160ff0219169083600c811115610fcd577f4e487b7100000000000000000000000000000000000000000000000000000000600052602160045260246000fd5b02179055504360066000898152602001908152602001600020600101819055507faa7352d10146444c3afd9bd7fb0ae56b0a85e81139536bbec3f1f660fddd7be18760405161101c91906151d9565b60405180910390a150505050505050565b61103d61103861433c565b611cf7565b61104657600080fd5b806008600c811115611081577f4e487b7100000000000000000000000000000000000000000000000000000000600052602160045260246000fd5b6005600083815260200190815260200160002060080160009054906101000a900460ff16600c8111156110dd577f4e487b7100000000000000000000000000000000000000000000000000000000600052602160045260246000fd5b1461111d576040517f08c379a000000000000000000000000000000000000000000000000000000000815260040161111490615019565b60405180910390fd5b6005600083815260200190815260200160002060000160009054906101000a900473ffffffffffffffffffffffffffffffffffffffff168073ffffffffffffffffffffffffffffffffffffffff1661117361433c565b73ffffffffffffffffffffffffffffffffffffffff16146111c9576040517f08c379a00000000000000000000000000000000000000000000000000000000081526004016111c0906150f9565b60405180910390fd5b4260056000858152602001908152602001600020600f018190555060096005600085815260200190815260200160002060080160006101000a81548160ff0219169083600c811115611244577f4e487b7100000000000000000000000000000000000000000000000000000000600052602160045260246000fd5b02179055507f322f34e90f2269750b3e28178631d975cc678db36f21098fe548b7f755ce0bd08360405161127891906151d9565b60405180910390a1505050565b61129561129061433c565b612754565b61129e57600080fd5b806007600c8111156112d9577f4e487b7100000000000000000000000000000000000000000000000000000000600052602160045260246000fd5b6005600083815260200190815260200160002060080160009054906101000a900460ff16600c811115611335577f4e487b7100000000000000000000000000000000000000000000000000000000600052602160045260246000fd5b14611375576040517f08c379a000000000000000000000000000000000000000000000000000000000815260040161136c906150b9565b60405180910390fd5b6005600083815260200190815260200160002060080160019054906101000a900473ffffffffffffffffffffffffffffffffffffffff168073ffffffffffffffffffffffffffffffffffffffff166113cb61433c565b73ffffffffffffffffffffffffffffffffffffffff1614611421576040517f08c379a0000000000000000000000000000000000000000000000000000000008152600401611418906150f9565b60405180910390fd5b60086005600085815260200190815260200160002060080160006101000a81548160ff0219169083600c811115611481577f4e487b7100000000000000000000000000000000000000000000000000000000600052602160045260246000fd5b02179055507fc5c33776d405e5686e4386e1ef31a65cf6195e4f7ceb8808ab64d05b6ccbc2a6836040516114b591906151d9565b60405180910390a1505050565b600080600080600080600080600560008a8152602001908152602001600020604051806103000160405290816000820160009054906101000a900473ffffffffffffffffffffffffffffffffffffffff1673ffffffffffffffffffffffffffffffffffffffff1673ffffffffffffffffffffffffffffffffffffffff1681526020016001820154815260200160028201548152602001600382018054611567906154d3565b80601f0160208091040260200160405190810160405280929190818152602001828054611593906154d3565b80156115e05780601f106115b5576101008083540402835291602001916115e0565b820191906000526020600020905b8154815290600101906020018083116115c357829003601f168201915b50505050508152602001600482015481526020016005820160009054906101000a900473ffffffffffffffffffffffffffffffffffffffff1673ffffffffffffffffffffffffffffffffffffffff1673ffffffffffffffffffffffffffffffffffffffff16815260200160068201548152602001600782018054611663906154d3565b80601f016020809104026020016040519081016040528092919081815260200182805461168f906154d3565b80156116dc5780601f106116b1576101008083540402835291602001916116dc565b820191906000526020600020905b8154815290600101906020018083116116bf57829003601f168201915b505050505081526020016008820160009054906101000a900460ff16600c811115611730577f4e487b7100000000000000000000000000000000000000000000000000000000600052602160045260246000fd5b600c811115611768577f4e487b7100000000000000000000000000000000000000000000000000000000600052602160045260246000fd5b81526020016008820160019054906101000a900473ffffffffffffffffffffffffffffffffffffffff1673ffffffffffffffffffffffffffffffffffffffff1673ffffffffffffffffffffffffffffffffffffffff16815260200160098201548152602001600a820160009054906101000a900460ff16151515158152602001600b8201548152602001600c8201548152602001600d820160009054906101000a900473ffffffffffffffffffffffffffffffffffffffff1673ffffffffffffffffffffffffffffffffffffffff1673ffffffffffffffffffffffffffffffffffffffff168152602001600e8201548152602001600f82015481526020016010820160009054906101000a900473ffffffffffffffffffffffffffffffffffffffff1673ffffffffffffffffffffffffffffffffffffffff1673ffffffffffffffffffffffffffffffffffffffff168152602001601182015481526020016012820160009054906101000a900460ff1660ff1660ff1681526020016012820160019054906101000a900460ff1660ff1660ff1681526020016012820160029054906101000a900460ff1660ff1660ff1681526020016012820160039054906101000a900460ff1660ff1660ff1681526020016012820160049054906101000a900460ff1660ff1660ff1681525050905080602001518160000151826102600151836102800151846102a00151856102c00151866102e00151975097509750975097509750975050919395979092949650565b6119aa6119a561433c565b612754565b6119b357600080fd5b826004600c8111156119ee577f4e487b7100000000000000000000000000000000000000000000000000000000600052602160045260246000fd5b6005600083815260200190815260200160002060080160009054906101000a900460ff16600c811115611a4a577f4e487b7100000000000000000000000000000000000000000000000000000000600052602160045260246000fd5b14611a8a576040517f08c379a0000000000000000000000000000000000000000000000000000000008152600401611a8190615139565b60405180910390fd5b6005600085815260200190815260200160002060000160009054906101000a900473ffffffffffffffffffffffffffffffffffffffff168073ffffffffffffffffffffffffffffffffffffffff16611ae061433c565b73ffffffffffffffffffffffffffffffffffffffff1614611b36576040517f08c379a0000000000000000000000000000000000000000000000000000000008152600401611b2d906150f9565b60405180910390fd5b8360056000878152602001908152602001600020600a0160006101000a81548160ff021916908315150217905550600015158415151415611b9257600060056000878152602001908152602001600020600b0181905550611bae565b8260056000878152602001908152602001600020600b01819055505b600580600087815260200190815260200160002060080160006101000a81548160ff0219169083600c811115611c0d577f4e487b7100000000000000000000000000000000000000000000000000000000600052602160045260246000fd5b02179055507f5725e53fd0efed5294b7db2af148f040264a63630b4deb0afbccf6e60830988a85604051611c4191906151d9565b60405180910390a15050505050565b600460009054906101000a900473ffffffffffffffffffffffffffffffffffffffff1673ffffffffffffffffffffffffffffffffffffffff16611c9161433c565b73ffffffffffffffffffffffffffffffffffffffff161415611cf5576000611cda600460009054906101000a900473ffffffffffffffffffffffffffffffffffffffff16614344565b90508073ffffffffffffffffffffffffffffffffffffffff16ff5b565b6000611d0d82600261434e90919063ffffffff16565b9050919050565b611d24611d1f61433c565b611cf7565b611d2d57600080fd5b816009600c811115611d68577f4e487b7100000000000000000000000000000000000000000000000000000000600052602160045260246000fd5b6005600083815260200190815260200160002060080160009054906101000a900460ff16600c811115611dc4577f4e487b7100000000000000000000000000000000000000000000000000000000600052602160045260246000fd5b14611e04576040517f08c379a0000000000000000000000000000000000000000000000000000000008152600401611dfb90615079565b60405180910390fd5b6005600084815260200190815260200160002060000160009054906101000a900473ffffffffffffffffffffffffffffffffffffffff168073ffffffffffffffffffffffffffffffffffffffff16611e5a61433c565b73ffffffffffffffffffffffffffffffffffffffff1614611eb0576040517f08c379a0000000000000000000000000000000000000000000000000000000008152600401611ea7906150f9565b60405180910390fd5b600a6005600086815260200190815260200160002060080160006101000a81548160ff0219169083600c811115611f10577f4e487b7100000000000000000000000000000000000000000000000000000000600052602160045260246000fd5b02179055508260056000868152602001908152602001600020600e01819055507f59e7ad085805e2b02ad4b0f8033bd75e7ee4c8cd43f996267463585e3589625284604051611f5f91906151d9565b60405180910390a150505050565b611f7d611f7861433c565b612754565b611f8657600080fd5b806001600c811115611fc1577f4e487b7100000000000000000000000000000000000000000000000000000000600052602160045260246000fd5b6005600083815260200190815260200160002060080160009054906101000a900460ff16600c81111561201d577f4e487b7100000000000000000000000000000000000000000000000000000000600052602160045260246000fd5b1461205d576040517f08c379a000000000000000000000000000000000000000000000000000000000815260040161205490614ff9565b60405180910390fd5b6005600083815260200190815260200160002060040154803410156120b7576040517f08c379a00000000000000000000000000000000000000000000000000000000081526004016120ae906151b9565b60405180910390fd5b60056000848152602001908152602001600020600401546120d661433c565b81341015612119576040517f08c379a0000000000000000000000000000000000000000000000000000000008152600401612110906151b9565b60405180910390fd5b6000823461212791906153e3565b90508173ffffffffffffffffffffffffffffffffffffffff166108fc829081150290604051600060405180830381858888f1935050505015801561216f573d6000803e3d6000fd5b5060006121b16005600089815260200190815260200160002060050160009054906101000a900473ffffffffffffffffffffffffffffffffffffffff16614344565b90508073ffffffffffffffffffffffffffffffffffffffff166108fc600560008a8152602001908152602001600020600401549081150290604051600060405180830381858888f1935050505015801561220f573d6000803e3d6000fd5b5061221861433c565b6005600089815260200190815260200160002060000160006101000a81548173ffffffffffffffffffffffffffffffffffffffff021916908373ffffffffffffffffffffffffffffffffffffffff16021790555061227461433c565b6005600089815260200190815260200160002060080160016101000a81548173ffffffffffffffffffffffffffffffffffffffff021916908373ffffffffffffffffffffffffffffffffffffffff16021790555060026005600089815260200190815260200160002060080160006101000a81548160ff0219169083600c811115612328577f4e487b7100000000000000000000000000000000000000000000000000000000600052602160045260246000fd5b02179055504360066000898152602001908152602001600020600001819055507facd9402b9f9e8c15fa7c1819f8393ca56eb61316cc354fc6ac2150aed3ce79318760405161237791906151d9565b60405180910390a150505050505050565b61239861239361433c565b6143e0565b565b6123aa6123a561433c565b612754565b6123b357600080fd5b6123bc8161443a565b50565b6123cf6123ca61433c565b6126ec565b6123d857600080fd5b85600b600c811115612413577f4e487b7100000000000000000000000000000000000000000000000000000000600052602160045260246000fd5b6005600083815260200190815260200160002060080160009054906101000a900460ff16600c81111561246f577f4e487b7100000000000000000000000000000000000000000000000000000000600052602160045260246000fd5b146124af576040517f08c379a00000000000000000000000000000000000000000000000000000000081526004016124a690615199565b60405180910390fd5b6005600088815260200190815260200160002060000160009054906101000a900473ffffffffffffffffffffffffffffffffffffffff168073ffffffffffffffffffffffffffffffffffffffff1661250561433c565b73ffffffffffffffffffffffffffffffffffffffff161461255b576040517f08c379a0000000000000000000000000000000000000000000000000000000008152600401612552906150f9565b60405180910390fd5b86600560008a815260200190815260200160002060120160006101000a81548160ff021916908360ff16021790555085600560008a815260200190815260200160002060120160016101000a81548160ff021916908360ff16021790555084600560008a815260200190815260200160002060120160026101000a81548160ff021916908360ff16021790555083600560008a815260200190815260200160002060120160036101000a81548160ff021916908360ff16021790555082600560008a815260200190815260200160002060120160046101000a81548160ff021916908360ff160217905550600c600560008a815260200190815260200160002060080160006101000a81548160ff0219169083600c8111156126a6577f4e487b7100000000000000000000000000000000000000000000000000000000600052602160045260246000fd5b02179055507fc7e94446a942a0541d0224ece380a730c85f03db7188fca783225da9255929f7886040516126da91906151d9565b60405180910390a15050505050505050565b600061270282600361434e90919063ffffffff16565b9050919050565b600460009054906101000a900473ffffffffffffffffffffffffffffffffffffffff1681565b61273f61273a61433c565b611cf7565b61274857600080fd5b61275181614494565b50565b600061276a82600161434e90919063ffffffff16565b9050919050565b61278161277c61433c565b612eab565b61278a57600080fd5b612793816144ee565b50565b6127a66127a161433c565b6126ec565b6127af57600080fd5b80600a600c8111156127ea577f4e487b7100000000000000000000000000000000000000000000000000000000600052602160045260246000fd5b6005600083815260200190815260200160002060080160009054906101000a900460ff16600c811115612846577f4e487b7100000000000000000000000000000000000000000000000000000000600052602160045260246000fd5b14612886576040517f08c379a000000000000000000000000000000000000000000000000000000000815260040161287d90615039565b60405180910390fd5b60056000838152602001908152602001600020600e0154803410156128e0576040517f08c379a00000000000000000000000000000000000000000000000000000000081526004016128d7906151b9565b60405180910390fd5b60056000848152602001908152602001600020600e01546128ff61433c565b81341015612942576040517f08c379a0000000000000000000000000000000000000000000000000000000008152600401612939906151b9565b60405180910390fd5b6000823461295091906153e3565b90508173ffffffffffffffffffffffffffffffffffffffff166108fc829081150290604051600060405180830381858888f19350505050158015612998573d6000803e3d6000fd5b506129a161433c565b6005600088815260200190815260200160002060100160006101000a81548173ffffffffffffffffffffffffffffffffffffffff021916908373ffffffffffffffffffffffffffffffffffffffff1602179055506000612a3660056000898152602001908152602001600020600d0160009054906101000a900473ffffffffffffffffffffffffffffffffffffffff16614344565b90508073ffffffffffffffffffffffffffffffffffffffff166108fc600560008a8152602001908152602001600020600e01549081150290604051600060405180830381858888f19350505050158015612a94573d6000803e3d6000fd5b50612a9d61433c565b6005600089815260200190815260200160002060000160006101000a81548173ffffffffffffffffffffffffffffffffffffffff021916908373ffffffffffffffffffffffffffffffffffffffff160217905550612af961433c565b6005600089815260200190815260200160002060100160006101000a81548173ffffffffffffffffffffffffffffffffffffffff021916908373ffffffffffffffffffffffffffffffffffffffff160217905550600b6005600089815260200190815260200160002060080160006101000a81548160ff0219169083600c811115612bad577f4e487b7100000000000000000000000000000000000000000000000000000000600052602160045260246000fd5b02179055504360066000898152602001908152602001600020600201819055507fc7e94446a942a0541d0224ece380a730c85f03db7188fca783225da9255929f787604051612bfc91906151d9565b60405180910390a150505050505050565b612c1d612c1861433c565b612eab565b612c2657600080fd5b806002600c811115612c61577f4e487b7100000000000000000000000000000000000000000000000000000000600052602160045260246000fd5b6005600083815260200190815260200160002060080160009054906101000a900460ff16600c811115612cbd577f4e487b7100000000000000000000000000000000000000000000000000000000600052602160045260246000fd5b14612cfd576040517f08c379a0000000000000000000000000000000000000000000000000000000008152600401612cf490615119565b60405180910390fd5b6005600083815260200190815260200160002060050160009054906101000a900473ffffffffffffffffffffffffffffffffffffffff168073ffffffffffffffffffffffffffffffffffffffff16612d5361433c565b73ffffffffffffffffffffffffffffffffffffffff1614612da9576040517f08c379a0000000000000000000000000000000000000000000000000000000008152600401612da0906150f9565b60405180910390fd5b60036005600085815260200190815260200160002060080160006101000a81548160ff0219169083600c811115612e09577f4e487b7100000000000000000000000000000000000000000000000000000000600052602160045260246000fd5b02179055507f51c097b0018d62788fa545fa4a1d4da21348f51fa65254d6def7b3b6bd71820d83604051612e3d91906151d9565b60405180910390a1505050565b6000806000806006600086815260200190815260200160002060405180606001604052908160008201548152602001600182015481526020016002820154815250509050806000015181602001518260400151935093509350509193909250565b6000612ec182600061434e90919063ffffffff16565b9050919050565b612ed8612ed361433c565b612eab565b612ee157600080fd5b806000600c811115612f1c577f4e487b7100000000000000000000000000000000000000000000000000000000600052602160045260246000fd5b6005600083815260200190815260200160002060080160009054906101000a900460ff16600c811115612f78577f4e487b7100000000000000000000000000000000000000000000000000000000600052602160045260246000fd5b14612fb8576040517f08c379a0000000000000000000000000000000000000000000000000000000008152600401612faf90614fb9565b60405180910390fd5b8180600560008381526020019081526020016000206001015414613011576040517f08c379a000000000000000000000000000000000000000000000000000000000815260040161300890615099565b60405180910390fd5b6005600084815260200190815260200160002060000160009054906101000a900473ffffffffffffffffffffffffffffffffffffffff168073ffffffffffffffffffffffffffffffffffffffff1661306761433c565b73ffffffffffffffffffffffffffffffffffffffff16146130bd576040517f08c379a00000000000000000000000000000000000000000000000000000000081526004016130b4906150f9565b60405180910390fd5b60016005600086815260200190815260200160002060080160006101000a81548160ff0219169083600c81111561311d577f4e487b7100000000000000000000000000000000000000000000000000000000600052602160045260246000fd5b02179055507fea4031d0e152254ad0cc1d39c2266dfd6ae91966a70ed269579da8b72cb447bc8460405161315191906151d9565b60405180910390a150505050565b60008060056000848152602001908152602001600020604051806103000160405290816000820160009054906101000a900473ffffffffffffffffffffffffffffffffffffffff1673ffffffffffffffffffffffffffffffffffffffff1673ffffffffffffffffffffffffffffffffffffffff16815260200160018201548152602001600282015481526020016003820180546131fb906154d3565b80601f0160208091040260200160405190810160405280929190818152602001828054613227906154d3565b80156132745780601f1061324957610100808354040283529160200191613274565b820191906000526020600020905b81548152906001019060200180831161325757829003601f168201915b50505050508152602001600482015481526020016005820160009054906101000a900473ffffffffffffffffffffffffffffffffffffffff1673ffffffffffffffffffffffffffffffffffffffff1673ffffffffffffffffffffffffffffffffffffffff168152602001600682015481526020016007820180546132f7906154d3565b80601f0160208091040260200160405190810160405280929190818152602001828054613323906154d3565b80156133705780601f1061334557610100808354040283529160200191613370565b820191906000526020600020905b81548152906001019060200180831161335357829003601f168201915b505050505081526020016008820160009054906101000a900460ff16600c8111156133c4577f4e487b7100000000000000000000000000000000000000000000000000000000600052602160045260246000fd5b600c8111156133fc577f4e487b7100000000000000000000000000000000000000000000000000000000600052602160045260246000fd5b81526020016008820160019054906101000a900473ffffffffffffffffffffffffffffffffffffffff1673ffffffffffffffffffffffffffffffffffffffff1673ffffffffffffffffffffffffffffffffffffffff16815260200160098201548152602001600a820160009054906101000a900460ff16151515158152602001600b8201548152602001600c8201548152602001600d820160009054906101000a900473ffffffffffffffffffffffffffffffffffffffff1673ffffffffffffffffffffffffffffffffffffffff1673ffffffffffffffffffffffffffffffffffffffff168152602001600e8201548152602001600f82015481526020016010820160009054906101000a900473ffffffffffffffffffffffffffffffffffffffff1673ffffffffffffffffffffffffffffffffffffffff1673ffffffffffffffffffffffffffffffffffffffff168152602001601182015481526020016012820160009054906101000a900460ff1660ff1660ff1681526020016012820160019054906101000a900460ff1660ff1660ff1681526020016012820160029054906101000a900460ff1660ff1660ff1681526020016012820160039054906101000a900460ff1660ff1660ff1681526020016012820160049054906101000a900460ff1660ff1660ff168152505090506000816101e001511461360757806101e00151915050613641565b60008161014001511461362257806101400151915050613641565b600081608001511461363b578060800151915050613641565b60009150505b919050565b61365661365161433c565b614548565b565b61366861366361433c565b612eab565b61367157600080fd5b600080600061367e6147c7565b61368661433c565b816000019073ffffffffffffffffffffffffffffffffffffffff16908173ffffffffffffffffffffffffffffffffffffffff1681525050878160200181815250506136cf61433c565b8160a0019073ffffffffffffffffffffffffffffffffffffffff16908173ffffffffffffffffffffffffffffffffffffffff168152505086816040018181525050858160600181905250848160e00181905250428160c00181815250506611c37937e080008761373f9190615389565b8160800181815250506000816101000190600c811115613788577f4e487b7100000000000000000000000000000000000000000000000000000000600052602160045260246000fd5b9081600c8111156137c2577f4e487b7100000000000000000000000000000000000000000000000000000000600052602160045260246000fd5b815250508381610120019073ffffffffffffffffffffffffffffffffffffffff16908173ffffffffffffffffffffffffffffffffffffffff168152505082816101c0019073ffffffffffffffffffffffffffffffffffffffff16908173ffffffffffffffffffffffffffffffffffffffff16815250508181610220019073ffffffffffffffffffffffffffffffffffffffff16908173ffffffffffffffffffffffffffffffffffffffff168152505080600560008a815260200190815260200160002060008201518160000160006101000a81548173ffffffffffffffffffffffffffffffffffffffff021916908373ffffffffffffffffffffffffffffffffffffffff160217905550602082015181600101556040820151816002015560608201518160030190805190602001906138fc929190614933565b506080820151816004015560a08201518160050160006101000a81548173ffffffffffffffffffffffffffffffffffffffff021916908373ffffffffffffffffffffffffffffffffffffffff16021790555060c0820151816006015560e0820151816007019080519060200190613974929190614933565b506101008201518160080160006101000a81548160ff0219169083600c8111156139c7577f4e487b7100000000000000000000000000000000000000000000000000000000600052602160045260246000fd5b02179055506101208201518160080160016101000a81548173ffffffffffffffffffffffffffffffffffffffff021916908373ffffffffffffffffffffffffffffffffffffffff160217905550610140820151816009015561016082015181600a0160006101000a81548160ff02191690831515021790555061018082015181600b01556101a082015181600c01556101c082015181600d0160006101000a81548173ffffffffffffffffffffffffffffffffffffffff021916908373ffffffffffffffffffffffffffffffffffffffff1602179055506101e082015181600e015561020082015181600f01556102208201518160100160006101000a81548173ffffffffffffffffffffffffffffffffffffffff021916908373ffffffffffffffffffffffffffffffffffffffff16021790555061024082015181601101556102608201518160120160006101000a81548160ff021916908360ff1602179055506102808201518160120160016101000a81548160ff021916908360ff1602179055506102a08201518160120160026101000a81548160ff021916908360ff1602179055506102c08201518160120160036101000a81548160ff021916908360ff1602179055506102e08201518160120160046101000a81548160ff021916908360ff1602179055509050506000613bbe6149b9565b81816000018181525050818160200181815250508181604001818152505080600660008c81526020019081526020016000206000820151816000015560208201518160010155604082015181600201559050507fa20cf5c0cc38eede6efacb85f9f76c7f8763bb01a4b43287a21fe5df6fe8615b8a604051613c4091906151d9565b60405180910390a150505050505050505050565b613c64613c5f61433c565b6145a2565b565b600460009054906101000a900473ffffffffffffffffffffffffffffffffffffffff1673ffffffffffffffffffffffffffffffffffffffff16613ca761433c565b73ffffffffffffffffffffffffffffffffffffffff1614613cfd576040517f08c379a0000000000000000000000000000000000000000000000000000000008152600401613cf4906150d9565b60405180910390fd5b600073ffffffffffffffffffffffffffffffffffffffff168173ffffffffffffffffffffffffffffffffffffffff161415613d6d576040517f08c379a0000000000000000000000000000000000000000000000000000000008152600401613d6490614fd9565b60405180910390fd5b613d76816145fc565b50565b613d82816146c2565b50565b613d95613d9061433c565b612754565b613d9e57600080fd5b816005600c811115613dd9577f4e487b7100000000000000000000000000000000000000000000000000000000600052602160045260246000fd5b6005600083815260200190815260200160002060080160009054906101000a900460ff16600c811115613e35577f4e487b7100000000000000000000000000000000000000000000000000000000600052602160045260246000fd5b14613e75576040517f08c379a0000000000000000000000000000000000000000000000000000000008152600401613e6c90615059565b60405180910390fd5b6005600084815260200190815260200160002060000160009054906101000a900473ffffffffffffffffffffffffffffffffffffffff168073ffffffffffffffffffffffffffffffffffffffff16613ecb61433c565b73ffffffffffffffffffffffffffffffffffffffff1614613f21576040517f08c379a0000000000000000000000000000000000000000000000000000000008152600401613f18906150f9565b60405180910390fd5b60066005600086815260200190815260200160002060080160006101000a81548160ff0219169083600c811115613f81577f4e487b7100000000000000000000000000000000000000000000000000000000600052602160045260246000fd5b02179055508260056000868152602001908152602001600020600901819055507f539b4a835a8a5d1bc5756a9f146e2bfeaa6bd6b1fa77a7631c0a5154c86cdd0384604051613fd091906151d9565b60405180910390a150505050565b613fee613fe961433c565b612754565b613ff757600080fd5b806003600c811115614032577f4e487b7100000000000000000000000000000000000000000000000000000000600052602160045260246000fd5b6005600083815260200190815260200160002060080160009054906101000a900460ff16600c81111561408e577f4e487b7100000000000000000000000000000000000000000000000000000000600052602160045260246000fd5b146140ce576040517f08c379a00000000000000000000000000000000000000000000000000000000081526004016140c590615159565b60405180910390fd5b6005600083815260200190815260200160002060000160009054906101000a900473ffffffffffffffffffffffffffffffffffffffff168073ffffffffffffffffffffffffffffffffffffffff1661412461433c565b73ffffffffffffffffffffffffffffffffffffffff161461417a576040517f08c379a0000000000000000000000000000000000000000000000000000000008152600401614171906150f9565b60405180910390fd5b4260056000858152602001908152602001600020600c018190555060046005600085815260200190815260200160002060080160006101000a81548160ff0219169083600c8111156141f5577f4e487b7100000000000000000000000000000000000000000000000000000000600052602160045260246000fd5b02179055507fc8ca2150e6e1849a10ef5aa4932060fa353bcacdffeb150c9e1890c6ab9403cc8360405161422991906151d9565b60405180910390a1505050565b600073ffffffffffffffffffffffffffffffffffffffff168173ffffffffffffffffffffffffffffffffffffffff16141561427057600080fd5b61427a828261434e565b1561428457600080fd5b60018260000160008373ffffffffffffffffffffffffffffffffffffffff1673ffffffffffffffffffffffffffffffffffffffff16815260200190815260200160002060006101000a81548160ff0219169083151502179055505050565b6142f681600361423690919063ffffffff16565b8073ffffffffffffffffffffffffffffffffffffffff167f28b26e7a3d20aedbc5f8f2ebf7da671c0491723a2b78f47a097b0e46dee0714260405160405180910390a250565b600033905090565b6000819050919050565b60008073ffffffffffffffffffffffffffffffffffffffff168273ffffffffffffffffffffffffffffffffffffffff16141561438957600080fd5b8260000160008373ffffffffffffffffffffffffffffffffffffffff1673ffffffffffffffffffffffffffffffffffffffff16815260200190815260200160002060009054906101000a900460ff16905092915050565b6143f481600161471c90919063ffffffff16565b8073ffffffffffffffffffffffffffffffffffffffff167f126174f6cf49c81cdb4a9214c6b8f037bef55b4ec31e4fc776cea2a1c8a88d5960405160405180910390a250565b61444e81600161423690919063ffffffff16565b8073ffffffffffffffffffffffffffffffffffffffff167fddbf200aa634dc3fb81cfd68583dd1040d1c751d335e1d86b631bde3e977fea860405160405180910390a250565b6144a881600261423690919063ffffffff16565b8073ffffffffffffffffffffffffffffffffffffffff167f71ae26cad02663e3d92efd6ec56031a80d74a20c0ab4183faa8bf262261c9baa60405160405180910390a250565b61450281600061423690919063ffffffff16565b8073ffffffffffffffffffffffffffffffffffffffff167f2a6b352b84affc85ec0ab54b71a09c17830148eb8a1c5aeabf5cd5e73ee7c24860405160405180910390a250565b61455c81600061471c90919063ffffffff16565b8073ffffffffffffffffffffffffffffffffffffffff167f78af5e2bc1f182518b5a494aa807f782e7a2026ab85683d13ce592896a52922f60405160405180910390a250565b6145b681600261471c90919063ffffffff16565b8073ffffffffffffffffffffffffffffffffffffffff167fdb7176e79cffef81cb01767dd0447a0b24bb72ca9778d4b245581086b2a7e6db60405160405180910390a250565b6000600460009054906101000a900473ffffffffffffffffffffffffffffffffffffffff16905081600460006101000a81548173ffffffffffffffffffffffffffffffffffffffff021916908373ffffffffffffffffffffffffffffffffffffffff1602179055508173ffffffffffffffffffffffffffffffffffffffff168173ffffffffffffffffffffffffffffffffffffffff167f8be0079c531659141344cd1fd0a4f28419497f9722a3daafe3b4186f6b6457e060405160405180910390a35050565b6146d681600361471c90919063ffffffff16565b8073ffffffffffffffffffffffffffffffffffffffff167fe3f5ed5f263f1f01764a96edfc7d025f511ec5f7d180e8816908b78bcf74f09860405160405180910390a250565b600073ffffffffffffffffffffffffffffffffffffffff168173ffffffffffffffffffffffffffffffffffffffff16141561475657600080fd5b614760828261434e565b61476957600080fd5b60008260000160008373ffffffffffffffffffffffffffffffffffffffff1673ffffffffffffffffffffffffffffffffffffffff16815260200190815260200160002060006101000a81548160ff0219169083151502179055505050565b604051806103000160405280600073ffffffffffffffffffffffffffffffffffffffff16815260200160008152602001600081526020016060815260200160008152602001600073ffffffffffffffffffffffffffffffffffffffff16815260200160008152602001606081526020016000600c811115614871577f4e487b7100000000000000000000000000000000000000000000000000000000600052602160045260246000fd5b8152602001600073ffffffffffffffffffffffffffffffffffffffff168152602001600081526020016000151581526020016000815260200160008152602001600073ffffffffffffffffffffffffffffffffffffffff1681526020016000815260200160008152602001600073ffffffffffffffffffffffffffffffffffffffff16815260200160008152602001600060ff168152602001600060ff168152602001600060ff168152602001600060ff168152602001600060ff1681525090565b82805461493f906154d3565b90600052602060002090601f01602090048101928261496157600085556149a8565b82601f1061497a57805160ff19168380011785556149a8565b828001600101855582156149a8579182015b828111156149a757825182559160200191906001019061498c565b5b5090506149b591906149da565b5090565b60405180606001604052806000815260200160008152602001600081525090565b5b808211156149f35760008160009055506001016149db565b5090565b6000614a0a614a058461533c565b615317565b905082815260208101848484011115614a2257600080fd5b614a2d848285615491565b509392505050565b600081359050614a4481615b30565b92915050565b600081359050614a5981615b47565b92915050565b600082601f830112614a7057600080fd5b8135614a808482602086016149f7565b91505092915050565b600081359050614a9881615b5e565b92915050565b600081359050614aad81615b75565b92915050565b600060208284031215614ac557600080fd5b6000614ad384828501614a35565b91505092915050565b600060208284031215614aee57600080fd5b6000614afc84828501614a89565b91505092915050565b600080600060608486031215614b1a57600080fd5b6000614b2886828701614a89565b9350506020614b3986828701614a4a565b9250506040614b4a86828701614a89565b9150509250925092565b60008060408385031215614b6757600080fd5b6000614b7585828601614a89565b9250506020614b8685828601614a89565b9150509250929050565b60008060008060808587031215614ba657600080fd5b6000614bb487828801614a89565b9450506020614bc587828801614a89565b935050604085013567ffffffffffffffff811115614be257600080fd5b614bee87828801614a5f565b925050606085013567ffffffffffffffff811115614c0b57600080fd5b614c1787828801614a5f565b91505092959194509250565b60008060008060008060c08789031215614c3c57600080fd5b6000614c4a89828a01614a89565b9650506020614c5b89828a01614a9e565b9550506040614c6c89828a01614a9e565b9450506060614c7d89828a01614a9e565b9350506080614c8e89828a01614a9e565b92505060a0614c9f89828a01614a9e565b9150509295509295509295565b614cb581615417565b82525050565b614cc481615429565b82525050565b614cd38161547f565b82525050565b6000614ce48261536d565b614cee8185615378565b9350614cfe8185602086016154a0565b614d07816155f2565b840191505092915050565b6000614d1f602e83615378565b9150614d2a82615603565b604082019050919050565b6000614d42602683615378565b9150614d4d82615652565b604082019050919050565b6000614d65602e83615378565b9150614d70826156a1565b604082019050919050565b6000614d88603083615378565b9150614d93826156f0565b604082019050919050565b6000614dab602d83615378565b9150614db68261573f565b604082019050919050565b6000614dce603283615378565b9150614dd98261578e565b604082019050919050565b6000614df1602e83615378565b9150614dfc826157dd565b604082019050919050565b6000614e14602983615378565b9150614e1f8261582c565b604082019050919050565b6000614e37602f83615378565b9150614e428261587b565b604082019050919050565b6000614e5a602783615378565b9150614e65826158ca565b604082019050919050565b6000614e7d603183615378565b9150614e8882615919565b604082019050919050565b6000614ea0603283615378565b9150614eab82615968565b604082019050919050565b6000614ec3603183615378565b9150614ece826159b7565b604082019050919050565b6000614ee6602e83615378565b9150614ef182615a06565b604082019050919050565b6000614f09603083615378565b9150614f1482615a55565b604082019050919050565b6000614f2c602f83615378565b9150614f3782615aa4565b604082019050919050565b6000614f4f601783615378565b9150614f5a82615af3565b602082019050919050565b614f6e81615468565b82525050565b614f7d81615472565b82525050565b6000602082019050614f986000830184614cac565b92915050565b6000602082019050614fb36000830184614cbb565b92915050565b60006020820190508181036000830152614fd281614d12565b9050919050565b60006020820190508181036000830152614ff281614d35565b9050919050565b6000602082019050818103600083015261501281614d58565b9050919050565b6000602082019050818103600083015261503281614d7b565b9050919050565b6000602082019050818103600083015261505281614d9e565b9050919050565b6000602082019050818103600083015261507281614dc1565b9050919050565b6000602082019050818103600083015261509281614de4565b9050919050565b600060208201905081810360008301526150b281614e07565b9050919050565b600060208201905081810360008301526150d281614e2a565b9050919050565b600060208201905081810360008301526150f281614e4d565b9050919050565b6000602082019050818103600083015261511281614e70565b9050919050565b6000602082019050818103600083015261513281614e93565b9050919050565b6000602082019050818103600083015261515281614eb6565b9050919050565b6000602082019050818103600083015261517281614ed9565b9050919050565b6000602082019050818103600083015261519281614efc565b9050919050565b600060208201905081810360008301526151b281614f1f565b9050919050565b600060208201905081810360008301526151d281614f42565b9050919050565b60006020820190506151ee6000830184614f65565b92915050565b600060e082019050615209600083018a614f65565b6152166020830189614cac565b81810360408301526152288188614cd9565b90506152376060830187614f65565b6152446080830186614cca565b61525160a0830185614f65565b81810360c08301526152638184614cd9565b905098975050505050505050565b600060e082019050615286600083018a614f65565b6152936020830189614cac565b6152a06040830188614f74565b6152ad6060830187614f74565b6152ba6080830186614f74565b6152c760a0830185614f74565b6152d460c0830184614f74565b98975050505050505050565b60006060820190506152f56000830186614f65565b6153026020830185614f65565b61530f6040830184614f65565b949350505050565b6000615321615332565b905061532d8282615505565b919050565b6000604051905090565b600067ffffffffffffffff821115615357576153566155c3565b5b615360826155f2565b9050602081019050919050565b600081519050919050565b600082825260208201905092915050565b600061539482615468565b915061539f83615468565b9250817fffffffffffffffffffffffffffffffffffffffffffffffffffffffffffffffff04831182151516156153d8576153d7615536565b5b828202905092915050565b60006153ee82615468565b91506153f983615468565b92508282101561540c5761540b615536565b5b828203905092915050565b600061542282615448565b9050919050565b60008115159050919050565b600081905061544382615b1c565b919050565b600073ffffffffffffffffffffffffffffffffffffffff82169050919050565b6000819050919050565b600060ff82169050919050565b600061548a82615435565b9050919050565b82818337600083830152505050565b60005b838110156154be5780820151818401526020810190506154a3565b838111156154cd576000848401525b50505050565b600060028204905060018216806154eb57607f821691505b602082108114156154ff576154fe615594565b5b50919050565b61550e826155f2565b810181811067ffffffffffffffff8211171561552d5761552c6155c3565b5b80604052505050565b7f4e487b7100000000000000000000000000000000000000000000000000000000600052601160045260246000fd5b7f4e487b7100000000000000000000000000000000000000000000000000000000600052602160045260246000fd5b7f4e487b7100000000000000000000000000000000000000000000000000000000600052602260045260246000fd5b7f4e487b7100000000000000000000000000000000000000000000000000000000600052604160045260246000fd5b6000601f19601f8301169050919050565b7f44757269616e206973206e6f7420696e207468652050726f647563654279486160008201527f727665737465722073746174652e000000000000000000000000000000000000602082015250565b7f4f776e61626c653a206e6577206f776e657220697320746865207a65726f206160008201527f6464726573730000000000000000000000000000000000000000000000000000602082015250565b7f44757269616e206973206e6f7420696e2074686520466f7253616c654279486160008201527f727665737465722073746174652e000000000000000000000000000000000000602082015250565b7f44757269616e206973206e6f7420696e2074686520536869707065644279446960008201527f737472696275746f722073746174652e00000000000000000000000000000000602082015250565b7f44757269616e206973206e6f7420696e2074686520466f7253616c654279526560008201527f7461696c65722073746174652e00000000000000000000000000000000000000602082015250565b7f44757269616e206973206e6f7420696e207468652050726f636573736564427960008201527f4469737472696275746f722073746174652e0000000000000000000000000000602082015250565b7f44757269616e206973206e6f7420696e2074686520526563656976656442795260008201527f657461696c65722073746174652e000000000000000000000000000000000000602082015250565b7f44757269616e20776974682074686520676976656e20636f646520646f65732060008201527f6e6f742065786973740000000000000000000000000000000000000000000000602082015250565b7f44757269616e206973206e6f7420696e2074686520507572636861736564427960008201527f52657461696c65722073746174652e0000000000000000000000000000000000602082015250565b7f4f6e6c7920746865206f776e65722063616e20706572666f726d20746869732060008201527f616374696f6e2e00000000000000000000000000000000000000000000000000602082015250565b7f4f6e6c79207468652076657269666965642063616c6c65722063616e2070657260008201527f666f726d207468697320616374696f6e2e000000000000000000000000000000602082015250565b7f44757269616e206973206e6f7420696e2074686520507572636861736564427960008201527f4469737472696275746f722073746174652e0000000000000000000000000000602082015250565b7f44757269616e206973206e6f7420696e2074686520526563656976656442794460008201527f69737472696275746f722073746174652e000000000000000000000000000000602082015250565b7f44757269616e206973206e6f7420696e2074686520536869707065644279486160008201527f727665737465722073746174652e000000000000000000000000000000000000602082015250565b7f44757269616e206973206e6f7420696e2074686520466f7253616c654279446960008201527f737472696275746f722073746174652e00000000000000000000000000000000602082015250565b7f44757269616e206973206e6f7420696e2074686520507572636861736564427960008201527f436f6e73756d65722073746174652e0000000000000000000000000000000000602082015250565b7f496e73756666696369656e742066756e64732073656e74000000000000000000600082015250565b600d8110615b2d57615b2c615565565b5b50565b615b3981615417565b8114615b4457600080fd5b50565b615b5081615429565b8114615b5b57600080fd5b50565b615b6781615468565b8114615b7257600080fd5b50565b615b7e81615472565b8114615b8957600080fd5b5056fea26469706673582212203ff6d5969347b79932944ba6482ac103ba0eb9ca441bfbbb212ec4460ca39d5f64736f6c63430008040033",
  "linkReferences": {},
  "deployedLinkReferences": {}
}