{
  "_format": "hh-sol-artifact-1",
  "contractName": "durianSupplyChain",
  "sourceName": "contracts/durianSupplyChain/duriansupplyChain.sol",
  "abi": [
    {
      "inputs": [],
      "stateMutability": "payable",
      "type": "constructor"
    },
    {
      "anonymous": false,
      "inputs": [
        {
          "indexed": true,
          "internalType": "address",
          "name": "account",
          "type": "address"
        }
      ],
      "name": "ConsumerAdded",
      "type": "event"
    },
    {
      "anonymous": false,
      "inputs": [
        {
          "indexed": true,
          "internalType": "address",
          "name": "harvester",
          "type": "address"
        },
        {
          "indexed": true,
          "internalType": "address",
          "name": "account",
          "type": "address"
        }
      ],
      "name": "ConsumerAddedByRetailer",
      "type": "event"
    },
    {
      "anonymous": false,
      "inputs": [
        {
          "indexed": true,
          "internalType": "address",
          "name": "account",
          "type": "address"
        }
      ],
      "name": "ConsumerRemoved",
      "type": "event"
    },
    {
      "anonymous": false,
      "inputs": [
        {
          "indexed": true,
          "internalType": "address",
          "name": "account",
          "type": "address"
        }
      ],
      "name": "DistributorAdded",
      "type": "event"
    },
    {
      "anonymous": false,
      "inputs": [
        {
          "indexed": true,
          "internalType": "address",
          "name": "harvester",
          "type": "address"
        },
        {
          "indexed": true,
          "internalType": "address",
          "name": "account",
          "type": "address"
        }
      ],
      "name": "DistributorAddedByHarvester",
      "type": "event"
    },
    {
      "anonymous": false,
      "inputs": [
        {
          "indexed": true,
          "internalType": "address",
          "name": "account",
          "type": "address"
        }
      ],
      "name": "DistributorRemoved",
      "type": "event"
    },
    {
      "anonymous": false,
      "inputs": [
        {
          "indexed": false,
          "internalType": "uint256",
          "name": "durianCode",
          "type": "uint256"
        }
      ],
      "name": "ForSaleByDistributor",
      "type": "event"
    },
    {
      "anonymous": false,
      "inputs": [
        {
          "indexed": false,
          "internalType": "uint256",
          "name": "durianCode",
          "type": "uint256"
        }
      ],
      "name": "ForSaleByHarvester",
      "type": "event"
    },
    {
      "anonymous": false,
      "inputs": [
        {
          "indexed": false,
          "internalType": "uint256",
          "name": "durianCode",
          "type": "uint256"
        }
      ],
      "name": "ForSaleByRetailer",
      "type": "event"
    },
    {
      "anonymous": false,
      "inputs": [
        {
          "indexed": true,
          "internalType": "address",
          "name": "account",
          "type": "address"
        }
      ],
      "name": "HarvesterAdded",
      "type": "event"
    },
    {
      "anonymous": false,
      "inputs": [
        {
          "indexed": true,
          "internalType": "address",
          "name": "account",
          "type": "address"
        }
      ],
      "name": "HarvesterRemoved",
      "type": "event"
    },
    {
      "anonymous": false,
      "inputs": [
        {
          "indexed": true,
          "internalType": "address",
          "name": "previousOwner",
          "type": "address"
        },
        {
          "indexed": true,
          "internalType": "address",
          "name": "newOwner",
          "type": "address"
        }
      ],
      "name": "OwnershipTransferred",
      "type": "event"
    },
    {
      "anonymous": false,
      "inputs": [
        {
          "indexed": false,
          "internalType": "uint256",
          "name": "durianCode",
          "type": "uint256"
        }
      ],
      "name": "ProcessedByDistributor",
      "type": "event"
    },
    {
      "anonymous": false,
      "inputs": [
        {
          "indexed": false,
          "internalType": "uint256",
          "name": "durianCode",
          "type": "uint256"
        }
      ],
      "name": "ProduceByHarvester",
      "type": "event"
    },
    {
      "anonymous": false,
      "inputs": [
        {
          "indexed": false,
          "internalType": "uint256",
          "name": "durianCode",
          "type": "uint256"
        }
      ],
      "name": "PurchasedByConsumer",
      "type": "event"
    },
    {
      "anonymous": false,
      "inputs": [
        {
          "indexed": false,
          "internalType": "uint256",
          "name": "durianCode",
          "type": "uint256"
        }
      ],
      "name": "PurchasedByDistributor",
      "type": "event"
    },
    {
      "anonymous": false,
      "inputs": [
        {
          "indexed": false,
          "internalType": "uint256",
          "name": "durianCode",
          "type": "uint256"
        }
      ],
      "name": "PurchasedByRetailer",
      "type": "event"
    },
    {
      "anonymous": false,
      "inputs": [
        {
          "indexed": false,
          "internalType": "uint256",
          "name": "durianCode",
          "type": "uint256"
        }
      ],
      "name": "RatingByConsumer",
      "type": "event"
    },
    {
      "anonymous": false,
      "inputs": [
        {
          "indexed": false,
          "internalType": "uint256",
          "name": "durianCode",
          "type": "uint256"
        }
      ],
      "name": "ReceivedByDistributor",
      "type": "event"
    },
    {
      "anonymous": false,
      "inputs": [
        {
          "indexed": false,
          "internalType": "uint256",
          "name": "durianCode",
          "type": "uint256"
        }
      ],
      "name": "ReceivedByRetailer",
      "type": "event"
    },
    {
      "anonymous": false,
      "inputs": [
        {
          "indexed": true,
          "internalType": "address",
          "name": "account",
          "type": "address"
        }
      ],
      "name": "RetailerAdded",
      "type": "event"
    },
    {
      "anonymous": false,
      "inputs": [
        {
          "indexed": true,
          "internalType": "address",
          "name": "harvester",
          "type": "address"
        },
        {
          "indexed": true,
          "internalType": "address",
          "name": "account",
          "type": "address"
        }
      ],
      "name": "RetailerAddedByDistributor",
      "type": "event"
    },
    {
      "anonymous": false,
      "inputs": [
        {
          "indexed": true,
          "internalType": "address",
          "name": "account",
          "type": "address"
        }
      ],
      "name": "RetailerRemoved",
      "type": "event"
    },
    {
      "anonymous": false,
      "inputs": [
        {
          "indexed": false,
          "internalType": "uint256",
          "name": "durianCode",
          "type": "uint256"
        }
      ],
      "name": "ShippedByDistributor",
      "type": "event"
    },
    {
      "anonymous": false,
      "inputs": [
        {
          "indexed": false,
          "internalType": "uint256",
          "name": "durianCode",
          "type": "uint256"
        }
      ],
      "name": "ShippedByHarvester",
      "type": "event"
    },
    {
      "inputs": [
        {
          "internalType": "address",
          "name": "account",
          "type": "address"
        }
      ],
      "name": "addConsumer",
      "outputs": [],
      "stateMutability": "nonpayable",
      "type": "function"
    },
    {
      "inputs": [
        {
          "internalType": "address",
          "name": "account",
          "type": "address"
        }
      ],
      "name": "addDistributor",
      "outputs": [],
      "stateMutability": "nonpayable",
      "type": "function"
    },
    {
      "inputs": [
        {
          "internalType": "address",
          "name": "account",
          "type": "address"
        }
      ],
      "name": "addHarvester",
      "outputs": [],
      "stateMutability": "nonpayable",
      "type": "function"
    },
    {
      "inputs": [
        {
          "internalType": "address",
          "name": "account",
          "type": "address"
        }
      ],
      "name": "addRetailer",
      "outputs": [],
      "stateMutability": "nonpayable",
      "type": "function"
    },
    {
      "inputs": [
        {
          "internalType": "uint256",
          "name": "_durianCode",
          "type": "uint256"
        }
      ],
      "name": "displayCurrentPrice",
      "outputs": [
        {
          "internalType": "uint256",
          "name": "durianPrice",
          "type": "uint256"
        }
      ],
      "stateMutability": "view",
      "type": "function"
    },
    {
      "inputs": [
        {
          "internalType": "uint256",
          "name": "",
          "type": "uint256"
        }
      ],
      "name": "durianCodeArray",
      "outputs": [
        {
          "internalType": "uint256",
          "name": "",
          "type": "uint256"
        }
      ],
      "stateMutability": "view",
      "type": "function"
    },
    {
      "inputs": [
        {
          "internalType": "uint256",
          "name": "_durianCode",
          "type": "uint256"
        }
      ],
      "name": "fetchDurianBufferOne",
      "outputs": [
        {
          "internalType": "uint256",
          "name": "durianToCode",
          "type": "uint256"
        },
        {
          "internalType": "address",
          "name": "ownerID",
          "type": "address"
        },
        {
          "internalType": "string",
          "name": "HarvestLocationAddress",
          "type": "string"
        },
        {
          "internalType": "uint256",
          "name": "harvestedTime",
          "type": "uint256"
        },
        {
          "internalType": "enum durianSupplyChain.State",
          "name": "durianState",
          "type": "uint8"
        },
        {
          "internalType": "uint256",
          "name": "durianCurrentPriceState",
          "type": "uint256"
        },
        {
          "internalType": "string",
          "name": "durianType",
          "type": "string"
        }
      ],
      "stateMutability": "view",
      "type": "function"
    },
    {
      "inputs": [
        {
          "internalType": "uint256",
          "name": "_durianCode",
          "type": "uint256"
        }
      ],
      "name": "fetchDurianBufferTwo",
      "outputs": [
        {
          "internalType": "uint256",
          "name": "durianToCode",
          "type": "uint256"
        },
        {
          "internalType": "address",
          "name": "ownerID",
          "type": "address"
        },
        {
          "internalType": "uint8",
          "name": "taste",
          "type": "uint8"
        },
        {
          "internalType": "uint8",
          "name": "condition",
          "type": "uint8"
        },
        {
          "internalType": "uint8",
          "name": "fragrance",
          "type": "uint8"
        },
        {
          "internalType": "uint8",
          "name": "creaminess",
          "type": "uint8"
        },
        {
          "internalType": "uint8",
          "name": "ripeness",
          "type": "uint8"
        }
      ],
      "stateMutability": "view",
      "type": "function"
    },
    {
      "inputs": [
        {
          "internalType": "uint256",
          "name": "_durianCode",
          "type": "uint256"
        }
      ],
      "name": "fetchDurianHistory",
      "outputs": [
        {
          "internalType": "uint256",
          "name": "blockHarvesterToDistributor",
          "type": "uint256"
        },
        {
          "internalType": "uint256",
          "name": "blockDistributorToRetailer",
          "type": "uint256"
        },
        {
          "internalType": "uint256",
          "name": "blockRetailerToConsumer",
          "type": "uint256"
        }
      ],
      "stateMutability": "view",
      "type": "function"
    },
    {
      "inputs": [],
      "name": "getAllDurianCodes",
      "outputs": [
        {
          "internalType": "uint256[]",
          "name": "",
          "type": "uint256[]"
        }
      ],
      "stateMutability": "view",
      "type": "function"
    },
    {
      "inputs": [],
      "name": "getStockUnit",
      "outputs": [
        {
          "internalType": "uint256",
          "name": "",
          "type": "uint256"
        }
      ],
      "stateMutability": "view",
      "type": "function"
    },
    {
      "inputs": [
        {
          "internalType": "address",
          "name": "account",
          "type": "address"
        }
      ],
      "name": "isConsumer",
      "outputs": [
        {
          "internalType": "bool",
          "name": "",
          "type": "bool"
        }
      ],
      "stateMutability": "view",
      "type": "function"
    },
    {
      "inputs": [
        {
          "internalType": "address",
          "name": "account",
          "type": "address"
        }
      ],
      "name": "isDistributor",
      "outputs": [
        {
          "internalType": "bool",
          "name": "",
          "type": "bool"
        }
      ],
      "stateMutability": "view",
      "type": "function"
    },
    {
      "inputs": [
        {
          "internalType": "address",
          "name": "account",
          "type": "address"
        }
      ],
      "name": "isHarvester",
      "outputs": [
        {
          "internalType": "bool",
          "name": "",
          "type": "bool"
        }
      ],
      "stateMutability": "view",
      "type": "function"
    },
    {
      "inputs": [
        {
          "internalType": "address",
          "name": "_owner",
          "type": "address"
        }
      ],
      "name": "isOwner",
      "outputs": [
        {
          "internalType": "bool",
          "name": "",
          "type": "bool"
        }
      ],
      "stateMutability": "view",
      "type": "function"
    },
    {
      "inputs": [
        {
          "internalType": "address",
          "name": "account",
          "type": "address"
        }
      ],
      "name": "isRetailer",
      "outputs": [
        {
          "internalType": "bool",
          "name": "",
          "type": "bool"
        }
      ],
      "stateMutability": "view",
      "type": "function"
    },
    {
      "inputs": [],
      "name": "kill",
      "outputs": [],
      "stateMutability": "nonpayable",
      "type": "function"
    },
    {
      "inputs": [],
      "name": "owner",
      "outputs": [
        {
          "internalType": "address",
          "name": "",
          "type": "address"
        }
      ],
      "stateMutability": "view",
      "type": "function"
    },
    {
      "inputs": [
        {
          "internalType": "uint256",
          "name": "_durianCode",
          "type": "uint256"
        },
        {
          "internalType": "bool",
          "name": "_packaging",
          "type": "bool"
        },
        {
          "internalType": "uint256",
          "name": "_piecesFlesh",
          "type": "uint256"
        }
      ],
      "name": "processedDurianByDistributor",
      "outputs": [],
      "stateMutability": "nonpayable",
      "type": "function"
    },
    {
      "inputs": [
        {
          "internalType": "uint256",
          "name": "_durianCode",
          "type": "uint256"
        },
        {
          "internalType": "uint256",
          "name": "_durianWeight",
          "type": "uint256"
        },
        {
          "internalType": "string",
          "name": "_durianType",
          "type": "string"
        },
        {
          "internalType": "string",
          "name": "_harvestLocationAddress",
          "type": "string"
        }
      ],
      "name": "produceDurianByHarvester",
      "outputs": [],
      "stateMutability": "nonpayable",
      "type": "function"
    },
    {
      "inputs": [
        {
          "internalType": "uint256",
          "name": "_durianCode",
          "type": "uint256"
        }
      ],
      "name": "purchaseDurianByConsumer",
      "outputs": [],
      "stateMutability": "payable",
      "type": "function"
    },
    {
      "inputs": [
        {
          "internalType": "uint256",
          "name": "_durianCode",
          "type": "uint256"
        }
      ],
      "name": "purchaseDurianByDistributor",
      "outputs": [],
      "stateMutability": "payable",
      "type": "function"
    },
    {
      "inputs": [
        {
          "internalType": "uint256",
          "name": "_durianCode",
          "type": "uint256"
        }
      ],
      "name": "purchaseDurianByRetailer",
      "outputs": [],
      "stateMutability": "payable",
      "type": "function"
    },
    {
      "inputs": [
        {
          "internalType": "uint256",
          "name": "_durianCode",
          "type": "uint256"
        },
        {
          "internalType": "uint8",
          "name": "_taste",
          "type": "uint8"
        },
        {
          "internalType": "uint8",
          "name": "_condition",
          "type": "uint8"
        },
        {
          "internalType": "uint8",
          "name": "_fragrance",
          "type": "uint8"
        },
        {
          "internalType": "uint8",
          "name": "_creaminess",
          "type": "uint8"
        },
        {
          "internalType": "uint8",
          "name": "_ripeness",
          "type": "uint8"
        }
      ],
      "name": "rateDurianFromConsumer",
      "outputs": [],
      "stateMutability": "nonpayable",
      "type": "function"
    },
    {
      "inputs": [
        {
          "internalType": "uint256",
          "name": "_durianCode",
          "type": "uint256"
        }
      ],
      "name": "receivedDurianByDistributor",
      "outputs": [],
      "stateMutability": "nonpayable",
      "type": "function"
    },
    {
      "inputs": [
        {
          "internalType": "uint256",
          "name": "_durianCode",
          "type": "uint256"
        }
      ],
      "name": "receivedDurianByRetailer",
      "outputs": [],
      "stateMutability": "nonpayable",
      "type": "function"
    },
    {
      "inputs": [
        {
          "internalType": "address",
          "name": "account",
          "type": "address"
        }
      ],
      "name": "removeDistributor",
      "outputs": [],
      "stateMutability": "nonpayable",
      "type": "function"
    },
    {
      "inputs": [
        {
          "internalType": "address",
          "name": "account",
          "type": "address"
        }
      ],
      "name": "removeHarvester",
      "outputs": [],
      "stateMutability": "nonpayable",
      "type": "function"
    },
    {
      "inputs": [
        {
          "internalType": "address",
          "name": "account",
          "type": "address"
        }
      ],
      "name": "removeRetailer",
      "outputs": [],
      "stateMutability": "nonpayable",
      "type": "function"
    },
    {
      "inputs": [
        {
          "internalType": "address",
          "name": "account",
          "type": "address"
        }
      ],
      "name": "renounceConsumer",
      "outputs": [],
      "stateMutability": "nonpayable",
      "type": "function"
    },
    {
      "inputs": [
        {
          "internalType": "uint256",
          "name": "_durianCode",
          "type": "uint256"
        },
        {
          "internalType": "uint256",
          "name": "_price",
          "type": "uint256"
        }
      ],
      "name": "sellDurianByDistributor",
      "outputs": [],
      "stateMutability": "nonpayable",
      "type": "function"
    },
    {
      "inputs": [
        {
          "internalType": "uint256",
          "name": "_durianCode",
          "type": "uint256"
        }
      ],
      "name": "sellDurianByHarvester",
      "outputs": [],
      "stateMutability": "nonpayable",
      "type": "function"
    },
    {
      "inputs": [
        {
          "internalType": "uint256",
          "name": "_durianCode",
          "type": "uint256"
        },
        {
          "internalType": "uint256",
          "name": "_price",
          "type": "uint256"
        }
      ],
      "name": "sellDurianByRetailer",
      "outputs": [],
      "stateMutability": "nonpayable",
      "type": "function"
    },
    {
      "inputs": [
        {
          "internalType": "uint256",
          "name": "_durianCode",
          "type": "uint256"
        }
      ],
      "name": "shippedDurianByDistributor",
      "outputs": [],
      "stateMutability": "nonpayable",
      "type": "function"
    },
    {
      "inputs": [
        {
          "internalType": "uint256",
          "name": "_durianCode",
          "type": "uint256"
        }
      ],
      "name": "shippedDurianByHarvester",
      "outputs": [],
      "stateMutability": "nonpayable",
      "type": "function"
    },
    {
      "inputs": [],
      "name": "stockUnit",
      "outputs": [
        {
          "internalType": "uint256",
          "name": "",
          "type": "uint256"
        }
      ],
      "stateMutability": "view",
      "type": "function"
    },
    {
      "inputs": [
        {
          "internalType": "address",
          "name": "newOwner",
          "type": "address"
        }
      ],
      "name": "transferOwnership",
      "outputs": [],
      "stateMutability": "nonpayable",
      "type": "function"
    }
  ],
  "bytecode": "0x6080604052600060065562000014336200004d565b6200001f336200009f565b6200002a33620000f1565b620000353362000143565b600480546001600160a01b03191633179055620002b2565b620000688160006200019560201b62002fde1790919060201c565b6040516001600160a01b038216907f2a6b352b84affc85ec0ab54b71a09c17830148eb8a1c5aeabf5cd5e73ee7c24890600090a250565b620000ba8160016200019560201b62002fde1790919060201c565b6040516001600160a01b038216907fddbf200aa634dc3fb81cfd68583dd1040d1c751d335e1d86b631bde3e977fea890600090a250565b6200010c8160026200019560201b62002fde1790919060201c565b6040516001600160a01b038216907f71ae26cad02663e3d92efd6ec56031a80d74a20c0ab4183faa8bf262261c9baa90600090a250565b6200015e8160036200019560201b62002fde1790919060201c565b6040516001600160a01b038216907f28b26e7a3d20aedbc5f8f2ebf7da671c0491723a2b78f47a097b0e46dee0714290600090a250565b6001600160a01b038116620001fc5760405162461bcd60e51b815260206004820152602260248201527f526f6c65733a206163636f756e7420697320746865207a65726f206164647265604482015261737360f01b60648201526084015b60405180910390fd5b6200020882826200027c565b15620002575760405162461bcd60e51b815260206004820152601f60248201527f526f6c65733a206163636f756e7420616c72656164792068617320726f6c65006044820152606401620001f3565b6001600160a01b0316600090815260209190915260409020805460ff19166001179055565b60006001600160a01b0382166200029257600080fd5b506001600160a01b03166000908152602091909152604090205460ff1690565b61397d80620002c26000396000f3fe60806040526004361061026a5760003560e01c80638da5cb5b11610153578063afe4bc3a116100cb578063f2fde38b1161007f578063f8fa7bb311610064578063f8fa7bb31461076b578063fa013f9f1461078b578063fe8d6b94146107ab57600080fd5b8063f2fde38b1461072b578063f487d48d1461074b57600080fd5b8063b6dbac86116100b0578063b6dbac86146106c9578063bebf21d1146106eb578063e4a004431461070b57600080fd5b8063afe4bc3a14610689578063aff66095146106a957600080fd5b806390f0c75311610122578063a0d6e2bf11610107578063a0d6e2bf146105d8578063a71bbfd514610649578063aca498011461066957600080fd5b806390f0c753146105a55780639c61fc6b146105b857600080fd5b80638da5cb5b1461050d5780638ec4f505146105455780638f0c86fa146105655780638fab59171461058557600080fd5b806357c1f9e2116101e657806370099ec8116101b55780637250e2241161019a5780637250e224146104ad578063828c1180146104cd578063834ff739146104ed57600080fd5b806370099ec81461046e57806370ad03f91461048e57600080fd5b806357c1f9e2146103fb5780635da09b881461041b5780635df04d381461043b578063629b73751461045b57600080fd5b80632b843c5f1161023d5780632f54bf6e116102225780632f54bf6e146103875780633fff5585146103c657806341c0e1b5146103e657600080fd5b80632b843c5f146103005780632cd1446a1461032057600080fd5b80630b6717001461026f578063112940f9146102ab57806311d19185146102cd5780631bc33c5f146102e0575b600080fd5b34801561027b57600080fd5b5061028f61028a366004613624565b6107c1565b6040516102a29796959493929190613807565b60405180910390f35b3480156102b757600080fd5b506102cb6102c63660046135f6565b610adb565b005b6102cb6102db366004613624565b610ae7565b3480156102ec57600080fd5b506102cb6102fb366004613624565b610d74565b34801561030c57600080fd5b506102cb61031b366004613624565b610f0d565b34801561032c57600080fd5b5061034061033b366004613624565b6110a3565b604080519788526001600160a01b03909616602088015260ff94851695870195909552918316606086015282166080850152811660a08401521660c082015260e0016102a2565b34801561039357600080fd5b506103b66103a23660046135f6565b6004546001600160a01b0390811691161490565b60405190151581526020016102a2565b3480156103d257600080fd5b506102cb6103e136600461363c565b6113b6565b3480156103f257600080fd5b506102cb61159a565b34801561040757600080fd5b506102cb6104163660046135f6565b6115c7565b34801561042757600080fd5b506103b66104363660046135f6565b61161b565b34801561044757600080fd5b506102cb610456366004613677565b61162e565b6102cb610469366004613624565b6117c9565b34801561047a57600080fd5b506102cb6104893660046135f6565b611a5d565b34801561049a57600080fd5b506006545b6040519081526020016102a2565b3480156104b957600080fd5b506102cb6104c83660046135f6565b611ab1565b3480156104d957600080fd5b506102cb6104e836600461370c565b611acc565b3480156104f957600080fd5b506103b66105083660046135f6565b611d6b565b34801561051957600080fd5b5060045461052d906001600160a01b031681565b6040516001600160a01b0390911681526020016102a2565b34801561055157600080fd5b506102cb6105603660046135f6565b611d78565b34801561057157600080fd5b506103b66105803660046135f6565b611d93565b34801561059157600080fd5b506102cb6105a03660046135f6565b611da0565b6102cb6105b3366004613624565b611dbb565b3480156105c457600080fd5b506102cb6105d3366004613624565b612044565b3480156105e457600080fd5b5061062e6105f3366004613624565b600081815260086020908152604091829020825160608101845281548082526001830154938201849052600290920154930183905293909250565b604080519384526020840192909252908201526060016102a2565b34801561065557600080fd5b506103b66106643660046135f6565b6121d1565b34801561067557600080fd5b506102cb610684366004613624565b6121dd565b34801561069557600080fd5b5061049f6106a4366004613624565b6123df565b3480156106b557600080fd5b506102cb6106c43660046135f6565b6126dc565b3480156106d557600080fd5b506106de612730565b6040516102a291906137c3565b3480156106f757600080fd5b506102cb610706366004613698565b612801565b34801561071757600080fd5b5061049f610726366004613624565b612b94565b34801561073757600080fd5b506102cb6107463660046135f6565b612bb5565b34801561075757600080fd5b506102cb6107663660046135f6565b612cc3565b34801561077757600080fd5b506102cb610786366004613677565b612ccc565b34801561079757600080fd5b506102cb6107a6366004613624565b612e5d565b3480156107b757600080fd5b5061049f60065481565b6000806060600080600060606000600760008a8152602001908152602001600020604051806103000160405290816000820160009054906101000a90046001600160a01b03166001600160a01b03166001600160a01b031681526020016001820154815260200160028201548152602001600382018054610841906138cb565b80601f016020809104026020016040519081016040528092919081815260200182805461086d906138cb565b80156108ba5780601f1061088f576101008083540402835291602001916108ba565b820191906000526020600020905b81548152906001019060200180831161089d57829003601f168201915b50505091835250506004820154602082015260058201546001600160a01b03166040820152600682015460608201526007820180546080909201916108fe906138cb565b80601f016020809104026020016040519081016040528092919081815260200182805461092a906138cb565b80156109775780601f1061094c57610100808354040283529160200191610977565b820191906000526020600020905b81548152906001019060200180831161095a57829003601f168201915b5050509183525050600882015460209091019060ff16600c8111156109ac57634e487b7160e01b600052602160045260246000fd5b600c8111156109cb57634e487b7160e01b600052602160045260246000fd5b815260088201546001600160a01b03610100918290048116602084015260098401546040840152600a84015460ff90811615156060850152600b8501546080850152600c85015460a0850152600d850154821660c0850152600e85015460e0850152600f8501548385015260108501549091166101208401526011840154610140840152601290930154808416610160840152908104831661018083015262010000810483166101a08301526301000000810483166101c083015264010000000090049091166101e09091015290506000610aa58a6123df565b6020830151835160e085015160c0860151610100870151606090970151939f929e50909c509a5093985090965094509092505050565b610ae4816130bb565b50565b610af03361161b565b610af957600080fd5b80600660008281526007602052604090206008015460ff16600c811115610b3057634e487b7160e01b600052602160045260246000fd5b14610ba85760405162461bcd60e51b815260206004820152603060248201527f44757269616e206973206e6f7420696e2074686520466f7253616c654279446960448201527f737472696275746f722073746174652e0000000000000000000000000000000060648201526084015b60405180910390fd5b60008281526007602052604090206009015434811115610c045760405162461bcd60e51b8152602060048201526017602482015276125b9cdd59999a58da595b9d08199d5b991cc81cd95b9d604a1b6044820152606401610b9f565b823381341015610c505760405162461bcd60e51b8152602060048201526017602482015276125b9cdd59999a58da595b9d08199d5b991cc81cd95b9d604a1b6044820152606401610b9f565b6000610c5c83346138b4565b6040519091506001600160a01b0383169082156108fc029083906000818181858888f19350505050158015610c95573d6000803e3d6000fd5b50600086815260076020526040808220600881015460099091015491516101009091046001600160a01b031692839280156108fc02929091818181858888f19350505050158015610cea573d6000803e3d6000fd5b5060008781526007602081815260408084208054336001600160a01b031991821681178355600d830180549092161790556008908101805460ff1916909417909355918152918190204360019190910155518881527faa7352d10146444c3afd9bd7fb0ae56b0a85e81139536bbec3f1f660fddd7be191015b60405180910390a150505050505050565b610d7d3361161b565b610d8657600080fd5b80600860008281526007602052604090206008015460ff16600c811115610dbd57634e487b7160e01b600052602160045260246000fd5b14610e305760405162461bcd60e51b815260206004820152603060248201527f44757269616e206973206e6f7420696e2074686520536869707065644279446960448201527f737472696275746f722073746174652e000000000000000000000000000000006064820152608401610b9f565b6000828152600760205260409020546001600160a01b0316338114610eb15760405162461bcd60e51b815260206004820152603160248201527f4f6e6c79207468652076657269666965642063616c6c65722063616e207065726044820152703337b936903a3434b99030b1ba34b7b71760791b6064820152608401610b9f565b60008381526007602090815260409182902042600f820155600801805460ff1916600917905590518481527f322f34e90f2269750b3e28178631d975cc678db36f21098fe548b7f755ce0bd091015b60405180910390a1505050565b610f1633611d93565b610f1f57600080fd5b80600760008281526007602052604090206008015460ff16600c811115610f5657634e487b7160e01b600052602160045260246000fd5b14610fc95760405162461bcd60e51b815260206004820152602f60248201527f44757269616e206973206e6f7420696e2074686520507572636861736564427960448201527f52657461696c65722073746174652e00000000000000000000000000000000006064820152608401610b9f565b60008281526007602052604090206008015461010090046001600160a01b03163381146110525760405162461bcd60e51b815260206004820152603160248201527f4f6e6c79207468652076657269666965642063616c6c65722063616e207065726044820152703337b936903a3434b99030b1ba34b7b71760791b6064820152608401610b9f565b60008381526007602052604090206008908101805460ff191660018302179055506040518381527fc5c33776d405e5686e4386e1ef31a65cf6195e4f7ceb8808ab64d05b6ccbc2a690602001610f00565b600080600080600080600080600760008a8152602001908152602001600020604051806103000160405290816000820160009054906101000a90046001600160a01b03166001600160a01b03166001600160a01b031681526020016001820154815260200160028201548152602001600382018054611121906138cb565b80601f016020809104026020016040519081016040528092919081815260200182805461114d906138cb565b801561119a5780601f1061116f5761010080835404028352916020019161119a565b820191906000526020600020905b81548152906001019060200180831161117d57829003601f168201915b50505091835250506004820154602082015260058201546001600160a01b03166040820152600682015460608201526007820180546080909201916111de906138cb565b80601f016020809104026020016040519081016040528092919081815260200182805461120a906138cb565b80156112575780601f1061122c57610100808354040283529160200191611257565b820191906000526020600020905b81548152906001019060200180831161123a57829003601f168201915b5050509183525050600882015460209091019060ff16600c81111561128c57634e487b7160e01b600052602160045260246000fd5b600c8111156112ab57634e487b7160e01b600052602160045260246000fd5b815260088201546001600160a01b0361010091829004811660208085019190915260098501546040850152600a85015460ff90811615156060860152600b8601546080860152600c86015460a0860152600d860154831660c0860152600e86015460e0860152600f8601548486015260108601549092166101208501526011850154610140850152601290940154808216610160850152918204811661018084015262010000820481166101a08401526301000000820481166101c0840152640100000000909104166101e09091015281015181516102608301516102808401516102a08501516102c08601516102e090960151949f939e50919c509a509850919650945092505050565b6113bf33611d93565b6113c857600080fd5b82600460008281526007602052604090206008015460ff16600c8111156113ff57634e487b7160e01b600052602160045260246000fd5b146114725760405162461bcd60e51b815260206004820152603160248201527f44757269616e206973206e6f7420696e2074686520526563656976656442794460448201527f69737472696275746f722073746174652e0000000000000000000000000000006064820152608401610b9f565b6000848152600760205260409020546001600160a01b03163381146114f35760405162461bcd60e51b815260206004820152603160248201527f4f6e6c79207468652076657269666965642063616c6c65722063616e207065726044820152703337b936903a3434b99030b1ba34b7b71760791b6064820152608401610b9f565b6000858152600760205260409020600a01805460ff191685151590811790915561152e576000858152600760205260408120600b0155611543565b6000858152600760205260409020600b018390555b600085815260076020908152604091829020600801805460ff1916600517905590518681527f5725e53fd0efed5294b7db2af148f040264a63630b4deb0afbccf6e60830988a910160405180910390a15050505050565b6004546001600160a01b0316336001600160a01b031614156115c5576004546001600160a01b031680ff5b565b6115d033611d93565b6115d957600080fd5b6115e46001826130fd565b6040516001600160a01b038216907f126174f6cf49c81cdb4a9214c6b8f037bef55b4ec31e4fc776cea2a1c8a88d5990600090a250565b60006116286002836131fc565b92915050565b6116373361161b565b61164057600080fd5b81600960008281526007602052604090206008015460ff16600c81111561167757634e487b7160e01b600052602160045260246000fd5b146116ea5760405162461bcd60e51b815260206004820152602e60248201527f44757269616e206973206e6f7420696e2074686520526563656976656442795260448201527f657461696c65722073746174652e0000000000000000000000000000000000006064820152608401610b9f565b6000838152600760205260409020546001600160a01b031633811461176b5760405162461bcd60e51b815260206004820152603160248201527f4f6e6c79207468652076657269666965642063616c6c65722063616e207065726044820152703337b936903a3434b99030b1ba34b7b71760791b6064820152608401610b9f565b60008481526007602090815260409182902060088101805460ff1916600a179055600e0185905590518581527f59e7ad085805e2b02ad4b0f8033bd75e7ee4c8cd43f996267463585e3589625291015b60405180910390a150505050565b6117d233611d93565b6117db57600080fd5b80600160008281526007602052604090206008015460ff16600c81111561181257634e487b7160e01b600052602160045260246000fd5b146118765760405162461bcd60e51b815260206004820152602e60248201527f44757269616e206973206e6f7420696e2074686520466f7253616c654279486160448201526d393b32b9ba32b91039ba30ba329760911b6064820152608401610b9f565b600082815260076020526040902060040154348111156118d25760405162461bcd60e51b8152602060048201526017602482015276125b9cdd59999a58da595b9d08199d5b991cc81cd95b9d604a1b6044820152606401610b9f565b600083815260076020526040902060040154338134101561192f5760405162461bcd60e51b8152602060048201526017602482015276125b9cdd59999a58da595b9d08199d5b991cc81cd95b9d604a1b6044820152606401610b9f565b600061193b83346138b4565b6040519091506001600160a01b0383169082156108fc029083906000818181858888f19350505050158015611974573d6000803e3d6000fd5b50600086815260076020526040808220600581015460049091015491516001600160a01b039091169283926108fc811502929091818181858888f193505050501580156119c5573d6000803e3d6000fd5b50600087815260076020908152604080832080546001600160a01b03191633908117825560089182018054600261010090930260ff19167fffffffffffffffffffffff0000000000000000000000000000000000000000009091161791909117905582529182902043905590518881527facd9402b9f9e8c15fa7c1819f8393ca56eb61316cc354fc6ac2150aed3ce79319101610d63565b611a663361161b565b611a6f57600080fd5b611a7a6002826130fd565b6040516001600160a01b038216907fdb7176e79cffef81cb01767dd0447a0b24bb72ca9778d4b245581086b2a7e6db90600090a250565b611aba33611d93565b611ac357600080fd5b610ae481613231565b85600b60008281526007602052604090206008015460ff16600c811115611b0357634e487b7160e01b600052602160045260246000fd5b14611b765760405162461bcd60e51b815260206004820152602f60248201527f44757269616e206973206e6f7420696e2074686520507572636861736564427960448201527f436f6e73756d65722073746174652e00000000000000000000000000000000006064820152608401610b9f565b6000878152600760205260409020546001600160a01b0316338114611bf75760405162461bcd60e51b815260206004820152603160248201527f4f6e6c79207468652076657269666965642063616c6c65722063616e207065726044820152703337b936903a3434b99030b1ba34b7b71760791b6064820152608401610b9f565b86600760008a815260200190815260200160002060120160006101000a81548160ff021916908360ff16021790555085600760008a815260200190815260200160002060120160016101000a81548160ff021916908360ff16021790555084600760008a815260200190815260200160002060120160026101000a81548160ff021916908360ff16021790555083600760008a815260200190815260200160002060120160036101000a81548160ff021916908360ff16021790555082600760008a815260200190815260200160002060120160046101000a81548160ff021916908360ff160217905550600c600760008a815260200190815260200160002060080160006101000a81548160ff0219169083600c811115611d2957634e487b7160e01b600052602160045260246000fd5b02179055506040518881527fc7e94446a942a0541d0224ece380a730c85f03db7188fca783225da9255929f79060200160405180910390a15050505050505050565b60006116286003836131fc565b611d813361161b565b611d8a57600080fd5b610ae481613273565b60006116286001836131fc565b611da9336121d1565b611db257600080fd5b610ae4816132b5565b80600a60008281526007602052604090206008015460ff16600c811115611df257634e487b7160e01b600052602160045260246000fd5b14611e655760405162461bcd60e51b815260206004820152602d60248201527f44757269616e206973206e6f7420696e2074686520466f7253616c654279526560448201527f7461696c65722073746174652e000000000000000000000000000000000000006064820152608401610b9f565b6000828152600760205260409020600e015434811115611ec15760405162461bcd60e51b8152602060048201526017602482015276125b9cdd59999a58da595b9d08199d5b991cc81cd95b9d604a1b6044820152606401610b9f565b6000838152600760205260409020600e01543381341015611f1e5760405162461bcd60e51b8152602060048201526017602482015276125b9cdd59999a58da595b9d08199d5b991cc81cd95b9d604a1b6044820152606401610b9f565b6000611f2a83346138b4565b6040519091506001600160a01b0383169082156108fc029083906000818181858888f19350505050158015611f63573d6000803e3d6000fd5b506000868152600760205260408082206010810180546001600160a01b03191633179055600d810154600e9091015491516001600160a01b03919091169283926108fc811502929091818181858888f19350505050158015611fc9573d6000803e3d6000fd5b5060008781526007602090815260408083208054336001600160a01b0319918216811783556010830180549092161790556008908101805460ff1916600b1790558252918290204360029091015590518881527fc7e94446a942a0541d0224ece380a730c85f03db7188fca783225da9255929f79101610d63565b61204d336121d1565b61205657600080fd5b80600260008281526007602052604090206008015460ff16600c81111561208d57634e487b7160e01b600052602160045260246000fd5b146121005760405162461bcd60e51b815260206004820152603260248201527f44757269616e206973206e6f7420696e2074686520507572636861736564427960448201527f4469737472696275746f722073746174652e00000000000000000000000000006064820152608401610b9f565b6000828152600760205260409020600501546001600160a01b03163381146121845760405162461bcd60e51b815260206004820152603160248201527f4f6e6c79207468652076657269666965642063616c6c65722063616e207065726044820152703337b936903a3434b99030b1ba34b7b71760791b6064820152608401610b9f565b600083815260076020908152604091829020600801805460ff1916600317905590518481527f51c097b0018d62788fa545fa4a1d4da21348f51fa65254d6def7b3b6bd71820d9101610f00565b600061162881836131fc565b6121e6336121d1565b6121ef57600080fd5b806000808281526007602052604090206008015460ff16600c81111561222557634e487b7160e01b600052602160045260246000fd5b146122895760405162461bcd60e51b815260206004820152602e60248201527f44757269616e206973206e6f7420696e207468652050726f647563654279486160448201526d393b32b9ba32b91039ba30ba329760911b6064820152608401610b9f565b600082815260076020526040902060010154829081146123115760405162461bcd60e51b815260206004820152602960248201527f44757269616e20776974682074686520676976656e20636f646520646f65732060448201527f6e6f7420657869737400000000000000000000000000000000000000000000006064820152608401610b9f565b6000838152600760205260409020546001600160a01b03163381146123925760405162461bcd60e51b815260206004820152603160248201527f4f6e6c79207468652076657269666965642063616c6c65722063616e207065726044820152703337b936903a3434b99030b1ba34b7b71760791b6064820152608401610b9f565b600084815260076020908152604091829020600801805460ff1916600117905590518581527fea4031d0e152254ad0cc1d39c2266dfd6ae91966a70ed269579da8b72cb447bc91016117bb565b600081815260076020908152604080832081516103008101835281546001600160a01b03168152600182015493810193909352600281015491830191909152600381018054849392916060840191612436906138cb565b80601f0160208091040260200160405190810160405280929190818152602001828054612462906138cb565b80156124af5780601f10612484576101008083540402835291602001916124af565b820191906000526020600020905b81548152906001019060200180831161249257829003601f168201915b50505091835250506004820154602082015260058201546001600160a01b03166040820152600682015460608201526007820180546080909201916124f3906138cb565b80601f016020809104026020016040519081016040528092919081815260200182805461251f906138cb565b801561256c5780601f106125415761010080835404028352916020019161256c565b820191906000526020600020905b81548152906001019060200180831161254f57829003601f168201915b5050509183525050600882015460209091019060ff16600c8111156125a157634e487b7160e01b600052602160045260246000fd5b600c8111156125c057634e487b7160e01b600052602160045260246000fd5b815260088201546001600160a01b03610100918290048116602084015260098401546040840152600a84015460ff90811615156060850152600b8501546080850152600c85015460a0850152600d850154821660c0850152600e85015460e0850152600f8501548385015260108501549091166101208401526011840154610140840152601290930154808416610160840152908104831661018083015262010000810483166101a08301526301000000810483166101c083015264010000000090049091166101e091820152810151909150156126a3576101e0015192915050565b610140810151156126b957610140015192915050565b6080810151156126cd576080015192915050565b50600092915050565b50919050565b6126e5336121d1565b6126ee57600080fd5b6126f96000826130fd565b6040516001600160a01b038216907f78af5e2bc1f182518b5a494aa807f782e7a2026ab85683d13ce592896a52922f90600090a250565b60095460609060009067ffffffffffffffff81111561275f57634e487b7160e01b600052604160045260246000fd5b604051908082528060200260200182016040528015612788578160200160208202803683370190505b50905060005b6009548110156126d657600981815481106127b957634e487b7160e01b600052603260045260246000fd5b90600052602060002001548282815181106127e457634e487b7160e01b600052603260045260246000fd5b6020908102919091010152806127f981613900565b91505061278e565b61280a336121d1565b61281357600080fd5b60008060006128206133d2565b338082526020820189905260a0820152604081018790526060810186905260e081018590524260c082015261285c876611c37937e08000613895565b6080820152600061010082018190526001600160a01b038581166101208401528481166101c084015283811661022084015289825260076020908152604092839020845181546001600160a01b03191693169290921782558084015160018301559183015160028201556060830151805184936128e09260038501929101906134c0565b506080820151600482015560a08201516005820180546001600160a01b0319166001600160a01b0390921691909117905560c0820151600682015560e082015180516129369160078401916020909101906134c0565b5061010082015160088201805460ff1916600183600c81111561296957634e487b7160e01b600052602160045260246000fd5b0217905550610120820151600882810180546001600160a01b039384166101009081027fffffffffffffffffffffff0000000000000000000000000000000000000000ff90921691909117909155610140850151600980860191909155610160860151600a8601805491151560ff19909216919091179055610180860151600b8601556101a0860151600c8601556101c0860151600d860180549186166001600160a01b03199283161790556101e0870151600e870155610200870151600f870155610220870151601087018054919096169116179093556102408501516011850155610260850151601290940180546102808701516102a08801516102c08901516102e09099015160ff9081166401000000000264ff00000000199a821663010000000263ff0000001993831662010000029390931663ffff00001994831690970261ffff19909516919099161792909217169290921791909117949094169290921790925560408051606081018252600080825260208083018281528385018381528f8452959091529281208251815592516001848101919091559351600290930192909255835480840185559382527f6e1540171b6c0c960b71a7020d9f60077f6af931a8bbf590da0223dacf75c7af9093018b9055600654909291612b52919061387d565b6006556040518a81527fa20cf5c0cc38eede6efacb85f9f76c7f8763bb01a4b43287a21fe5df6fe8615b9060200160405180910390a150505050505050505050565b60098181548110612ba457600080fd5b600091825260209091200154905081565b6004546001600160a01b0316336001600160a01b031614612c3e5760405162461bcd60e51b815260206004820152602760248201527f4f6e6c7920746865206f776e65722063616e20706572666f726d20746869732060448201527f616374696f6e2e000000000000000000000000000000000000000000000000006064820152608401610b9f565b6001600160a01b038116612cba5760405162461bcd60e51b815260206004820152602660248201527f4f776e61626c653a206e6577206f776e657220697320746865207a65726f206160448201527f64647265737300000000000000000000000000000000000000000000000000006064820152608401610b9f565b610ae4816132f7565b610ae481613390565b612cd533611d93565b612cde57600080fd5b81600560008281526007602052604090206008015460ff16600c811115612d1557634e487b7160e01b600052602160045260246000fd5b14612d885760405162461bcd60e51b815260206004820152603260248201527f44757269616e206973206e6f7420696e207468652050726f636573736564427960448201527f4469737472696275746f722073746174652e00000000000000000000000000006064820152608401610b9f565b6000838152600760205260409020546001600160a01b0316338114612e095760405162461bcd60e51b815260206004820152603160248201527f4f6e6c79207468652076657269666965642063616c6c65722063616e207065726044820152703337b936903a3434b99030b1ba34b7b71760791b6064820152608401610b9f565b60008481526007602090815260409182902060088101805460ff1916600617905560090185905590518581527f539b4a835a8a5d1bc5756a9f146e2bfeaa6bd6b1fa77a7631c0a5154c86cdd0391016117bb565b612e6633611d93565b612e6f57600080fd5b80600360008281526007602052604090206008015460ff16600c811115612ea657634e487b7160e01b600052602160045260246000fd5b14612f0a5760405162461bcd60e51b815260206004820152602e60248201527f44757269616e206973206e6f7420696e2074686520536869707065644279486160448201526d393b32b9ba32b91039ba30ba329760911b6064820152608401610b9f565b6000828152600760205260409020546001600160a01b0316338114612f8b5760405162461bcd60e51b815260206004820152603160248201527f4f6e6c79207468652076657269666965642063616c6c65722063616e207065726044820152703337b936903a3434b99030b1ba34b7b71760791b6064820152608401610b9f565b60008381526007602090815260409182902042600c820155600801805460ff1916600417905590518481527fc8ca2150e6e1849a10ef5aa4932060fa353bcacdffeb150c9e1890c6ab9403cc9101610f00565b6001600160a01b03811661303f5760405162461bcd60e51b815260206004820152602260248201527f526f6c65733a206163636f756e7420697320746865207a65726f206164647265604482015261737360f01b6064820152608401610b9f565b61304982826131fc565b156130965760405162461bcd60e51b815260206004820152601f60248201527f526f6c65733a206163636f756e7420616c72656164792068617320726f6c65006044820152606401610b9f565b6001600160a01b0316600090815260209190915260409020805460ff19166001179055565b6130c6600382612fde565b6040516001600160a01b038216907f28b26e7a3d20aedbc5f8f2ebf7da671c0491723a2b78f47a097b0e46dee0714290600090a250565b6001600160a01b03811661315e5760405162461bcd60e51b815260206004820152602260248201527f526f6c65733a206163636f756e7420697320746865207a65726f206164647265604482015261737360f01b6064820152608401610b9f565b61316882826131fc565b6131da5760405162461bcd60e51b815260206004820152602160248201527f526f6c65733a206163636f756e7420646f6573206e6f74206861766520726f6c60448201527f65000000000000000000000000000000000000000000000000000000000000006064820152608401610b9f565b6001600160a01b0316600090815260209190915260409020805460ff19169055565b60006001600160a01b03821661321157600080fd5b506001600160a01b03166000908152602091909152604090205460ff1690565b61323c600182612fde565b6040516001600160a01b038216907fddbf200aa634dc3fb81cfd68583dd1040d1c751d335e1d86b631bde3e977fea890600090a250565b61327e600282612fde565b6040516001600160a01b038216907f71ae26cad02663e3d92efd6ec56031a80d74a20c0ab4183faa8bf262261c9baa90600090a250565b6132c0600082612fde565b6040516001600160a01b038216907f2a6b352b84affc85ec0ab54b71a09c17830148eb8a1c5aeabf5cd5e73ee7c24890600090a250565b600480546001600160a01b038381166001600160a01b03198316179092551661331f82611ab1565b61332882611da0565b61333182611d78565b61333a816115c7565b613343816126dc565b61334c81611a5d565b816001600160a01b0316816001600160a01b03167f8be0079c531659141344cd1fd0a4f28419497f9722a3daafe3b4186f6b6457e060405160405180910390a35050565b61339b6003826130fd565b6040516001600160a01b038216907fe3f5ed5f263f1f01764a96edfc7d025f511ec5f7d180e8816908b78bcf74f09890600090a250565b60405180610300016040528060006001600160a01b031681526020016000815260200160008152602001606081526020016000815260200160006001600160a01b0316815260200160008152602001606081526020016000600c81111561344957634e487b7160e01b600052602160045260246000fd5b815260006020820181905260408201819052606082018190526080820181905260a0820181905260c0820181905260e08201819052610100820181905261012082018190526101408201819052610160820181905261018082018190526101a082018190526101c082018190526101e09091015290565b8280546134cc906138cb565b90600052602060002090601f0160209004810192826134ee5760008555613534565b82601f1061350757805160ff1916838001178555613534565b82800160010185558215613534579182015b82811115613534578251825591602001919060010190613519565b50613540929150613544565b5090565b5b808211156135405760008155600101613545565b600082601f830112613569578081fd5b813567ffffffffffffffff8082111561358457613584613931565b604051601f8301601f19908116603f011681019082821181831017156135ac576135ac613931565b816040528381528660208588010111156135c4578485fd5b8360208701602083013792830160200193909352509392505050565b803560ff811681146135f157600080fd5b919050565b600060208284031215613607578081fd5b81356001600160a01b038116811461361d578182fd5b9392505050565b600060208284031215613635578081fd5b5035919050565b600080600060608486031215613650578182fd5b8335925060208401358015158114613666578283fd5b929592945050506040919091013590565b60008060408385031215613689578182fd5b50508035926020909101359150565b600080600080608085870312156136ad578081fd5b8435935060208501359250604085013567ffffffffffffffff808211156136d2578283fd5b6136de88838901613559565b935060608701359150808211156136f3578283fd5b5061370087828801613559565b91505092959194509250565b60008060008060008060c08789031215613724578182fd5b86359550613734602088016135e0565b9450613742604088016135e0565b9350613750606088016135e0565b925061375e608088016135e0565b915061376c60a088016135e0565b90509295509295509295565b60008151808452815b8181101561379d57602081850181015186830182015201613781565b818111156137ae5782602083870101525b50601f01601f19169290920160200192915050565b6020808252825182820181905260009190848201906040850190845b818110156137fb578351835292840192918401916001016137df565b50909695505050505050565b8781526001600160a01b038716602082015260e06040820152600061382f60e0830188613778565b866060840152600d861061385157634e487b7160e01b82526021600452602482fd5b8560808401528460a084015282810360c084015261386f8185613778565b9a9950505050505050505050565b600082198211156138905761389061391b565b500190565b60008160001904831182151516156138af576138af61391b565b500290565b6000828210156138c6576138c661391b565b500390565b600181811c908216806138df57607f821691505b602082108114156126d657634e487b7160e01b600052602260045260246000fd5b60006000198214156139145761391461391b565b5060010190565b634e487b7160e01b600052601160045260246000fd5b634e487b7160e01b600052604160045260246000fdfea2646970667358221220950addcfac149afe1d7a1700e335325e77c8a5435a527fba350cdba03714ab0f64736f6c63430008040033",
  "linkReferences": {},
  "deployedLinkReferences": {}
}