{
  "_format": "hh-sol-artifact-1",
  "contractName": "HarvesterRole",
  "sourceName": "contracts/access/HarvesterRole.sol",
  "abi": [
    {
      "inputs": [],
      "stateMutability": "nonpayable",
      "type": "constructor"
    },
    {
      "anonymous": false,
      "inputs": [
        {
          "indexed": true,
          "internalType": "address",
          "name": "harvester",
          "type": "address"
        },
        {
          "indexed": true,
          "internalType": "address",
          "name": "account",
          "type": "address"
        }
      ],
      "name": "DistributorAddedByHarvester",
      "type": "event"
    },
    {
      "anonymous": false,
      "inputs": [
        {
          "indexed": true,
          "internalType": "address",
          "name": "account",
          "type": "address"
        }
      ],
      "name": "HarvesterAdded",
      "type": "event"
    },
    {
      "anonymous": false,
      "inputs": [
        {
          "indexed": true,
          "internalType": "address",
          "name": "account",
          "type": "address"
        }
      ],
      "name": "HarvesterRemoved",
      "type": "event"
    },
    {
      "inputs": [
        {
          "internalType": "address",
          "name": "account",
          "type": "address"
        }
      ],
      "name": "addHarvester",
      "outputs": [],
      "stateMutability": "nonpayable",
      "type": "function"
    },
    {
      "inputs": [
        {
          "internalType": "address",
          "name": "account",
          "type": "address"
        }
      ],
      "name": "isHarvester",
      "outputs": [
        {
          "internalType": "bool",
          "name": "",
          "type": "bool"
        }
      ],
      "stateMutability": "view",
      "type": "function"
    },
    {
      "inputs": [
        {
          "internalType": "address",
          "name": "account",
          "type": "address"
        }
      ],
      "name": "removeHarvester",
      "outputs": [],
      "stateMutability": "nonpayable",
      "type": "function"
    }
  ],
  "bytecode": "0x608060405234801561001057600080fd5b5061002d61002261003260201b60201c565b61003a60201b60201c565b610357565b600033905090565b61005281600061009860201b6101631790919060201c565b8073ffffffffffffffffffffffffffffffffffffffff167f2a6b352b84affc85ec0ab54b71a09c17830148eb8a1c5aeabf5cd5e73ee7c24860405160405180910390a250565b600073ffffffffffffffffffffffffffffffffffffffff168173ffffffffffffffffffffffffffffffffffffffff161415610108576040517f08c379a00000000000000000000000000000000000000000000000000000000081526004016100ff906102ae565b60405180910390fd5b61011882826101b660201b60201c565b15610158576040517f08c379a000000000000000000000000000000000000000000000000000000000815260040161014f9061028e565b60405180910390fd5b60018260000160008373ffffffffffffffffffffffffffffffffffffffff1673ffffffffffffffffffffffffffffffffffffffff16815260200190815260200160002060006101000a81548160ff0219169083151502179055505050565b60008073ffffffffffffffffffffffffffffffffffffffff168273ffffffffffffffffffffffffffffffffffffffff1614156101f157600080fd5b8260000160008373ffffffffffffffffffffffffffffffffffffffff1673ffffffffffffffffffffffffffffffffffffffff16815260200190815260200160002060009054906101000a900460ff16905092915050565b6000610255601f836102ce565b9150610260826102df565b602082019050919050565b60006102786022836102ce565b915061028382610308565b604082019050919050565b600060208201905081810360008301526102a781610248565b9050919050565b600060208201905081810360008301526102c78161026b565b9050919050565b600082825260208201905092915050565b7f526f6c65733a206163636f756e7420616c72656164792068617320726f6c6500600082015250565b7f526f6c65733a206163636f756e7420697320746865207a65726f20616464726560008201527f7373000000000000000000000000000000000000000000000000000000000000602082015250565b61071a806103666000396000f3fe608060405234801561001057600080fd5b50600436106100415760003560e01c80638fab591714610046578063a71bbfd514610062578063aff6609514610092575b600080fd5b610060600480360381019061005b919061049b565b6100ae565b005b61007c6004803603810190610077919061049b565b6100d3565b604051610089919061053c565b60405180910390f35b6100ac60048036038101906100a7919061049b565b6100f0565b005b6100be6100b961027b565b6100d3565b6100c757600080fd5b6100d081610283565b50565b60006100e98260006102dd90919063ffffffff16565b9050919050565b6101006100fb61027b565b6100d3565b61010957600080fd5b61011d81600061036f90919063ffffffff16565b8073ffffffffffffffffffffffffffffffffffffffff167f78af5e2bc1f182518b5a494aa807f782e7a2026ab85683d13ce592896a52922f60405160405180910390a250565b600073ffffffffffffffffffffffffffffffffffffffff168173ffffffffffffffffffffffffffffffffffffffff1614156101d3576040517f08c379a00000000000000000000000000000000000000000000000000000000081526004016101ca90610597565b60405180910390fd5b6101dd82826102dd565b1561021d576040517f08c379a000000000000000000000000000000000000000000000000000000000815260040161021490610557565b60405180910390fd5b60018260000160008373ffffffffffffffffffffffffffffffffffffffff1673ffffffffffffffffffffffffffffffffffffffff16815260200190815260200160002060006101000a81548160ff0219169083151502179055505050565b600033905090565b61029781600061016390919063ffffffff16565b8073ffffffffffffffffffffffffffffffffffffffff167f2a6b352b84affc85ec0ab54b71a09c17830148eb8a1c5aeabf5cd5e73ee7c24860405160405180910390a250565b60008073ffffffffffffffffffffffffffffffffffffffff168273ffffffffffffffffffffffffffffffffffffffff16141561031857600080fd5b8260000160008373ffffffffffffffffffffffffffffffffffffffff1673ffffffffffffffffffffffffffffffffffffffff16815260200190815260200160002060009054906101000a900460ff16905092915050565b600073ffffffffffffffffffffffffffffffffffffffff168173ffffffffffffffffffffffffffffffffffffffff1614156103df576040517f08c379a00000000000000000000000000000000000000000000000000000000081526004016103d690610597565b60405180910390fd5b6103e982826102dd565b610428576040517f08c379a000000000000000000000000000000000000000000000000000000000815260040161041f90610577565b60405180910390fd5b60008260000160008373ffffffffffffffffffffffffffffffffffffffff1673ffffffffffffffffffffffffffffffffffffffff16815260200190815260200160002060006101000a81548160ff0219169083151502179055505050565b600081359050610495816106cd565b92915050565b6000602082840312156104ad57600080fd5b60006104bb84828501610486565b91505092915050565b6104cd816105da565b82525050565b60006104e0601f836105b7565b91506104eb82610606565b602082019050919050565b60006105036021836105b7565b915061050e8261062f565b604082019050919050565b60006105266022836105b7565b91506105318261067e565b604082019050919050565b600060208201905061055160008301846104c4565b92915050565b60006020820190508181036000830152610570816104d3565b9050919050565b60006020820190508181036000830152610590816104f6565b9050919050565b600060208201905081810360008301526105b081610519565b9050919050565b600082825260208201905092915050565b60006105d3826105e6565b9050919050565b60008115159050919050565b600073ffffffffffffffffffffffffffffffffffffffff82169050919050565b7f526f6c65733a206163636f756e7420616c72656164792068617320726f6c6500600082015250565b7f526f6c65733a206163636f756e7420646f6573206e6f74206861766520726f6c60008201527f6500000000000000000000000000000000000000000000000000000000000000602082015250565b7f526f6c65733a206163636f756e7420697320746865207a65726f20616464726560008201527f7373000000000000000000000000000000000000000000000000000000000000602082015250565b6106d6816105c8565b81146106e157600080fd5b5056fea2646970667358221220ed3f6163b79612079cd1ca496198f7b19a3e1e6bda7d0ca0731a4c168bcdc8db64736f6c63430008040033",
  "linkReferences": {},
  "deployedLinkReferences": {}
}