{
  "_format": "hh-sol-artifact-1",
  "contractName": "HarvesterRole",
  "sourceName": "contracts/access/HarvesterRole.sol",
  "abi": [
    {
      "inputs": [],
      "stateMutability": "nonpayable",
      "type": "constructor"
    },
    {
      "anonymous": false,
      "inputs": [
        {
          "indexed": true,
          "internalType": "address",
          "name": "harvester",
          "type": "address"
        },
        {
          "indexed": true,
          "internalType": "address",
          "name": "account",
          "type": "address"
        }
      ],
      "name": "DistributorAddedByHarvester",
      "type": "event"
    },
    {
      "anonymous": false,
      "inputs": [
        {
          "indexed": true,
          "internalType": "address",
          "name": "account",
          "type": "address"
        }
      ],
      "name": "HarvesterAdded",
      "type": "event"
    },
    {
      "anonymous": false,
      "inputs": [
        {
          "indexed": true,
          "internalType": "address",
          "name": "account",
          "type": "address"
        }
      ],
      "name": "HarvesterRemoved",
      "type": "event"
    },
    {
      "inputs": [
        {
          "internalType": "address",
          "name": "account",
          "type": "address"
        }
      ],
      "name": "addHarvester",
      "outputs": [],
      "stateMutability": "nonpayable",
      "type": "function"
    },
    {
      "inputs": [
        {
          "internalType": "address",
          "name": "account",
          "type": "address"
        }
      ],
      "name": "isHarvester",
      "outputs": [
        {
          "internalType": "bool",
          "name": "",
          "type": "bool"
        }
      ],
      "stateMutability": "view",
      "type": "function"
    },
    {
      "inputs": [
        {
          "internalType": "address",
          "name": "account",
          "type": "address"
        }
      ],
      "name": "removeHarvester",
      "outputs": [],
      "stateMutability": "nonpayable",
      "type": "function"
    }
  ],
  "bytecode": "0x608060405234801561001057600080fd5b5061001a3361001f565b610185565b61003781600061006e60201b6101191790919060201c565b6040516001600160a01b038216907f2a6b352b84affc85ec0ab54b71a09c17830148eb8a1c5aeabf5cd5e73ee7c24890600090a250565b6001600160a01b0381166100d45760405162461bcd60e51b815260206004820152602260248201527f526f6c65733a206163636f756e7420697320746865207a65726f206164647265604482015261737360f01b60648201526084015b60405180910390fd5b6100de8282610150565b1561012b5760405162461bcd60e51b815260206004820152601f60248201527f526f6c65733a206163636f756e7420616c72656164792068617320726f6c650060448201526064016100cb565b6001600160a01b0316600090815260209190915260409020805460ff19166001179055565b60006001600160a01b03821661016557600080fd5b506001600160a01b03166000908152602091909152604090205460ff1690565b6103d5806101946000396000f3fe608060405234801561001057600080fd5b50600436106100415760003560e01c80638fab591714610046578063a71bbfd51461005b578063aff6609514610082575b600080fd5b610059610054366004610371565b610095565b005b61006e610069366004610371565b6100b3565b604051901515815260200160405180910390f35b610059610090366004610371565b6100c5565b61009e336100b3565b6100a757600080fd5b6100b0816101fb565b50565b60006100bf818361023d565b92915050565b6100ce336100b3565b6100d757600080fd5b6100e2600082610272565b6040516001600160a01b038216907f78af5e2bc1f182518b5a494aa807f782e7a2026ab85683d13ce592896a52922f90600090a250565b6001600160a01b03811661017f5760405162461bcd60e51b815260206004820152602260248201527f526f6c65733a206163636f756e7420697320746865207a65726f206164647265604482015261737360f01b60648201526084015b60405180910390fd5b610189828261023d565b156101d65760405162461bcd60e51b815260206004820152601f60248201527f526f6c65733a206163636f756e7420616c72656164792068617320726f6c65006044820152606401610176565b6001600160a01b0316600090815260209190915260409020805460ff19166001179055565b610206600082610119565b6040516001600160a01b038216907f2a6b352b84affc85ec0ab54b71a09c17830148eb8a1c5aeabf5cd5e73ee7c24890600090a250565b60006001600160a01b03821661025257600080fd5b506001600160a01b03166000908152602091909152604090205460ff1690565b6001600160a01b0381166102d35760405162461bcd60e51b815260206004820152602260248201527f526f6c65733a206163636f756e7420697320746865207a65726f206164647265604482015261737360f01b6064820152608401610176565b6102dd828261023d565b61034f5760405162461bcd60e51b815260206004820152602160248201527f526f6c65733a206163636f756e7420646f6573206e6f74206861766520726f6c60448201527f65000000000000000000000000000000000000000000000000000000000000006064820152608401610176565b6001600160a01b0316600090815260209190915260409020805460ff19169055565b600060208284031215610382578081fd5b81356001600160a01b0381168114610398578182fd5b939250505056fea264697066735822122065ce8557fb37ce2e6777f6c413f692967c3db0a81826b1a07510e0efd813d69664736f6c63430008040033",
  "linkReferences": {},
  "deployedLinkReferences": {}
}