{
  "_format": "hh-sol-artifact-1",
  "contractName": "ConsumerRole",
  "sourceName": "contracts/access/ConsumerRole.sol",
  "abi": [
    {
      "inputs": [],
      "stateMutability": "nonpayable",
      "type": "constructor"
    },
    {
      "anonymous": false,
      "inputs": [
        {
          "indexed": true,
          "internalType": "address",
          "name": "account",
          "type": "address"
        }
      ],
      "name": "ConsumerAdded",
      "type": "event"
    },
    {
      "anonymous": false,
      "inputs": [
        {
          "indexed": true,
          "internalType": "address",
          "name": "account",
          "type": "address"
        }
      ],
      "name": "ConsumerRemoved",
      "type": "event"
    },
    {
      "inputs": [
        {
          "internalType": "address",
          "name": "account",
          "type": "address"
        }
      ],
      "name": "addConsumer",
      "outputs": [],
      "stateMutability": "nonpayable",
      "type": "function"
    },
    {
      "inputs": [
        {
          "internalType": "address",
          "name": "account",
          "type": "address"
        }
      ],
      "name": "isConsumer",
      "outputs": [
        {
          "internalType": "bool",
          "name": "",
          "type": "bool"
        }
      ],
      "stateMutability": "view",
      "type": "function"
    },
    {
      "inputs": [
        {
          "internalType": "address",
          "name": "account",
          "type": "address"
        }
      ],
      "name": "renounceConsumer",
      "outputs": [],
      "stateMutability": "nonpayable",
      "type": "function"
    }
  ],
  "bytecode": "0x608060405234801561001057600080fd5b5061001a3361001f565b610185565b61003781600061006e60201b6100bc1790919060201c565b6040516001600160a01b038216907f28b26e7a3d20aedbc5f8f2ebf7da671c0491723a2b78f47a097b0e46dee0714290600090a250565b6001600160a01b0381166100d45760405162461bcd60e51b815260206004820152602260248201527f526f6c65733a206163636f756e7420697320746865207a65726f206164647265604482015261737360f01b60648201526084015b60405180910390fd5b6100de8282610150565b1561012b5760405162461bcd60e51b815260206004820152601f60248201527f526f6c65733a206163636f756e7420616c72656164792068617320726f6c650060448201526064016100cb565b6001600160a01b0316600090815260209190915260409020805460ff19166001179055565b60006001600160a01b03821661016557600080fd5b506001600160a01b03166000908152602091909152604090205460ff1690565b6103ba806101946000396000f3fe608060405234801561001057600080fd5b50600436106100415760003560e01c8063112940f914610046578063834ff7391461005b578063f487d48d14610082575b600080fd5b610059610054366004610356565b610095565b005b61006e610069366004610356565b6100a1565b604051901515815260200160405180910390f35b610059610090366004610356565b6100b3565b61009e8161019e565b50565b60006100ad81836101e0565b92915050565b61009e81610215565b6001600160a01b0381166101225760405162461bcd60e51b815260206004820152602260248201527f526f6c65733a206163636f756e7420697320746865207a65726f206164647265604482015261737360f01b60648201526084015b60405180910390fd5b61012c82826101e0565b156101795760405162461bcd60e51b815260206004820152601f60248201527f526f6c65733a206163636f756e7420616c72656164792068617320726f6c65006044820152606401610119565b6001600160a01b0316600090815260209190915260409020805460ff19166001179055565b6101a96000826100bc565b6040516001600160a01b038216907f28b26e7a3d20aedbc5f8f2ebf7da671c0491723a2b78f47a097b0e46dee0714290600090a250565b60006001600160a01b0382166101f557600080fd5b506001600160a01b03166000908152602091909152604090205460ff1690565b610220600082610257565b6040516001600160a01b038216907fe3f5ed5f263f1f01764a96edfc7d025f511ec5f7d180e8816908b78bcf74f09890600090a250565b6001600160a01b0381166102b85760405162461bcd60e51b815260206004820152602260248201527f526f6c65733a206163636f756e7420697320746865207a65726f206164647265604482015261737360f01b6064820152608401610119565b6102c282826101e0565b6103345760405162461bcd60e51b815260206004820152602160248201527f526f6c65733a206163636f756e7420646f6573206e6f74206861766520726f6c60448201527f65000000000000000000000000000000000000000000000000000000000000006064820152608401610119565b6001600160a01b0316600090815260209190915260409020805460ff19169055565b600060208284031215610367578081fd5b81356001600160a01b038116811461037d578182fd5b939250505056fea264697066735822122030570aaa07c4c34fc9419b3e0711224855bfac64306349be01e792cb1f3ef74664736f6c63430008040033",
  "linkReferences": {},
  "deployedLinkReferences": {}
}