{
  "_format": "hh-sol-artifact-1",
  "contractName": "RetailerRole",
  "sourceName": "contracts/access/RetailerRole.sol",
  "abi": [
    {
      "inputs": [],
      "stateMutability": "nonpayable",
      "type": "constructor"
    },
    {
      "anonymous": false,
      "inputs": [
        {
          "indexed": true,
          "internalType": "address",
          "name": "harvester",
          "type": "address"
        },
        {
          "indexed": true,
          "internalType": "address",
          "name": "account",
          "type": "address"
        }
      ],
      "name": "ConsumerAddedByRetailer",
      "type": "event"
    },
    {
      "anonymous": false,
      "inputs": [
        {
          "indexed": true,
          "internalType": "address",
          "name": "account",
          "type": "address"
        }
      ],
      "name": "RetailerAdded",
      "type": "event"
    },
    {
      "anonymous": false,
      "inputs": [
        {
          "indexed": true,
          "internalType": "address",
          "name": "account",
          "type": "address"
        }
      ],
      "name": "RetailerRemoved",
      "type": "event"
    },
    {
      "inputs": [
        {
          "internalType": "address",
          "name": "account",
          "type": "address"
        }
      ],
      "name": "addRetailer",
      "outputs": [],
      "stateMutability": "nonpayable",
      "type": "function"
    },
    {
      "inputs": [
        {
          "internalType": "address",
          "name": "account",
          "type": "address"
        }
      ],
      "name": "isRetailer",
      "outputs": [
        {
          "internalType": "bool",
          "name": "",
          "type": "bool"
        }
      ],
      "stateMutability": "view",
      "type": "function"
    },
    {
      "inputs": [
        {
          "internalType": "address",
          "name": "account",
          "type": "address"
        }
      ],
      "name": "removeRetailer",
      "outputs": [],
      "stateMutability": "nonpayable",
      "type": "function"
    }
  ],
  "bytecode": "0x608060405234801561001057600080fd5b5061001a3361001f565b610185565b61003781600061006e60201b6101191790919060201c565b6040516001600160a01b038216907f71ae26cad02663e3d92efd6ec56031a80d74a20c0ab4183faa8bf262261c9baa90600090a250565b6001600160a01b0381166100d45760405162461bcd60e51b815260206004820152602260248201527f526f6c65733a206163636f756e7420697320746865207a65726f206164647265604482015261737360f01b60648201526084015b60405180910390fd5b6100de8282610150565b1561012b5760405162461bcd60e51b815260206004820152601f60248201527f526f6c65733a206163636f756e7420616c72656164792068617320726f6c650060448201526064016100cb565b6001600160a01b0316600090815260209190915260409020805460ff19166001179055565b60006001600160a01b03821661016557600080fd5b506001600160a01b03166000908152602091909152604090205460ff1690565b6103d5806101946000396000f3fe608060405234801561001057600080fd5b50600436106100415760003560e01c80635da09b881461004657806370099ec81461006d5780638ec4f50514610082575b600080fd5b610059610054366004610371565b610095565b604051901515815260200160405180910390f35b61008061007b366004610371565b6100a7565b005b610080610090366004610371565b6100fb565b60006100a181836101fb565b92915050565b6100b033610095565b6100b957600080fd5b6100c4600082610230565b6040516001600160a01b038216907fdb7176e79cffef81cb01767dd0447a0b24bb72ca9778d4b245581086b2a7e6db90600090a250565b61010433610095565b61010d57600080fd5b6101168161032f565b50565b6001600160a01b03811661017f5760405162461bcd60e51b815260206004820152602260248201527f526f6c65733a206163636f756e7420697320746865207a65726f206164647265604482015261737360f01b60648201526084015b60405180910390fd5b61018982826101fb565b156101d65760405162461bcd60e51b815260206004820152601f60248201527f526f6c65733a206163636f756e7420616c72656164792068617320726f6c65006044820152606401610176565b6001600160a01b0316600090815260209190915260409020805460ff19166001179055565b60006001600160a01b03821661021057600080fd5b506001600160a01b03166000908152602091909152604090205460ff1690565b6001600160a01b0381166102915760405162461bcd60e51b815260206004820152602260248201527f526f6c65733a206163636f756e7420697320746865207a65726f206164647265604482015261737360f01b6064820152608401610176565b61029b82826101fb565b61030d5760405162461bcd60e51b815260206004820152602160248201527f526f6c65733a206163636f756e7420646f6573206e6f74206861766520726f6c60448201527f65000000000000000000000000000000000000000000000000000000000000006064820152608401610176565b6001600160a01b0316600090815260209190915260409020805460ff19169055565b61033a600082610119565b6040516001600160a01b038216907f71ae26cad02663e3d92efd6ec56031a80d74a20c0ab4183faa8bf262261c9baa90600090a250565b600060208284031215610382578081fd5b81356001600160a01b0381168114610398578182fd5b939250505056fea264697066735822122030444270391368b8829abbbbcfd906b99b6e086302e847df29202456b6df229d64736f6c63430008040033",
  "linkReferences": {},
  "deployedLinkReferences": {}
}